:080000004E2504000000000081
:0400EC0038020000D6
:10040000F0FF2F001862AE00FEFF37001922AF0088
:10041000040037001742AE00020037001902AE0098
:10042000F8FF37001822AE00FEFF37001082BF0031
:1004300018C2AF0018C2A9001782A8000000060069
:10044000F0FF2F001862AE00080037001842AE001F
:10045000060037001742AE00020037001902AE0056
:1004600002003700911088001782A80000000600E3
:100470004200F8003600F8003200F800801F7800D3
:10048000200020000C000900B01F780018A2AF0067
:1004900004003700786DEF001842AE00010037000D
:1004A00078EDA80078CDBF000160EF00786DEC001A
:1004B0002DEFB700647980004822DE000308200099
:1004C000041CE1002F00390011002000811F78007A
:1004D000CF00780000020200000000002CEFB700FF
:1004E000647980004822DE006124E10003003A00C4
:1004F0002CCFBF000DEDB7004F6DEF006479800089
:100500004822DE006224E10007003A0064688000AF
:100510004822DE00E3D02000830242002C8FBF007F
:10052000804298004F6DEF00647980004822DE0021
:100530006124E10003003A002CCFBF000DEDB700AD
:1005400010003700647980004822DE006224E10058
:100550000C003900647980004822DE0004C8B20033
:10056000080032000DCDBF000D6DEC000080FB00D7
:10057000E4D02000840240002C8FBF00804298000D
:100580004F6DEF00647980004822DE0003082000F0
:10059000041CE10001003E00020037000040EB00B7
:1005A0000100370010C0B30080427800746A8000F8
:1005B0006124E10002003A000040EB000100370036
:1005C00010C0B30000C062000004E0000900320067
:1005D0004FCDBF004F6DEC000080FB00C4CC20006D
:1005E000040040009042780085407800200202001C
:1005F00000000000647980004822DE00030820002B
:10060000041CE10001003E00020037000040EB0046
:100610000100370010C0B30080427800746A800087
:100620006124E100020032000040EB0001003700CD
:1006300010C0B30000C062000004E00004003200FB
:1006400091C3B30020020200000000004E6DEF00D5
:100650008A20A900A00120000C0009004F1078009A
:100660004F0078003200F9003600F9004200F9002E
:1006700000400600851F7800822DEF00146C80007A
:10068000130420000418E10006003400C4CC20004C
:10069000136C80008482410080CAEB00822DEC0044
:1006A000F6FF3700CF027800000006000000E000EF
:1006B0004220AF00040037007B3E0900000000002C
:1006C0000000E900FCFF3A0000000600C982A90012
:1006D000CD82A900C8A2A900CCA2A900C962A90024
:1006E000CD62A800C942A900CD42A900C8A2A900B4
:1006F000CCA2A800A00F20005603020000000000BA
:10070000C8A2A900CCA2A900C982A900CD82A900D3
:10071000A00F20005603020000000000C982A900BB
:10072000CD82A900C942A900CD42A800A00F200097
:100730005603020000000000C962A900CD62A900B2
:10074000C942A900CD42A900C8A2A900CCA2A90013
:10075000A00F200056030200000000000000060069
:10076000447480006320E10003003400447480007E
:100770006400520088AEB700880EE20004003A0020
:10078000C9E2A900CDE2A900C9C2A900CDC2A90051
:10079000447480006120E10004003A00C9E2A9002D
:1007A000CDE2A800C9C2A900CDC2A900447480004E
:1007B0006220E10004003A00C9E2A900CDE2A900EC
:1007C000C9C2A900CDC2A800447480006320E10022
:1007D00004003A00C9E2A900CDE2A800C9C2A900FC
:1007E000CDC2A80000000600F0FF2F000862AE0096
:1007F0000500370009C2AF00FEFF37001110880066
:1008000009C2AF00FEFF37000000200009E2AF0080
:100810000000E80000000600840DF800880EF900D2
:10082000B0030200000000000862AE0004003700C0
:100830000622A8000622AF00FEFF370003003700A3
:100840000602A8000602AF00FEFF370021C5B30074
:10085000F40302000000000001C8B300F40302002A
:100860000000000011C0B300F4030200000000000B
:10087000F00120000602B600FDFF3A000642A80083
:100880000642AF00FEFF37007E3B0900000000007B
:10089000FF3F090000000000FF3F090000000000CA
:1008A0000862AE00040037000622A8000622AF004E
:1008B000FEFF3700030037000602A8000602AF0063
:1008C000FEFF370021C5B300F40302000000000062
:1008D000D1C8B300F4030200000000008040EB0028
:1008E000F403020000000000F00120000602B60040
:1008F000FDFF3A000642A8000642AF00FEFF3700A7
:1009000000000600842DEF000C040200000000002F
:1009100014002000246C88000C0402000000000079
:1009200034002000246C88000C0402000000000049
:100930007E3B090000000000FF3F090000000000AE
:10094000FF3F09000000000000000600851F78003E
:10095000C500200003000900B51F78000202B8009E
:1009600003F0A600020037000383B900010037003E
:100970000303B8004200A9008502430060844B00D5
:1009800001F0A60002003700028BB9000100370019
:10099000020BB80085024B0008844B000980B000B0
:1009A000038BB90008044B0087834C008701780053
:1009B00008017800850078000400780025012000F7
:1009C00003000900CF127800CF0278000000060073
:1009D00001E02F0083814000F1072000E080480003
:1009E000910188000500A1000500E000030032002D
:1009F000331ABA008582E900FCFF3A0000000600C5
:100A0000851F7800861F7800871F78008A2DEF00E9
:100A1000546C80006220E10019003D00C5D8200020
:100A2000546C80006220B80005004000800278000D
:100A3000546C80006223B8002000200001002000D8
:100A4000326C8000436C8000A604020000000000AD
:100A500006034000E0834800851F78008601780087
:100A60000400200025002000E8040200000000002F
:100A7000CF027800800A78008A2DEC00E4FF37006E
:100A80008C8DBF00716C8000CF0378004F0378001D
:100A9000CF02780000000600000178008101780094
:100AA000014078000080FD0000F0A0008180D200AD
:100AB0000180FD008180FB00E4082000814052009D
:100AC000060032000000E000040032004200A900ED
:100AD0000080D3008100E900FAFF3A0003F0A6008D
:100AE000020037000000EA000000370000000600A6
:100AF000862DEF00882DEF000005020000000000A9
:100B00007EACB7000164880014002000346C8800BB
:100B1000882DEF00000502000000000082ACB70045
:100B20002164880024002000346C8800882DEF00A8
:100B3000000502000000000086ACB7004164880098
:100B400034002000346C8800882DEF00000502007E
:100B5000000000008AACB7006164880044002000F7
:100B6000346C8800882DEF000005020000000000B2
:100B70008EACB7008164880054002000346C88007B
:100B8000882DEF00000502000000000092ACB700C5
:100B9000A164880064002000346C8800882DEF0078
:100BA000000502000000000096ACB700C164880098
:100BB00074002000346C8800882DEF0000050200CE
:100BC000000000009AACB700E164880084002000B7
:100BD000346C8800882DEF00000502000000000042
:100BE0009EACB7000165880094002000346C88003A
:100BF000882DEF000005020000000000A2ACB70045
:100C000021658800A4002000346C8800882DEF0046
:100C10000005020000000000A6ACB7004165880096
:100C2000B4002000346C8800882DEF00000502001D
:100C300000000000AAACB70061658800C400200075
:100C4000346C8800882DEF000005020000000000D1
:100C5000AEACB70081658800D4002000346C8800F9
:100C6000882DEF000005020000000000B2ACB700C4
:100C7000A1658800E4002000346C8800882DEF0016
:100C80000005020000000000B6ACB700C165880096
:100C9000F4002000346C8800882DEF00000502006D
:100CA00000000000BAACB700E16588000401200034
:100CB000346C8800882DEF00000502000000000061
:100CC000BEACB7000166880014012000346C8800B7
:100CD000882DEF000005020000000000C2ACB70044
:100CE0002166880024012000346C8800882DEF00E4
:100CF00000050200000000004C050200000000009A
:100D0000C6ACB70034012000346C8800882DEF0099
:100D100000050200000000004C0502000000000079
:100D2000C8ACB70044012000346C8800882DEF0067
:100D300000050200000000004C0502000000000059
:100D4000CAACB700D4CC2C00A46A8800C4DC230051
:100D5000B46A880004002A00846A8800C45324000E
:100D6000946A88005C2DEF00040A2400F46A88006D
:100D700004002300C46A880044552400D46A880013
:100D8000642DEF0004122400346B880004002E0050
:100D9000046B880044572400146B88006C2DEF000E
:100DA000842C2400746B880004002C00446B8800A1
:100DB000E4572400546B88000020EF000000060078
:100DC000851F7800861F7800E10820000600A1003A
:100DD00000F0A600030037000600A0000000EA00B3
:100DE000000037000000E0001400320000F0A7000F
:100DF000040037004200A9000080D2008100E90011
:100E0000FAFF37000180FD004200A9008180D30075
:100E100000F0A1000080FD00814068000040B200A9
:100E20000600A70001F0A00007003700014078008D
:100E30000170A0000140B200030037000000EB0089
:100E40008000EB00000037004F037800CF027800ED
:100E500000000600851F7800C5002000030009007F
:100E6000B51F78008004EB00080028004300AF00A5
:100E700083016C000000E00003003A00FAFF270045
:100E80000A8560004220AE00010578008A8569006D
:100E90000103780083037800030678004220A9004C
:100EA0004200A9000683D2000680FD00F60FB200C2
:100EB0000600E000A10032004220A9004200A90083
:100EC0008783D2000780FD00F70FB2000700E00023
:100ED0009F0032004220A9004200A9000638E1002C
:100EE0009C003200A30033000900A1000910A000FB
:100EF0000684530007037800F10FB2000170A000D0
:100F0000F30FB2000370A000870220000838E10050
:100F1000110033004220A9004200A9008180D300C3
:100F20000080D3000804E900FAFF3A000D00370002
:100F3000870220000838E100090033004220A900A0
:100F40004200A9008381D3000281D3000804E90094
:100F5000FAFF3A000F0037000200780083007800A3
:100F6000430037000BF0A600110037000940A7002E
:100F70008C0578000000EA000200320081C0EA001F
:100F8000010037008100EA000940A7002B0037006C
:100F9000070037000BF0A600050037000201EA0049
:100FA0000200320083C1EA00010037008301EA0039
:100FB000F50FB2004220A9004200A9000200400043
:100FC00083C048004200AF000930A0000900A7001C
:100FD000090037000910A700010037000B00370097
:100FE0000BF0A700150037000930A70029003700D3
:100FF0000960A0001E0037000BF0A7000F003700AB
:101000000930A70023003700190037000920A1008C
:101010000BF0A700040037008A0578000930A7000C
:101020001C003700360037000940A00001C8B2009C
:101030000170A700CDFF37008A057800F10FB200DC
:10104000810370000A0032000170A7000800370019
:101050004220A9004200A9000080D2008180D20075
:101060000603E9004220AF0031003700F6FF3700E9
:101070000900A7008A0578000910A7008C057800F0
:101080000950A6001A0037000AF0A7000080A0004F
:101090001B0037004200A80081C0D3000080D300AD
:1010A0004200AF000950A0000603E8002000320013
:1010B0000950A600080037000000E80006003A00CA
:1010C0008140E80004003A0081C0D3000080D300D2
:1010D0000603E800160032000900A7008A05780020
:1010E0000910A7008C0578004220AF0010003700DF
:1010F0000960A7008A0578000970A7008C057800B0
:1011000001017000230032000170A1000680FD0083
:101110004220A9004200A9000683D30081006B0091
:1011200001F0A0000BF0A60001F0A10019003700AB
:101130000000200001002000160037000AF0A70080
:1011400083016C00020078008300780011003700F2
:1011500010003700F30FB2000370A000F10FB200CF
:101160000170A0000BF0A7000370A1000920A000EF
:1011700088FF370007045300F10FB2000170A00090
:10118000F30FB2000370A0000910A1000900A00035
:1011900067FF37002501200003000900CF12780007
:1011A000CF02780000000600851F7800861F7800B7
:1011B000E10820000000E0001200320000F0A7006B
:1011C000040037004200A9000080D2008100E9003D
:1011D000FAFF37000180FD004200A9008180D300A2
:1011E00000F0A1000080FD00814068000040B200D6
:1011F00007003700014078000170A0000140B200F4
:10120000030037000000EB008000EB000000370017
:101210004F037800CF02780000000600851F780099
:10122000C500200004000900B51F78008004EB0011
:10123000838468000103780080027800030478004A
:10124000820378008180D2000180FD008180FB0054
:101250000100E0004E0032008381D2000380FD00D7
:101260008381FB000300E000490032000000EB0036
:1012700003C0500003003900F047B00044003100C3
:10128000030037001048B10041003900400032002F
:1012900085007800060178000270A000F20FB2000D
:1012A000F80FB2000870A0009A0120008001EB0046
:1012B0000002EB0087805000080159000200330053
:1012C0000400310004003A00878040000801490012
:1012D000010037000400A0000A05E9000700320001
:1012E0004200A9008180D2000281D2004200A90000
:1012F0000482D2008381D200EEFF37000005EB00AC
:101300000380A70001003700060037004200A90053
:101310008381D3000370A1000482D3000A85D20028
:10132000020037000000E900190032000AF0A700AF
:10133000050039008180D2000281D20087805000F0
:1013400008015900090039000402E80007003A00CA
:101350008301E80005003A000000E8000C003200BC
:10136000020037000000E900090032000080FD00A3
:101370008080D30001F0A00009F0A60001F0A100D8
:101380000370A10081C069000400780003003700E9
:10139000000020000100200000003700450120006F
:1013A00004000900CF127800CF0278000000060088
:1013B0007F6EEF00147480006320E10004003A00A7
:1013C00040C6B3007FEEB70030C0B30080EEB70078
:1013D000147480006120E10004003A0040C6B300AC
:1013E0007FEEB70030C0B30080EEB700820EE2009F
:1013F00004003A0040C6B3007FEEB70030C0B3002F
:1014000080EEB7007FCEBF000160EF00D40802007D
:101410000000000084AEB70031748800848EBF00E5
:1014200031748000A2992900930124000E09020062
:101430000000000084AEB70031748800848EBF00C5
:10144000317480004C050200000000007FEEB70000
:1014500004002000F3738000C819DE00034052002E
:101460007EEEB700820EF800880EF900B00302008D
:10147000000000000862AE00040037000622A80049
:101480000622AF00FEFF3700030037000602A80067
:101490000602AF00FEFF370021C5B300F4030200CF
:1014A0000000000011C8B300F403020000000000B7
:1014B0007ECEBF0002E0B700F4030200000000008F
:1014C000F00120000602B600FDFF3A000642A80027
:1014D0000642AF00FEFF37000862AE00040037008E
:1014E0000622A8000622AF00FEFF370003003700E7
:1014F0000602A8000602AF00FEFF370021C5B300B8
:10150000F40302000000000031C8B300F40302003D
:101510000000000080C0EB00F403020000000000A7
:10152000F00120000602B600FDFF3A000642A800C6
:101530000642AF00FEFF37000862AE00040037002D
:101540000622A8000622AF00FEFF37000300370086
:101550000602A8000602AF00FEFF370021C5B30057
:10156000F403020000000000F1C8B300F40302001D
:101570000000000080CEBF0002E0B700F4030200CC
:1015800000000000F00120000602B600FDFF3A0056
:101590000642A8000642AF00FEFF3700000006002A
:1015A000F0FF2F000862AE001100370032108000FB
:1015B0007F016100FDFF3A000662A8000100A7005C
:1015C00006A2A9000100A60006A2A8003210800011
:1015D0007F016100FDFF3A000682A8000822AE00EC
:1015E000FEFF37000082BF0008C2AF0008C2A9009A
:1015F000000006007E8EBF002080B200070032008F
:101600003080B200620032002080B200BD003200A3
:101610007080B20018013200740137000862AE0019
:10162000040037000622A8000622AF00FEFF3700A4
:10163000030037000602A8000602AF00FEFF3700D5
:1016400021C5B300F40302000000000081C9B3000B
:10165000F403020000000000F00120000602B600C2
:10166000FDFF3A000642A8000642AF00FEFF370029
:101670000862AE00040037000622A8000622AF0070
:10168000FEFF3700030037000602A8000602AF0085
:10169000FEFF370031C5B300F40302000000000074
:1016A00001002000811F7800CF007800D00A0200DE
:1016B00000000000A6EAB700A76AEF00F0012000D2
:1016C0000602B600FDFF3A000642A8000642AF003F
:1016D000FEFF37000862AE00040037000622A800B3
:1016E0000622AF00FEFF3700030037000602A80005
:1016F0000602AF00FEFF370021C5B300F40302006D
:101700000000000091C9B300F403020000000000D3
:10171000F00120000602B600FDFF3A000642A800D4
:101720000642AF00FEFF37000862AE00040037003B
:101730000622A8000622AF00FEFF37000300370094
:101740000602A8000602AF00FEFF370031C5B30055
:10175000F40302000000000001002000811F780057
:10176000CF007800D00A020000000000A8EAB7000D
:10177000A96AEF00F00120000602B600FDFF3A0062
:101780000642A8000642AF00FEFF370018013700EE
:101790000862AE00040037000622A8000622AF004F
:1017A000FEFF3700030037000602A8000602AF0064
:1017B000FEFF370021C5B300F40302000000000063
:1017C00061C9B300F403020000000000F001200032
:1017D0000602B600FDFF3A000642A8000642AF002E
:1017E000FEFF37000862AE00040037000622A800A2
:1017F0000622AF00FEFF3700030037000602A800F4
:101800000602AF00FEFF370031C5B300F40302004B
:101810000000000001002000811F7800CF00780048
:10182000D00A020000000000A6EAB700A76AEF0095
:10183000F00120000602B600FDFF3A000642A800B3
:101840000642AF00FEFF37000862AE00040037001A
:101850000622A8000622AF00FEFF37000300370073
:101860000602A8000602AF00FEFF370021C5B30044
:10187000F40302000000000071C9B300F403020089
:1018800000000000F00120000602B600FDFF3A0053
:101890000642A8000642AF00FEFF37000862AE0015
:1018A000040037000622A8000622AF00FEFF370022
:1018B000030037000602A8000602AF00FEFF370053
:1018C00031C5B300F4030200000000000100200055
:1018D000811F7800CF007800D00A020000000000CD
:1018E000A8EAB700A96AEF00F00120000602B600DE
:1018F000FDFF3A000642A8000642AF00FEFF370097
:10190000BB0037000862AE00040037000622A800C2
:101910000622AF00FEFF3700030037000602A800D2
:101920000602AF00FEFF370021C5B300F40302003A
:1019300000000000A1C9B300F40302000000000091
:10194000F00120000602B600FDFF3A000642A800A2
:101950000642AF00FEFF37000862AE000400370009
:101960000622A8000622AF00FEFF37000300370062
:101970000602A8000602AF00FEFF370031C5B30023
:10198000F40302000000000001002000811F780025
:10199000CF007800D00A020000000000A6EAB700DD
:1019A000A76AEF00F00120000602B600FDFF3A0032
:1019B0000642A8000642AF00FEFF37000862AE00F4
:1019C000040037000622A8000622AF00FEFF370001
:1019D000030037000602A8000602AF00FEFF370032
:1019E00021C5B300F403020000000000B1C9B30038
:1019F000F403020000000000F00120000602B6001F
:101A0000FDFF3A000642A8000642AF00FEFF370085
:101A10000862AE00040037000622A8000622AF00CC
:101A2000FEFF3700030037000602A8000602AF00E1
:101A3000FEFF370031C5B300F403020000000000D0
:101A400001002000811F7800CF007800D00A02003A
:101A500000000000A8EAB700A96AEF00F00120002A
:101A60000602B600FDFF3A000642A8000642AF009B
:101A7000FEFF37005E0037000862AE00040037004A
:101A80000622A8000622AF00FEFF37000300370041
:101A90000602A8000602AF00FEFF370021C5B30012
:101AA000F40302000000000041C9B300F403020087
:101AB00000000000F00120000602B600FDFF3A0021
:101AC0000642A8000642AF00FEFF37000862AE00E3
:101AD000040037000622A8000622AF00FEFF3700F0
:101AE000030037000602A8000602AF00FEFF370021
:101AF00031C5B300F4030200000000000100200023
:101B0000811F7800CF007800D00A0200000000009A
:101B1000A6EAB700A76AEF00F00120000602B600AF
:101B2000FDFF3A000642A8000642AF00FEFF370064
:101B30000862AE00040037000622A8000622AF00AB
:101B4000FEFF3700030037000602A8000602AF00C0
:101B5000FEFF370021C5B300F403020000000000BF
:101B600051C9B300F403020000000000F00120009E
:101B70000602B600FDFF3A000642A8000642AF008A
:101B8000FEFF37000862AE00040037000622A800FE
:101B90000622AF00FEFF3700030037000602A80050
:101BA0000602AF00FEFF370031C5B300F4030200A8
:101BB0000000000001002000811F7800CF007800A5
:101BC000D00A020000000000A8EAB700A96AEF00EE
:101BD000F00120000602B600FDFF3A000642A80010
:101BE0000642AF00FEFF370001003700000037005B
:101BF00000000600851F7800C500200003000900D2
:101C0000B51F78000202B8000303B8004200A90023
:101C10008502430060844B00020BB80085024B0034
:101C200008844B00030BB800080443000780B00091
:101C300087017800080178008500780004007800AA
:101C40002501200003000900CF127800CF027800A0
:101C500000000600851F7800861F780077CEBF0041
:101C6000004278008401FB0013748800D809020048
:101C7000000000000862AE00040037000622A80041
:101C80000622AF00FEFF3700030037000602A8005F
:101C90000602AF00FEFF370021C5B300F4030200C7
:101CA0000000000001C8B300F403020000000000BF
:101CB00031C0B300F403020000000000F001200076
:101CC0000602B600FDFF3A000642A8000642AF0039
:101CD000FEFF3700A00020005603020000000000B5
:101CE000782EEF00C4738000833E20000418E100CA
:101CF000340034000862AE00040037000622A80059
:101D00000622AF00FEFF3700030037000602A800DE
:101D10000602AF00FEFF370021C5B300F403020046
:101D20000000000031C9B300F4030200000000000D
:101D3000F00120000602B600FDFF3A000642A800AE
:101D40000642AF00FEFF37000862AE000400370015
:101D50000622A8000622AF00FEFF3700030037006E
:101D60000602A8000602AF00FEFF370031C5B3002F
:101D7000F40302000000000001002000811F780031
:101D8000CF007800D00A0200000000007AEEB70011
:101D90007B6EEF00F00120000602B600FDFF3A0066
:101DA0000642A8000642AF00FEFF3700D473800051
:101DB0007120E10001003A0002003700782EEC00AB
:101DC000C8FF3700C4738000E33D20000418E10021
:101DD00002003D0000E0EF00A00037000862AE0006
:101DE000040037000622A8000622AF00FEFF3700DD
:101DF000030037000602A8000602AF00FEFF37000E
:101E000021C5B300F40302000000000001C8B300C4
:101E1000F40302000000000011C0B300F40302004C
:101E200000000000F00120000602B600FDFF3A00AD
:101E30000642A8000642AF00FEFF37007E3B0900C5
:101E400000000000FF3F090000000000FF3F090004
:101E50000000000077CEBF00004278008401FB0044
:101E60000374880023002000F3738800FA0A02003C
:101E700000000000445580000310200003A0B900BA
:101E80003455800004004000ACAAB70077CEBF00F4
:101E9000004278008401FB000374880013002000D6
:101EA000F3738800FA0A0200000000004455800025
:101EB0000310200003A0B900345580000400400046
:101EC000AAAAB70077CEBF00004278008401FB00C9
:101ED0000374880043002000F3738800FA0A0200AC
:101EE00000000000445580000310200003A0B9004A
:101EF0003455800004004000B0AAB70077CEBF0080
:101F0000004278008401FB00037488003300200045
:101F1000F3738800FA0A02000000000044558000B4
:101F20000310200003A0B9003455800004004000D5
:101F3000AEAAB70076CEBF000000FB000000E000B4
:101F400002003A0014002000E473880076CEBF003F
:101F50000000FB006100E10002003A0044002000A4
:101F6000E473880076CEBF000000FB006200E10051
:101F700002003A0004012000E473880076CEBF001E
:101F80000000FB006300E10002003A0004042000AE
:101F9000E473880055558000060020007C8EBF0049
:101FA0000100200000017800810178000500780020
:101FB00086007800FA0D0200000000008CABB7002C
:101FC000715C880065558000060020007C8EBF0093
:101FD00001002000000178008101780005007800F0
:101FE00086007800FA0D02000000000094ABB700F4
:101FF000B15C880075558000060020007C8EBF0013
:1020000001002000000178008101780005007800BF
:1020100086007800FA0D02000000000090ABB700C7
:10202000915C880085558000060020007C8EBF00F2
:10203000010020000001780081017800050078008F
:1020400086007800FA0D02000000000098ABB7008F
:10205000D15C880076CEBF0000E0B7004F03780067
:10206000CF02780000000600851F7800861F7800E8
:1020700000027800810278000000EB008000EB0095
:102080000600A10005F0A600060037000600A0002B
:102090000402EA00020032008582EA0001003700F3
:1020A0008502EA0085017200130032000001EB0096
:1020B000610B20000270A700070037004200A90052
:1020C0000482D2008582D2000080D2000281D20038
:1020D0008100E900F7FF3A000180FD004200A900FD
:1020E0008180D30001F0A1000270A100814069004D
:1020F0000600A70001F0A0004F037800CF0278008F
:1021000000000600851F7800C500200004000900BB
:10211000B51F780000027800810278008303780000
:10212000020378004200A9004220A9008180D20069
:102130000180FD00F10FB2000100E0004B00320011
:102140004200A9004220A9008381D2000380FD0043
:10215000F30FB2000300E000440032000080FB00F7
:1021600001C0410004003100F007B1003F0032001F
:102170003E003900020037001048B0003B0031003B
:1021800007856A004200A9004220A900F50FB200AD
:102190000570A0004200A900F70FB2000770A00070
:1021A0000621B800062CB80083014C008900780095
:1021B0004200AF008100E8004200A900043CB800E2
:1021C00083014C0081804C00072CB80081004C003A
:1021D0000000E8000100E0004220AF0001003700ED
:1021E000030037000300E0004220AF000500370085
:1021F00001F0A700030037008381D2008180D20064
:102200000000E900010178004200A9000370A60067
:102210000900370007F02F00878161000310B0002C
:10222000600149000200E00003003A000300E00002
:1022300001003A000000E8000080FD004200A90013
:102240004220A9008080D3000AF0A70001F0A0007E
:1022500002F0A1000280FD00814069000380FD00C2
:1022600003417800020078000300370000002000DE
:102270000100200000003700450120000400090093
:10228000CF127800CF02780000000600851F78008A
:102290008102780000017800640B20008180D20068
:1022A0000180FD00F10FB20001425200854178002B
:1022B0000370A000F30FB2000000EB008000EB0001
:1022C0007820E1000F0033004200A9008381D30091
:1022D0000281D3008180D3000080D3000402E90092
:1022E000F9FF3A0005F0A600060037000000EA00FA
:1022F000020032008180EA00020037008100EA001B
:1023000000003700CF02780000000600851F78002B
:10231000861F7800871F7800C4002000646D880045
:10232000842DEF00862DEF00882DEF008A2DEF0021
:102330008C2DEF008E2DEF00902DEF00922DEF00F1
:10234000AC8DBF00E00602000000000080027800B3
:10235000010378004300A80005007800860078009B
:1023600002002000030024002A07020000000000F1
:1023700094ADB700B16C8800A82DEF00A88DBF0008
:10238000646D80000020E1002600340082CDBF0093
:1023900076EEB70083CDBF0077EEB7002A0E0200BD
:1023A000000000000000FB00AAADB700446D8000F3
:1023B0006420B80004DB200084024000C4B8200080
:1023C000B41A7800B41A7800446D80006420B80014
:1023D00004DE20008402400044B92000B41A7800D2
:1023E000B41A7800446D80006420B80004E1200035
:1023F0008402400004B92000B41A7800B41A7800AE
:10240000446D80006420B80004E420008402400091
:1024100084B92000B41A7800B41A7800A82DEC0012
:10242000D6FF3700742EEF00740EE20090003A00E1
:1024300014002000A4738800A82DEF00446D8000D4
:102440006B20E10089003D00446D80006420B800ED
:1024500004E4200004004000A4002000301A7800AA
:10246000301A7800446D8000E103420007027800D2
:102470006420B80004E4200004004000000278005A
:1024800003002000B4197800B41978000608E100B0
:1024900074003C00020035000500E10071003100CD
:1024A000742EEF00446D80006420B80004E4200026
:1024B0000400400004E72000301A7800301A780049
:1024C000446D80006420B80004E4200084024000D1
:1024D000446D800061034200060278006420B80069
:1024E00004E4200004004000B01A7800B01A78001C
:1024F000446D8000E1024200050278006420B800CB
:1025000004E420008402400004E72000B41A7800AC
:10251000B41A7800446D80006420B80004DB200009
:102520000400400004E72000301A7800301A7800D8
:10253000446D80006420B80004DB20008402400069
:10254000446D800061034200060278006420B800F8
:1025500004DB200004004000B01A7800B01A7800B4
:10256000446D8000E1024200050278006420B8005A
:1025700004DB20008402400004E72000B41A780045
:10258000B41A7800446D80006420B80004DE200096
:102590000400400004E72000301A7800301A780068
:1025A000446D80006420B80004DE200084024000F6
:1025B000446D800061034200060278006420B80088
:1025C00004DE200004004000B01A7800B01A780041
:1025D000446D8000E1024200050278006420B800EA
:1025E00004DE20008402400004E72000B41A7800D2
:1025F000B41A7800446D80006420B80004E1200023
:102600000400400004E72000301A7800301A7800F7
:10261000446D80006420B80004E120008402400082
:10262000446D800061034200060278006420B80017
:1026300004E1200004004000B01A7800B01A7800CD
:10264000446D8000E1024200050278006420B80079
:1026500004E120008402400004E72000B41A78005E
:10266000B41A7800A82DEC0074FF37006EFF370015
:1026700014002000446D8800446D80006B20E10050
:1026800068003D00446D80006420B80004DB200039
:10269000040040000002780003002000B419780014
:1026A000B4197800341002000000000098ADB700A3
:1026B000D16C8800446D80006420B80004E42000E0
:1026C000040040000002780003002000B4197800E4
:1026D000B41978003410020000000000A4ADB70067
:1026E000316D8800446D80006420B80004DE200055
:1026F000040040000002780003002000B4197800B4
:10270000B419780034100200000000009CADB7003E
:10271000F16C8800446D80006420B80004E1200062
:10272000040040000002780003002000B419780083
:10273000B41978003410020000000000A0ADB7000A
:10274000116D8800988DBF00D16C8000226D8000D3
:10275000336D80000E090200000000004300A90054
:102760000001780081017800848DBF00316C800009
:102770002A0702000000000084ADB700316C880019
:10278000A08DBF00116D8000226D8000336D800030
:102790000E090200000000004300A90000017800BB
:1027A00081017800888DBF00516C80002A070200EB
:1027B0000000000088ADB700516C88009C8DBF0000
:1027C000F16C8000226D8000336D80000E090200E4
:1027D000000000004300A90000017800810178009A
:1027E0008C8DBF00716C80002A0702000000000081
:1027F0008CADB700716C88004300A900908DBF00BC
:10280000916C8000226D8000336D80002A070200E9
:102810000000000090ADB700916C8800A82DEC007E
:1028200095FF3700848DBF00316C800002002400CA
:10283000C3612400821002000000000080027800C2
:10284000010378000500780086007800A26C800003
:10285000B36C80000E0902000000000084ADB700D8
:10286000316C8800888DBF00516C8000020024000C
:10287000C361240082100200000000008002780082
:10288000010378000500780086007800A26C8000C3
:10289000B36C80000E0902000000000088ADB70094
:1028A000516C88008C8DBF00716C80000200240088
:1028B000C361240082100200000000008002780042
:1028C000010378000500780086007800A26C800083
:1028D000B36C80000E090200000000008CADB70050
:1028E000716C8800908DBF00916C8000A26C80009C
:1028F000B36C80000E0902000000000090ADB7002C
:10290000916C8800848DBF00316C800046110200FC
:10291000000000008CABB700715C8800888DBF00A0
:10292000516C8000461102000000000090ABB7001F
:10293000915C88008C8DBF00716C80004611020094
:102940000000000094ABB700B15C8800908DBF0020
:10295000916C8000461102000000000098ABB700A7
:10296000D15C8800CF0378004F037800CF02780055
:102970000000060011728000F101B200F20F200089
:102980000201E8007200B2004511DD008280700093
:10299000411A8800A0002000560302000000000039
:1029A000462EEF00482EEF00447280000302200004
:1029B0000418E1000B0034009E0009000000000034
:1029C0004003A9004023A8004003AE00FEFF3700EB
:1029D0000083BF004200DE00462EB400482EEC000B
:1029E000F1FF3700468EBF004500DE0044AEB70061
:1029F000440EF8000000F90000000600851F780072
:102A0000861F7800871F78000382680004F0A60004
:102A1000060037004200A9004220A90001F0A600EC
:102A2000260037004200A800240037000102780089
:102A30008002780003037800820378008180D2004E
:102A40000180FD008381D2000380FD0081C0510020
:102A50000500320004F0A600180037001000200026
:102A600042E0B600150037008440780086417800C7
:102A70000170A1000370A10081C051000500320067
:102A800004F0A6000D0037001000200042E0B60060
:102A90000A003700858053000500320004F0A600CC
:102AA000060037001000200042E0B60003003700A7
:102AB0004200A9000100370000003700CF03780072
:102AC0004F037800CF02780000000600851F7800D1
:102AD000861F7800950EA900960EF8009A0EF90050
:102AE000980EF8009C0EF900968EBF00C17480000D
:102AF0000200200003002000FE140200000000007D
:102B000006003900950EA800A0E92000A1E92000E8
:102B100003000900B01878009DEEAA009A8EBF004D
:102B2000E17480000200200003702400FE14020003
:102B3000000000000100310009003A009A8EBF0039
:102B4000E17480004C05020000000000D40802007F
:102B5000000000009EAEB7000175880049003700F4
:102B60009A8EBF00E17480000268290083B12400BE
:102B7000FE140200000000003E0039009A8EBF00E3
:102B8000E174800002002000038023008210020014
:102B9000000000004C05020000000000A2AEB700DB
:102BA0009A8EBF00E17480000200200003802300A1
:102BB000821002000000000080027800010378000B
:102BC000A28EBF00D4080200000000004300A8004D
:102BD0000001780081017800050078008600780007
:102BE0002A0702000000000000017800810178003F
:102BF000000020000170240082100200000000008C
:102C00009AAEB700E1748800A28EBF00D40802001B
:102C10000000000000017800810178000000200021
:102C20000170240082100200000000009EAEB70078
:102C3000017588009A8EBF00E17480004C05020087
:102C400000000000D4080200000000004300A900BA
:102C500000017800810178009E8EBF000175800020
:102C60002A070200000000009EAEB7000175880030
:102C7000040037009A0EF8009E0EF9009C0EF80032
:102C8000A00EF9009A8EBF00E17480004C0502008E
:102C900000000000D4080200000000004300A8006B
:102CA00000017800810178009A8EBF00E1748000F5
:102CB0002A070200000000009AAEB700E174880005
:102CC000950EAE0005003700E0E92000E1E92000A4
:102CD00003000900B0187800A1EEAA009A8EBF0088
:102CE000E17480000200200003002000FE140200B6
:102CF000000000001B003200950EAE000B003700F4
:102D0000944EE20009003A004300A8009E8EBF00E6
:102D1000017580000200200003F823002A0702004A
:102D2000000000009EAEB70001758800950EAF0050
:102D30000C003700A47480006124E10009003A000F
:102D40004300A9009E8EBF00017580000200200094
:102D500003F823002A070200000000009EAEB7001F
:102D600001758800968EBF00C174800002002000AB
:102D700003002000FE1402000000000002003A00E0
:102D80009E2EEF00A02EEF009E8EBF0001758000EA
:102D90004F037800CF0278000000060010C0B30097
:102DA00094EEB7008C0EF800960EF9008E0EF80027
:102DB000980EF90066150200000000000000BE0039
:102DC00000000600946EEF008C0EF800960EF900DD
:102DD0008E0EF800980EF900661502000000000043
:102DE0000000BE0000000600851F7800861F7800E6
:102DF0007E8EBF00017480000200200003002000CE
:102E0000FE140200000000003A0032007A8EBF007B
:102E1000E1738000F2738000037480000E090200E9
:102E200000000000800278000103780005007800AF
:102E3000860078000200200003002000FE1402003B
:102E4000000000000D0039007A8EBF00E1738000A1
:102E5000F2738000037480000E090200000000007D
:102E60008002780001037800657488007674880019
:102E7000CE160200000000000C0037007A8EBF0062
:102E8000E1738000F2738000037480000E09020079
:102E9000000000008002780001037800657488005B
:102EA00076748800E21602000000000082AEB700CF
:102EB00021748800828EBF0021748000F27380002C
:102EC0000374800082100200000000004300A8008C
:102ED00000017800810178007A8EBF00E1738000E4
:102EE0002A070200000000000000BE0001003700B9
:102EF000000037004F037800CF0278000000060082
:102F0000851F7800861F78007E0EF800820EF9007B
:102F1000800EF800840EF900828EBF0021748000BC
:102F20000200200003F82300FE140200000000004D
:102F3000B200320050E82000801F78001040780076
:102F40007BEEB7004F00780055E82000F0C3B300D7
:102F5000804A780040E82000D4738000004290004E
:102F6000D47388007AEEA90045E820007A8EBF006D
:102F7000804298007BEEAE000600370025E8200076
:102F80006380420080027800154278000448B30054
:102F9000844298004300A800828EBF002174800004
:102FA0000200200003F823002A07020000000000AE
:102FB00080027800010378004300A900828EBF00E0
:102FC000217480000200200003F823002A07020079
:102FD0000000000000017800810178000500780001
:102FE000860078000E0902000000000082AEB700E3
:102FF00021748800828EBF002174800012748000CA
:103000002374800082100200000000008EAEB70022
:1030100081748800D888BF00D14680007274800017
:10302000837480008210020000000000800278009B
:10303000010378004300A9000500780086007800AD
:10304000E2468000F34680002A07020000000000EC
:1030500086AEB70041748800E888BF005147800001
:1030600072748000837480008210020000000000EF
:1030700080027800010378004300A9000500780071
:103080008600780062478000734780002A070200AC
:10309000000000008AAEB700617488008A8EBF000D
:1030A000617480007274800083748000821002005A
:1030B0000000000080027800010378004300A900AE
:1030C00005007800860078000200200003F8230045
:1030D0002A070200000000008AAEB7006174880071
:1030E000828EBF002174800032748000437480009F
:1030F00082100200000000008002780001037800C6
:1031000005007800860078005274800063748000A7
:103110000E0902000000000086AEB700417488006E
:1031200010E82000D473800000429000D47388001F
:10313000A1E720009158D20000E82000801F78000D
:10314000104078007BEEB7004F0078007BEEAE00B9
:10315000010037007A0EA800D47380000960EF00E8
:10316000E3072000030052007CEEB7007CCEBF00D6
:103170000000FB006000E1000A003D0004002000A8
:10318000E3738000034052000000FB00E0060200F1
:10319000000000008AAEB700617488008DEEAA00BE
:1031A000060037007CCEBF000000FB00E0060200F6
:1031B000000000008AAEB700617488008A8EBF00EC
:1031C000617480008221270013F323008210020023
:1031D000000000004300A900000178008101780090
:1031E000868EBF00417480002A07020000000000A4
:1031F00086AEB7004174880002003700862EEF00CB
:10320000882EEF00868EBF00417480004F03780047
:10321000CF02780000000600851F7800861F780026
:103220007E8EBF0001748000B2A32A0083FB2300BE
:1032300082100200000000004C05020000000000A7
:103240007BEEB7007C0EA9007E0EF800820EF9001E
:10325000800EF800840EF9007E8EBF00017480009D
:103260000200200003002000FE1402000000000005
:103270000B0039007C0EA80004002000D3738000EE
:10328000C819DE00034052007BEEB70020E82000A2
:1032900021E8200003000900B018780085EEAA009C
:1032A000862EEF00882EEF007BCEBF000000FB00D3
:1032B000F007B0007AEEB7007A0EAE0006003700D5
:1032C00065E82000628042008002780015427800A4
:1032D0000448B30084429800A1E720009150D30035
:1032E0007AEEA90095E820007A8EBF00804298000F
:1032F000828EBF0021748000B2A32A0083FB2300CA
:1033000082100200000000008002780001037800B3
:103310007BCEBF000000FB00E006020000000000C2
:103320004300A800000178008101780005007800C2
:10333000860078002A0702000000000082AEB70075
:10334000217488006088BF001143800012748000DF
:1033500023748000821002000000000080027800C8
:10336000010378004300A90005007800860078007A
:1033700022438000334380002A070200000000003F
:103380008AAEB700617488008A8EBF0061748000C5
:10339000127480002374800082100200000000007C
:1033A00080027800010378004300A900050078003E
:1033B0008600780042438000534380002A070200C1
:1033C000000000008AAEB700617488008A8EBF00DA
:1033D00061748000127480002374800082100200E7
:1033E0000000000080027800010378004300A9007B
:1033F00005007800860078006243800073438000F7
:103400002A070200000000008AAEB700617488003D
:103410008A8EBF0061748000127480002374800063
:103420008210020000000000800278000103780092
:103430004300A900050078008600780082438000E0
:10344000934380002A070200000000008AAEB70004
:10345000617488008A8EBF006174800012748000DD
:1034600023748000821002000000000080027800B7
:10347000010378004300A900050078008600780069
:10348000A2438000B34380002A070200000000002E
:103490008AAEB70061748800828EBF0021748000FC
:1034A00052748000637480008210020000000000EB
:1034B0004300A9000001780081017800000020008D
:1034C00001F823002A070200000000000001780034
:1034D00081017800868EBF00417480008210020056
:1034E0000000000086AEB700417488007C0EAE007C
:1034F000080037000000200001F82300327480002B
:10350000437480000E0902000000000086AEB70080
:1035100041748800868EBF00417480004F0378009C
:10352000CF02780000000600851F7800861F780013
:10353000871F7800881F78006E8EBF00817380001F
:103540000200200003002000FE1402000000000022
:1035500056003900720EF8007A0EF900740EF80069
:103560007C0EF9007E2EEF0004F82300047488001E
:10357000F4160200000000008003780001047800C7
:103580000700780088007800020020000300200077
:10359000FE1402000000000044003A00720EF80021
:1035A0007A0EF900740EF8007C0EF9007E2EEF0002
:1035B0000400240004748800F416020000000000D7
:1035C0008003780001047800070078008800780004
:1035D0000200200003002000FE1402000000000092
:1035E00018003A00757380008673800006F0A20010
:1035F000F573880006748800801702000000000040
:1036000080027800010378000500780086007800C9
:1036100092738000A37380008210020000000000FB
:103620008002780001037800F57388000674880032
:103630000C190200000000000000BE00610037000D
:1036400019003700757380008673800006F0A200B1
:10365000F5738800067488008017020000000000DF
:103660008002780001037800050078008600780069
:1036700092738000A373800082100200000000009B
:103680008002780001037800F573880006748800D2
:103690000C190200000000000000BE0001F0A200B2
:1036A0000000BE0047003700460037006E8EBF00A6
:1036B000817380000200200003002000FE1402003D
:1036C0000000000016003900720EF8007A0EF900B2
:1036D000740EF8007C0EF9007E2EEF0004F8230033
:1036E00004748800F41602000000000080037800D3
:1036F00001047800070078008800780002002000AC
:1037000003002000FE14020000000000040032004C
:1037100000002000010020002A00370029003700A7
:103720006E8EBF0081738000020020000300200025
:10373000FE1402000000000008003A00728EBF0074
:10374000A17380000200200003002000FE1402008C
:10375000000000000100310017003A006E0EF80072
:103760007E0EF900700EF800800EF900801702003E
:103770000000000080027800010378000500780056
:103780008600780092738000A3738000821002008C
:10379000000000008002780001037800F5738800C3
:1037A000067488000C190200000000000000BE0032
:1037B0000400370003003700000020000100200053
:1037C000000037004F047800CF0378004F037800E3
:1037D000CF02780000000600851F7800861F780061
:1037E000871F7800881F7800C08ABF0011568000AC
:1037F0008256800093568000821002000000000074
:1038000080027800010378000500780086007800C7
:103810000257800013578000821002000000000051
:1038200076AEB700C1738800CC8ABF0071568000A5
:10383000E2568000F3568000821002000000000073
:103840008002780001037800050078008600780087
:103850004256800053568000821002000000000093
:103860004300A9000001780081017800768EBF0036
:10387000C17380002A070200000000008002780067
:1038800001037800D88ABF00D156800022568000FC
:103890003356800082100200000000008003780090
:1038A000010478000700780088007800A2568000A4
:1038B000B356800082100200000000004300A900FF
:1038C000000178008101780005007800860078000A
:1038D0002A0702000000000072AEB700A173880042
:1038E000C88ABF00515680008256800093568000DF
:1038F00082100200000000008002780001037800BE
:103900000500780086007800C2568000D3568000FB
:10391000821002000000000080027800010378009D
:10392000D48ABF00B1568000E2568000F356800072
:10393000821002000000000080037800010478007B
:103940000700780088007800025680001356800037
:1039500082100200000000004300A900000178006E
:103960008101780005007800860078002A070200AF
:10397000000000008002780001037800E08ABF00A8
:1039800011578000225680003356800082100200BA
:103990000000000080037800010478000700780030
:1039A0008800780062568000735680008210020002
:1039B000000000004300A9000001780081017800A8
:1039C00005007800860078002A0702000000000049
:1039D0007AAEB700E1738800C88ABF0051568000F4
:1039E0008256800093568000821002000000000082
:1039F00080027800010378000500780086007800D6
:103A0000C2568000D35680008210020000000000E1
:103A10008002780001037800D48ABF00B15680008C
:103A2000E2568000F3568000821002000000000081
:103A3000800378000104780007007800880078008F
:103A40000256800013568000821002000000000021
:103A50004300A9000001780081017800050078008A
:103A6000860078002A07020000000000800278002B
:103A700001037800E08ABF001157800022568000C1
:103A8000335680008210020000000000800378009E
:103A900001047800070078008800780062568000F2
:103AA0007356800082100200000000004300A9004D
:103AB0000001780081017800050078008600780018
:103AC0002A070200000000004300A800000178005F
:103AD00081017800728EBF00A17380002A07020066
:103AE0000000000072AEB700A1738800728EBF00A4
:103AF000A17380004F047800CF0378004F03780053
:103B0000CF02780000000600851F7800861F78002D
:103B10006E2EEF00747380006320E10019003D00F9
:103B2000702EEF00847380006320E10013003D00DD
:103B3000747380006C20B800800278008473800069
:103B40006420B8000500400004AC2000840240005E
:103B5000747380006C23B800847380006420B80004
:103B60000600400044AE200004004000B01A780077
:103B7000B01A7800702EEC00EAFF37006E2EEC00D1
:103B8000E4FF3700EC1B0200000000005EAEB7004F
:103B9000017388006E2EEF00747380006320E100D3
:103BA00019003D00702EEF00847380006320E10057
:103BB00013003D00747380006C20B8008002780010
:103BC000847380006420B8000500400004AC20002D
:103BD00084024000747380006C23B80084738000FA
:103BE0006420B8000600400044AE200004004000FD
:103BF000B01A7800B01A7800702EEC00EAFF370097
:103C00006E2EEC00E4FF3700702EEF00847380000E
:103C10006320E1000C003D00847380006420B80044
:103C200004AC200084024000847380006420B8004B
:103C300084B0200004004000B01A7800B01A780068
:103C4000702EEC00F1FF3700EC1B020000000000BA
:103C500062AEB70021738800628EBF0021738000BE
:103C6000F2728000037380000E0902000000000061
:103C700014ABB700B15888006E2EEF00747380004B
:103C80006320E10019003D00702EEF008473800076
:103C90006320E10013003D00747380006C20B800C5
:103CA00080027800847380006420B8000500400022
:103CB00004AC200084024000747380006C23B800C0
:103CC000847380006420B8000600400044AE2000E9
:103CD00004004000B01A7800B01A7800702EEC0092
:103CE000EAFF37006E2EEC00E4FF3700702EEF0085
:103CF000847380006320E1000C003D008473800029
:103D00006420B800C4AC20008402400084738000AA
:103D10006420B80084B0200004004000B01A78008D
:103D2000B01A7800702EEC00F1FF3700EC1B020097
:103D30000000000066AEB70041738800668EBF00C9
:103D400041738000F2728000037380000E0902004C
:103D50000000000018ABB700D15888006E2EEF00AD
:103D6000747380006320E10019003D00702EEF00A5
:103D7000847380006320E10013003D0074738000B1
:103D80006C20B80080027800847380006420B80042
:103D90000500400004AC20008402400074738000E1
:103DA0006C23B800847380006420B80006004000D3
:103DB00044AE200004004000B01A7800B01A780029
:103DC000702EEC00EAFF37006E2EEC00E4FF3700A7
:103DD000702EEF00847380006320E1000C003D0032
:103DE000847380006420B80084AD20008402400009
:103DF000847380006420B80084B020000400400078
:103E0000B01A7800B01A7800702EEC00F1FF37007D
:103E1000EC1B0200000000006AAEB700617388006E
:103E20006A8EBF0061738000F272800003738000AD
:103E30000E090200000000001CABB700F15888001A
:103E40004F037800CF02780000000600851F78003D
:103E5000C500200005000900B51F780034002000CF
:103E6000247288002400200064728800502DEF0026
:103E700084342400946A880004002800A46A88001E
:103E8000C4392400B46A8800582DEF00043E240091
:103E9000D46A880004002800E46A880004392400F9
:103EA000F46A880004002800046B88003441240070
:103EB000146B880004002800246B8800B4382400A8
:103EC000346B8800482EEF00488EBF00647280007B
:103ED0000020E10039003500462EEF00468EBF007D
:103EE000647280000020E100320035004E2EEF00A9
:103EF000502EEF004A2EEF004A8EBF002472800041
:103F00000020E1001E003400547280006820B800D8
:103F10008002780004D5200004804200C400200004
:103F2000301A7800301A7800468EBF00480EB40070
:103F3000E0060200000000000004BE007673880066
:103F40008773880098738800A9738800941A020008
:103F5000000000004300A900000178008101780002
:103F60004E8EBF00817280002A0702000000000010
:103F70004EAEB700817288004A2EEC00DEFF37009B
:103F8000347280006C20B800800278004472800097
:103F90006420B8000500400044AE200084024000C8
:103FA000E4E42000B41A7800B41A7800462EEC003D
:103FB000CAFF3700482EEC00C3FF3700448EBF0015
:103FC000E006020000000000C0AAB70011568800F9
:103FD000462EEF00468EBF00247280000020E100D4
:103FE0003C0034004E2EEF00502EEF004A2EEF0022
:103FF0004A8EBF00247280000020E1002C003400B3
:10400000547280006820B80080027800648042000A
:1040100004D5200004004000A4002000301A7800DD
:10402000301A7800547280006820B800800378004D
:1040300004D520000480430004012000301A7800D9
:10404000301A7800468EBF00E00602000000000033
:104050000005BE0078738800897388009A73880011
:10406000AB738800941A0200000000000001780081
:104070008101780005007800860078008210020037
:10408000000000004300A9000001780081017800D1
:104090004E8EBF00817280002A07020000000000DF
:1040A0004EAEB700817288004A2EEC00D0FF370078
:1040B000347280006420B80084B020008402400084
:1040C000E4E42000B41A7800B41A7800462EEC001C
:1040D000C0FF3700841D0200000000001C0BF80028
:1040E0005A0EF9001E0BF8005C0EF900180BF800D0
:1040F000560EF9001A0BF800580EF900140BF800D0
:10410000520EF900160BF800540EF900428EBF0053
:10411000E0060200000000004EAEB7008172880089
:10412000568EBF00C1728000727280008372800060
:1041300082100200000000004300A9000001780086
:1041400081017800528EBF00A17280002A07020010
:104150000000000080027800010378005A8EBF0042
:10416000E17280007272800083728000821002000F
:104170000000000080037800010478000700780048
:1041800088007800727280008372800082100200C2
:10419000000000004300A9000001780081017800C0
:1041A00005007800860078002A0702000000000061
:1041B0004EAEB700817288004E8EBF0081728000C3
:1041C0006501200005000900CF127800CF027800B9
:1041D00000000600851F7800861F7800380EF80062
:1041E000420EF900BA140200000000003AAEB70017
:1041F0003A8EBF00F00FB20037EEB7003A0EF8006B
:10420000400EF90000F02F00402EB600D47180005F
:1042100003102000110009000302D80036EEB70099
:1042200037CEBF00DAECB70036CEBF00D9ECB7000E
:104230003A0EF800420EF900261F020000000000AE
:1042400080027800010378004300A8000500780090
:104250008600780002002800833824002A07020024
:10426000000000003CAEB700F17188003C8EBF003A
:10427000F17180004F037800CF0278000000060043
:10428000851F7800861F7800871F7800302EEF008A
:1042900084718000A30220000418E1000D003400A6
:1042A000847180006420B80024D82000840240007B
:1042B000B4002000C4718800EA2002000000000061
:1042C00004002000B41A7800B41A7800302EEC00F4
:1042D000EFFF37002E2EEF00302EEF0084718000AC
:1042E000930220000418E10038003400847180003B
:1042F0006420B80024D8200004004000A40020005E
:10430000301A7800301A780084718000E10342008E
:10431000070278006420B80024D820000400400080
:104320000002780003002000B4197800B419780066
:10433000000178008101780005007800860078008F
:10434000FE140200000000001E003900847180008D
:104350006420B80024D8200004004000A4E220001B
:10436000301A7800301A7800847180006420B80018
:1043700024D8200084024000847180006103420040
:10438000060278006420B80024D820000400400011
:10439000B01A7800B01A780084718000E1024200FF
:1043A000050278006420B80024D820008402400070
:1043B000A4E22000B41A7800B41A78001400200097
:1043C00074718800302EEC00C4FF370074718000D7
:1043D0006120E100BFFF32002A2EEF002C2EEF00FB
:1043E00014002000847188008471800093022000F2
:1043F0000418E10013003400847180006420B800C8
:1044000024D82000040040000002780003002000AF
:10441000B4197800B41978004300A90000017800AD
:10442000810178002A8EBF00617180002A07020096
:10443000000000002AAEB70061718800302EEC0049
:10444000E9FF37002A8EBF00617180000200200062
:10445000032224000E090200000000002AAEB7006B
:10446000617188002A8EBF0061718000CF037800DF
:104470004F037800CF02780000000600851F780007
:10448000C500200005000900B51F78004400200089
:10449000246C880024002000646C8800882DEF00C4
:1044A000888DBF00646C80000020E1003900350079
:1044B000862DEF00868DBF00646C80000020E10037
:1044C000320035008E2DEF00902DEF008A2DEF0089
:1044D0008A8DBF00246C80000020E1001E003400A3
:1044E000546C80006820B8008002780004D5200059
:1044F00004804200C4002000301A7800301A78008E
:10450000868DBF00880DB400E006020000000000A8
:104510000004BE0076738800877388009873880053
:10452000A9738800941A0200000000004300A9004B
:1045300000017800810178008E8DBF00816C8000C1
:104540002A070200000000008EADB700816C8800D1
:104550008A2DEC00DEFF3700346C80006C20B80040
:1045600080027800446C80006420B80005004000A0
:1045700044AE200084024000E4D82000B41A780041
:10458000B41A7800862DEC00CAFF3700882DEC00A5
:10459000C3FF3700848DBF00E0060200000000006A
:1045A000C0AAB70011568800862DEF00868DBF0087
:1045B000246C80000020E1003C0034008E2DEF00D0
:1045C000902DEF008A2DEF008A8DBF00246C8000B3
:1045D0000020E1002C003400546C80006820B800FA
:1045E000800278006480420004D52000040040006E
:1045F000A4002000301A7800301A7800546C800033
:104600006820B8008003780004D5200004804300AF
:1046100004012000301A7800301A7800868DBF001F
:10462000E0060200000000000005BE00787388006C
:10463000897388009A738800AB738800941A02000B
:10464000000000000001780081017800050078007A
:104650008600780082100200000000004300A900DC
:1046600000017800810178008E8DBF00816C800090
:104670002A070200000000008EADB700816C8800A0
:104680008A2DEC00D0FF3700346C80006420B80025
:1046900084B0200084024000E4D82000B41A7800DE
:1046A000B41A7800862DEC00C0FF3700841D02008C
:1046B000000000001C0BF8009A0DF9001E0BF8001A
:1046C0009C0DF900180BF800960DF9001A0BF80074
:1046D000980DF900140BF800920DF900160BF80074
:1046E000940DF900828DBF00E0060200000000007A
:1046F0008EADB700816C8800968DBF00C16C8000C4
:10470000726C8000836C8000821002000000000048
:104710004300A9000001780081017800928DBF005C
:10472000A16C80002A0702000000000080027800CF
:10473000010378009A8DBF00E16C8000726C8000EC
:10474000836C80008210020000000000800378006B
:10475000010478000700780088007800726C8000FF
:10476000836C800082100200000000004300A9005A
:10477000000178008101780005007800860078004B
:104780002A070200000000008EADB700816C88008F
:104790008E8DBF00816C800065012000050009003E
:1047A000CF127800CF02780000000600851F780045
:1047B000861F780011CDBF0082EDB70012CDBF007B
:1047C00083EDB70083CDBF000000FB0084ADB700D0
:1047D00084CDBF000BE0B7008042EB0082CDBF006C
:1047E0000000FB000500400008ACB70013CDBF007F
:1047F00082EDB70014CDBF0083EDB70083CDBF00BD
:104800000000FB0084ADB70084CDBF000BE0B70013
:104810008042EB0082CDBF000000FB00050040009D
:104820000AACB70015CDBF0082EDB70016CDBF00B2
:1048300083EDB70083CDBF000000FB0084ADB7005F
:1048400084CDBF000BE0B7008042EB0082CDBF00FB
:104850000000FB00050040000CACB70017CDBF0006
:1048600082EDB70018CDBF0083EDB70083CDBF0048
:104870000000FB0084ADB70084CDBF000BE0B700A3
:104880008042EB0082CDBF000000FB00050040002D
:104890000EACB70019CDBF0082EDB7001ACDBF0036
:1048A00083EDB70083CDBF000000FB0084ADB700EF
:1048B00084CDBF000BE0B7008042EB0082CDBF008B
:1048C0000000FB000500400010ACB7001BCDBF008E
:1048D00082EDB7001CCDBF0083EDB70083CDBF00D4
:1048E0000000FB0084ADB70084CDBF000BE0B70033
:1048F0008042EB0082CDBF000000FB0005004000BD
:1049000012ACB7001DCDBF0082EDB7001ECDBF00B9
:1049100083EDB70083CDBF000000FB0084ADB7007E
:1049200084CDBF000BE0B7008042EB0082CDBF001A
:104930000000FB000500400014ACB7001FCDBF0015
:1049400082EDB70020CDBF0083EDB70083CDBF005F
:104950000000FB0084ADB70084CDBF000BE0B700C2
:104960008042EB0082CDBF000000FB00050040004C
:1049700016ACB70021CDBF0082EDB70022CDBF003D
:1049800083EDB70083CDBF000000FB0084ADB7000E
:1049900084CDBF000BE0B7008042EB0082CDBF00AA
:1049A0000000FB000500400018ACB700862DEF00AA
:1049B000346C80006420E1000B003D0085D82000AD
:1049C00005007800860DB40080027800346C800009
:1049D00075034200E4D0200004004300904A7800B0
:1049E000862DEC00F2FF3700880DF8001A0CF90054
:1049F0008A0DF8001C0CF900862DEF00346C800045
:104A00006420E1000B003D0085D8200005007800FF
:104A1000860DB40080027800346C80007903420077
:104A2000E4D0200004004300904A7800862DEC007A
:104A3000F2FF3700880DF8001A0CF9008A0DF80013
:104A40001C0CF900862DEF00346C80006420E1001E
:104A50000B003D0085D8200005007800860DB400CD
:104A600080027800346C80007D034200E4D0200096
:104A700004004300904A7800862DEC00F2FF3700D6
:104A8000880DF8001A0CF9008A0DF8001C0CF900CA
:104A90004F037800CF027800000006000FF42000DA
:104AA000F0FF200020A0B7000000000081E0A80077
:104AB0004440A80000002000A00188004427EF0027
:104AC000CC42A90017E2A80017A2A80016C2A800AD
:104AD0001762A90016E2A8001702A9001722A80071
:104AE0001742A90004052000D4108800CD22A90097
:104AF00007E2A80007A2A80006C2A8000762A90052
:104B000006E2A8000702A9000722A8000742A900A0
:104B10000A22EF00D409200024108800256AEF0043
:104B2000B26AEF0020C0B300B3EAB700D4CC2C00C7
:104B3000C45A8800C4DC2B00D45A8800C42BEF0070
:104B4000C62BEF00041A2400445E8800A40F200046
:104B5000A45F8800F62BEF00840C2000C45F88005F
:104B6000FA2BEF004F6DEF0030C0B30078EDB700C7
:104B7000E024EF00E224EF00A600370080020800E6
:104B80005A00000080800800607C88005939E000ED
:104B900097A63A00C41D1E003C5E5000633D1A00FB
:104BA000FE753E00187231003F0F8C0055A6820042
:104BB00095D93D00E6D7FF00E5C99000C7BDCE00FE
:104BC000401247000CB742003E9F6D0094C3250081
:104BD0006D7A3E00DA320E00BE9F3E00B63E6D009A
:104BE000AA28C200B4FAEF003E89E00029E5A4003B
:104BF00030243F00A38EFA00E37ED800553FC60064
:104C0000048A7800ABB283003FCDED00A6D6080041
:104C10006BAC3F00FDD18400FFBDBF00CE3FA100C3
:104C200035FAFE00422EE6003F9947008ABF000099
:104C3000000040004008000000084C00F3BA3D00AE
:104C40002B9D5F00BF4008000000180005BD9A00C2
:104C50004A1AA600C2BFB400B92A1D0007D9F50040
:104C60003F02EB008967DB00F608C0004007000048
:104C7000003940002BF293008B43C500783F4F0072
:104C8000E05DA20084A9CA00BF388F00ACEFB50078
:104C9000D2F13F00D83FDF00BC304C00FEBF3700F0
:104CA000BFFD3E003DAA9300C0EE5000B34000009F
:104CB00000803F000A8DB100C0EE5000B3404000BC
:104CC000060000006BF03F005C0A5800F63B8F00C6
:104CD00000C03C008B28AC003CBEF6003FD2D500A3
:104CE00044168C0015D7BF0069005A002E1B8700A0
:104CF000993F9A005FAD4B0091E40100C05D110047
:104D00002F92E40081FB3F0038DA9100809DC500BE
:104D1000E0BF6F0012C0B400C309AB003F6BC1001D
:104D2000034EC100B545BF000A8934003E7C7900BE
:104D3000B5403F0002B34100338C9E0041000000AB
:104D4000803F1B00E4354100A4DBE70041338C00C9
:104D50009E41F7004005FF00005FEF003FF3A30016
:104D6000E2F7D700FF014000C0B4FF00053C580047
:104D7000FC3F3B00D3C0B500BA8CE2003F39D30002
:104D8000C73D410079B23F00870D3C0050D0AF00D5
:104D9000623F30004B8DA20082AA04004009A000AF
:104DA000404A050076034000EC9E370088A6440088
:104DB000F03F8F00128D29009A5BC7003F0EE00084
:104DC000807CA100D8863F00294BFB0095C23700AC
:104DD0001A3F3000312E3000310000000201E8009F
:104DE0006110E10004003A009101BA003182BA007A
:104DF00006C0BF00000006006210E10002003A0099
:104E000007C0BF000000060008C0BF000001EB00A3
:104E1000000006000600200000002000900188002D
:104E2000E05B2200800078000001EB00EE2602002B
:104E3000000000000BE0B700EE26020000000000BA
:104E40000AE0B7000500E0001900320005F0A600F6
:104E500007003700EE260200000000000DE0B7005A
:104E6000EE260200000000000CE0B70005F0A100F3
:104E700005E0A6000800370005E0A1008502E90072
:104E8000EE26020000000000804378000580090043
:104E9000075B7800E5FF3700EE2602000000000007
:104EA000005B78008502E900FBFF3A00DFFF370076
:104EB0007B6DEF007E2CEF008411240004648800D9
:104EC000822CEF000408240024648800862CEF0064
:104ED000882CEF008A2CEF00040F24006464880003
:104EE0008E2CEF000408240084648800922CEF00CC
:104EF000942CEF0064662600B4648800640D2400DE
:104F0000C46488009A2CEF0004082400E46488003C
:104F10009E2CEF00A02CEF00A22CEF008462240056
:104F20002465880004002E0034658800B4622400E3
:104F3000446588000400280054658800B463240098
:104F40006465880004802000746588000463240080
:104F5000846588000400280094658800B4632400F8
:104F6000A465880004002200B4658800B4642400AD
:104F7000C465880004402200D465880024642400AD
:104F8000E465880004002200F4658800B46424000D
:104F90000466880004002C0014668800A4652400C0
:104FA00024668800A40020003466880044012000A4
:104FB000446688009401200054668800C8E2A90075
:104FC000CCE2A9003A0302000000000066030200E0
:104FD000000000008204020000000000803E20006B
:104FE000560302000000000004F02900241A880083
:104FF00004472800041A8800E024EF00040023007E
:10500000142788004223EF009A20A80078050200A8
:1050100000000000104DE200020032000040EB00F2
:1050200000003700C982A900CD82A800826DEF0080
:1050300010C0B30083EDB70086110200000000002D
:105040004021020000000000C6ABB700415E8800AE
:10505000C982A900CD82A900940BF8007E0DF90049
:105060007E8DBF00F00FB2007DEDB7007E0DF80021
:10507000800DF90000F02F00802DB6000160EF00D8
:1050800081CDBF007CEDB7008C0BF8007E0DF900E0
:105090007E8DBF00F00FB2007DEDB7007E0DF800F1
:1050A000800DF90000F02F00802DB6000160EF00A8
:1050B00081CDBF007CEDB7007DCDBF00DCECB7003B
:1050C0007CCDBF00DBECB700900BF8007E0DF90043
:1050D0007E8DBF00F00FB2007DEDB7007E0DF800B1
:1050E000800DF90000F02F00802DB6000160EF0068
:1050F00081CDBF007CEDB700980BF8007E0DF90064
:105100007E8DBF00F00FB2007DEDB7007E0DF80080
:10511000800DF90000F02F00802DB6000160EF0037
:1051200081CDBF007CEDB700C8A2A900CCA2A80029
:10513000826DEF00836DEF00861102000000000019
:10514000C8A2A900CCA2A900940BF8007E0DF9001A
:105150007E8DBF00F00FB2007DEDB7007E0DF80030
:10516000800DF90000F02F00802DB6000160EF00E7
:1051700081CDBF007CEDB7007DCDBF00E2ECB70074
:105180007CCDBF00E1ECB7008C0BF8007E0DF90080
:105190007E8DBF00F00FB2007DEDB7007E0DF800F0
:1051A000800DF90000F02F00802DB6000160EF00A7
:1051B00081CDBF007CEDB7007DCDBF00E0ECB70036
:1051C0007CCDBF00DFECB700900BF8007E0DF9003E
:1051D0007E8DBF00F00FB2007DEDB7007E0DF800B0
:1051E000800DF90000F02F00802DB6000160EF0067
:1051F00081CDBF007CEDB7007DCDBF00E4ECB700F2
:105200007CCDBF00E3ECB700980BF8007E0DF900F1
:105210007E8DBF00F00FB2007DEDB7007E0DF8006F
:10522000800DF90000F02F00802DB6000160EF0026
:1052300081CDBF007CEDB7007DCDBF00E6ECB700AF
:105240007CCDBF00E5ECB700C942A900CD42A80063
:10525000826DEF0030C0B30083EDB700861102000D
:1052600000000000C942A900CD42A900940BF8003B
:105270007E0DF9007E8DBF00F00FB2007DEDB7000E
:105280007E0DF800800DF90000F02F00802DB60093
:105290000160EF0081CDBF007CEDB7007DCDBF0088
:1052A000E8ECB7007CCDBF00E7ECB7008C0BF80052
:1052B0007E0DF9007E8DBF00F00FB2007DEDB700CE
:1052C0007E0DF800800DF90000F02F00802DB60053
:1052D0000160EF0081CDBF007CEDB7007DCDBF0048
:1052E000ECECB7007CCDBF00EBECB700900BF80006
:1052F0007E0DF9007E8DBF00F00FB2007DEDB7008E
:105300007E0DF800800DF90000F02F00802DB60012
:105310000160EF0081CDBF007CEDB7007DCDBF0007
:10532000EEECB7007CCDBF00EDECB7007E0DF800D1
:10533000820DF9003E220200000000008AAAB70098
:1053400061548800980BF8007E0DF9007E8DBF0037
:10535000F00FB2007DEDB7007E0DF800800DF90072
:1053600000F02F00802DB6000160EF0081CDBF005E
:105370007CEDB7007DCDBF00F0ECB7007CCDBF0069
:10538000EFECB7008A8ABF00615480004C05020030
:1053900000000000CDECB7008A8ABF006154800095
:1053A0004C05020000000000E006020000000000C2
:1053B0004300A80000017800810178008A8ABF00BC
:1053C000615480002A07020000000000800278007B
:1053D00001037800050078008600780002002000B4
:1053E000832C240082100200000000004C05020003
:1053F00000000000CEECB700C60BF800440AF9002C
:10540000C80BF800460AF900448ABF0031528000F8
:105410000200200003002000FE1402000000000033
:1054200004003900442AEF00462AEF00C62BEF00A3
:10543000C82BEF00C68BBF00415E80004C05020008
:1054400000000000D1ECB700C68BBF00415E8000B9
:105450004C05020000000000E00602000000000011
:105460004300A8000001780081017800C68BBF00CE
:10547000415E80002A0702000000000080027800E0
:105480000103780005007800860078000200200003
:10549000832C240082100200000000004C05020052
:1054A00000000000D2ECB7007BCDBF000000FB0085
:1054B0000000E00005003A00C8E2A900CCE2A90023
:1054C00010C0B3007BEDB70003003700C8E2A900AD
:1054D000CCE2A8007B6DEF00846880006124E100CD
:1054E00016003A00D623020000000000104DE20032
:1054F000020032000040EB00000037007A6DEF0040
:105500007ACDBF000000FB00140420000020E10061
:105510000A0034007ACDBF000000FB00E4D0200078
:10552000040040001004E000020032000040EB00E4
:10553000000037007A6DEC00F1FF3700B9FE37004C
:04554000FFFF370032
:0200000401F009
:100000000F0000FF000000FF030000FFE30000FFFF
:10001000FA0000FF5F0000FFF40000FF030000FF94
:04002000DF0000FFFE
:00000001FF
;PIC24FV32KA302
;CRC=DD0F  CREATED="08-May-17 15:12"
