:08000000EC09040000000000FF
:10040000C962A900CD62A800C942A900CD42A800D6
:1004100000000600851F7800C62AEF0034568000D1
:10042000430620000418E10006003400649B20000D
:10043000335680008482410080CAEB00C62AEC005B
:10044000F6FF3700CF027800000006000000E00051
:100450004220AF00040037007B3E0900000000008E
:100460000000E900FCFF3A0000000600C942A900B4
:10047000CD42A800C962A900CD62A80040012000B9
:100480002602020000000000C962A900CD62A90096
:100490009E0009000000000000000600C942A900FB
:1004A000CD42A9004E000900000000000408200011
:1004B000B456880014002000A4568800A45680007A
:1004C0006820E10019003C00D2CABF000160EF00C3
:1004D000D60AB6000000E00003003200C962A9009D
:1004E000CD62A80002003700C962A900CD62A90050
:1004F000B456800023002000110009000302D80038
:10050000D6AAB7009E00090000000000C942A90059
:10051000CD42A8009E00090000000000C942A900C9
:10052000CD42A900D42AEC00E4FF37006E00090098
:1005300000000000C962A8006E0009000000000071
:10054000C942A900CD42A8009E0009000000000099
:10055000DA2AEF00C962A800D82AEF00CB62AF0008
:10056000D82AEC00D80AE20002003200DA2AEF00B2
:100570000200370014002000D4568800C942A900A8
:10058000CD42A900C962A900CD62A800DA0AF8002C
:100590000000F90000000600C962A900CD62A800B1
:1005A0005E00090000000000C942A900CD42A80079
:1005B0005E00090000000000C962A900CD62A90028
:1005C0009E00090000000000C962A900CD62A800D9
:1005D00000000600D26AEF00C942A900CD42A9007E
:1005E0004E00090000000000C962A800D42AEF00F4
:1005F000A45680006820E10017003D00D26AD400B4
:10060000C942A900CD42A8009E00090000000000D8
:10061000C962A800D62AEF00CB62AF00D62AEC0050
:10062000D82AEF009E00090000000000C942A9007E
:10063000CD42A9009E00090000000000D60AE20099
:1006400002003A00D80AE20001003200D20AA800F3
:10065000D42AEC00E6FF3700C962A900CD62A900E8
:100660004E00090000000000C942A900CD42A800C8
:100670004E00090000000000C942A900CD42A900B7
:100680004E00090000000000C962A8004E000900E9
:1006900000000000D2CABF0000E0B7000000060062
:1006A000851F7800CC2AEF0036020200000000000F
:1006B00000CDB300D2EAB7004E02020000000000F5
:1006C000CCAAB700645680006120E10025003A0002
:1006D000CC2AEF0020C2B300D2EAB7004E020200DB
:1006E00000000000CCAAB700645680006120E10041
:1006F0001C003A00CC2AEF00D26AEF004E02020042
:1007000000000000CCAAB700645680006120E10020
:1007100014003A00CC2AEF0080C0B300D2EAB70040
:100720004E02020000000000CCAAB7006456800010
:100730006120E1000B003A00CC2AEF00A0C2B30018
:10074000D2EAB7004E02020000000000CCAAB700B7
:10075000645680006120E10002003A00540020004D
:1007600064568800CC02020000000000645680003D
:100770006520E10027003A00A000200026020200C8
:1007800000000000CC2AEF0036020200000000004A
:1007900010CDB300D2EAB7004E0202000000000004
:1007A000CCAAB700645680006120E10012003A0034
:1007B000EA02020000000000C6EAB700EA020200F6
:1007C00000000000C7EAB700EA02020000000000D3
:1007D000C8EAB700EA02020000000000C9EAB70058
:1007E000CC0202000000000064568000610042005C
:1007F000CCAAB70006003700CC02020000000000BF
:10080000CCAAEF00CC0AF8000000F9002C00370059
:1008100006003700CC02020000000000CCAAEF0066
:10082000CC0AF8000000F90025003700C6CABF0056
:10083000C74AB4004456800004404000CAEAB700EA
:10084000CACABF00C94AE300020032000040EB0000
:100850000100370010C0B300804278003456800099
:1008600014C2B200020032000040EB000100370069
:1008700010C0B30000C062000004E0000D003200B0
:10088000C7CABF00CCEAB700CD6AEF00645680004B
:100890000310200003A0B900CCAAB7004456800082
:1008A0000960EF006356800004804100CCAAB700C5
:1008B00001003700CCAAEF00CC0AF8000000F900D4
:1008C000CF02780000000600F0FF2F000862AE00A3
:1008D0000500370009C2AF00FEFF37001110880085
:1008E00009C2AF00FEFF37000000200009E2AF00A0
:1008F0000000E800000006000862AE0004003700B7
:100900000622A8000622AF00FEFF370003003700D2
:100910000602A8000602AF00FEFF370001C8B300C0
:10092000640402000000000021C0B300640402005F
:10093000000000008040EB006404020000000000A2
:100940008040EB006404020000000000F001200081
:100950000602B600FDFF3A000642A8000642AF00BC
:10096000FEFF3700D0022000260202000000000037
:1009700000000600F0FF2F000862AE0011003700F3
:10098000321080007F016100FDFF3A000662A8007E
:100990000100A70006A2A9000100A60006A2A80067
:1009A000321080007F016100FDFF3A000682A8003E
:1009B0000822AE00FEFF37000082BF0008C2AF0071
:1009C00008C2A90000000600CA0AF800D40AF9000B
:1009D0007C040200000000000862AE000400370042
:1009E0000622A8000622AF00FEFF370003003700F2
:1009F0000602A8000602AF00FEFF370001C8B300E0
:100A000064040200000000008040EB006404020067
:100A1000000000004001200026020200000000004B
:100A20000862AE00040037000622A8000622AF00CC
:100A3000FEFF3700030037000602A8000602AF00E1
:100A4000FEFF370011C8B30064040200000000007C
:100A500011002000811F7800CF007800BA04020046
:100A600000000000C6EAB700A00020002602020035
:100A70000000000001002000811F7800CF007800F6
:100A8000BA04020000000000C7EAB700F00120002D
:100A90000602B600FDFF3A000642A8000642AF007B
:100AA000FEFF37000862AE00040037000622A800EF
:100AB0000622AF00FEFF3700030037000602A80041
:100AC0000602AF00FEFF370001C8B3006404020055
:100AD0000000000011C0B300640402000000000028
:100AE0004001200026020200000000000862AE0063
:100AF000040037000622A8000622AF00FEFF3700E0
:100B0000030037000602A8000602AF00FEFF370010
:100B100011C8B300640402000000000011002000AE
:100B2000811F7800CF007800BA04020000000000A6
:100B3000C8EAB700A0002000260202000000000062
:100B400001002000811F7800CF007800BA04020065
:100B500000000000C9EAB700F00120000602B6005C
:100B6000FDFF3A000642A8000642AF00FEFF370034
:100B7000C6CABF0062E8B7006368EF00C7CABF001B
:100B800064E8B7006568EF00C8CABF0066E8B70050
:100B90006768EF00C9CABF0068E8B7006968EF007E
:100BA000CC8ABF007156800000000600851F7800C7
:100BB000861F7800E10820000600A10000F0A600D2
:100BC000030037000600A0000000EA000000370024
:100BD0000000E0001400320000F0A700040037001D
:100BE0004200A9000080D2008100E900FAFF37002E
:100BF0000180FD004200A9008180D30000F0A10027
:100C00000080FD00814068000040B2000600A7009F
:100C100001F0A00007003700014078000170A0003B
:100C20000140B200030037000000EB008000EB0041
:100C3000000037004F037800CF0278000000060064
:100C4000851F7800C500200004000900B51F78004A
:100C500000027800810278008303780002037800A4
:100C60004200A9004220A9008180D2000180FD003D
:100C7000F10FB2000100E0004B0032004200A90079
:100C80004220A9008381D2000380FD00F30FB2004F
:100C90000300E000440032000080FB0001C041007E
:100CA00004003100F007B1003F0032003E0039007F
:100CB000020037001048B0003B00310007856A0091
:100CC0004200A9004220A900F50FB2000570A00063
:100CD0004200A900F70FB2000770A0000621B8007B
:100CE000062CB80083014C00890078004200AF0058
:100CF0008100E8004200A900043CB80083014C00D8
:100D000081804C00072CB80081004C000000E800F6
:100D10000100E0004220AF0001003700030037006F
:100D20000300E0004220AF000500370001F0A700FB
:100D3000030037008381D2008180D2000000E900E7
:100D4000010178004200A9000370A60009003700E5
:100D500007F02F00878161000310B0006001490097
:100D60000200E00003003A000300E00001003A0046
:100D70000000E8000080FD004200A9004220A90018
:100D80008080D3000AF0A70001F0A00002F0A100CB
:100D90000280FD00814069000380FD00034178006E
:100DA000020078000300370000002000010020004E
:100DB000000037004501200004000900CF12780030
:100DC000CF02780000000600851F7800C5002000D3
:100DD00004000900B51F78008004EB0083846800DC
:100DE0000103780080027800030478008203780011
:100DF0008180D2000180FD008180FB000100E000C5
:100E00004E0032008381D2000380FD008381FB000D
:100E10000300E000490032000000EB0003C0500076
:100E200003003900F047B0004400310003003700F0
:100E30001048B100410039004000320085007800C0
:100E4000060178000270A000F20FB200F80FB200A5
:100E50000870A0009A0120008001EB000002EB0066
:100E6000878050000801590002003300040031005F
:100E700004003A0087804000080149000100370063
:100E80000400A0000A05E900070032004200A900A2
:100E90008180D2000281D2004200A9000482D200E7
:100EA0008381D200EEFF37000005EB000380A7002E
:100EB00001003700060037004200A9008381D300FB
:100EC0000370A1000482D3000A85D200020037001B
:100ED0000000E900190032000AF0A70005003900FF
:100EE0008180D2000281D200878050000801590021
:100EF000090039000402E80007003A008301E80015
:100F000005003A000000E8000C0032000200370043
:100F10000000E900090032000080FD008080D3005D
:100F200001F0A00009F0A60001F0A1000370A100EB
:100F300081C0690004007800030037000000200031
:100F400001002000000037004501200004000900D6
:100F5000CF127800CF02780000000600851F7800CD
:100F6000C500200003000900B51F78008004EB00D5
:100F7000080028004300AF0083016C000000E0007F
:100F800003003A00FAFF27000A8560004220AE0005
:100F9000010578008A8569000103780083037800E1
:100FA000030678004220A9004200A9000683D2006F
:100FB0000680FD00F60FB2000600E000A10032003E
:100FC0004220A9004200A9008783D2000780FD00CB
:100FD000F70FB2000700E0009F0032004220A90096
:100FE0004200A9000638E1009C003200A300330053
:100FF0000900A1000910A00006845300070378002F
:10100000F10FB2000170A000F30FB2000370A00056
:10101000870220000838E100110033004220A900B7
:101020004200A9008180D3000080D3000804E900B9
:10103000FAFF3A000D003700870220000838E1006F
:10104000090033004220A9004200A9008381D30097
:101050000281D3000804E900FAFF3A000F003700CC
:101060000200780083007800430037000BF0A600F0
:10107000110037000940A7008C0578000000EA0045
:101080000200320081C0EA00010037008100EA005E
:101090000940A7002B003700070037000BF0A6001F
:1010A000050037000201EA000200320083C1EA00B5
:1010B000010037008301EA00F50FB2004220A900C9
:1010C0004200A9000200400083C048004200AF0077
:1010D0000930A0000900A700090037000910A70087
:1010E000010037000B0037000BF0A7001500370098
:1010F0000930A700290037000960A0001E00370052
:101100000BF0A7000F0037000930A70023003700BD
:10111000190037000920A1000BF0A70004003700D8
:101120008A0578000930A7001C0037003600370018
:101130000940A00001C8B2000170A700CDFF370030
:101140008A057800F10FB200810370000A003200B6
:101150000170A700080037004220A9004200A90042
:101160000080D2008180D2000603E9004220AF0057
:1011700031003700F6FF37000900A7008A05780024
:101180000910A7008C0578000950A6001A00370046
:101190000AF0A7000080A0001B0037004200A80052
:1011A00081C0D3000080D3004200AF000950A000EE
:1011B0000603E800200032000950A60008003700AE
:1011C0000000E80006003A008140E80004003A0010
:1011D00081C0D3000080D3000603E800160032006F
:1011E0000900A7008A0578000910A7008C0578007F
:1011F0004220AF00100037000960A7008A05780080
:101200000970A7008C0578000101700023003200EE
:101210000170A1000680FD004220A9004200A90043
:101220000683D30081006B0001F0A0000BF0A60044
:1012300001F0A1001900370000002000010020008B
:10124000160037000AF0A70083016C000200780046
:10125000830078001100370010003700F30FB20050
:101260000370A000F10FB2000170A0000BF0A70006
:101270000370A1000920A00088FF37000704530075
:10128000F10FB2000170A000F30FB2000370A000D4
:101290000910A1000900A00067FF37002501200008
:1012A00003000900CF127800CF027800000006008A
:1012B000851F7800861F7800871F780003826800EA
:1012C00004F0A600060037004200A9004220A90051
:1012D00001F0A600260037004200A80024003700D5
:1012E000010278008002780003037800820378000E
:1012F0008180D2000180FD008381D2000380FD0047
:1013000081C051000500320004F0A600180037002B
:101310001000200042E0B60015003700844078003D
:10132000864178000170A1000370A10081C05100C6
:101330000500320004F0A6000D0037001000200068
:1013400042E0B6000A0037008580530005003200F5
:1013500004F0A600060037001000200042E0B600AE
:10136000030037004200A9000100370000003700E9
:10137000CF0378004F037800CF027800000006000A
:101380000001780081017800014078000080FD00B4
:1013900000F0A0008180D2000180FD008180FB0070
:1013A000E408200081405200060032000000E00006
:1013B000040032004200A9000080D3008100E9004F
:1013C000FAFF3A0003F0A600020037000000EA002E
:1013D00000003700000006000FFA2000F0FF200098
:1013E00020A0B7000000000081E0A8004427EF0023
:1013F000CD22A90007E2A80007A2A80006C2A80003
:101400000762A90006E2A8000702A9000722A800B7
:101410000742A9000A22EF00D40920002410880006
:101420006068EF00B66AEF00E024EF00E224EF000E
:101430005A28EF0000020200000000000A02020029
:10144000000000005003020000000000BAAAB7002C
:10145000BA8ABF00F00FB200B9EAB70000F02F005F
:10146000BA2AB6000160EF00BBCABF00B8EAB700F5
:10147000B9CABF00BEE9B700B8CABF00BDE9B7002E
:101480008400200054568800E4040200000000009C
:10149000BCAAB700F15588006208F800C40AF90038
:1014A0006408F800C40AF90062C8BF000BE0B70086
:1014B0008042EB00050078006408B700D605020002
:1014C00000000000C0AAB70011568800C08ABF0003
:1014D0001156800002002000533224002006020032
:1014E0000000000080027800010378000500780009
:1014F000860078000200200003782400E406020041
:101500000000000080027800010378004300A8007A
:1015100005007800860078000200200003222400E5
:10152000AE07020000000000C0AAB70011568800F4
:10153000C00AF800C808F900C20AF800CA08F90091
:10154000C888BF0051468000020020000300200030
:10155000580902000000000002003900C828EF000E
:10156000CA28EF006608F800C40AF9006808F80005
:10157000C40AF90062C8BF000BE0B7008042EB006C
:10158000050078006408B700D605020000000000DE
:10159000C0AAB70011568800C08ABF00115680004B
:1015A00002002000832C240020060200000000001E
:1015B000800278000103780005007800860078003A
:1015C0000200200003782400E4060200000000006E
:1015D000C0AAB70011568800C00AF800C008F90078
:1015E000C20AF800C208F900C088BF001146800096
:1015F0000200200003002000580902000000000043
:1016000002003900C028EF00C228EF00C888BF00E0
:1016100051468000C009020000000000BFE9B70089
:10162000C888BF0051468000C009020000000000C9
:10163000D6050200000000004300A8000001780069
:1016400081017800C888BF0051468000AE070200C3
:101650000000000080027800010378000500780097
:101660008600780002002000832C2400200602005F
:1016700000000000C009020000000000C0E9B7003F
:10168000C088BF0011468000C009020000000000B1
:10169000C1E9B700C088BF0011468000C009020040
:1016A00000000000D6050200000000004300A80072
:1016B0000001780081017800C088BF0011468000D9
:1016C000AE070200000000008002780001037800ED
:1016D000050078008600780002002000832C24009A
:1016E0002006020000000000C00902000000000007
:0C16F000C2E9B70053FF3700FFFF3700CE
:0200000401F009
:100000000F0000FF000000FF030000FFE30000FFFF
:10001000FA0000FF5F0000FFF40000FF030000FF94
:04002000DF0000FFFE
:00000001FF
;PIC24FV32KA302
;CRC=6271  CREATED="05-Apr-17 09:00"
