:040000005CEF46F07B
:08000800046ED8CF05F0E0CF33
:1000100006F00001E9CF0CF0EACF07F0E1CF08F0DD
:10002000E2CF09F0D9CF0AF0DACF0BF0F3CF12F01C
:10003000F4CF13F0FACF14F0F5CF15F0F6CF16F099
:10004000F7CF17F000C00EF001C00FF002C010F0A3
:1000500003C011F09DAA30EF00F09EBAD9EF07F06F
:100060000EC000F00FC001F010C002F011C003F08C
:100070000CC0E9FF07C0EAFF078E08C0E1FF09C016
:10008000E2FF0AC0D9FF0BC0DAFF12C0F3FF13C0B2
:10009000F4FF14C0FAFF15C0F5FF16C0F6FF17C035
:1000A000F7FF045006C0E0FF05C0D8FF1000444F22
:1000B00020254C75202566202000575420254C759E
:1000C00020202566202020004E483420254C752015
:1000D00020256600434F3220254C752070706D003E
:1000E00041542B52482025664320256625250000D3
:1000F0004F736D6F626F742054657374696E6720FF
:10010000616E6420436F6E66696775726174696FB2
:100110006E2048656C700A0D000042656C6F772098
:1001200069732061206C697374206F6620616C6C48
:100130002074686520636F6D6D616E6473207468F0
:10014000697320756E69742063616E20646F2E2060
:1001500020466162756172792031312C2032303154
:10016000370A0D0073686F77636F6E6669672020CA
:10017000202020202020202044756D707320616C89
:100180006C206F66207468652063757272656E748A
:100190002063616C6962726174696F6E7320666F4F
:1001A0007220616C6C2073656E736F727320746F54
:1001B000206461746520746F2074686520646973BD
:1001C000706C61792E0A0D0073617665636F6E66DF
:1001D0006967202020202020202020205361766580
:1001E0007320616C6C206F66207468652063757283
:1001F00072656E742063616C6962726174696F6E9E
:1002000020696E20454550524F4D206F6E20746816
:100210006973206465766963652E202049742773AD
:1002200020757365642061732064656661756C7404
:1002300020666F7220696E6974616C697A696E6795
:10024000206E657720756E6974732E0A0D006469DF
:1002500073706C6179202020202020202020202015
:100260002020436F6D6D616E6420746F2073657420
:10027000206F72207265736574206974656D7320D8
:10028000746F20746865205646442020646973703A
:100290006C61792E204F6E6C792034206974656D05
:1002A000732063616E2062652073686F776E2061D2
:1002B00074207468652073616D652074696D652EA6
:1002C0002020416C6C20656C73652077696C6C2014
:1002D0006265207472756E63617465642E0A0D0028
:1002E000202020202020202020202020202020200E
:1002F0002020202048657265206172652074686541
:10030000206F7074696F6E732E0A0D0020202020FC
:1003100020202020202020202020202020202020DD
:1003200070706820646F202070682020776420201F
:10033000706862756C622020636C656172206C75F8
:10034000782020656320202077742020706172203F
:10035000206E6834200A0D0064656661756C742037
:100360002020202020202020202020205468697375
:10037000207365747320616C6C206F6620746865EF
:100380002063616C6962726174696F6E20746F20A2
:1003900064656661756C742076616C7565732E0A90
:1003A0000D007570646174652020202020202020BD
:1003B00020202020202049742073686F6F747320E0
:1003C0007468652063757272656E742063616C6910
:1003D00062726174696F6E2076616C7565732074EA
:1003E0006F207468652072656D6F74652064657632
:1003F0006963652E0A0D000073657420202020209B
:1004000020202020202020202020202053657473CD
:10041000207468652063616C6962726174696F6ED3
:10042000207661722E202054686520666F726D619F
:1004300074206973203E736574207661726E616DFD
:10044000652076616C75652E20204F6E6520737077
:1004500061636520696E206265747765656E2E0A3A
:100460000D002020202020202020202020202020BF
:1004700020202020202020202020202020205573F4
:1004800065207468652073686F77636F6E6669674F
:1004900020636F6D6D616E6420746F20646973708A
:1004A0006C61792074686520766172206E616D657B
:1004B0007320696E2028292E0A0D000072737420A3
:1004C000202020202020202020202020202020202C
:1004D0007265626F6F74207468697320756E6974D9
:1004E0002E0A0D00656E64206F66206C696E650AC9
:1004F0000D004572726F7220536176696E67204CF1
:100500006F63616C20436F6E6669677572617469B1
:100510006F6E0A0D00004C6F63616C20436F6E6656
:10052000696775726174696F6E7320436C6561727F
:1005300065640A0D00004572726F7220536176691E
:100540006E67204C6F63616C20436F6E66696775E0
:10055000726174696F6E0A0D00004C6F63616C20EC
:10056000436F6E66696775726174696F6E7320534D
:10057000617665640A0D0000287265746E68343116
:100580002920206E683470743172657475726E65DE
:10059000646E756D6265722073657420746F2025BA
:1005A000660A0D00416C736F20757365642061737A
:1005B00020416E616C6F67204E48342070726F620C
:1005C00065206F7574707574206C6F77206E756D13
:1005D0006265722E0A0D0000287265746E683432EE
:1005E0002920206E683470743272657475726E657D
:1005F000646E756D6265722073657420746F20255A
:10060000660A0D00287265746E6834332920206EE6
:10061000683470743372657475726E65646E756D6E
:100620006265722073657420746F2025660A0D0060
:10063000416C736F207573656420617320416E6136
:100640006C6F67204E48342070726F6265206F7542
:10065000747075742068696768206E756D62657264
:100660002E0A0D00286E68347074312920206E68BF
:100670003470743163616C316F663320736574203C
:10068000746F20254C750A0D0000416C736F207546
:1006900073656420617320416E616C6F67204E4802
:1006A000342070726F626520696E707574206C6F93
:1006B00077206E756D6265722E0A0D00286E6834A3
:1006C0007074322920206E683470743163616C322A
:1006D0006F66332073657420746F20254C750A0D86
:1006E0000000286E68347074332920206E683470DE
:1006F000743163616C336F66332073657420746F7B
:1007000020254C750A0D0000416C736F20757365D0
:100710006420617320416E616C6F67204E48342005
:1007200070726F626520696E707574206C6F7720CF
:100730006E756D6265722E0A0D00286E68347074D5
:10074000342920206E683470743263616C316F66B6
:10075000332073657420746F20254C750A0D0000DA
:10076000416C736F207573656420617320416E6105
:100770006C6F67204E48342070726F626520696E1E
:10078000707574206C6F77206E756D6265722E0ABD
:100790000D00286E68347074352920206E6834701E
:1007A000743263616C326F66332073657420746FCA
:1007B00020254C750A0D0000416C736F2075736520
:1007C0006420617320416E616C6F67204E48342055
:1007D00070726F626520696E707574206C6F77201F
:1007E0006E756D6265722E0A0D00286E6834707425
:1007F000362920206E683470743263616C336F6602
:10080000332073657420746F20254C750A0D000029
:10081000416C736F207573656420617320416E6154
:100820006C6F67204E48342070726F626520696E6D
:10083000707574206C6F77206E756D6265722E0A0C
:100840000D00286E68347074372920206E6834706B
:10085000743363616C316F66332073657420746F19
:1008600020254C750A0D0000416C736F207573656F
:100870006420617320416E616C6F67204E483420A4
:1008800070726F626520696E707574206C6F77206E
:100890006E756D6265722E0A0D00286E6834707474
:1008A000382920206E683470743363616C326F664F
:1008B000332073657420746F20254C750A0D000079
:1008C000416C736F207573656420617320416E61A4
:1008D0006C6F67204E48342070726F626520696EBD
:1008E000707574206C6F77206E756D6265722E0A5C
:1008F0000D00286E68347074392920206E683470B9
:10090000743363616C336F66332073657420746F66
:1009100020254C750A0D000028444F7074312920A1
:1009200020444F70743163616C316F66332073659E
:100930007420746F20254C750A0D000028444F70F8
:100940007432292020444F70743163616C326F66B9
:10095000332073657420746F20254C750A0D0000D8
:1009600028444F707433292020444F7074316361E0
:100970006C336F66332073657420746F20254C755B
:100980000A0D000028444F707434292020444F7011
:10099000743263616C316F66332073657420746FD9
:1009A00020254C750A0D000028444F70743529200D
:1009B00020444F70743263616C326F66332073650C
:1009C0007420746F20254C750A0D000028444F7068
:1009D0007436292020444F70743263616C336F6623
:1009E000332073657420746F20254C750A0D000048
:1009F00028444F707431372020444F707433636142
:100A00006C316F66332073657420746F20254C75CC
:100A10000A0D000028444F707438292020444F707C
:100A2000743363616C326F66332073657420746F46
:100A300020254C750A0D000028444F707439292078
:100A400020444F70743363616C336F663320736579
:100A50007420746F20254C750A0D00005365747462
:100A6000696E6720616C6C2063616C69627261748D
:100A7000696F6E2076616C75657320746F20646594
:100A80006661756C742E2020446F2061207361763E
:100A900065636F6E66696720746F20736176652089
:100AA000697420696E20454550524F4D2E0A0D0045
:100AB00043757272656E742043616C696272617411
:100AC000696F6E730A0D0000706863616C6C6F77FC
:100AD000203D2025660A0D00706863616C686967B7
:100AE00068203D2025660A0D000070686E756D62F5
:100AF00065727570706572203D2025660A0D0000D4
:100B0000286E683470743129206E683470743163D3
:100B1000616C316F6633203D20254C750A0D000055
:100B2000286E683470743229206E683470743163B2
:100B3000616C326F6633203D20254C750A0D000034
:100B4000286E683470743329206E68347074316391
:100B5000616C336F6633203D20254C750A0D000013
:100B6000286E683470743429206E6834707432636F
:100B7000616C316F6633203D20254C750A0D0000F5
:100B8000286E683470743529206E6834707432634E
:100B9000616C326F6633203D20254C750A0D0000D4
:100BA000286E683470743629206E6834707432632D
:100BB000616C336F6633203D20254C750A0D0000B3
:100BC000286E683470743729206E6834707433630B
:100BD000616C316F6633203D20254C750A0D000095
:100BE000286E683470743829206E683470743363EA
:100BF000616C326F6633203D20254C750A0D000074
:100C0000286E683470743929206E683470743363C8
:100C1000616C336F6633203D20254C750A0D000052
:100C2000287265746E68343129206E6834707431AE
:100C300072657475726E65646E756D626572203D65
:100C40002025660A0D00287265746E6834322920EA
:100C50006E683470743272657475726E65646E7528
:100C60006D626572203D2025660A0D00287265744C
:100C70006E68343329206E6834707433726574750D
:100C8000726E65646E756D626572203D2025660A20
:100C90000D0028444F7074312920444F7074316323
:100CA000616C316F6633203D20254C750A0D0000C4
:100CB00028444F7074322920444F70743163616C42
:100CC000326F6633203D20254C750A0D0000284404
:100CD0004F7074332920444F70743163616C336FEB
:100CE0006633203D20254C750A0D000028444F70C6
:100CF00074342920444F70743263616C316F6633F1
:100D0000203D20254C750A0D000028444F70743595
:100D10002920444F70743263616C326F6633203D1A
:100D200020254C750A0D000028444F707436292088
:100D3000444F70743263616C336F6633203D2025FD
:100D40004C750A0D000028444F7074372920444F19
:100D500070743363616C316F6633203D20254C75B0
:100D60000A0D000028444F7074382920444F7074D5
:100D70003363616C326F6633203D20254C750A0D5C
:100D8000000028444F7074392920444F7074336335
:100D9000616C336F6633203D20254C750A0D0000D1
:100DA00028444F726574312920444F707431726544
:100DB0007475726E65646E756D626572203D202576
:100DC000660A0D0028444F7265742920444F7074E0
:100DD0003272657475726E65646E756D62657220CF
:100DE0003D2025660A0D000028444F7265743329A2
:100DF00020444F70743372657475726E65646E75DD
:100E00006D626572203D2025660A0D0028544870E9
:100E100074312920546865726D69737465727074D9
:100E20003163616C316F6633203D20254C750A0DAE
:100E300000002854487074322920546865726D6926
:100E40007374657270743263616C316F6633203D08
:100E500020254C750A0D0000285448707433292051
:100E6000546865726D697374657270743363616C14
:100E7000316F6633203D20254C750A0D0000285443
:100E800048726574312920546865726D69737465A0
:100E90007270743172657475726E65646E756D62B0
:100EA0006572203D2025660A0D002854487265743D
:100EB000322920546865726D69737465727074327A
:100EC00072657475726E65646E756D626572203DD3
:100ED0002025660A0D002854487265743329205471
:100EE0006865726D69737465727074337265747558
:100EF000726E65646E756D626572203D2025660AAE
:100F00000D00656363616C3178203D2025660A0D14
:100F10000000656363616C3278203D2025660A0D10
:100F20000000656363616C3378203D2025660A0DFF
:100F30000000656363616C3179203D2025660A0DF0
:100F40000000656363616C3279203D2025660A0DDF
:100F50000000656363616C3379203D2025660A0DCE
:100F60000000536176696E672043616C696272614B
:100F700074696F6E7320696E746F20454550524FCF
:100F80004D0A0D00436F6D706C6574696E67206C5F
:100F900061737420706F6C6C696E67206265666F38
:100FA0007265207570646174696E670A0D000D0AC0
:100FB0003E00260E06012225E96E060E2321EA6E6A
:100FC0009EAAFED7AECFEFFF22C6F3F7010E222571
:100FD0000701F46F000E060123210701F4513F0BB6
:100FE0000601226F236B2451225D06E12551235D0A
:100FF00003E1236BF3C722F62251400804E1235397
:1010000002E1236B226B2451400804E1255302E1E5
:10101000256B246B9E9A000130EF00F04964656EE9
:1010200074696679696E67005665726E69657220CB
:10103000254C75204E483320256620200000544959
:1010400020313031352052482F54656D7000546581
:101050006D70202566005248202566002020202043
:1010600020202054414F5320333431340000726526
:101070006420254C7500677265656E20254C7500EF
:10108000626C756520254C75000020416E616C6FA7
:101090006720444F20616E64204E483420200000B9
:1010A0005754202566202052617720254C7520203A
:1010B00000004E483420254C752020200000444F6D
:1010C00020254C75202020005754202566202052D2
:1010D000617720254C7520200000444F2052617715
:1010E00020254C752020202000004E48342D444FF0
:1010F00020524742572C254C752C254C752C254CDD
:10110000752C254C752C444F205265642C254C754C
:101110002C57542C25662C5261772C254C752C4469
:1011200070682D524742572C254C752C254C752C38
:10113000254C752C254C750A0D002020434F322F6D
:1011400052482F54656D7020202000004154202506
:10115000662020524820202566202000434F322060
:10116000254C752020202000436F6D6D616E64203A
:101170004C696E652050726F636573736F720D0AF0
:101180003E005072657373203F20616E64204352AD
:1011900020666F722061206C697374206F66206313
:1011A0006F6D6D616E64730D0A3E000053656E6471
:1011B000696E67205570646174656420436F6E6664
:1011C000696775726174696F6E730A0D00005570FE
:1011D0006461746520436F6D706C657465640D0A9D
:1011E000000092988998929A899ADFEF47F08D8251
:1011F00096928D8096908D949694956A8C6AE1EF84
:1012000047F0070EEA6EC10EE96EEF500DE0060ED4
:10121000016E006A002EFED7012EFBD77B0E006EFA
:10122000002EFED7EF2EF3D712000701CBBF02D05E
:101230008C9001D08C809590CBBD02D08C9201D047
:101240008C829592CBBB02D08C9401D08C849594E7
:10125000CBB902D08C9601D08C869596CBB702D0B4
:101260008C9801D08C889598CBB502D08C9A01D0FF
:101270008C8A959ACBB302D08C9C01D08C8C959C97
:10128000CBB102D08C9E01D08C8E959E00014CEF8C
:1012900009F0CAC7CBF7C9D78D8296920701C95307
:1012A00003E08D84969402D08D9496948D829692CC
:1012B0008D9296928D829692010E016E000112001F
:1012C0000701C96B3F0ECA6F0001E3DF2A0E006EF3
:1012D000002EFED70701C96B010ECA6F0001D9DFCE
:1012E000050E0701C16F00018CDF0701C96B060EF7
:1012F000CA6F0001CEDF0701C96B0F0ECA6F000174
:10130000C8DF0701C96B100ECA6F0001C2DF0701F9
:10131000C96B800ECA6F0001BCDFEFEF47F0070119
:10132000C96B010ECA6F0001B4DF050E0701C16F62
:10133000000167DF1200010E0701C96FC8C7CAF7B5
:101340000001A7DF010E016E12000701C151200D3F
:10135000F350800FC46FC96BC4C7CAF7000199DF8F
:10136000800E0701C025C76FC151200DF350C7255E
:10137000C56FC96BC5C7CAF700018BDF0701C66B14
:10138000C651C225E96E000EC321EA6EEF5211E08C
:10139000C651C225E96E000EC321EA6EEFCFC8F731
:1013A0000001C9DF0701C62BC651130801E201D0B5
:1013B000E7D7010E016E00011200B1DF560E0701E2
:1013C000706F650E716F720E726F200E736F350E37
:1013D000746F2E0E756F300E766F330E776F200E92
:1013E000786F340E796F2F0E7A6F360E7B6F2F0E5B
:1013F0007C6F320E7D6F300E7E6F310E7F6F370E39
:10140000806F816B500E846F720E856F6F0E866FCA
:10141000640E876F750E886F630E896F740E8A6F06
:10142000690E8B6F6F0E8C6F6E0E8D6F200E8E6F30
:10143000540E8F6F650E906F730E916F740E926FD6
:10144000650E936F720E946F956B430E986F6F0ECF
:10145000996F6E0E9A6F660E9B6F690E9C6F670E8A
:101460009D6F200E9E6F450E9F6F640EA06F690EDC
:10147000A16F740EA26F6F0EA36F720EA46FA56B97
:10148000500EAC6F610EAD6F750EAE6F6C0EAF6F20
:10149000200EB06F480EB16F6F0EB26F6C0EB36F4F
:1014A0006F0EB46F770EB56F6B0EB66F6F0EB76FB2
:1014B0002D0EB86F540EB96F690EBA6F740EBB6FF4
:1014C000750EBC6F6C0EBD6F610EBE6F720EBF6F7E
:1014D000C06BC16B070EC36F840EC26F000135DF96
:1014E0000701C06B010EC16F070EC36F980EC26F6C
:1014F00000012BDF0701C06B020EC16F070EC36F27
:10150000AC0EC26F000121DF0701C06B030EC16F7B
:10151000070EC36F700EC26F000117DF0A0E0701BE
:10152000C06FFA0EC16F00016CDE0701C02FF9D742
:101530000001F5DEF1EF47F0F2CF74F7F29EAA6AF0
:10154000780EA96EA69CA69EA680A850070174BF1F
:10155000F28E706FF2CF74F7F29EAA6A790EA96EBE
:10156000A69CA69EA680A85074BFF28E716F736B66
:1015700071C772F772C775F7746B70517425726F0B
:10158000000E7521736F72C701F073C702F000017E
:10159000F3EF47F00701756B7551030820E3070E61
:1015A0007B6F760E7A6F75517A25016E000E7B2166
:1015B000036E0150E96E03C0EAFF745175257C6F1C
:1015C000F2CF7DF7F29EAA6A7CC7A9FFA69CA69ED1
:1015D000A680A8507DBFF28EEF6E752BDDD776C743
:1015E00000F077C701F078C702F079C703F0000177
:1015F0001200120E0701746F0001CCDF03C054F219
:1016000002C053F201C052F200C051F2160E07019F
:10161000746F0001BFDF03C058F202C057F201C06F
:1016200056F200C055F21A0E0701746F0001B2DFC6
:1016300003C05CF202C05BF201C05AF200C059F272
:10164000F2CF74F7F29EAA6AA96AA69CA69EA6800B
:10165000A850070174BFF28E706FF2CF74F7F29E3C
:10166000AA6A010EA96EA69CA69EA680A85074BF69
:10167000F28E716F736B71C772F7746B7051742552
:1016800002013F6F000E070172210201406FF2CF8D
:1016900074F7F29EAA6A020EA96EA69CA69EA68068
:1016A000A850070174BFF28E706FF2CF74F7F29EEC
:1016B000AA6A030EA96EA69CA69EA680A85074BF17
:1016C000F28E716F736B71C772F7746B7051742502
:1016D0000201416F000E070172210201426FF2CF39
:1016E00074F7F29EAA6A040EA96EA69CA69EA68016
:1016F000A850070174BFF28E706FF2CF74F7F29E9C
:10170000AA6A050EA96EA69CA69EA680A85074BFC4
:10171000F28E716F736B71C772F7746B70517425B1
:101720000201436F000E070172210201446FF2CFE4
:1017300074F7F29EAA6A060EA96EA69CA69EA680C3
:10174000A850070174BFF28E706FF2CF74F7F29E4B
:10175000AA6A070EA96EA69CA69EA680A85074BF72
:10176000F28E716F736B71C772F7746B7051742561
:101770000201456F000E070172210201466FF2CF90
:1017800074F7F29EAA6A080EA96EA69CA69EA68071
:10179000A850070174BFF28E706FF2CF74F7F29EFB
:1017A000AA6A090EA96EA69CA69EA680A85074BF20
:1017B000F28E716F736B71C772F7746B7051742511
:1017C0000201476F000E070172210201486FF2CF3C
:1017D00074F7F29EAA6A0A0EA96EA69CA69EA6801F
:1017E000A850070174BFF28E706FF2CF74F7F29EAB
:1017F000AA6A0B0EA96EA69CA69EA680A85074BFCE
:10180000F28E716F736B71C772F7746B70517425C0
:101810000201496F000E0701722102014A6FF2CFE7
:1018200074F7F29EAA6A0C0EA96EA69CA69EA680CC
:10183000A850070174BFF28E706FF2CF74F7F29E5A
:10184000AA6A0D0EA96EA69CA69EA680A85074BF7B
:10185000F28E716F736B71C772F7746B7051742570
:1018600002014B6F000E0701722102014C6FF2CF93
:1018700074F7F29EAA6A0E0EA96EA69CA69EA6807A
:10188000A850070174BFF28E706FF2CF74F7F29E0A
:10189000AA6A0F0EA96EA69CA69EA680A85074BF29
:1018A000F28E716F736B71C772F7746B7051742520
:1018B00002014D6F000E0701722102014E6FF2CF3F
:1018C00074F7F29EAA6A100EA96EA69CA69EA68028
:1018D000A850070174BFF28E706FF2CF74F7F29EBA
:1018E000AA6A110EA96EA69CA69EA680A85074BFD7
:1018F000F28E716F736B71C772F7746B70517425D0
:1019000002014F6F000E070172210201506F300E6D
:101910000701746F00013EDE03C072F202C071F273
:1019200001C070F200C06FF2340E0701746F000145
:1019300031DE03C076F202C075F201C074F200C05D
:1019400073F2380E0701746F000124DE03C07AF2CF
:1019500002C079F201C078F200C077F2F2CF74F7DA
:10196000F29EAA6A1E0EA96EA69CA69EA680A850EC
:10197000070174BFF28E706FF2CF74F7F29EAA6AFD
:101980001F0EA96EA69CA69EA680A85074BFF28EBC
:10199000716F736B71C772F7746B705174250201AC
:1019A0005D6F000E0701722102015E6FF2CF74F7C6
:1019B000F29EAA6A200EA96EA69CA69EA680A8509A
:1019C000070174BFF28E706FF2CF74F7F29EAA6AAD
:1019D000210EA96EA69CA69EA680A85074BFF28E6A
:1019E000716F736B71C772F7746B7051742502015C
:1019F0005F6F000E070172210201606FF2CF74F772
:101A0000F29EAA6A220EA96EA69CA69EA680A85047
:101A1000070174BFF28E706FF2CF74F7F29EAA6A5C
:101A2000230EA96EA69CA69EA680A85074BFF28E17
:101A3000716F736B71C772F7746B7051742502010B
:101A4000616F000E070172210201626FF2CF74F71D
:101A5000F29EAA6A240EA96EA69CA69EA680A850F5
:101A6000070174BFF28E706FF2CF74F7F29EAA6A0C
:101A7000250EA96EA69CA69EA680A85074BFF28EC5
:101A8000716F736B71C772F7746B705174250201BB
:101A9000636F000E070172210201646FF2CF74F7C9
:101AA000F29EAA6A260EA96EA69CA69EA680A850A3
:101AB000070174BFF28E706FF2CF74F7F29EAA6ABC
:101AC000270EA96EA69CA69EA680A85074BFF28E73
:101AD000716F736B71C772F7746B7051742502016B
:101AE000656F000E070172210201666FF2CF74F775
:101AF000F29EAA6A280EA96EA69CA69EA680A85051
:101B0000070174BFF28E706FF2CF74F7F29EAA6A6B
:101B1000290EA96EA69CA69EA680A85074BFF28E20
:101B2000716F736B71C772F7746B7051742502011A
:101B3000676F000E070172210201686FF2CF74F720
:101B4000F29EAA6A2A0EA96EA69CA69EA680A850FE
:101B5000070174BFF28E706FF2CF74F7F29EAA6A1B
:101B60002B0EA96EA69CA69EA680A85074BFF28ECE
:101B7000716F736B71C772F7746B705174250201CA
:101B8000696F000E0701722102016A6FF2CF74F7CC
:101B9000F29EAA6A2C0EA96EA69CA69EA680A850AC
:101BA000070174BFF28E706FF2CF74F7F29EAA6ACB
:101BB0002D0EA96EA69CA69EA680A85074BFF28E7C
:101BC000716F736B71C772F7746B7051742502017A
:101BD0006B6F000E0701722102016C6FF2CF74F778
:101BE000F29EAA6A2E0EA96EA69CA69EA680A8505A
:101BF000070174BFF28E706FF2CF74F7F29EAA6A7B
:101C00002F0EA96EA69CA69EA680A85074BFF28E29
:101C1000716F736B71C772F7746B70517425020129
:101C20006D6F000E0701722102016E6F0001F9EF66
:101C300047F00900F5520DE0F6CFA8F7F7CFA9F766
:101C4000F5509EA8FED7AD6EA8C7F6FFA9C7F7FF4F
:101C5000F0D7120032C2EAFF31C2E9FF0701BCC768
:101C6000EFFFE92AD8B4EA2AEF6A0201312BD8B48F
:101C7000322B000112000900F5520CE0F6CFAFF74D
:101C8000F7CFB0F7F5CFBCF7E5DFAFC7F6FFB0C7CA
:101C9000F7FFF1D712000701AF35006E0036FC0EDA
:101CA0000016C250830B0010C26EB36BB26BB46BE4
:101CB000B4511F0809E3C282C2B2FED7C350B22793
:101CC000C450B323B42BF4D7B331B16FB231B06F7A
:101CD000B133B033B133B033B133B033B133B033E8
:101CE000070EB117B0C701F0B1C702F000014CEF09
:101CF0001DF0800ED8A202D00701E81B0701ED6B92
:101D0000EE6BE4C7ECF7E851EC1BE351D8B4DFD03D
:101D1000EB6F006EE751D8B4E3D0EB5FD8B483D05B
:101D20003EE3E8C7F1F7F18FE9C7F0F7EAC7EFF74D
:101D3000EE6BD890F133F033EF33EE33EB2FF8D76F
:101D4000ECAF03D0ED81E0D0ED91EB91ED89070E82
:101D5000EA6EE60EE96EEBD0ED99ECBF0AD0EBA18E
:101D600013D0F133F033EF33EE33002AD8B4C7D0B9
:101D70000BD0F1BF0CD0D890EE37EF37F037F137FA
:101D80000006D8B4BCD0F5D7ED8D6DD0ED9DE4C77D
:101D9000ECF7E4AF02D0F18FABD0F19FA9D0E7C749
:101DA000EBF7E7C700F0E351EB5FE4C7F1F7F18F22
:101DB000E5C7F0F7E6C7EFF7EE6BD890F133F033F5
:101DC000EF33EE33EB2FF8D7ECAF03D0ED839CD09D
:101DD000ED93EB91ED8B070EEA6EEA0EE96EA7D05C
:101DE000ED9BECBF0AD0EBA113D0F133F033EF330E
:101DF000EE33002AD8B483D00BD0F1BF0CD0D890EA
:101E0000EE37EF37F037F1370006D8B478D0F5D792
:101E1000ED8F29D0ED9FE8C7ECF7E8AF02D0F18F46
:101E200067D0F19F65D0E8C7F1F7F18FE9C7F0F708
:101E3000EAC7EFF7ECAF04D0F19FED8565D0ED95E3
:101E4000EE6BEB91070EEA6EE60EE96E70D0ECBF1A
:101E50001CD0E4C7ECF7EBA106D0F133F033EF333D
:101E6000EE33002A4CE0EEAF0BD0EF2B09E1F02B64
:101E700007E1F12B05E1F133F033EF33002A3FE0C6
:101E8000EDBD84D7EDBFC6D71CD0800EF11BF1AFDE
:101E900004D03AD0E8C7ECF70AD0E4C7ECF7F15326
:101EA00006E1F05304E1EF5302E1006A21D0F1BFF3
:101EB00008D0D890EE37EF37F037F137002EF7D74C
:101EC0001ED0ECAF02D0F18F13D0F19F11D0E7C735
:101ED00000F0E8C7F1F7E9C7F0F7EAC7EFF708D075
:101EE000E3C700F0E4C7F1F7E5C7F0F7E6C7EFF79F
:101EF000F1C701F0F0C702F0EFC703F034D0006A79
:101F0000016A026A036A2FD0EE6BEF1FF01FF11F08
:101F1000EE1FEE2B05E1EF2B03E1F02B01E1F12B9E
:101F2000EDB112D7EDB354D7EDB589D7B3D7EF5094
:101F3000EF2705E3F02B03E1F12BD8B4EB81ED5251
:101F4000EF50F02703E3F12BD8B4EB81ED52EF50C3
:101F5000EFBE01D0800AF127D8B0EB81EDB9FCD6F5
:101F6000EDBB3ED774D7000112000701D851D8B499
:101F7000A5D0E46FDC51D8B4A1D0E45F05E37F0EB7
:101F8000E427D8B09BD006D0810EE45FD8A096D0CD
:101F9000D8B494D0E4C700F0016A026A036AE36B24
:101FA000D9C7E2F7E28FDAC7E1F7DBC7E0F7190E2E
:101FB000E46FDF51E05F0DE2010EE15F0AE2E25FF4
:101FC00008E2E35F06E2E32BE22BE12BDF51E0279F
:101FD00028D0DE51E15F12E2010EE25F0FE2E35F23
:101FE0000DE2E32BE22BDE51E127DF51E02719E37D
:101FF000E12B17E1E22B15E1E32B13D0DD51800932
:10200000E25F0EE2010EE35F0BE2E32BDD5180099C
:10201000E227DE51E127E9E3E22BE7E1E32BE5D715
:102020000380E42F01D00BD0D890E037E137E237BE
:10203000E337D890033602360136E537BAD7E5A143
:1020400006D0D890013202320332E53302D00006C6
:1020500035E0E5BF1ED0D890E037E137E237E3370F
:10206000DF51E05F07E2010EE15F04E2E25F02E2BE
:10207000E35F1AE3DE51E15F05E2010EE25F02E297
:10208000E35F12E3DD518009E25F03E2010EE35FEB
:102090000BE3032A09E1022A07E1012A05E1002AEC
:1020A0000DE0013202320332D9C7E4F7DD51E41BFF
:1020B000E4AF02D0018E06D0019E04D0006A016A0E
:1020C000026A036A000112000701DF51D8B471D01F
:1020D000006EE351D8B46DD0002604E3810E0026D3
:1020E00068E204D07F0E005E64E363E0E0C7E7F7D8
:1020F000E451E71BE08FE48FE251E603F4CFE9F708
:10210000E151E503F4CF03F0F3CFE8F7E603F35032
:10211000E927F450E823000E0322E251E503F350CF
:10212000E927F450E823000E026A03220222E0515C
:10213000E603F350E827F4500322000E0222E05198
:10214000E503F3500326F4500222000E016A012237
:10215000E251E403F350E827F4500322000E022278
:102160000122E151E403F3500326F4500222000E51
:102170000122E051E403F3500226F4500122002A28
:1021800001BE05D0E8370336023601360006000EE0
:10219000E8AF0AD0032A02220122015005E10250D1
:1021A00003E1035001E1002AE7BF018EE7AF019E82
:1021B00004D0006A016A026A036A000112008E0EEE
:1021C000006EE4C701F0E3C702F0036A015209E1BF
:1021D00002C001F0026A080E005E015202E1006ACC
:1021E00008D0D89001BE04D0023601360006F9D7D7
:1021F000019E1200E0C7E7F70701E451E71BE7AFD4
:1022000005D0D894D890E0BFD8802FD0E0C7E7F7AA
:10221000E3C7E8F7DF51E85F06E0E7AF26D0D85024
:10222000010AD86E22D0E4C7E8F7E051E85F06E083
:10223000E7AF1BD0D850010AD86E17D0E5C7E8F732
:10224000E151E85F06E0E7AF10D0D850010AD86E40
:102250000CD0E6C7E8F7E251E85F06E0E7AF05D04B
:10226000D850010AD86E01D0D890000112008E0E0D
:10227000006E0701DF51005EE0C702F0E1C701F028
:10228000028E005209E0D890025202E1015204E0AD
:1022900002320132002EF7D7E0AF05D0011E021E38
:1022A000012AD8B4022A000112000701DE91D2C728
:1022B000D7F7D1C7D6F7D0C7D5F7CFC7D4F7D2C78E
:1022C000E2F7D1C7E1F7D0C7E0F7CFC7DFF7E66B9A
:1022D000E56BE46BE36B00018DDF06E30701DE8154
:1022E000D551800AD56F0001D7C7E2F7D6C7E1F70D
:1022F000D5C7E0F7D4C7DFF70701E66BE56BE46B02
:102300008E0EE36F000176DF01E217E1D7C7E2F737
:10231000D6C7E1F7D5C7E0F7D4C7DFF7A8DF02C01B
:10232000E4F701C0E3F74BDF03C0DBF702C0DAF7E5
:1023300001C0D9F700C0D8F7C7D0D7C7E2F7D6C7D2
:10234000E1F7D5C7E0F7D4C7DFF7800E0701E66FE6
:10235000960EE56F180EE46F960EE36F00014ADFEC
:10236000D8A0AAD0D7C7E2F7D6C7E1F7D5C7E0F71C
:10237000D4C7DFF70701E66BE56BE46B700EE36F24
:102380000001A2DE03C0E2F702C0E1F701C0E0F7FE
:1023900000C0DFF76CDF02C0DDF701C0DCF7D7C794
:1023A000E2F7D6C7E1F7D5C7E0F7D4C7DFF70701F3
:1023B000E66BE56BE46B700EE36F000185DE03C036
:1023C000E2F702C0E1F701C0E0F700C0DFF7DDC7C8
:1023D000E4F7DCC7E3F7F3DED882E2C7E6F7E1C74C
:1023E000E5F7E0C7E4F7DFC7E3F703C0EAF702C0A9
:1023F000E9F701C0E8F700C0E7F77BDC0701E26B13
:10240000E16BE06B8E0EDF6F03C0E6F702C0E5F70D
:1024100001C0E4F700C0E3F7000156DE03C0D7F7C0
:1024200002C0D6F701C0D5F700C0D4F7DDC7E4F786
:10243000DCC7E3F7C4DE0701E26BE16BE06B8E0EF5
:10244000DF6F03C0E6F702C0E5F701C0E4F700C0A4
:10245000E3F7000139DE03C0DBF702C0DAF701C0A1
:10246000D9F700C0D8F7D7C7E2F7D6C7E1F7D5C785
:10247000E0F7D4C7DFF7FBDE02C0E4F701C0E3F703
:102480009EDED892DBC7E6F7DAC7E5F7D9C7E4F7EF
:10249000D8C7E3F703C0EAF702C0E9F701C0E8F7DD
:1024A00000C0E7F726DC03C0DBF702C0DAF701C0A3
:1024B000D9F700C0D8F708D0D7C7DBF7D6C7DAF707
:1024C000D5C7D9F7D4C7D8F7D7C7E2F7D6C7E1F74A
:1024D000D5C7E0F7D4C7DFF7CADE02C0E4F701C012
:1024E000E3F76DDED882D7C7E6F7D6C7E5F7D5C7DD
:1024F000E4F7D4C7E3F703C0EAF702C0E9F701C085
:10250000E8F700C0E7F779EC0EF003C0D7F702C098
:10251000D6F701C0D5F700C0D4F70701DEA103D07C
:10252000D951800AD96FD7C7E2F7D6C7E1F7D5C727
:10253000E0F7D4C7DFF7E66BE56BE46BE36B000114
:1025400059DE3CE00701DEA11CD0D3531AE1D8824A
:10255000DBC7E6F7DAC7E5F7D9C7E4F7D8C7E3F78B
:10256000EA6BE96BE86B7F0EE76F000179EC0EF028
:1025700003C0DBF702C0DAF701C0D9F700C0D8F713
:102580000701DEB11CD0D32D1AD0D892DBC7E6F7F5
:10259000DAC7E5F7D9C7E4F7D8C7E3F7EA6BE96B21
:1025A000E86B7F0EE76F000179EC0EF003C0DBF7FC
:1025B00002C0DAF701C0D9F700C0D8F70701D2C7C7
:1025C000E2F7D1C7E1F7D0C7E0F7CFC7DFF7E66B97
:1025D000E56BE46BE36B00010DDE06E10701DB6BED
:1025E000DA6BD96BD86B0001D8C700F0D9C701F0FE
:1025F000DAC702F0DBC703F01200CEC7D2F7CDC7AF
:10260000D1F7CCC7D0F7CBC7CFF7010E0701D36FF7
:1026100000014BDE76EF13F0CEC7D2F7CDC7D1F76E
:10262000CCC7D0F7CBC7CFF70701D36B00013DDE96
:1026300099EF13F0C2C7E2F7C1C7E1F7C0C7E0F7EF
:10264000BFC7DFF70701E66BE56BE46BE36B0001E7
:10265000D1DDD8B49BD0BEC7DBF7BDC7DAF7BCC7A6
:10266000D9F7BBC7D8F7C2C7DFF7C1C7DEF7C0C706
:10267000DDF7BFC7DCF779DC03C0CAF702C0C9F7D2
:1026800001C0C8F700C0C7F703C0E2F702C0E1F716
:1026900001C0E0F700C0DFF70701E66BE56BE46B14
:1026A000E36B0001A7DD23E3BEC7DBF7BDC7DAF7A5
:1026B000BCC7D9F7BBC7D8F7C2C7DFF7C1C7DEF7BA
:1026C000C0C7DDF7BFC7DCF750DC03C0CAF702C0E4
:1026D000C9F701C0C8F700C0C7F703C0CEF702C0F2
:1026E000CDF701C0CCF700C0CBF787D722D0BEC74B
:1026F000DBF7BDC7DAF7BCC7D9F7BBC7D8F7C2C786
:10270000DFF7C1C7DEF7C0C7DDF7BFC7DCF72DDCD9
:1027100003C0CAF702C0C9F701C0C8F700C0C7F7B5
:1027200003C0CEF702C0CDF701C0CCF700C0CBF795
:1027300073D703C0C6F702C0C5F701C0C4F700C015
:10274000C3F7C6C7E2F7C5C7E1F7C4C7E0F7C3C719
:10275000DFF7C2C7E6F7C1C7E5F7C0C7E4F7BFC7F1
:10276000E3F7B2DCD882BEC7E6F7BDC7E5F7BCC762
:10277000E4F7BBC7E3F703C0EAF702C0E9F701C01B
:10278000E8F700C0E7F779EC0EF000D012008E0EEB
:10279000006ED6C701F0D5C702F0036A01AE05D0BE
:1027A000011E021E022A01E1012A015209E102C0B2
:1027B00001F0026A080E005E015202E1006A0ED0CA
:1027C000D89001BE04D0023601360006F9D70701C1
:1027D000D6AF02D0000102D0019E00011200C2C794
:1027E000C6F7C1C7C5F7C0C7C4F7BFC7C3F7C6C7D9
:1027F000E2F7C5C7E1F7C4C7E0F7C3C7DFF70701D2
:10280000E66BE56BE46B7F0EE36F0001F3DCD8B49D
:102810009ED1070E0701D56FC30EE96ED5C7EAFF3B
:102820007E0EEF6ED882C6C7E6F7C5C7E5F7C4C708
:10283000E4F7C3C7E3F7EA6BE96BE86B7F0EE76F7A
:10284000000179EC0EF003C0D7F702C0D6F701C043
:10285000D5F700C0D4F7D892C6C7E6F7C5C7E5F7E5
:10286000C4C7E4F7C3C7E3F70701EA6BE96BE86B9A
:102870007F0EE76F000179EC0EF0D7C7DBF7D6C704
:10288000DAF7D5C7D9F7D4C7D8F703C0DFF702C046
:10289000DEF701C0DDF700C0DCF7B5EC0FF003C0D8
:1028A000C6F702C0C5F701C0C4F700C0C3F7C6C76A
:1028B000E2F7C5C7E1F7C4C7E0F7C3C7DFF7C6C78C
:1028C000E6F7C5C7E5F7C4C7E4F7C3C7E3F764ECA9
:1028D00010F003C0D2F702C0D1F701C0D0F700C09A
:1028E000CFF7990E0701E26F470EE16F8A0EE06F96
:1028F0007F0EDF6FD2C7E6F7D1C7E5F7D0C7E4F7A1
:10290000CFC7E3F7000164EC10F003C0D7F702C0B3
:10291000D6F701C0D5F700C0D4F7D89203C0E6F7C8
:1029200002C0E5F701C0E4F700C0E3F70701EA6B76
:10293000E96BE86B800EE76F000179EC0EF003C0E5
:10294000CAF702C0C9F701C0C8F700C0C7F74C0EEC
:102950000701E26FF30EE16F3A0EE06F7B0EDF6F5F
:10296000D2C7E6F7D1C7E5F7D0C7E4F7CFC7E3F79B
:10297000000164EC10F003C0D7F702C0D6F701C025
:10298000D5F700C0D4F7D89203C0E6F702C0E5F748
:1029900001C0E4F700C0E3F72B0E0701EA6F9D0EBC
:1029A000E96FDF0EE86F7E0EE76F000179EC0EF045
:1029B00003C0CEF702C0CDF701C0CCF700C0CBF703
:1029C000CEC7E2F7CDC7E1F7CCC7E0F7CBC7DFF75B
:1029D000D2C7E6F7D1C7E5F7D0C7E4F7CFC7E3F72B
:1029E00064EC10F003C0D7F702C0D6F701C0D5F7EA
:1029F00000C0D4F7D89203C0E6F702C0E5F701C0E3
:102A0000E4F700C0E3F70701EA6BE96BE86B7F0EC0
:102A1000E76F000179EC0EF003C0CEF702C0CDF7EE
:102A200001C0CCF700C0CBF7C6C7E2F7C5C7E1F7D6
:102A3000C4C7E0F7C3C7DFF7CAC7E6F7C9C7E5F7FA
:102A4000C8C7E4F7C7C7E3F764EC10F003C0D7F7D3
:102A500002C0D6F701C0D5F700C0D4F703C0DBF73A
:102A600002C0DAF701C0D9F700C0D8F7CEC7DFF748
:102A7000CDC7DEF7CCC7DDF7CBC7DCF7B5EC0FF081
:102A800003C0CAF702C0C9F701C0C8F700C0C7F742
:102A9000070E0701D56FBF0EE96ED5C7EAFF7E0EA0
:102AA000EF5CD36FD3AF14D0000ED880D355D66B64
:102AB000D56FD5BFD60700016ADE00C0CBF7015045
:102AC000800A0701CC6F02C0CDF703C0CEF710D04B
:102AD000D66BD3C7D5F7D5BFD607000158DE03C0E4
:102AE000CEF702C0CDF701C0CCF700C0CBF707018D
:102AF000CEC7E2F7CDC7E1F7CCC7E0F7CBC7DFF72A
:102B0000180EE66F720EE56F310EE46F7E0EE36F06
:102B1000000164EC10F0D892CAC7E6F7C9C7E5F720
:102B2000C8C7E4F7C7C7E3F703C0EAF702C0E9F78D
:102B300001C0E8F700C0E7F779EC0EF003C0CAF770
:102B400002C0C9F701C0C8F700C0C7F706D0070127
:102B5000CA6BC96BC86BC76B0001C7C700F0C8C799
:102B600001F0C9C702F0CAC703F01200C2C7E2F7FA
:102B7000C1C7E1F7C0C7E0F7BFC7DFF73B0E0701EA
:102B8000E66FAA0EE56F380EE46F7F0EE36F00016B
:102B900064EC10F003C0E2F702C0E1F701C0E0F717
:102BA00000C0DFF737EC11F001C0CFF70701D0917B
:102BB000C2C7C6F7C1C7C5F7C0C7C4F7BFC7C3F709
:102BC000C2C7E2F7C1C7E1F7C0C7E0F7BFC7DFF789
:102BD000E66BE56BE46BE36B0001FAEC10F007E3E6
:102BE0000701D081CF6DC451800AC46F0001070175
:102BF000CA6BC96BC86BC76B070ED26FC70EE96E85
:102C0000D2C7EAFF7F0ECF25EF6EC6C7E2F7C5C772
:102C1000E1F7C4C7E0F7C3C7DFF73B0EE66FAA0EC4
:102C2000E56F380EE46F7F0EE36F000164EC10F087
:102C300003C0D4F702C0D3F701C0D2F700C0D1F768
:102C40000701D66BCFC7D5F7D5BFD60700019FDDEB
:102C5000D882D4C7E6F7D3C7E5F7D2C7E4F7D1C720
:102C6000E3F703C0EAF702C0E9F701C0E8F700C0E4
:102C7000E7F779EC0EF003C0C6F702C0C5F701C054
:102C8000C4F700C0C3F77C0E0701E26F880EE16F46
:102C9000590EE06F720EDF6FC6C7E6F7C5C7E5F7DE
:102CA000C4C7E4F7C3C7E3F7000164EC10F003C046
:102CB000D4F702C0D3F701C0D2F700C0D1F7D89241
:102CC00003C0E6F702C0E5F701C0E4F700C0E3F790
:102CD000E00E0701EA6F970EE96F260EE86F750E9A
:102CE000E76F000179EC0EF003C0CEF702C0CDF71C
:102CF00001C0CCF700C0CBF7CEC7E2F7CDC7E1F7F4
:102D0000CCC7E0F7CBC7DFF7C6C7E6F7C5C7E5F71F
:102D1000C4C7E4F7C3C7E3F764EC10F003C0D4F70B
:102D200002C0D3F701C0D2F700C0D1F7D89203C0D8
:102D3000E6F702C0E5F701C0E4F700C0E3F7C40E10
:102D40000701EA6F1D0EE96F1E0EE86F780EE76F40
:102D5000000179EC0EF003C0CEF702C0CDF701C040
:102D6000CCF700C0CBF7CEC7E2F7CDC7E1F7CCC7B1
:102D7000E0F7CBC7DFF7C6C7E6F7C5C7E5F7C4C7B7
:102D8000E4F7C3C7E3F764EC10F003C0D4F702C064
:102D9000D3F701C0D2F700C0D1F7D89203C0E6F74D
:102DA00002C0E5F701C0E4F700C0E3F75E0E0701DB
:102DB000EA6F500EE96F630EE86F7A0EE76F00015D
:102DC00079EC0EF003C0CEF702C0CDF701C0CCF70E
:102DD00000C0CBF7CEC7E2F7CDC7E1F7CCC7E0F72D
:102DE000CBC7DFF7C6C7E6F7C5C7E5F7C4C7E4F743
:102DF000C3C7E3F764EC10F003C0D4F702C0D3F705
:102E000001C0D2F700C0D1F7D89203C0E6F702C0E4
:102E1000E5F701C0E4F700C0E3F71A0E0701EA6F17
:102E2000FE0EE96F750EE86F7C0EE76F000179EC1E
:102E30000EF003C0CEF702C0CDF701C0CCF700C042
:102E4000CBF7CEC7E2F7CDC7E1F7CCC7E0F7CBC7EA
:102E5000DFF7C6C7E6F7C5C7E5F7C4C7E4F7C3C7DA
:102E6000E3F764EC10F003C0D4F702C0D3F701C05D
:102E7000D2F700C0D1F7D89203C0E6F702C0E5F759
:102E800001C0E4F700C0E3F7180E0701EA6F720E05
:102E9000E96F310EE86F7E0EE76F000179EC0EF0FE
:102EA00003C0CEF702C0CDF701C0CCF700C0CBF70E
:102EB000C6C7E2F7C5C7E1F7C4C7E0F7C3C7DFF786
:102EC000CEC7E6F7CDC7E5F7CCC7E4F7CBC7E3F746
:102ED00064EC10F0D8920701E66BE56BE46B7F0EB3
:102EE000E36F03C0EAF702C0E9F701C0E8F700C0EA
:102EF000E7F7000179EC0EF0CAC7E2F7C9C7E1F7BE
:102F0000C8C7E0F7C7C7DFF703C0E6F702C0E5F7B9
:102F100001C0E4F700C0E3F764EC10F003C0CAF7A7
:102F200002C0C9F701C0C8F700C0C7F70701D0A1A8
:102F300019D0DB6BDA6BD96B7F0ED86FCAC7DFF79E
:102F4000C9C7DEF7C8C7DDF7C7C7DCF70001B5ECB6
:102F50000FF003C0CAF702C0C9F701C0C8F700C02C
:102F6000C7F70701C7C700F0C8C701F0C9C702F01B
:102F7000CAC703F000011200B6C7E2F7B5C7E1F710
:102F8000B4C7E0F7B3C7DFF70701E66BE56BE46BA7
:102F9000E36B0001FAEC10F0D8A0D9D0BAC7BEF7A5
:102FA000B9C7BDF7B8C7BCF7B7C7BBF70701C26B56
:102FB000C16BC06B7F0EBF6F00011AEC13F003C032
:102FC000BEF702C0BDF701C0BCF700C0BBF703C02D
:102FD000E2F702C0E1F701C0E0F700C0DFF7070148
:102FE000E66BE56BE46BE36B0001FAEC10F0D8A440
:102FF000AED0BAC7BEF7B9C7BDF7B8C7BCF7B7C739
:10300000BBF70701C26BC16BC06B800EBF6F0001C5
:103010001AEC13F003C0BEF702C0BDF701C0BCF745
:1030200000C0BBF703C0E2F702C0E1F701C0E0F760
:1030300000C0DFF70701E66BE56BE46BE36B0001B3
:10304000FAEC10F041E1B3C7BBF70701B451800AB5
:10305000BC6FB5C7BDF7B6C7BEF7B6C7C2F7B5C731
:10306000C1F7C06FB3C7BFF70001EFEC13F003C0A7
:10307000BEF702C0BDF701C0BCF700C0BBF703C07C
:10308000E2F702C0E1F701C0E0F700C0DFF7BAC71E
:10309000E6F7B9C7E5F7B8C7E4F7B7C7E3F764ECF5
:1030A00010F003C0BEF702C0BDF701C0BCF700C0FE
:1030B000BBF703C0C2F702C0C1F701C0C0F700C030
:1030C000BFF754DDE3D042D0B3C7BBF70701B4511B
:1030D000800ABC6FB5C7BDF7B6C7BEF7B6C7C2F7A3
:1030E000B5C7C1F7C06FB3C7BFF70001EFEC13F06E
:1030F00003C0BEF702C0BDF701C0BCF700C0BBF7FC
:1031000003C0E2F702C0E1F701C0E0F700C0DFF75B
:10311000BAC7E6F7B9C7E5F7B8C7E4F7B7C7E3F743
:1031200064EC10F003C0BEF702C0BDF701C0BCF7ED
:1031300000C0BBF703C0C2F702C0C1F701C0C0F7AF
:1031400000C0BFF713DD800E011AA0D09FD0B6C714
:10315000E2F7B5C7E1F7B4C7E0F7B3C7DFF7070198
:10316000E66BE56BE46BE36B0001FAEC10F030E327
:10317000BAC7BEF7B9C7BDF7B8C7BCF7B7C7BBF783
:103180000701C26BC16BC06B7F0EBF6F00011AECF1
:1031900013F003C0BEF702C0BDF701C0BCF700C00A
:1031A000BBF703C0E2F702C0E1F701C0E0F700C0DF
:1031B000DFF70701E66BE56BE46BE36B0001FAEC0C
:1031C00010F006E0006A016A026A036A5FD05ED00E
:1031D000B6C7E2F7B5C7E1F7B4C7E0F7B3C7DFF7A3
:1031E0000701E66BE56BE46BE36B0001FAEC10F0B2
:1031F00012E1BAC7E2F7B9C7E1F7B8C7E0F7B7C756
:10320000DFF70701E66BE56BE46BE36B0001FAECBB
:1032100010F001E237E1B6C7C2F7B5C7C1F7B4C7CE
:10322000C0F7B3C7BFF7EFEC13F003C0BEF702C09F
:10323000BDF701C0BCF700C0BBF703C0E2F702C096
:10324000E1F701C0E0F700C0DFF7BAC7E6F7B9C79A
:10325000E5F7B8C7E4F7B7C7E3F764EC10F003C0CD
:10326000BEF702C0BDF701C0BCF700C0BBF703C08A
:10327000C2F702C0C1F701C0C0F700C0BFF776DCDB
:1032800005D004D0006A016A026A036A9FEF1EF04B
:103290000900F6CFB0F7F7CFB1F7F5CFBCF72AECBE
:1032A0000EF0B0C7F6FFB1C7F7FF0701AF2F01D08F
:1032B00002D00001EDD700011200EACFB7F7E9CF45
:1032C000B6F70701B039F009B26FB227E20FB36F5A
:1032D000320FB56FB0510F0BB327B327B527E90FE6
:1032E000B46FB427B427AF390F0BB427B527B43761
:1032F000B537B51FB537AF510F0BB527B237070E2E
:10330000B16F0A0EB407B527FDE3B307B427FDE399
:10331000B207B327FDE3B107B227FDE3070EEA6E5C
:10332000B10EE96E070EB615B69DE926000EEA222B
:10333000E950B50804E1EA50070801E1B68DEF5005
:10334000006E08E1B6BD06D0B6B916D0B6B702D049
:10335000200E03D0B687B699300E0026EACFB0F71C
:10336000E9CFAFF700C0BCF700012AEC0EF0B0C700
:10337000EAFFAFC7E9FF0701EE50B6ADD9D70001AC
:1033800012000701BC51B608BC6F036ABDC7C0F785
:10339000BD8FD890BD33BE33BF330332023201320A
:1033A0000032BC2FF6D7C0AF0BD0001E011E021E8C
:1033B000031E002AD8B4012AD8B4022AD8B4032A9A
:1033C00000011200D8B204D0070EEA6EC40EE96EF6
:1033D000006A016A026A036A0701C46BC56BC66BA7
:1033E000C76BC351C211C111C0112CE0200EC86FB0
:1033F000D890BC37BD37BE37BF37C437C537C6379F
:10340000C737C351C75D08E1C251C65D05E1C1516F
:10341000C55D02E1C051C45D0FE3C051C45FC1513D
:10342000D8A0C13DC55FC251D8A0C23DC65FC3513F
:10343000D8A0C33DC75FD8800036013602360336B8
:10344000C82FD6D7C4C7EFFFC5C7ECFFC6C7ECFF70
:10345000C7C7ECFF00011200E9500701B46FB35178
:10346000B66F1CE0B2C7E2F7B1C7E1F7B0C7E0F74B
:10347000AFC7DFF7E66BE56B200EE46F820EE36FFC
:10348000000164EC10F003C0B2F702C0B1F701C054
:10349000B0F700C0AFF70701B62FE4D7B2C7BFF748
:1034A000B1C7BEF7B0C7BDF7AFC7BCF7000169DF52
:1034B00003C0B2F702C0B1F701C0B0F700C0AFF768
:1034C0000701B2AF0DD0B407B48BAF1FB01FB11F4F
:1034D000B21FAF2BD8B4B02BD8B4B12BD8B4B22B09
:1034E0003B0EBB6F9A0EBA6FCA0EB96FB86B0A0E5D
:1034F000B66FB351D8B4B42BD882070EEA6EAF0EB4
:10350000E96EB2C7BFF7B1C7BEF7B0C7BDF7AFC767
:10351000BCF7BBC7C3F7BAC7C2F7B9C7C1F7B8C7CB
:10352000C0F700014FDF0150005213E10701B3293A
:10353000B65DD8A402D000010CD0B4510DE00F0B41
:10354000B65D01E044E2B4BF42D0B4BD05D0200E68
:1035500037D0200E0701B417B4AB0FD0B49BB351D2
:10356000D8A4B4070050B46F2D0EBC6F00012AEC34
:103570000EF00701B451006EB46BB351B65D0DE1AE
:103580000050B46F2E0EBC6F00012AEC0EF0070144
:10359000B451006E200EB417000E300EB4AB10D034
:1035A000B49BB351D8A4B4070050B46F2D0EBC6FB8
:1035B00000012AEC0EF00701B451006EB46B300E1E
:1035C000002600C0BCF700012AEC0EF00701D892DB
:1035D000BBC7BFF7BAC7BEF7B9C7BDF7B8C7BCF717
:1035E000C36BC26BC16B0A0EC06F0001EBDE03C080
:1035F000BBF702C0BAF701C0B9F700C0B8F70701BE
:10360000B62F7AD7000112000701B451030802E275
:10361000040EB45FB45304E1939A8A9A93988A98FB
:10362000B42D04D0939A8A8A93988A98B451020848
:1036300004E1939A8A9A93988A88B451030804E122
:10364000939A8A8A93988A8800011200080E016E64
:10365000500E006E002EFED78A929392510E006E8D
:10366000002EFED70701B4378A90D8B09380D8A037
:103670009390938281A2FED7012E01D002D0000147
:10368000E7D7500E006E002EFED78A92939200006C
:103690009380510E006E002EFED7510E006E002E4C
:1036A000FED7938281A2FED7016A510E006E002ED2
:1036B000FED781B001808A9293928A909390000104
:1036C0001200080E0701B56F00C0B6F79380510EC7
:1036D000006E002EFED7938281A2FED781B0D880E3
:1036E00081A0D8900136500E006E002EFED7939226
:1036F0008A92B52FEBD79380510E006E002EFED725
:103700008A90B651D8A493900000938281A2FED7EC
:10371000500E006E002EFED78A929392510E006ECC
:10372000002EFED78A90939000011200AFC7B4F725
:103730006BDF9380500E006E002EFED79382510EE9
:10374000006E002EFED78A909390500E006E002ED1
:10375000FED78A929392800E0701B46F000176DF44
:103760000701B469000172DF93900000938281A287
:10377000FED7500E006E002EFED700D000009380C2
:10378000500E006E002EFED79380500E006E002E5D
:10379000FED79382510E006E002EFED78A90939032
:1037A000500E006E002EFED78A929392810E070172
:1037B000B46F00014BDF010E006E83DF0701B36BB6
:1037C00001C0B2F7010E006E00017BDF0701B16B93
:1037D00001C0B0F793900000938281A2FED7500EF3
:1037E000006E002EFED700D000009380500E006EB9
:1037F000002EFED7000EB027B251B123B0C701F0A2
:10380000B1C702F000011200AFC7B4F7FDDE93802C
:10381000500E006E002EFED79382510E006E002EC9
:10382000FED78A909390500E006E002EFED78A929B
:103830009392720E0701B46F000108DF840E070136
:10384000B46F000103DF93900000938281A2FED742
:10385000500E006E002EFED700D000009380500E58
:10386000006E002EFED79380500E006E002EFED705
:103870009382510E006E002EFED78A909390500EC8
:10388000006E002EFED78A929392730E0701B46FDA
:103890000001DCDE006A15DF01C0B0F79390000084
:1038A000938281A2FED7500E006E002EFED700D06C
:1038B00000009380500E006E002EFED70701B0C7A7
:1038C00001F000011200AFC7B4F79EDE9380500EE6
:1038D000006E002EFED79382510E006E002EFED792
:1038E0008A909390500E006E002EFED78A9293928B
:1038F000A00E0701B46F0001A9DE01C0B1F70701F6
:10390000B12D13D093900000938281A2FED7500E68
:10391000006E002EFED700D000009380500E006E87
:10392000002EFED71A0E016E92D0400EB46F000129
:103930008DDE01C0B1F70701B12D13D093900000C7
:10394000938281A2FED7500E006E002EFED700D0CB
:1039500000009380500E006E002EFED71B0E016EED
:1039600076D0010EB46F000171DE01C0B1F707011E
:10397000B12D13D093900000938281A2FED7500EF8
:10398000006E002EFED700D000009380500E006E17
:10399000002EFED71C0E016E5AD093900000938229
:1039A00081A2FED7500E006E002EFED700D0000080
:1039B0009380500E006E002EFED79380500E006E46
:1039C000002EFED79382510E006E002EFED78A90F5
:1039D0009390500E006E002EFED78A929392A10E05
:1039E000B46F000133DE01C0B1F70701B12D13D070
:1039F00093900000938281A2FED7500E006E002E9D
:103A0000FED700D000009380500E006E002EFED72F
:103A10001D0E016E1CD04B0EC16F000101EC09F0B0
:103A2000006A4FDE01C0B0F793900000938281A23C
:103A3000FED7500E006E002EFED700D000009380FF
:103A4000500E006E002EFED70701B0C701F0000136
:103A500012000701715102081AE100018FEC09F010
:103A6000070E0201326F9B0E316F1C0EF66E100EA8
:103A7000F76E00013BEC0EF00701C06BC16B070E47
:103A8000C36F9B0EC26F0001A5EC09F00701030E86
:103A9000AF6F00014BEF0EF002C09AF701C099F72B
:103AA00007017C6B7B6B480E7A6F850E796F806B9C
:103AB0007F6B7E6B7F0E7D6F886B876B480E866F8A
:103AC000830E856F846B836B400E826F810E816FD6
:103AD0008C6B8B6B180E8A6F830E896F946B936B54
:103AE000600E926F810E916FD8827CC7E6F77BC71C
:103AF000E5F77AC7E4F779C7E3F780C7EAF77FC746
:103B0000E9F77EC7E8F77DC7E7F7000179EC0EF02B
:103B100003C0B2F702C0B1F701C0B0F700C0AFF701
:103B2000D88288C7E6F787C7E5F786C7E4F785C771
:103B3000E3F784C7EAF783C7E9F782C7E8F781C7E5
:103B4000E7F779EC0EF0B2C7DBF7B1C7DAF7B0C729
:103B5000D9F7AFC7D8F703C0DFF702C0DEF701C05F
:103B6000DDF700C0DCF7B5EC0FF003C098F702C03A
:103B700097F701C096F700C095F798C7E2F797C787
:103B8000E1F796C7E0F795C7DFF788C7E6F787C77D
:103B9000E5F786C7E4F785C7E3F764EC10F0D88251
:103BA0007CC7E6F77BC7E5F77AC7E4F779C7E3F7A1
:103BB00003C0EAF702C0E9F701C0E8F700C0E7F781
:103BC00079EC0EF003C090F702C08FF701C08EF7BA
:103BD00000C08DF79AC7E4F799C7E3F7DFEC10F060
:103BE00003C078F702C077F701C076F700C075F719
:103BF00098C7E2F797C7E1F796C7E0F795C7DFF7F1
:103C000078C7E6F777C7E5F776C7E4F775C7E3F750
:103C100064EC10F003C0B2F702C0B1F701C0B0F716
:103C200000C0AFF7D89203C0E6F702C0E5F701C0C5
:103C3000E4F700C0E3F790C7EAF78FC7E9F78EC74C
:103C4000E8F78DC7E7F779EC0EF003C078F702C00C
:103C500077F701C076F700C075F7D882C70E070165
:103C6000E66FBA0EE56F380EE46F7B0EE36F94C714
:103C7000EAF793C7E9F792C7E8F791C7E7F70001BA
:103C800079EC0EF003C0B2F702C0B1F701C0B0F793
:103C900000C0AFF7D8929A0E0701E66F990EE56F54
:103CA000080EE46F870EE36F8CC7EAF78BC7E9F75E
:103CB0008AC7E8F789C7E7F7000179EC0EF007013A
:103CC000DB6BA00EDA6F2A0ED96F8A0ED86F03C095
:103CD000DFF702C0DEF701C0DDF700C0DCF700014E
:103CE000B5EC0FF0D892B2C7E6F7B1C7E5F7B0C7A9
:103CF000E4F7AFC7E3F703C0EAF702C0E9F701C092
:103D0000E8F700C0E7F779EC0EF003C0B2F702C0A5
:103D1000B1F701C0B0F700C0AFF70701B66BB56BE4
:103D2000200EB46F820EB36F03C0BAF702C0B9F7AA
:103D300001C0B8F700C0B7F70001BCEF17F0EACF39
:103D4000B0F7E9CFAFF7D8920701E66BE56BE46B0C
:103D50007F0EE36F03C0EAF702C0E9F701C0E8F79E
:103D600000C0E7F7000179EC0EF0B0C7EAFFAFC77B
:103D7000E9FF78C7DBF777C7DAF776C7D9F775C7F2
:103D8000D8F703C0DFF702C0DEF701C0DDF700C0DF
:103D9000DCF7B5EC0FF003C078F702C077F701C08D
:103DA00076F700C075F7070E0201326F9B0E316F78
:103DB000280EF66E100EF76E080E0701AF6F0001A9
:103DC00048EC19F0100EE96E9AC7B0F799C7AFF733
:103DD0005DEC19F0330EF66E100EF76E050E07014E
:103DE000AF6F000148EC19F0890EE96E78C7B2F7A1
:103DF00077C7B1F776C7B0F775C7AFF7020E0701FF
:103E0000B36F00012CEC1AF0200E0701BC6F00010B
:103E10002AEC0EF0200E0701BC6F00012AEC0EF018
:103E20000701C06B030EC16F070EC36F9B0EC26FFD
:103E30000001A5EC09F0010E0701AF6F000176DC6F
:103E400002C073F701C072F707017251500806E112
:103E50007351100803E1220E016E28D0010EAF6FDE
:103E60000001D2DC01C074F707017451110803E1AD
:103E7000230E016E1BD0010EAF6F000124DD01C0C7
:103E800074F707017451A90803E1240E016E0ED0E6
:103E90007451390803E1250E016E08D07451D90818
:103EA00003E1260E016E02D0010E016E000123EF28
:103EB00048F09DC7B4F704EC1BF09380500E006EE1
:103EC000002EFED79382510E006E002EFED78A90F0
:103ED0009390500E006E002EFED78A929392800E21
:103EE0000701B46F000126EC1BF0020E0701B46F4E
:103EF000000126EC1BF00701B46B000126EC1BF05F
:103F00000701B46B000126EC1BF093900000938234
:103F100081A2FED7500E006E002EFED700D000000A
:103F20009380500E006E002EFED72D0E0701C16F3C
:103F3000000101EC09F0A0EF1FF090C79DF7B9D781
:103F400090C7B4F704EC1BF09380500E006E002E67
:103F5000FED79382510E006E002EFED78A9093906A
:103F6000500E006E002EFED78A929392800E0701AB
:103F7000B46F000126EC1BF00701B46B000126ECC6
:103F80001BF0140E0701C16F000101EC09F09380D2
:103F9000500E006E002EFED79382510E006E002E42
:103FA000FED781A2FED78A909390500E006E002E0D
:103FB000FED78A929392810E0701B46F000126EC1E
:103FC0001BF0010E006E61EC1BF001C091F70A0EB0
:103FD0000701C16F000101EC09F0006A61EC1BF000
:103FE00001C092F793900000938281A2FED7500EF9
:103FF000006E002EFED700D000009380500E006EA1
:10400000002EFED79380500E006E002EFED79382B6
:10401000510E006E002EFED78A909390500E006EC7
:10402000002EFED78A929392800E0701B46F000192
:1040300026EC1BF0010E0701B46F000126EC1BF00B
:10404000140E0701C16F000101EC09F09380500EBE
:10405000006E002EFED79382510E006E002EFED70A
:1040600081A2FED78A909390500E006E002EFED74C
:104070008A929392810E0701B46F000126EC1BF027
:10408000010E006E61EC1BF001C093F70A0E0701F0
:10409000C16F000101EC09F0006A61EC1BF001C086
:1040A00094F793900000938281A2FED7500E006E89
:1040B000002EFED700D000009380500E006E002E20
:1040C000FED702012A6B91C729F22C6B92C72BF203
:1040D0002E6B93C72DF2306B94C72FF295C700F06B
:1040E00096C701F097C702F098C703F00001EEEF02
:1040F00021F00701C96B060ECA6F000149EC09F0F7
:104100000701C96B020ECA6F000149EC09F00701F3
:10411000AE6B010EAD5DFC0F15E2040F0001B1EFB7
:1041200020F0800E0701AE6F0DD0A00E0701AE6F1C
:1041300009D0C00E0701AE6F05D0E00E0701AE6FCB
:1041400001D00701AC51AE27C96BAEC7CAF7000159
:1041500049EC09F0A60E006E002EFED70000CFEF4E
:1041600020F0E824F76AF7367D0FF66E410EF7224D
:104170000A00F550FA6E0800F550F96E22412A4106
:1041800032413A41ACC7C8F79BEC09F001C0ADF72A
:1041900012000701AC6BAAC7ADF70001AAD707014F
:1041A000AB6BAB517F0831E3D890AB35036AA60FF8
:1041B000E96E000E0320EA6EECCFADF7ED52EFCFC3
:1041C000ACF7AD5303E1AC51A95D05E2140EAC6F41
:1041D0000001D8DF0701D890AB35036AA60FE96E5E
:1041E000000E0320EA6EECCFADF7ED52EFCFACF747
:1041F000AD5308E1AC51A95D05E3200EAC6F0001A1
:10420000C1DF0701070EAB27CCD70001BBEF21F0C0
:104210000701926B916B040E946F936B016EC25009
:10422000830B0110C26E100E006E002EFED7000030
:1042300092988988929A898A100E006E002EFED775
:10424000000092988998906B90517F0815E3929A9C
:10425000899AD8909035036AA60FE96E000E032064
:10426000EA6EC282C2B2FED7C3CFEFFFC4CFECFF6B
:10427000929A898A902BE8D792988998929A899AEB
:10428000906B90517F0844E3D8909035036AA60F55
:10429000E96E000E0320EA6EECCFAAF7ED52EFCFE5
:1042A000A9F7AA51945D11E303E19351A95D0DE2D1
:1042B000D8909035036AA60FE96E000E0320EA6ECF
:1042C000ECCF94F7ED52EFCF93F7D8909035036A87
:1042D000A60FE96E000E0320EA6EECCFAAF7ED52AE
:1042E000EFCFA9F79251AA5D11E303E1A951915DC6
:1042F0000DE2D8909035036AA60FE96E000E0320F8
:10430000EA6EECCF92F7ED52EFCF91F7902BB9D741
:10431000906B90517F0825E3D8909035036AA60FE3
:10432000016E000E032203C0AAF7D8909035036AED
:10433000A60FE96E000E0320EA6EECCFACF7ED524B
:10434000EFCFABF79351AB5D006E9451AC59AAC758
:10435000EAFF01C0E9FFEC6EED5200C0EFFF902BC9
:10436000D8D79351915F9451925B91C7A9F7020EF0
:10437000AA6F00010ED7000E016EF7EF21F08FEC4F
:1043800009F0070E0201326F7C0E316F3E0EF66EA1
:10439000100EF76E00013BEC0EF00701C06BC16B15
:1043A000070EC36F7C0EC26F0001A5EC09F0010E71
:1043B0000701AF6F000196EC1BF002C071F701C05E
:1043C00070F7070170515008D8A430D1715110080E
:1043D000D8A42CD1010E906F0001AFD503C077F7A0
:1043E00002C076F701C075F700C074F711D72AC272
:1043F00073F729C272F72CC273F72BC272F729C266
:1044000092F70701916B915102012B11006E070188
:10441000925102012C11036E00C0E3F70701E46F13
:104420000001DFEC10F003C07BF702C07AF701C097
:1044300079F700C078F77BC7E2F77AC7E1F779C769
:10444000E0F778C7DFF70701E66BE56B250EE46F51
:10445000860EE36F000164EC10F003C093F702C016
:1044600092F701C091F700C090F703C0DBF702C0DC
:10447000DAF701C0D9F700C0D8F70701DF6BDE6BB0
:10448000DD6B8F0EDC6F0001B5EC0FF003C093F70E
:1044900002C092F701C091F700C090F7D88203C024
:1044A000E6F702C0E5F701C0E4F700C0E3F7070153
:1044B000EA6BE96B200EE86F840EE76F000179EC80
:1044C0000EF003C07BF702C07AF701C079F700C095
:1044D00078F7070E0201326F7C0E316F4E0EF66ECA
:1044E000100EF76E050E0701AF6F000148EC19F0D2
:1044F000890EE96E7BC7B2F77AC7B1F779C7B0F713
:1045000078C7AFF7020E0701B36F00012CEC1AF069
:104510000701C06B030EC16F070EC36F7C0EC26F25
:104520000001A5EC09F02EC273F72DC272F730C25C
:1045300073F72FC272F72DC292F70701916B915159
:1045400002012F11006E0701925102013011036E1A
:1045500000C0E3F70701E46F0001DFEC10F003C0D7
:104560007BF702C07AF701C079F700C078F77BC704
:10457000E2F77AC7E1F779C7E0F778C7DFF7070115
:10458000E66BE56B480EE46F850EE36F000164ECAB
:1045900010F003C093F702C092F701C091F700C07A
:1045A00090F703C0DBF702C0DAF701C0D9F700C00B
:1045B000D8F70701DF6BDE6BDD6B8F0EDC6F000160
:1045C000B5EC0FF003C07BF702C07AF701C079F7B2
:1045D00000C078F7070E0201326F7C0E316F560E65
:1045E000F66E100EF76E030E0701AF6F000148EC78
:1045F00019F0890EE96E7BC7B2F77AC7B1F779C7B0
:10460000B0F778C7AFF7020E0701B36F00012CECCB
:104610001AF00701C06B020EC16F070EC36F7C0E4C
:10462000C26F0001A5EC09F005D00701020E016E72
:1046300003D00001BCD6070100012EEF48F092C75D
:10464000B4F704EC1BF09380500E006E002EFED7E2
:104650009382510E006E002EFED78A909390500EDA
:10466000006E002EFED78A929392720E0701B46FED
:10467000000126EC1BF0810E0701B46F000126EC4F
:104680001BF091C7B4F726EC1BF0939000009382C7
:1046900081A2FED7500E006E002EFED700D0000083
:1046A0009380500E006E002EFED7B8EF26F091C713
:1046B000B4F704EC1BF09380500E006E002EFED772
:1046C0009382510E006E002EFED78A909390500E6A
:1046D000006E002EFED78A929392720E0701B46F7D
:1046E000000126EC1BF0800E0701B46F000126ECE0
:1046F0001BF0030E0701B46F000126EC1BF0939032
:104700000000938281A2FED7500E006E002EFED7CD
:1047100000D000009380500E006E002EFED7BDEF3B
:1047200026F007019151020A00010AE0030AD8B4F9
:10473000BED0020AD8B472D1070AD8B426D2DCD2CD
:104740009380500E006E002EFED79382510E006EA5
:10475000002EFED78A909390500E006E002EFED74A
:104760008A929392720E0701B46F000126EC1BF03F
:10477000900E0701B46F000126EC1BF0939000002F
:10478000938281A2FED7500E006E002EFED700D07D
:1047900000009380500E006E002EFED79380500EC6
:1047A000006E002EFED79382510E006E002EFED7B3
:1047B0008A909390500E006E002EFED78A929392AC
:1047C000730E0701B46F000126EC1BF0006A61EC68
:1047D0001BF001C027F793900000938281A2FED7BF
:1047E000500E006E002EFED700D000009380500EB9
:1047F000006E002EFED79380500E006E002EFED766
:104800009382510E006E002EFED78A909390500E28
:10481000006E002EFED78A929392720E0701B46F3B
:10482000000126EC1BF0910E0701B46F000126EC8D
:104830001BF093900000938281A2FED7500E006E71
:10484000002EFED700D000009380500E006E002E88
:10485000FED79380500E006E002EFED79382510E2D
:10486000006E002EFED78A909390500E006E002EA0
:10487000FED78A929392730E0701B46F000126EC63
:104880001BF0006A61EC1BF001C028F79390000058
:10489000938281A2FED7500E006E002EFED700D06C
:1048A00000009380500E006E002EFED725D293801C
:1048B000500E006E002EFED79382510E006E002E19
:1048C000FED78A909390500E006E002EFED78A92EB
:1048D0009392720E0701B46F000126EC1BF0920E4A
:1048E0000701B46F000126EC1BF093900000938247
:1048F00081A2FED7500E006E002EFED700D0000021
:104900009380500E006E002EFED79380500E006EE6
:10491000002EFED79382510E006E002EFED78A9095
:104920009390500E006E002EFED78A929392730ED3
:104930000701B46F000126EC1BF0006A61EC1BF06C
:1049400001C027F793900000938281A2FED7500EFA
:10495000006E002EFED700D000009380500E006E37
:10496000002EFED79380500E006E002EFED793824D
:10497000510E006E002EFED78A909390500E006E5E
:10498000002EFED78A929392720E0701B46F000137
:1049900026EC1BF0930E0701B46F000126EC1BF010
:1049A00093900000938281A2FED7500E006E002EDD
:1049B000FED700D000009380500E006E002EFED770
:1049C0009380500E006E002EFED79382510E006E23
:1049D000002EFED78A909390500E006E002EFED7C8
:1049E0008A929392730E0701B46F000126EC1BF0BC
:1049F000006A61EC1BF001C028F7939000009382DD
:104A000081A2FED7500E006E002EFED700D000000F
:104A10009380500E006E002EFED76ED19380500E04
:104A2000006E002EFED79382510E006E002EFED730
:104A30008A909390500E006E002EFED78A92939229
:104A4000720E0701B46F000126EC1BF0940E0701F3
:104A5000B46F000126EC1BF093900000938281A2BA
:104A6000FED7500E006E002EFED700D000009380BF
:104A7000500E006E002EFED79380500E006E002E5A
:104A8000FED79382510E006E002EFED78A9093902F
:104A9000500E006E002EFED78A929392730E07017D
:104AA000B46F000126EC1BF0006A61EC1BF001C042
:104AB00027F793900000938281A2FED7500E006EDC
:104AC000002EFED700D000009380500E006E002E06
:104AD000FED79380500E006E002EFED79382510EAB
:104AE000006E002EFED78A909390500E006E002E1E
:104AF000FED78A929392720E0701B46F000126ECE2
:104B00001BF0950E0701B46F000126EC1BF093908B
:104B10000000938281A2FED7500E006E002EFED7B9
:104B200000D000009380500E006E002EFED79380C0
:104B3000500E006E002EFED79382510E006E002E96
:104B4000FED78A909390500E006E002EFED78A9268
:104B50009392730E0701B46F000126EC1BF0006AFC
:104B600061EC1BF001C028F793900000938281A2B2
:104B7000FED7500E006E002EFED700D000009380AE
:104B8000500E006E002EFED7B7D09380500E006EF0
:104B9000002EFED79382510E006E002EFED78A9013
:104BA0009390500E006E002EFED78A929392720E52
:104BB0000701B46F000126EC1BF0960E0701B46FDD
:104BC000000126EC1BF093900000938281A2FED797
:104BD000500E006E002EFED700D000009380500EC5
:104BE000006E002EFED79380500E006E002EFED772
:104BF0009382510E006E002EFED78A909390500E35
:104C0000006E002EFED78A929392730E0701B46F46
:104C1000000126EC1BF0006A61EC1BF001C027F7D5
:104C200093900000938281A2FED7500E006E002E5A
:104C3000FED700D000009380500E006E002EFED7ED
:104C40009380500E006E002EFED79382510E006EA0
:104C5000002EFED78A909390500E006E002EFED745
:104C60008A929392720E0701B46F000126EC1BF03A
:104C7000970E0701B46F000126EC1BF09390000023
:104C8000938281A2FED7500E006E002EFED700D078
:104C900000009380500E006E002EFED79380500EC1
:104CA000006E002EFED79382510E006E002EFED7AE
:104CB0008A909390500E006E002EFED78A929392A7
:104CC000730E0701B46F000126EC1BF0006A61EC63
:104CD0001BF001C028F793900000938281A2FED7B9
:104CE000500E006E002EFED700D000009380500EB4
:104CF000006E002EFED700D012000701B451B6039B
:104D0000F3CF01F0F4CF00F0B703F3500026B55114
:104D1000B603F3500020026E000112008FEC09F080
:104D2000070E0201326F7D0E316F5C0EF66E100EB3
:104D3000F76E00013BEC0EF00701C06BC16B070E74
:104D4000C36F7D0EC26F0001A5EC09F0010E0701D3
:104D5000AF6F000104EC1CF001C07CF707017C512F
:104D60001108D8A4CAD0916B010E926F000167D4CC
:104D7000010E0701916F00019AD4020E0701916F95
:104D8000010E926F0001CDDC0701B56B28C7B4F7A7
:104D9000010EB76FB66B0001B0DF01500701272588
:104DA0002B6F000E02202C6F010E916F926F00018D
:104DB000B8DC0701B56B28C7B4F7010EB76FB66B47
:104DC00000019BDF015007012725296F000E0220FB
:104DD0002A6F040E916F010E926F0001A2DC070191
:104DE000B56B28C7B4F7010EB76FB66B000185DF4E
:104DF0000150070127252F6F000E0220306F030E90
:104E0000916F010E926F00018CDC0701B56B28C712
:104E1000B4F7010EB76FB66B00016FDF01500701E9
:104E200027252D6F000E02202E6F070E0201326F14
:104E30007D0E316F6E0EF66E100EF76E040E0701CA
:104E4000AF6F000148EC19F0100EE96E2AC7B0F7F9
:104E500029C7AFF75DEC19F00701C06B010EC16FF8
:104E6000070EC36F7D0EC26F0001A5EC09F0070E9F
:104E70000201326F7D0E316F760EF66E100EF76EF8
:104E8000060E0701AF6F000148EC19F0100EE96E35
:104E90002CC7B0F72BC7AFF75DEC19F00701C06B5B
:104EA000020EC16F070EC36F7D0EC26F0001A5EC2D
:104EB00009F0070E0201326F7D0E316F800EF66E23
:104EC000100EF76E050E0701AF6F000148EC19F0E8
:104ED000100EE96E2EC7B0F72DC7AFF75DEC19F0D5
:104EE0000701C06B030EC16F070EC36F7D0EC26F4B
:104EF0000001A5EC09F005D00701020E016E03D0F8
:104F0000000124D70701000139EF48F006012451C0
:104F1000225D03E12551235DFAE0260E2425E96E8A
:104F2000060E2521EA6EEFCF96F7010E2425070124
:104F3000976F000E06012521070197513F0B0601CF
:104F4000246F256B070196C701F00001E8EF3BF0E5
:104F50009EA8FED7AD6E1200200E07019B6F986BC6
:104F600096C7E9FF97C7EAFFEFCF9FF7996B995173
:104F70001D08D8A072D09A6B9A511D085FE39BC799
:104F80009CF7036A9851C80FE96E020E0320EA6E7F
:104F9000EFCF9DF7036A9851C80FE96E020E032008
:104FA000EA6EEFCFA0F79C519D5D2BE09A510A0865
:104FB00027E3B56B99C7B4F7B76B0B0EB66F00015B
:104FC0009CDE01C0A1F707019A510124016E000E79
:104FD0000220036E0150080F016E030E032203C06E
:104FE000A2F7036A9851C80FE96E020E0320EA6E19
:104FF000EFCFA3F7A2C7EAFF01C0E9FFA3C7EFFF06
:105000001AD0B56B99C7B4F7B76B0B0EB66F00012A
:1050100074DE01C0A1F707019A510124016E000E50
:105020000220036E0150080FE96E030E0320EA6EA2
:10503000EF6A982B03D0982B9A2B9ED7036A98512E
:10504000C80FE96E020E0320EA6EEFCF9EF79F5164
:105050009E5D01E102D0992B8AD7000113EF3CF04D
:105060000701A86BA851110817E3036AA851330F71
:10507000016E000E0322080EA825E96E030EEA6EEB
:10508000D8B0EA2AEFCFABF703C0EAFF01C0E9FFCF
:10509000ABC7EFFFA82BE6D700010AEF32F0EF52C3
:1050A00010E0EACFA9F7E9CFA8F7EF509EA8FED706
:1050B000AD6EA9C7EAFFA8C7E9FFE92AD8B4EA2A72
:1050C000EED70FEF32F00701B5C7E9FFB6C7EAFF29
:1050D000EFCFB9F7B8C703F0B7C7E9FFB8C7EAFF22
:1050E000EF50B95D48E0B6C703F0B5C7E9FFB6C7F2
:1050F000EAFFEFCFB9F7B951400803E2B9515A08B6
:1051000006E2B95160084CE2B9517A0849E3B8C7E0
:1051100003F0B7C7E9FFB8C7EAFFEFCFB9F7B95156
:10512000400803E2B9515A0806E2B951600838E272
:10513000B9517A0835E3B5C7E9FFB6C7EAFFEFCF43
:10514000B9F7B8C703F0B7C7E9FFB8C7EAFF200E41
:10515000EF24B95D10E0B7C7E9FFB8C7EAFFEFCFAA
:10516000B9F7B6C703F0B5C7E9FFB6C7EAFF200E27
:10517000EF24B95D15E1B6C703F0B5C7E9FFB6C7BF
:10518000EAFFEF5203E1000E016E1FD0B6C703F035
:10519000B551B52BD8B4B62BB72BD8B4B82B94D700
:1051A000B6C703F0B5C7E9FFB6C7EAFFEFCFB9F757
:1051B000B8C703F0B7C7E9FFB8C7EAFFEF50B95D5A
:1051C00002E2FF0E01D0010E016E00011200070184
:1051D000B36BB35107082DE3B3510B0DF350B66B0E
:1051E000B56F540EB525016E040EB621036E01C0D5
:1051F000B7F7B86F070EEA6EA80EE96E03C0E2FFBC
:1052000001C0E1FFE752E6CFEEFFFCE1070EB66F0B
:10521000A80EB56FB86B330EB76F000154DF0152A3
:1052200005E10701B3C701F006D000010701B32B68
:10523000D0D7FF0E016E000119EF32F00701A86B05
:10524000A851220817E3036AA851330F016E000E1C
:105250000322130EA825E96E030EEA6ED8B0EA2ADF
:10526000EFCFABF703C0EAFF01C0E9FFABC7EFFF29
:10527000A82BE6D7000112000701B36BB351210838
:1052800035E3B56BB3C7B4F7B76B0B0EB66F000160
:1052900034DD02C0B5F701C0B4F7AC0E070101243C
:1052A000016E040E0220036E01C0B6F7B76F070E41
:1052B000EA6EA80EE96E03C0E2FF01C0E1FFE7520B
:1052C000E6CFEEFFFCE1070EB66FA80EB56FB86B28
:1052D000330EB76F0001F7DE015205E10701B3C7D6
:1052E00001F006D000010701B32BC8D7FF0E016EF5
:1052F00000011200A8C7AAF70701A951AB6FF2502D
:10530000006EF29EAA6A780EA96EAAC7A8FFA69C94
:10531000A69EA6840F01550EA76EAA0EA76EA682A2
:10532000A6B2FED7A6940050F212F2CF00F0F29E81
:10533000AA6A790EA96EABC7A8FFA69CA69EA684F2
:10534000550EA76EAA0EA76EA682A6B2FED7A69489
:105350000050F212F2CFAEF7F29EAA6A780EA96E52
:10536000A69CA69EA680A8500701AEBFF28EAA6F8B
:10537000F2CFAEF7F29EAA6A790EA96EA69CA69EFF
:10538000A680A850AEBFF28EAB6FAD6BABC7ACF7CB
:10539000ACC7AFF7AE6BAA51AE25AC6F000EAF2114
:1053A000AD6FA851AC5D07E1A951AD5D04E1000E00
:1053B000016E03D002D0010E016E00011200070140
:1053C000A86BA851220817E3036AA851330F016E96
:1053D000000E03221E0EA825E96E030EEA6ED8B059
:1053E000EA2AEFCFABF703C0EAFF01C0E9FFABC782
:1053F000EFFFA82BE6D7000112000701AF6BAE6BE1
:10540000AD6B7F0EAC6FB36BB26BB16BB06BB48135
:10541000B493B495B66BA851A91105E1006A016A6D
:10542000026A036A15D1B651B62BA825E96E000EA3
:10543000A921EA6EEFCFB5F7B553D8B4CBD0B4A15C
:105440000FD0B55120080CE0B491B5512B0803E101
:10545000B493B4D005D0B5512D0802E1B483AED0D9
:10546000B4B107D0B5512E0804E1B4B502D0B4856B
:10547000A5D0B4B1A0D0B5512F08D8B09CD0B551AB
:105480003908D8A098D0300EB55FB4A557D0AFC7B3
:10549000E2F7AEC7E1F7ADC7E0F7ACC7DFF7E66B01
:1054A000E56B200EE46F820EE36F000164EC10F0F8
:1054B00003C0AFF702C0AEF701C0ADF700C0ACF754
:1054C0000701E46BB5C7E3F70001DFEC10F003C0A0
:1054D000BAF702C0B9F701C0B8F700C0B7F703C008
:1054E000DBF702C0DAF701C0D9F700C0D8F7AFC7C1
:1054F000DFF7AEC7DEF7ADC7DDF7ACC7DCF7B5EC5D
:105500000FF0D892B3C7E6F7B2C7E5F7B1C7E4F733
:10551000B0C7E3F703C0EAF702C0E9F701C0E8F754
:1055200000C0E7F779EC0EF003C0B3F702C0B2F7A2
:1055300001C0B1F700C0B0F73CD00701E26BE16BEE
:10554000200EE06F820EDF6FB3C7E6F7B2C7E5F754
:10555000B1C7E4F7B0C7E3F7000164EC10F003C093
:10556000BAF702C0B9F701C0B8F700C0B7F7070132
:10557000E46BB5C7E3F70001DFEC10F0D892BAC7CF
:10558000E6F7B9C7E5F7B8C7E4F7B7C7E3F703C06D
:10559000EAF702C0E9F701C0E8F700C0E7F779ECE5
:1055A0000EF003C0B3F702C0B2F701C0B1F700C0FC
:1055B000B0F705D00701B4B101D00CD0000107014C
:1055C000B651B62BA825E96E000EA921EA6EEFCFE1
:1055D000B5F732D7B4A31AD0E26BE16B800EE06F5F
:1055E0007F0EDF6FB3C7E6F7B2C7E5F7B1C7E4F7E1
:1055F000B0C7E3F7000164EC10F003C0B3F702C0DA
:10560000B2F701C0B1F700C0B0F70701AA51AB1162
:1056100017E0B6530CE0B607AAC7E9FFABC7EAFF2D
:10562000B651A825EF6E000EA921EC6E09D0AAC7CD
:10563000E9FFABC7EAFFA9C7ECFFED52A8C7EFFF30
:10564000B0C700F0B1C701F0B2C702F0B3C703F0B2
:10565000000112000900F6CFA9F7F7CFAAF7F5501D
:105660009EA8FED7AD6EA9C7F6FFAAC7F7FF070130
:10567000A82F01D002D00001EDD700011200E9509F
:105680000701AD6FAC51AF6F1CE0ABC7E2F7AAC723
:10569000E1F7A9C7E0F7A8C7DFF7E66BE56B200ED7
:1056A000E46F820EE36F000164EC10F003C0ABF70F
:1056B00002C0AAF701C0A9F700C0A8F70701AF2FE1
:1056C000E4D7ABC7BFF7AAC7BEF7A9C7BDF7A8C73E
:1056D000BCF70001C1EC19F003C0ABF702C0AAF798
:1056E00001C0A9F700C0A8F70701ABAF0DD0AD0707
:1056F000AD8BA81FA91FAA1FAB1FA82BD8B4A92B1D
:10570000D8B4AA2BD8B4AB2B3B0EB46F9A0EB36FA0
:10571000CA0EB26FB16B0A0EAF6FAC51D8B4AD2BDD
:10572000D882070EEA6EA80EE96EABC7BFF7AAC70C
:10573000BEF7A9C7BDF7A8C7BCF7B4C7C3F7B3C7BF
:10574000C2F7B2C7C1F7B1C7C0F70001E2EC19F068
:105750000150005213E10701AC29AF5DD8A402D07B
:1057600000010CD0AD510DE00F0BAF5D01E03CE24C
:10577000ADBF3AD0ADBD05D0200E31D0200E07010F
:10578000AD17ADAB0DD0AD9BAC51D8A4AD0700505B
:10579000AD6F2D0E9EA8FED7AD6EAD51006EAD6BF8
:1057A000AC51AF5D0BE10050AD6F2E0E9EA8FED741
:1057B000AD6EAD51006E200EAD17000E300EADABCC
:1057C0000ED0AD9BAC51D8A4AD070050AD6F2D0EDF
:1057D0009EA8FED7AD6EAD51006EAD6B300E0026AB
:1057E00000509EA8FED7AD6ED892B4C7BFF7B3C71E
:1057F000BEF7B2C7BDF7B1C7BCF7C36BC26BC16B15
:105800000A0EC06F0001E2EC19F003C0B4F702C049
:10581000B3F701C0B2F700C0B1F70701AF2F80D7CF
:10582000000112000701B151B319800BB56FB1AF80
:1058300005D0B01FB11FB02BD8B4B12BB3AF05D07A
:10584000B21FB31FB22BD8B4B32BB051B203F3CFF6
:1058500001F0F4CF00F0B303F3500026B151B203CE
:10586000F3500020026EB5AF05D0011E021E012AC2
:10587000D8B4022A0001AAEF2CF00701AE6BAC6B82
:105880000A0EAD6FAB6BAA6BA851A91104E1000E13
:10589000016E026EE2D0AE51AE2BA825E96E000E6D
:1058A000A921EA6EEFCFAFF7AF512D080CE1010E41
:1058B000AC6FAE51AE2BA825E96E000EA921EA6EA1
:1058C000EFCFAFF70CD0AF512B0809E1AE51AE2BA3
:1058D000A825E96E000EA921EA6EEFCFAFF7AF5110
:1058E0002F08D8B0ACD0AF513908D8A0A8D0AF514C
:1058F00030081EE1AE51A825E96E000EA921EA6E1E
:10590000EF50780809E0AE51A825E96E000EA921F4
:10591000EA6EEF5058080CE1100EAD6FAE2BAE5191
:10592000AE2BA825E96E000EA921EA6EEFCFAFF7E6
:10593000AD510A0822E1AF512F081EE2AF513908DC
:105940001BE3B16B0A0EB06FABC7B3F7AAC7B2F7D0
:10595000000168D7300E0701AF5D0124AA6F000E69
:105960000220AB6FAE51AE2BA825E96E000EA92127
:10597000EA6EEFCFAFF7DFD762D0AD5110085FE12D
:10598000AF51600806E2AF517A0803E3AF51DF0B75
:1059900001D0AF51AF6FAF512F0803E2AF513908BB
:1059A00006E2AF5140084BE2AF51460848E3AF5121
:1059B0002F081AE2AF51390817E3AA35B06FAB359B
:1059C000B16FB037B137B037B137B037B137F00E4C
:1059D000B017300EAF5DB025016E000EB121036E21
:1059E00001C0AAF7AB6F16D0AA35B06FAB35B16F57
:1059F000B037B137B037B137B037B137F00EB01775
:105A0000410EAF5D0A0FB025016E000EB12101C03D
:105A1000AAF7AB6FAE51AE2BA825E96E000EA921F7
:105A2000EA6EEFCFAFF7AF51600806E2AF517A08E8
:105A300003E3AF51DF0B01D0AF51AF6FACD7AD5126
:105A40000A0807E1AC2D05D0AA1FAB1FAA2BD8B4BA
:105A5000AB2BAAC701F0ABC702F000011200EACFDE
:105A6000B0F7E9CFAFF70701A939F009AB6FAB2762
:105A7000E20FAC6F320FAE6FA9510F0BAC27AC2702
:105A8000AE27E90FAD6FAD27AD27A8390F0BAD27B6
:105A9000AE27AD37AE37AE1FAE37A8510F0BAE27CE
:105AA000AB37070EAA6F0A0EAD07AE27FDE3AC07B2
:105AB000AD27FDE3AB07AC27FDE3AA07AB27FDE36A
:105AC000070EEA6EAA0EE96E070EAF15AF9DE92626
:105AD000000EEA22E950AE0804E1EA50070801E1AD
