:1000000051EF00F0544553543132333435210A0056
:10001000544553543F210A0023C0EAFF22C0E9FFA0
:1000200028C0EFFFE92AD8B4EA2AEF6A222AD8B416
:10003000232A27EF00F00900F55210E0F6CF25F053
:10004000F7CF26F0F8CF27F0F5CF28F0E5D725C079
:10005000F6FF26C0F7FF27C0F8FFEDD71200C69EB7
:100060009E9626C0C9FF020EC6BE05D09EA6FED72C
:10007000000EC5BC010E016E1200EA6A260EE96E82
:10008000EF500EE0080E016E006A002EFED7012E22
:10009000FBD7190E006E002EFED700D0EF2EF2D740
:1000A0001200F86AD09E236A226AC150C00BC16E4A
:1000B000070EB46E948694887F0EC86E280EC66EA6
:1000C000C78EC79C8B8A949A8B909490236A040E57
:1000D000226E040EF66E000EF76E000EF86EABDFA9
:1000E000236A130E226E100EF66E000EF76E000ECF
:1000F000F86EA1DF246A036A2450040FE96E000E33
:100100000320EA6EEF5217E0C580C5B0FED7A00EFF
:10011000266EA5DF036A2450040FE96E000E03204B
:10012000EA6EEFCF25F025C026F099DFC584C5B46F
:10013000FED7242AE0D7080E256EFA0E266E9DDF24
:10014000252EFBD7246A036A2450130FE96E000E94
:100150000320EA6EEF5217E0C580C5B0FED7A00EAF
:10016000266E7DDF036A2450130FE96E000E032014
:10017000EA6EEFCF25F025C026F071DFC584C5B447
:10018000FED7242AE0D7080E256EFA0E266E75DFFC
:08019000252EFBD7AFD70300B9
:020000040001F9
:06FFF800A0F4C4FFF8F7BD
:00000001FF
;PIC18F67J60
;CRC=31D9  CREATED="15-Jul-14 18:24"
