; Version 5.0.0  January 17, 2017
:0800000004B20400010000003D
:04000C00A2720000DC
:0C001000066C00006E7000003A6E0000EC
:04005400D67400005E
:040170004E750000C8
:100400003220EF00C3202000008041001040BA00DD
:100410000160EF00000006004C6900006D690000FB
:10042000742000006E7500006D62000065720000AF
:10043000206600006F720000205200006F750000FF
:1004400074650000722000005061000072730000AB
:10045000696E00006720000020250000690D000083
:100460000A0000003220EF00E3232000008041005A
:100470001040BA000160EF00000006007E0000009E
:100480003220EF00030220008301500005003100FC
:10049000C3252000008041001040BA000160EF0039
:1004A00000000600C02520008381410080814100BA
:1004B0001380BA0000000600526553007475650091
:1004C000726E72006564760020536500657272007A
:1004D000696120006C202D004E753E006D62200089
:1004E0006572250020667300726F0D006D200A0092
:1004F00074680000652000003220EF00E301200056
:100500008301500005003100832920000080410054
:100510001040BA000160EF000000060080292000B2
:1005200083814100808141001380BA0000000600F1
:100530005265720074757600726E650065647200B3
:100540002046200069722D006D573E006172200028
:10055000652025004C6973006E650D0020660A0059
:10056000726F00006D200000536500003220EF0024
:10057000E30120008301500005003100232D2000FD
:10058000008041001040BA000160EF00000006004A
:10059000202D200083814100808141001380BA001A
:1005A0000000060048547400545065002F31780054
:1005B0002E31740020322F0030306800204F74003C
:1005C0004B0A6D00436F6C006E740D00656E0A007F
:1005D000742D0D0054790A00706500003A20000067
:1005E0003220EF0063082000830150000500310035
:1005F000C3302000008041001040BA000160EF00CD
:1006000000000600C030200083814100808141004D
:100610001380BA00000006003C216500444F6300CF
:1006200043543D005950640045206F0068746300D6
:100630006D6C75003E3C6D00687465006D6C6E00FD
:100640003E3C740073632E00726971007074750013
:100650003E0A650020667200756E7900637453006F
:10066000696F65006E206C00686165006E646300F0
:100670006C65740052426F00436C7200696328001D
:100680006B282700297B690063686E006563700032
:100690006B767500616C74003D645B006F636E0087
:1006A000756D6100656E6D00742E650071752000BA
:1006B00065723D0079532000656C2200656353002C
:1006C000746F530072284900276944006E707200ED
:1006D000757422005B6E5D00616D3A0065206300F9
:1006E0003D206800225365005349630044726B004B
:1006F000225D65003A63640068652700636B29002A
:1007000065642E00272974002E766900616C7400E0
:1007100075656C003B20650063683B006563000005
:100720006B7300003220EF0023072000830150008C
:1007300005003100E33A2000008041001040BA007B
:100740000160EF0000000600E03A200083814100D4
:10075000808141001380BA000000060069667500C0
:1007600028636D0068656500636B6E0076617400D8
:100770006C3D2E003D2267007E216500244F7400F1
:100780007468450065726C00222965007B766D00F7
:100790006973650056616E00723D740022764200F6
:1007A00069737900696249006C656400223B280026
:1007B0007D202200656C5300736553007B764900F1
:1007C0006973440056617400723D62002268220021
:1007D0006964290064652E006E2273003B2074005A
:1007E000646F790063756C006D6565006E742E0032
:1007F0002E67760065746900456C7300656D69004D
:10080000656E62007442690079496C006428690071
:10081000225374005349790044743D0062227600EB
:10082000292E6900766173006C755600653D610084
:10083000222272003B7D3B00206400006F630000B9
:100840003220EF00C3082000830150000500310072
:10085000C3432000008041001040BA000160EF0057
:1008600000000600C04320008381410080814100D8
:100870001380BA0000000600646F2E0063757600D6
:100880006D6569006E7473002E676900657462009F
:10089000456C6900656D6C00656E6900744274009A
:1008A0007949790064283D0022632200757368004D
:1008B000746F69006D506400726F6400706565004C
:1008C00072746E006965220073223B00292E20009D
:1008D00073746400796C6F00652E6300766975002F
:1008E00073696D00626965006C696E0074797400EB
:1008F0003D762E006973670056616500723B740097
:100900000A69450066286C006368650065636D00D0
:100910006B73650065636E002E6974006E6442003F
:10092000657879004F664900282264004E4F280000
:100930004E452700222950003E2D41003129530009
:10094000207B5300646F7400637562006D6527003F
:100950006E7429002E672E0065747600456C610068
:10096000656D6C00656E75007442650079493D00E7
:10097000642822002270220077643B0069767D00A3
:1009800022290A002E730000747900006C650000B3
:100990003220EF00030720008301500005003100E2
:1009A000434E2000008041001040BA000160EF007B
:1009B00000000600404E20008381410080814100FC
:1009C0001380BA0000000600656C2E00736571008C
:1009D0007B6475006F636500756D7200656E7900EC
:1009E000742E53006765650074456C006C65650086
:1009F0006D6563006E74740042796F004964720023
:100A000028222800707727006469690076226E002A
:100A1000292E700073747500796C7400652E5B006C
:100A200076696E007369610062696D006C696500CA
:100A3000747920003D223D00766920007369220010
:100A4000626C5300652253003B7D49007D66440083
:100A5000756E720063742200696F5D006E203A004B
:100A600073756300626D680069746500466F6300AA
:100A7000726D6B0028296500207B64007661270079
:100A80007220290073732E0069647600766161001C
:100A90006C206C003D207500646F650063753B0041
:100AA0006D6500006E7400003220EF00A307200087
:100AB00083015000050031000357200000804100F1
:100AC0001040BA000160EF0000000600005720004F
:100AD00083814100808141001380BA00000006003C
:100AE0007661420072207900656E4900637264008D
:100AF0007970280053742700722053003D20530062
:100B0000646F4900637544006D6568006E7427006A
:100B10002E71290075652E0072797600536561008B
:100B20006C656C00637475006F72650028273D006A
:100B3000696E640070756F00745B63006E617500B0
:100B40006D656D00203D650020226E0053537400DA
:100B500049442E00722267005D3A650063687400A4
:100B6000656345006B656C0064276500292E6D0088
:100B700074696500746C6E00653B74002069420006
:100B800066287900737349006964640076612800FF
:100B90006C3D27003D2253007E215300244F490025
:100BA0007468440065727400222962007B64270027
:100BB0006F632900756D2E00656E7600742E6100DE
:100BC00067656C00744575006C6565006D653B007C
:100BD0006E7400003220EF000307200083015000F4
:100BE0000500310063602000008041001040BA0021
:100BF0000160EF000000060060602000838141007A
:100C0000808141001380BA0000000600646F680014
:100C1000637527006D6529006E742E002E677600BF
:100C200065746100456C6C00656D7500656E6500EE
:100C300074423D007949640064286F0027416300D5
:100C40005554750048686D00272965002E766E00A2
:100C5000616C740075652E003D6467006F6365000C
:100C6000756D7400656E4500742E6C0067656500D7
:100C700074456D006C6565006D656E006E74740082
:100C800042794200496479002827490041556400AF
:100C900054482800444D2700272945002E764E0051
:100CA000616C4300756552003B205900646F500031
:100CB000637554006D6544006E744D002E67270007
:100CC00065742900456C2E00656D7600656E6100C7
:100CD00074426C00794975006428650027453B0023
:100CE0004E437D0052590A00505400003220EF005C
:100CF000C305200083015000050031002369200056
:100D0000008041001040BA000160EF0000000600C2
:100D10002069200083814100808141001380BA0056
:100D200000000600656C6E00736574007B642E0025
:100D30006F636700756D6500656E7400742E450005
:100D400067656C00744565006C656D006D656500D8
:100D50006E746E004279740049644200282779005D
:100D6000535349004944640068272800292E27006E
:100D7000766141006C755500653D54007373480001
:100D800069646800766127006C3B29000A692E00BF
:100D900066287600656E610063726C00797075007C
:100DA00053746500722E3D00696E22006465570021
:100DB000784F5000662841002257320050415000C1
:100DC00032225300293E4B002D312200297B3B006B
:100DD000646F7D0063750A006D6500003220EF00CE
:100DE000C30920008301500005003100A3702000DA
:100DF000008041001040BA000160EF0000000600D2
:100E0000A070200083814100808141001380BA00DE
:100E100000000600656C55007365540020694800A9
:100E200066286800656E27006372290079702E00BD
:100E300053747600722E6100696E6C0064657500F3
:100E4000784F650066283D00225322004841570034
:100E50005245500044224100293E50002D3153009C
:100E6000297B4B00646F220063753B006D657D003C
:100E70006E740A002E67650065746C00456C730023
:100E8000656D6500656E7B007442640079496F0092
:100E9000642863002741750055546D00486865005B
:100EA00027296E002E767400616C2E007565670030
:100EB0003D226500534874004152450045446C0092
:100EC000223B65007D0A6D00656C650073656E00F0
:100ED0002069740066284200656E790063724900DB
:100EE0007970640053742800722E2700696E4100E7
:100EF00064655500784F5400662848002257680002
:100F000050412700505329004B222E00293E7600E5
:100F10002D316100297B6C00646F7500637565007D
:100F20006D653D006E7422002E674F0065745000A1
:100F3000456C4500656D4E00656E220074423B00B5
:100F400079497D0064280A00274100003220EF0023
:100F5000430720008301500005003100237C20005E
:100F6000008041001040BA000160EF000000060060
:100F7000207C200083814100808141001380BA00E1
:100F80000000060069662D00286531006E632900A7
:100F900072797B007053640074726F002E69630075
:100FA0006E64750065786D004F66650028226E00DE
:100FB0004145740053222E00293E67002D31650003
:100FC000297B7400646F450063756C006D65650076
:100FD0006E746D002E67650065746E00456C74005C
:100FE000656D4200656E790074424900794964007C
:100FF00064282800274527004E43450052594E00DB
:101000005054430068275200292E59007661500041
:101010006C755400653D6800224127004553290046
:10102000223B2E007D0A7600656C610073656C00C2
:101030002069750066286500656E3D0063722200B8
:101040007970540053745000722E4900696E4B0041
:1010500064652200784F3B0066287D0022540A0018
:10106000504900004B220000293E00003220EF00D2
:101070002306200083015000050031002385200055
:10108000008041001040BA000160EF00000006003F
:101090002085200083814100808141001380BA00B7
:1010A00000000600656C6E007365740020692E00F8
:1010B00066286700656E650063727400797045008C
:1010C00053746C00722E6500696E6D006465650076
:1010D000784F6E0066287400225742004550790010
:1010E000222949003E2D6400312928007B64270015
:1010F0006F634500756D4E00656E4300742E52009F
:1011000067655900744550006C6554006D65680052
:101110006E7427004279290049642E002827760042
:10112000454E610043526C0059507500546865008B
:1011300027293D002E762200616C4E0075654F0018
:101140003D224E0057454500502222003B7D3B008A
:101150000A657D006C730A00657B7D00646F00008A
:10116000637500006D6500003220EF0083052000EC
:101170008301500005003100038D200000804100F4
:101180001040BA000160EF0000000600008D200052
:1011900083814100808141001380BA000000060075
:1011A000646F2E00637567006D6565006E74740072
:1011B0002E67450065746C00456C6500656D6D00BB
:1011C000656E650074426E007949740064284200BF
:1011D00027507900415349005368640027292800AB
:1011E0002E762700616C5200756573003D646D00BA
:1011F0006F637400756D2700656E2900742E2E00D4
:1012000067657300744575006C6562006D656D00FF
:101210006E74690042797400496428002827290007
:1012200050413B0053537D0074623C0027292F003E
:101230002E767300616C6300756572003B20690057
:10124000646F7000637574006D653E006E7400001D
:101250003220EF00230720008301500005003100F9
:1012600043942000008041001040BA000160EF006C
:1012700000000600409420008381410080814100ED
:101280001380BA00000006003C6226006F646E0006
:10129000793E62003C747300616270006C653B00D3
:1012A000205753004944650054486C003D226500B6
:1012B0003830630025257400223E20003C66520031
:1012C0006F726F006D2075006E6174006D65650052
:1012D0003D227200526F3A0075743C0065722F0017
:1012E000204C54006973440074223E003E3C3C0094
:1012F0007472540020624400676320006F6C6300C6
:101300006F726C003D2261002365730038657300C5
:1013100038653D00382222003E3C6D005444610097
:101320002057690049446E00544822003D222000A5
:10133000313176003022610020636C006C616900FD
:10134000737367003D226E006D613D00696E22007F
:10135000223E7400266E6F0062737000703B2200A4
:10136000266E3E0062730000703B00003220EF00EA
:10137000030220008301500005003100239D20005E
:10138000008041001040BA000160EF00000006003C
:10139000209D200083814100808141001380BA009C
:1013A000000006003C645200697642002069430058
:1013B000643D6C00225369005349630044726B0022
:1013C00062222800206F29006E6322006C693E00B3
:1013D000636B0A003D220A00686100006E64000031
:1013E0006C6500003220EF00E39F20000080410088
:1013F0001040BA000160EF000000060053530000E7
:1014000049440000000000003220EF00A303200048
:10141000830150000500310003A22000008041003C
:101420001040BA000160EF000000060000A220009A
:1014300083814100808141001380BA0000000600D2
:101440003C6974006E70690075747400206E6C00E5
:10145000616D6500653D3D00225322005349250022
:10146000447273002220220069643E003D22200065
:1014700053532500494473007262200025642800FC
:101480002220250074797300706525003D22250017
:101490007261290064693C006F226200207672004C
:1014A000616C200075652F003D223E0025730A0007
:1014B000222000003220EF0023042000830150008E
:1014C0000500310063A72000008041001040BA00F1
:1014D0000160EF000000060060A72000838141004A
:1014E000808141001380BA00000006003C6974004E
:1014F0006E706C0075746500206E3D00616D220099
:10150000653D4F00225374005349680044726500E2
:1015100022207200696422003D22200053536300A0
:1015200049446800726265002564630022206B00F4
:1015300074796500706564003D223D00726122008F
:10154000646963006F22680020766500616C630047
:1015500075656B003D2265007E216400244F2200EA
:1015600074683E0065720A0022200A007469000057
:101570003220EF0063062000830150000500310097
:1015800043AD2000008041001040BA000160EF0030
:101590000000060040AD20008381410080814100B1
:1015A0001380BA00000006004F746700686563008E
:1015B000723A6F00203C6C00696E6F0070757200AB
:1015C00074203D0074792200706523003D2265007F
:1015D0007465380078746500222038006E616500FB
:1015E0006D6538003D22220053533E0049443C00C3
:1015F0007274740022206400696420003D2254004B
:10160000535344004944200074625700222049008B
:101610007769440064745400683D480022323D00FC
:101620003530220022203100766131006C753000A7
:10163000653D220022222000202F63003E3C6C00EA
:1016400062726100202F73003E3C73002F643D00E6
:10165000697622003E3C6D002F546100443E6900D3
:101660003C2F6E00747222003E3C3E0074720A00F1
:10167000206200003220EF00230820008301500088
:101680000500310063B52000008041001040BA0021
:101690000160EF000000060060B52000838141007A
:1016A000808141001380BA0000000600266E6100B0
:1016B00062736C00703B7500266E650062733D00BE
:1016C000703B2200266E220062732000703B770080
:1016D000266E690062736400703B7400266E6800B9
:1016E00062733D00703B2200266E3200627335004B
:1016F000703B3000266E220062732000703B2F008A
:1017000053653E0063753C00726962007479720033
:101710003A3C20002F742F00643E3E003C543C00B5
:10172000443E2F003C6464006976690020697600BD
:10173000643D3E0022703C00776464006976690075
:10174000223E76005061200073736900776F640059
:1017500072643D003A2022003C6963006E7075009F
:10176000757473002074740079706F00653D6D00AE
:10177000227450006578720074226F00206E700031
:10178000616D6500653D720022507400415369002F
:101790005322650020697300643D220022503E0000
:1017A00041530A00537400006222000020760000BA
:1017B0003220EF00A3082000830150000500310013
:1017C00043BF2000008041001040BA000160EF00DC
:1017D0000000060040BF200083814100808141005D
:1017E0001380BA0000000600417570007468740030
:1017F0003A2069003C736F00656C6E0065632000E1
:1018000074207600696461003D226C0041557500CA
:1018100054486500444D3D00223E22003C6F570075
:1018200070745000696F41006E2032007661500084
:101830006C755300653D4B00224F2200504520003F
:101840004E2273003E4F650050456C004E3C6500D3
:101850002F6F630070747400696F65006E3E6400E2
:101860003C6F3D0070742200696F73006E2065004C
:1018700076616C006C756500653D630022537400F1
:101880004841650052456400442222003E533E0018
:101890004841570052455000443C41002F6F3200F0
:1018A00070745000696F53006E3E4B003C6F3C00FB
:1018B00070742F00696F6F006E2070007661740085
:1018C0006C756900653D6F0022576E0050413E0007
:1018D00050533C004B222F003E577300504165008F
:1018E00050536C004B3C65002F6F630070747400A4
:1018F000696F3E006E3E0A003C6F00003220EF0030
:10190000C30820008301500005003100A3C9200056
:10191000008041001040BA000160EF0000000600A6
:10192000A0C9200083814100808141001380BA005A
:1019300000000600456E6500633A3D00203C220031
:10194000736541006C654500637453002069220093
:10195000643D2000224563004E43680052596500F3
:1019600050546300444D6B00223E65003C6F6400A0
:1019700070743D00696F22006E206300766168001C
:101980006C756500653D6300224E6B004F4E65002F
:10199000452264003E4E22004F4E2000453C73001D
:1019A0002F6F650070746C00696F65006E3E630098
:1019B0003C6F740070746500696F64006E203D00B8
:1019C000766122006C757300653D650022576C00DE
:1019D00045506500223E630057457400503C650049
:1019E0002F6F640070742200696F3E006E3E4100EC
:1019F0003C6F450070745300696F3C006E202F00EF
:101A000076616F006C757000653D7400225469004A
:101A10004B496F0050226E003E543E004B493C0043
:101A2000503C2F002F6F730070746500696F6C005D
:101A30006E3E65003C6F630070747400696F3E0019
:101A40006E200000766100006C7500003220EF000F
:101A5000C3062000830150000500310023D420007C
:101A6000008041001040BA000160EF000000060055
:101A700020D4200083814100808141001380BA007E
:101A8000000006000A3C6D002F646C00697622009D
:101A90003E3C20002F542000443E6D003C2F65004A
:101AA000747274003E3C68002F666F006F726400B1
:101AB0006D3E3D003C2F220074616700626C650042
:101AC000653E74003C742200616220006C656F000A
:101AD0003E3C6E002F747300616275006C6562009D
:101AE0003E3C6D00666F6900726D7400206E3D00B3
:101AF000616D2200653D7200225265006F757400B1
:101B0000746575007220720053756E00626D20005E
:101B10006974730022207500696462003D226D00C3
:101B2000527369006D7474002220460061636F0077
:101B3000746972006F6E6D003D222800726F29007B
:101B400075743B00657222005F733E0075620A0087
:101B50006D690000742E0000687400003220EF00F0
:101B6000C30620008301500005003100A3DC2000E3
:101B7000008041001040BA000160EF000000060044
:101B8000A0DC200083814100808141001380BA00E5
:101B9000000006003C6969006E706E00757470008C
:101BA0002074750079707400653D2000226874000F
:101BB00069647900646570006E226500206E3D00E6
:101BC000616D2200653D680022536900534964003D
:101BD0004422640020696500643D6E0022532200A7
:101BE0005349200044686E002220610076616D0038
:101BF0006C756500653D3D0022222200203E4100BB
:101C00003C6955006E7054007574480020742200C1
:101C100079702000653D69002268640069643D00B8
:101C2000646522006E224100206E5500616D5400F3
:101C3000653D480022506800415322005322200095
:101C400020697600643D610022506C0041537500AC
:101C50005368650022203D00766122006C752200E9
:101C6000653D3E0022220A003E3C00003220EF008B
:101C700023052000830150000500310023E52000EA
:101C8000008041001040BA000160EF000000060033
:101C900020E5200083814100808141001380BA004B
:101CA000000006003C696C006E707500757465007C
:101CB00020743D0079702200653D53002268750054
:101CC0006964620064656D006E226900206E7400B4
:101CD000616D2200653D3E0022453C004E432F00D1
:101CE0005259660050546F002220720069646D00E2
:101CF0003D223E00454E0A0043523C0059502F0001
:101D00005468620022206F00766164006C7579006F
:101D1000653D3E0022223C003E3C2F00696E68007B
:101D20007075740074206D0074796C0070653E00ED
:101D30003D220D0073750A00626D0D0069740A0082
:101D400022200000766100003220EF0043052000D1
:101D5000830150000500310003EC200000804100A9
:101D60001040BA000160EF000000060000EC200007
:101D700083814100808141001380BA000000060089
:101D80003C212000444F6900435473005950200007
:101D900045207200485465004D4C63003E0A6F00B8
:101DA0003C686E00746D66006C3E69000A52670004
:101DB0006F75750074657200722069004E616E0067
:101DC0006D6567002C2020005061610073736E0008
:101DD000776F640072642000206162006E646F009F
:101DE00020456F006E6374007279690070746E0034
:101DF000696F67006E200D00436F0A006E660D006C
:101E000069670A0075723C0065642F000A3C68002F
:101E100062727400202F6D003E4F6C00736D3E00A7
:101E20006F6200006F7400003220EF006306200034
:101E3000830150000500310003F3200000804100C1
:101E40001040BA000160EF000000060000F320001F
:101E500083814100808141001380BA0000000600A8
:101E60003C216300444F74004354650059506400A2
:101E70004520290048547B004D4C63003E0A2E004B
:101E80003C686900746D6E006C3E6E000A3C650033
:101E90007363720072694800707454003E664D00AE
:101EA000756E4C0063742B00696F3D006E20270037
:101EB0006368630065636F006B436E00786E6E004D
:101EC000286365006F6E63006E657400637465005F
:101ED00065646400297B2000633D7400646F6F00BB
:101EE000637520006D6574006E7468002E67650070
:101EF00065742000456C6900656D6E00656E740048
:101F0000744265007949720064286E0027436500B9
:101F1000584E740027292E003B0A270069663B00B3
:101F200028637D006F6E0A006E6500003220EF00AE
:101F3000C3042000830150000500310023FB200072
:101F4000008041001040BA000160EF000000060070
:101F500020FB200083814100808141001380BA0072
:101F600000000600656C4F00736573007B636D00B5
:101F70002E696F006E6E620065726F0048547400C7
:101F80004D4C20002B3D6900276E73006F742000BC
:101F900020633C006F6E2F006E65640063746900FF
:101FA0006564760020743E006F203C007468620017
:101FB00065207200696E200074652F00726E3E000D
:101FC00065744C002E2769003B7D6E007D3C6B00E4
:101FD0002F73730063723A0069703C00743E6200B4
:101FE0003C6472006976200020692F00643D3E0049
:101FF00022430000584E0000223E00003220EF0035
:10200000C30420008301500005003100A30121001A
:10201000008041001040BA000160EF00000006009F
:10202000A001210083814100808141001380BA001A
:10203000000006003C6968006D676500207363005E
:1020400072636B003D2743006874780074706E0003
:102050003A2F28002F6F3100736D29006F62220024
:102060006F7420002E6F6F0072676E002F73650013
:10207000696E7200676C720065706F00697872003B
:10208000656C3D002E6722006966630027206800AA
:1020900073746500796C6300653D6B0022644300D6
:1020A00069737800706C6E00617928003A6E3000B8
:1020B0006F6E290065222200206F20006E6C2F00B9
:1020C0006F613E00643D0000226300003220EF009B
:1020D0004302200083015000050031002308210045
:1020E000008041001040BA000160EF0000000600CF
:1020F0002008210083814100808141001380BA00C3
:10210000000006003C61670020683C0072652F00FB
:10211000663D610022773E0069663C0069436200CB
:102120006F6E720066692F00672E3E0068743C0077
:102130006D6C2F00223E68005769740066696D005F
:1021400020436C006F6E3E00666900003220EF0095
:10215000230B2100008041001040BA000160EF0015
:102160000000060053530000494400003D000000F9
:102170003220EF00430C2100008041001040BA00E3
:102180000160EF0000000600000000003220EF00B8
:10219000230D2100008041001040BA000160EF00D3
:1021A0000000060050410000535300003D000000B5
:1021B0003220EF00430E2100008041001040BA00A1
:1021C0000160EF0000000600415500005448000087
:1021D0003D0000003220EF00630F2100008041002D
:1021E0001040BA000160EF0000000600454E0000FC
:1021F0004352000059500000543D00000000000010
:102200003220EF00C3102100008041001040BA00CE
:102210000160EF000000060020500000433A00007B
:10222000254C000058200000000000003220EF0084
:1022300023122100008041001040BA000160EF002D
:1022400000000600505300005650000041470000B7
:102250003A2500004C580000200000003220EF001A
:10226000A3132100008041001040BA000160EF007C
:1022700000000600544200004C500000414700009E
:102280003A2500004C580000200000003220EF00EA
:1022900023152100008041001040BA000160EF00CA
:1022A00000000600434F0000524300004F4E000064
:1022B0003A2500004C580000200000003220EF00BA
:1022C000A3162100008041001040BA000160EF0019
:1022D0000000060041440000445200004553000045
:1022E0005320000046410000554C000054000000FF
:1022F0003220EF0043182100008041001040BA0056
:102300000160EF00000006004D410000544800004D
:1023100020460000415500004C5400000000000021
:102320003220EF00C3192100008041001040BA00A4
:102330000160EF000000060053540000414300001C
:102340004B20000046410000554C000054000000A6
:102350003220EF00431B2100008041001040BA00F2
:102360000160EF00000006004F53000043490000E9
:102370004C4C0000415400004F5200002046000029
:10238000415500004C540000000000003220EF00D6
:10239000230520008301500005003100231E210089
:1023A000008041001040BA000160EF00000006000C
:1023B000201E210083814100808141001380BA00EA
:1023C00000000600437224006162250024256C0091
:1023D0007324750025732400242525003035300032
:1023E0002E31350066242E0025303100352E660052
:1023F0003166240024252500303530002E3135008B
:1024000066242E0025303100352E6600316624000A
:1024100024252500303530002E31350066242E006D
:1024200025303100352E6600316624002425250034
:10243000303530002E31370066242E00256C3100F7
:102440006424660025302400352E250033663000D4
:10245000242535006C752E00242531006C7566002E
:10246000242500006C7500003220EF00E3022000FC
:102470008301500005003100032521000080410048
:102480001040BA000160EF000000060000252100A6
:1024900083814100808141001380BA000000060062
:1024A00047450A00542048002F776F00656C730081
:1024B000636F74006D653A00796F2000752E6F00B0
:1024C00070687300703F6D006E616F006D65620033
:1024D0003D256F007326740063682E006B736F00D8
:1024E0006D3D72002575670020480D0054540A00A8
:1024F000502F0D00312E0A00310D00003220EF0068
:10250000630220008301500005003100A32921004F
:10251000008041001040BA000160EF00000006009A
:10252000A029210083814100808141001380BA00ED
:10253000000006005772200069747400696E68001C
:1025400067206500436120006C6966006272690063
:1025500061747200696F73006E2074006461200002
:1025600074617400207469006F206D00454565003A
:1025700050522E004F4D0A0020660D006F72000071
:102580003220EF00030420008301500005003100D9
:10259000C32D2100008041001040BA000160EF000F
:1025A00000000600C02D2100838141008081410090
:1025B0001380BA00000006003233300035302E00A0
:1025C0002C34350034303100302C2C0035303400C0
:1025D00038302E002C32300032393000352C2C00AF
:1025E0003337310035372E002C3530003030300095
:1025F000302C2C003231390034342E002C3333008F
:1026000031363100302C2C003439340035332E0073
:102610002C20300020313000342E2C003530310099
:102620002C342E002E303000302C3000312E2C0077
:1026300030307E002C3100003220EF008332210048
:10264000008041001040BA000160EF000000060069
:10265000436100006C3100002052000061770000EF
:102660002064000061740000612000002D3E000025
:1026700020200000257300000A0D0000000000006B
:102680003220EF00C3342100008041001040BA0026
:102690000160EF00000006002C0000003220EF0077
:1026A000630320008301500005003100A3362100A0
:1026B000008041001040BA000160EF0000000600F9
:1026C000A036210083814100808141001380BA003F
:1026D000000006005772450069745000696E520090
:1026E00067204F00636F4D006E66200069676600CB
:1026F00075726F0061747200696F20006E20740043
:102700006461680074616500207420006F206600B9
:10271000746869006520720073657300636F7400EC
:102720006E642000206C74006F63690061746D003A
:10273000696F65006E200A00746F0D00204500006F
:102740003220EF00230720008301500005003100F4
:10275000C33B2100008041001040BA000160EF003F
:1027600000000600C03B21008381410080814100C0
:102770001380BA00000006003139350035313100D0
:10278000372E3400303030002C312E0039323000FA
:10279000303030002E302C00302C310031383100F8
:1027A00030303700302E3000303030002C312E00E9
:1027B00034383000303030002E302C00302C3200D5
:1027C0003131310037303500302E390030303400AF
:1027D0002C312E0031333000303030002E302C00C0
:1027E000302C360039363000313830002E30300091
:1027F000302C2C0038353500303030002E30300091
:10280000302C300035382C00303039002E30360076
:10281000302C2C00362E3100353030002C31300079
:1028200039352C00313731002E303000302C30005B
:10283000392E2C00303031002C343500302E310050
:1028400030302C002C323700302E380030302C0045
:102850002C367E002E300000302C00003220EF009D
:10286000A3432100008041001040BA000160EF0046
:1028700000000600436100006C320000205200009E
:102880006177000020640000617400006120000096
:102890002D3E000020200000257300000A0D0000DE
:1028A000000000003220EF0063032000830150008D
:1028B00005003100E3462100008041001040BA00CD
:1028C0000160EF0000000600E04621008381410026
:1028D000808141001380BA0000000600577250004A
:1028E00069745200696E4F0067204D00636F2000CD
:1028F0006E66660069676F00757272006174200011
:10290000696F74006E206800646165007461200066
:10291000207466006F20690074687200652073007F
:102920007468740069722000642074006C6F690020
:1029300063616D00746965006F6E0A0020740D009C
:102940006F200000454500003220EF0023022000E8
:102950008301500005003100034C2100008041003C
:102960001040BA000160EF0000000600004C21009A
:1029700083814100808141001380BA00000006007D
:1029800032333500353037002E302E00302C3000F9
:102990003434300030302C002E303500302C3000F4
:1029A00035303000383030002E302E00302C3000E2
:1029B0003232300039352C002E307E00302C0000B1
:1029C000333700003220EF00E34E21000080410049
:1029D0001040BA000160EF000000060043610000F3
:1029E0006C3300002052000061770000206400007A
:1029F00061740000612000002D3E000020200000D6
:102A0000257300000A0D0000000000003220EF00D6
:102A100003022000830150000500310023522100F1
:102A2000008041001040BA000160EF000000060085
:102A30002052210083814100808141001380BA002F
:102A400000000600434120004C20640064616100E6
:102A50007461740020736100617620006564720007
:102A6000203065007830740031317500302E7200EE
:102A700020206E0057612E0069740A0020660D0048
:102A80006F7200003220EF0003022000830150002B
:102A900005003100E3552100008041001040BA00DC
:102AA0000160EF0000000600E05521008381410035
:102AB000808141001380BA000000060043412000DD
:102AC0004C206400646161007461740020736100D3
:102AD00061762000656472002030650078307400F3
:102AE00032317500302E720020206E0057612E00AA
:102AF00069740A0020660D006F7200003220EF003A
:102B0000030220008301500005003100A359210079
:102B1000008041001040BA000160EF000000060094
:102B2000A059210083814100808141001380BA00B7
:102B300000000600434120004C20640064616100F5
:102B40007461740020736100617620006564720016
:102B5000203065007830740033317500302E7200FB
:102B600020206E0057612E0069740A0020660D0057
:102B70006F7200003220EF008302200083015000BA
:102B800005003100635D2100008041001040BA0063
:102B90000160EF0000000600605D210083814100BC
:102BA000808141001380BA000000060047453A00CA
:102BB000542020002F6E6F006578730074736D00D1
:102BC00065726F00696162006C6E6F00756D7400F4
:102BD00062652E00722E6F007068720070206700B0
:102BE00048540D0054500A002F310D002E310A00B8
:102BF0000D0A0000486F0000737400003220EF00DF
:102C0000C30220008301500005003100A3612100B0
:102C1000008041001040BA000160EF000000060093
:102C2000A061210083814100808141001380BA00AE
:102C30000000060047457300542074002F4F3A00EF
:102C4000736D20006F626F006F74730046576D00E4
:102C50002E706F00687062003F736F0074617400C3
:102C600072742E006C696F006E6572003D256700FE
:102C700069200D0048540A0054500D002F310A00FD
:102C80002E3100000D0A0000486F00003220EF00D6
:102C900083022000830150000500310023662100DB
:102CA000008041001040BA000160EF000000060003
:102CB0002066210083814100808141001380BA0099
:102CC000000006004F5374004D4F6500424F6400F2
:102CD00054202000426C4A0075657500746F6C00CA
:102CE0006F74790068202000636F32006D6D3300CF
:102CF000616E2C0064202000737532006D6D300011
:102D000061723100792035002D200D0055700A00C8
:102D1000646100003220EF00430220008301500074
:102D200005003100636A2100008041001040BA00B4
:102D30000160EF0000000600606A2100838141000D
:102D4000808141001380BA0000000600626C6F00B1
:102D50007665610072736400696F65006E207200B1
:102D6000202020002020760020206500202D7200E9
:102D700044697300737069006C616F0079736E0051
:102D800020742E0068650D0020620A006F6F00003D
:102D9000746C00003220EF00830220008301500099
:102DA00005003100636E2100008041001040BA0030
:102DB0000160EF0000000600606E21008381410089
:102DC000808141001380BA000000060073656F0027
:102DD00074756F0070777400696668006920200060
:102DE0002020630020206F0020206E00202D6E0028
:102DF000536565007475630070207400576969003D
:102E000066696F0020756E0073692E006E670D0095
:102E100020420A006C750000657400003220EF004B
:102E2000830220008301500005003100A3722100BD
:102E3000008041001040BA000160EF000000060071
:102E4000A072210083814100808141001380BA007B
:102E500000000600636167006C20720078786100F2
:102E600078206D002020200020202D002020200030
:102E700020206300202D680073746F006172690068
:102E80007473630020636500616C730069623A00CB
:102E900072610D0074690A006F6E000020700000FE
:102EA000726F00003220EF004302200083015000C7
:102EB00005003100E3762100008041001040BA0097
:102EC0000160EF0000000600E076210083814100F0
:102ED000808141001380BA000000060020206C00B1
:102EE000202020002020630020206F0020206C0084
:102EF00020206F002020720020207300202020005E
:102F00002020660070706F00682072002D20200065
:102F100044697000737048006C610D0079200A00EC
:102F2000616C00003220EF00E301200083015000BB
:102F300005003100E37A2100008041001040BA0012
:102F40000160EF0000000600E07A2100838141006B
:102F5000808141001380BA0000000600202061003B
:102F600020206C0020206C002020200020207300F6
:102F70002020650020206E002020730020206F009C
:102F80002020720074617300202D0D0020540A006F
:102F900065730000742000003220EF00230320003E
:102FA0008301500005003100837E21000080410034
:102FB0001040BA000160EF0000000600807E210092
:102FC00083814100808141001380BA000000060027
:102FD000202020002020660020206F00202072008A
:102FE000202020002020630020206F0020206C0083
:102FF00020206F0020207200646F2000202D6900C7
:1030000020546E006573740074206500444F6E0098
:103010002028730044696900737374006F6C790031
:103020007665290064200D004F780A00796700005A
:10303000656E00003220EF00630220008301500023
:103040000500310063832100008041001040BA0078
:103050000160EF00000006006083210083814100D1
:10306000808141001380BA00000006002020720019
:103070002020200020206F0020206600202020003B
:1030800020204800202079002020640020207200A9
:1030900020206F0070686700202D650020546E00AE
:1030A0006573290074200D0070480A002028000074
:1030B000506F0000776500003220EF00830220008F
:1030C000830150000500310083872100008041000A
:1030D0001040BA000160EF00000006008087210068
:1030E00083814100808141001380BA000000060006
:1030F00020206E0020207400202020002020770057
:103100002020610020207400202065002020720013
:10311000202020002020640077646500202D7000AE
:1031200020537400686F680077732E0020740D00C0
:1031300068650A0020630000757200007265000077
:103140003220EF000303200083015000050031000E
:10315000C38B2100008041001040BA000160EF00E5
:1031600000000600C08B2100838141008081410066
:103170001380BA00000006002020720020206900A1
:10318000202063002020610020206C0020202000EF
:103190002020630020206F0020206E00202064008B
:1031A00065637500202D630020537400686F69000B
:1031B0007773760020746900686574002063790075
:1031C00075722E0072650D006E740A002065000095
:1031D0006C650000637400003220EF00E303200000
:1031E00083015000050031008390210000804100E0
:1031F0001040BA000160EF0000000600809021003E
:1032000083814100808141001380BA0000000600E4
:10321000202072002020650020206E0020207400F5
:1032200020202000202063002020610020206C004E
:103230002020690020206200736872006F776100AF
:10324000202D74002050690072696F006E746E004A
:1032500073202000746F760020746100686572002E
:103260002073690063726100656562006E206C0006
:10327000616C65006C2073006F662E0020740D0079
:1032800068650A0020630000757200003220EF00BC
:10329000C302200083015000050031002396210065
:1032A000008041001040BA000160EF0000000600FD
:1032B0002096210083814100808141001380BA0063
:1032C000000006002020200020204F002020780051
:1032D00020207900202067002020650020206E003B
:1032E000202020002020660020206F00646F7200E4
:1032F000322020002D206400546565007374630043
:10330000204461004F2079002844290069732E0071
:10331000736F0D006C760A00656400003220EF00C8
:10332000430320008301500005003100A39A2100CF
:10333000008041001040BA000160EF00000006006C
:10334000A09A210083814100808141001380BA004E
:10335000000006002020650020207200202061006F
:10336000202074002020750020207200202065009D
:10337000202020002020610020206E00777464004F
:10338000202D200020537200686F610077207700A5
:1033900074682000652064006375610072727400B7
:1033A000656E610074202E0077610D0074650A005F
:1033B00072200000746500006D7000003220EF0084
:1033C000830320008301500005003100A39F2100EA
:1033D000008041001040BA000160EF0000000600CC
:1033E000A09F210083814100808141001380BA00A9
:1033F0000000060020206C002020690020206700CB
:10340000202068002020740020202000202073004D
:103410002020650020206E002020730070616F0066
:10342000722072002D202000536861006F776E00BB
:103430002074640068652000206374007572680061
:10344000726565006E742000207250006177410043
:103450002064520061742E0061200D00666F0A0026
:10346000722000003220EF0083032000830150000F
:1034700005003100E3A42100008041001040BA00A3
:103480000160EF0000000600E0A4210083814100FC
:10349000808141001380BA000000060020206C00EB
:1034A0002020690020206700202068002020740070
:1034B00020202000202073002020650020206E00A6
:1034C000202073006E686F00332072002D202000D2
:1034D000536861006F776E00207464006865200097
:1034E0002063740075726800726565006E74200058
:1034F00020724E00617748002064330061740D0033
:1035000061200A00666F0000722000003220EF0088
:10351000A3032000830150000500310023AA2100ED
:10352000008041001040BA000160EF00000006007A
:1035300020AA210083814100808141001380BA00CC
:10354000000006002020720020206500202061007D
:10355000202064002020690020206E0020206700C9
:1035600020207300202020002020660070686F005B
:10357000627572006C622000202D74002053680078
:10358000686F6500777320002074700068656800BC
:103590002072200061776200206175006E646C000B
:1035A00020636200616C0D0063750A006C610000AD
:1035B00074650000642000003220EF002303200027
:1035C000830150000500310083AF210000804100DD
:1035D0001040BA000160EF000000060080AF21003B
:1035E00083814100808141001380BA000000060001
:1035F00063686100757073002020740020206500EE
:10360000202073002020740020202000202076003D
:10361000202D650043687200656373006B73690059
:10362000206F6F006E206E007468200065206F00B0
:10363000496E660074652000726E4600657457001E
:1036400020662E006F720D0020740A00686500006D
:10365000206C00003220EF00230320008301500083
:103660000500310063B42100008041001040BA0021
:103670000160EF000000060060B42100838141007A
:10368000808141001380BA00000006006563740069
:10369000686F6800202065002020200020204C005A
:1036A000202043002020440020202000202D7400F2
:1036B000546F6F00676720006C65420073206C00D8
:1036C00065637500686F6500696E420067206F0072
:1036D00074686F0065207400636F68006D6D2E0064
:1036E000616E0D0064730A00206F00006E20000000
:1036F0003220EF0003042000830150000500310058
:1037000043B92100008041001040BA000160EF0081
:103710000000060040B92100838141008081410002
:103720001380BA000000060065786F0069746700B6
:10373000202072002020610020206D002020200029
:103740002020690020206E00202D740045786F0035
:103750006361200070656E0073206F006F757200EA
:1037600074206D006F66610020616C006E7920002E
:103770002064640065626F007567770067696E009A
:103780006E676C00206F6F007220610063616400DF
:103790006C692E0062720D0061740A00696F00008E
:1037A0006E200000707200003220EF0083022000C3
:1037B000830150000500310003BF2100008041005B
:1037C0001040BA000160EF000000060000BF2100B9
:1037D00083814100808141001380BA00000006000F
:1037E00068656F006C7073002020730020206900F2
:1037F0002020620020206C00202065002020200076
:10380000202D630050726F00696E6D0074736D003F
:1038100020616100206C6E00697364007420730085
:103820006F662E0020610D006C6C0A002070000095
:103830003220EF00A3032000830150000500310077
:1038400043C32100008041001040BA000160EF0036
:103850000000060040C321008381410080814100B7
:103860001380BA00000006006D6F20006465200020
:1038700020204900202066002020200020206E000B
:1038800020206F0020207400202D20004469690052
:1038900073706E006C61200079736D0020746F008E
:1038A000686564002063650075722C0072652000F5
:1038B0006E747400204468006562650075676E0070
:1038C000206120006E64300020432E00616C0D00EA
:1038D000206D0A006F640000652E00003220EF00AA
:1038E000C30420008301500005003100A3C821005B
:1038F000008041001040BA000160EF0000000600A7
:10390000A0C8210083814100808141001380BA005A
:1039100000000600736173007665650063616400F2
:103920006C20200020206200202079002020200030
:1039300020206100202D75002053740061766F00F7
:1039400065736D0020746100686574002063690010
:1039500075726F0072656E006E742E002069200013
:103960006E73200074725000756D6100656E730097
:1039700074617300746977006F6E6F00206372006A
:10398000616C64006972200061745400696F4200C8
:103990006E7344002E202E0020540D0068690A002A
:1039A0007320000069730000207500003220EF00D2
:1039B000C3042000830150000500310023CF210003
:1039C000008041001040BA000160EF0000000600D6
:1039D00020CF210083814100808141001380BA0003
:1039E000000006007361730076656500636F640014
:1039F0006E66200069676200202079002020200088
:103A000020206100202D75002053740061766F0026
:103A100065736D002074610068657400206369003F
:103A200075726F0072656E006E742E002049200062
:103A30006E742000657250006E656100742F730013
:103A4000726F73007574770065726F002063720087
:103A50006F6E64006E65200063745400696F4200ED
:103A60006E7344002E202E0020540D0068690A0059
:103A70007320000069730000207500003220EF0001
:103A8000230420008301500005003100A3D521004C
:103A9000008041001040BA000160EF000000060005
:103AA000A0D5210083814100808141001380BA00AC
:103AB000000006007365740074206F0078786D0054
:103AC000782061006E7574006D6269006572630034
:103AD00020206100202D6C0020536C00657479005B
:103AE00073202000612073006E65610077207600EE
:103AF0006E7565006D626400657220002066690065
:103B00006F726E00206120002076450061724500D2
:103B100069615000626C5200652E4F0020204D00FC
:103B200049742E0020690D0073200A006E6F00009A
:103B300074200000617500003220EF006302200055
:103B4000830150000500310083DB2100008041002B
:103B50001040BA000160EF000000060080DB210089
:103B600083814100808141001380BA00000006007B
:103B700020204F002020200020206C0020206F00FB
:103B800020207700202020002020720020206500C7
:103B90002020640020202000202063006C6F6F0034
:103BA00077646C006F6F6F006E657200202D2E00C1
:103BB00020530D0065740A00204400003220EF00FD
:103BC000830220008301500005003100A3DF2100A3
:103BD000008041001040BA000160EF0000000600C4
:103BE000A0DF210083814100808141001380BA0061
:103BF0000000060020206C0020206F0020207700AD
:103C00002020200020206700202072002020650056
:103C10002020650020206E0020202000202063004E
:103C20006C6F6F0077646C006F746F00776F720059
:103C3000202D2E0020530D0065740A002044000042
:103C40004F2000003220EF0083022000830150004B
:103C500005003100E3E32100008041001040BA007C
:103C60000160EF0000000600E0E3210083814100D5
:103C7000808141001380BA000000060020204F0020
:103C80002020200020206C0020206F0020207700C2
:103C9000202020002020620020206C0020207500C1
:103CA00020206500202020006C6F630077646F0087
:103CB0006F746C0068726F0065657200202D2E00B5
:103CC00020530D0065740A00204400003220EF00EC
:103CD00063022000830150000500310023E8210029
:103CE000008041001040BA000160EF0000000600B3
:103CF00020E8210083814100808141001380BA00C7
:103D00000000060020204F002020200020206D0011
:103D10002020650020206400202020002020720048
:103D20002020650020206400202020002020630047
:103D30006D696F0064646C006F6F6F006E65720078
:103D4000202D2E0020530D0065740A002044000031
:103D50003220EF0083022000830150000500310073
:103D600043EC2100008041001040BA000160EF00E8
:103D70000000060040EC2100838141008081410069
:103D80001380BA000000060020206D00202065008E
:103D900020206400202020002020670020207200C6
:103DA000202065002020650020206E0020202000BB
:103DB000202063006D696F0064646C006F746F0095
:103DC000776F7200202D2E0020530D0065740A00BD
:103DD000204400004F2000003220EF00830220002A
:103DE000830150000500310083F021000080410074
:103DF0001040BA000160EF000000060080F02100D2
:103E000083814100808141001380BA0000000600D8
:103E100020204F002020200020206D002020650061
:103E200020206400202020002020620020206C0040
:103E30002020750020206500202020006D6963008F
:103E400064646F006F746C0068726F006565720067
:103E5000202D2E0020530D0065740A002044000020
:103E60003220EF0083022000830150000500310062
:103E7000C3F42100008041001040BA000160EF004F
:103E800000000600C0F421008381410080814100D0
:103E90001380BA00000006002020200020206800C7
:103EA00020206900202067002020680020202000BA
:103EB00020207200202065002020640020202000A7
:103EC0002020630068696F0067686C00646F6F0092
:103ED0006F6E720065202E002D200D0053650A00C4
:103EE00074200000444F00003220EF00A3022000A5
:103EF000830150000500310003F9210000804100DA
:103F00001040BA000160EF000000060000F9210037
:103F100083814100808141001380BA0000000600C7
:103F20002020690020206700202068002020200039
:103F300020206700202072002020650020206500DE
:103F400020206E00202020002020630068696F0080
:103F500067686C00646F6F00747772006F202E00CA
:103F60002D200D0053650A0074200000444F00000E
:103F7000206800003220EF00A302200083015000DF
:103F80000500310063FD2100008041001040BA00AF
:103F90000160EF000000060060FD21008381410008
:103FA000808141001380BA0000000600202020001C
:103FB0002020680020206900202067002020680061
:103FC000202020002020620020206C00202075008E
:103FD00020206500202020006869630067686F006A
:103FE000646F6C0074686F007265720065202E004B
:103FF0002D200D0053650A0074200000444F00007E
:104000003220EF00C3022000830150000500310080
:10401000C3012200008041001040BA000160EF009F
:1040200000000600C0012200838141008081410020
:104030001380BA000000060020204000202020004D
:10404000202031002020300020202000202064008B
:1040500020206500202067002020720020206500BD
:10406000202065006C6F7300776420006F726F0012
:1040700065616E00646F65006E652000202D0D0087
:1040800020530A0065740000204400004F20000007
:104090003220EF00C30220008301500005003100F0
:1040A00043062200008041001040BA000160EF008A
:1040B000000006004006220083814100808141000B
:1040C0001380BA00000006002020200020204000BD
:1040D000202020002020310020203000202020003F
:1040E000202064002020650020206700202072002E
:1040F000202065006C6F6500776473006F7220008C
:104100006561740064747700776F6F00202D200064
:1041100020530D0065740A0020200000444F000069
:104120003220EF000303200083015000050031001E
:10413000C30A2200008041001040BA000160EF0075
:1041400000000600C00A22008381410080814100F6
:104150001380BA000000060020202000202031003B
:104160002020300020202000202064002020650036
:10417000202067002020720020206500202065009C
:10418000202073006C6F2000776474006F726800E9
:104190006561720064746500687265006565200081
:1041A000202D2E0020530D0065740A0020200000F1
:1041B000444F0000204000003220EF006303200045
:1041C0008301500005003100830F22000080410070
:1041D0001040BA000160EF0000000600800F2200CE
:1041E00083814100808141001380BA0000000600F5
:1041F0002020650020207200202020002020660062
:1042000020206F002020720020202000202032007B
:104210002020300020202000202064006D696500EF
:10422000646467006F72720065616500646F6500A9
:104230006E657300202D2000202043005365200070
:1042400074206F00444F6E002068650069672E007F
:1042500068200D006E750A006D6200003220EF00CC
:10426000630320008301500005003100A3142200E5
:10427000008041001040BA000160EF00000006001D
:10428000A014220083814100808141001380BA0084
:104290000000060020207200202020002020660060
:1042A00020206F00202072002020200020203200DB
:1042B00020203000202020002020640020206500E5
:1042C0006D696700646472006F7265006561650006
:1042D00064747300776F2000202D4300205320006A
:1042E00065747400204477004F206F0068692E00C9
:1042F00067680D00206E0A00756D000062650000A1
:104300003220EF00830320008301500005003100BC
:10431000C3192200008041001040BA000160EF0084
:1043200000000600C0192200838141008081410005
:104330001380BA0000000600202072002020200018
:104340002020660020206F00202072002020200006
:104350002020320020203000202020002020640077
:10436000202065006D696700646472006F726500EB
:1043700065616500647473006872200065654300C0
:10438000202D2000205374006574680020447200C2
:104390004F2065006869650067682E00206E0D007B
:1043A000756D0A00626500003220EF008303200073
:1043B0008301500005003100031F220000804100EE
:1043C0001040BA000160EF0000000600001F22004C
:1043D00083814100808141001380BA000000060003
:1043E000202020002020660020206F002020720066
:1043F0002020200020203200202035002020200016
:104400002020640020206500202067006869720079
:1044100067686500646F6500726573006164200001
:104420006F6E4300652020002D206F0053656E00E5
:1044300074206500444F2E002068200069670D003D
:1044400068200A006E7500006D6200006572000051
:104450003220EF008303200083015000050031006B
:1044600043242200008041001040BA000160EF00A8
:104470000000060040242200838141008081410029
:104480001380BA00000006002020200020206600D3
:1044900020206F00202072002020200020203200E9
:1044A00020203500202020002020640020206500EE
:1044B000202067006869720067686500646F6500A6
:1044C0007265730061642000747743006F202000E0
:1044D0002D2074005365770074206F00444F2E0028
:1044E0002068200069670D0068200A006E750000D2
:1044F0006D620000657200003220EF00A30320000F
:104500008301500005003100832922000080410012
:104510001040BA000160EF00000006008029220070
:1045200083814100808141001380BA0000000600B1
:10453000202020002020660020206F002020720014
:1045400020202000202032002020350020202000C4
:104550002020640020206500202067006869720028
:1045600067686500646F65007265730061642000B0
:104570007468740072656800652072002D20650003
:104580005365650074202000444F430020682E00CE
:104590006967200068200D006E750A006D620000DA
:1045A000657200003220EF00C3022000830150003A
:1045B00005003100E32E2200008041001040BA00C7
:1045C0000160EF0000000600E02E22008381410020
:1045D000808141001380BA000000060020206200A4
:1045E000202072002020610020207400202069001B
:1045F00020206F0020206E0020202000202072004C
:1046000020206500202061007068640072656900E8
:10461000646F6E006E656700202D2000205331000E
:1046200065742E0020700D0048200A0063610000B0
:104630006C6900003220EF00C302200083015000AB
:104640000500310063332200008041001040BA00B1
:104650000160EF000000060060332200838141000A
:10466000808141001380BA00000006002020620013
:10467000202072002020610020207400202069008A
:1046800020206F0020206E002020200020207200BB
:104690002020650020206100706864007265690058
:1046A00064746E00776F6700202D20002053320065
:1046B00065742E0020700D0048200A006361000020
:1046C0006C6900003220EF00E302200083015000FB
:1046D00005003100E3372200008041001040BA009D
:1046E0000160EF0000000600E037220083814100F6
:1046F000808141001380BA00000006002020620083
:1047000020207200202061002020740020206900F9
:1047100020206F0020206E0020202000202072002A
:1047200020206500202061007068640072656900C7
:1047300064746E006872670065652000202D330088
:1047400020532E0065740D0020700A0048200000E0
:10475000636100006C6900003220EF00C30220009A
:104760008301500005003100833C2200008041009D
:104770001040BA000160EF0000000600803C2200FB
:1047800083814100808141001380BA00000006004F
:10479000202069002020620020207200202061007B
:1047A000202074002020690020206F0020206E004F
:1047B0002020200020207200202065007068610009
:1047C00072656400646669006F756E007220670030
:1047D0002D2020005365340074202E0070480D00F9
:1047E00020630A00616C00003220EF00C302200049
:1047F0008301500005003100034122000080410088
:104800001040BA000160EF000000060000412200E5
:1048100083814100808141001380BA0000000600BE
:1048200020206900202062002020720020206100EA
:10483000202074002020690020206F0020206E00BE
:104840002020200020207200202065007068610078
:10485000726564006466690069766E0065206700B1
:104860002D2020005365350074202E0070480D0067
:1048700020630A00616C00003220EF00C3022000B8
:104880008301500005003100834522000080410073
:104890001040BA000160EF000000060080452200D1
:1048A00083814100808141001380BA00000006002E
:1048B000202062002020720020206100202074004F
:1048C0002020690020206F0020206E002020200082
:1048D00020207200202065002020610070686400A4
:1048E0007265690064736E0069786700202D20008E
:1048F0002053360065742E0020700D0048200A00F9
:10490000636100006C6900003220EF00E3022000C8
:104910008301500005003100034A2200008041005D
:104920001040BA000160EF0000000600004A2200BB
:1049300083814100808141001380BA00000006009D
:1049400020206200202072002020610020207400BE
:104950002020690020206F0020206E0020202000F1
:104960002020720020206500202061007068640013
:104970007265690064736E0065766700656E20007D
:10498000202D370020532E0065740D0020700A0082
:1049900048200000636100006C6900003220EF00D5
:1049A000E30220008301500005003100A34E2200E5
:1049B000008041001040BA000160EF0000000600D6
:1049C000A04E220083814100808141001380BA0003
:1049D00000000600202062002020720020206100DC
:1049E000202074002020690020206F0020206E000D
:1049F000202020002020720020206500202061005F
:104A0000706864007265690064656E0069676700BC
:104A100068742000202D380020532E0065740D008E
:104A200020700A0048200000636100006C690000EB
:104A30003220EF00E3022000830150000500310026
:104A400043532200008041001040BA000160EF0093
:104A50000000060040532200838141008081410014
:104A60001380BA000000060020206200202072009F
:104A700020206100202074002020690020206F0089
:104A800020206E00202020002020720020206500C1
:104A90002020610070686400626C690075656E00BA
:104AA0006869670067682000202D390020532E00B8
:104AB00065740D0020700A0048200000636100004A
:104AC0006C6900003220EF00E302200083015000F7
:104AD00005003100E3572200008041001040BA0079
:104AE0000160EF0000000600E057220083814100D2
:104AF000808141001380BA000000060020202000C1
:104B0000202050002020570020204D002020200091
:104B100020206C00202065002020760020206500E9
:104B200020206C0020202000626C660075656F00FC
:104B30006C6972006D692000742044002D204F00C4
:104B400053652E0074730D0020740A006865000020
:104B5000206D0000617800003220EF008302200009
:104B60008301500005003100835C22000080410079
:104B70001040BA000160EF0000000600805C2200D7
:104B800083814100808141001380BA00000006004B
:104B90002020200020206D002020610020207800AF
:104BA00020202000202050002020570020204D00F1
:104BB000202020002020660020206F0070687200F6
:104BC0006C6920006D697000742048002D202E0053
:104BD00053650D0074730A002074000068650000BE
:104BE0003220EF0003032000830150000500310054
:104BF000C3602200008041001040BA000160EF0055
:104C000000000600C06022008381410080814100D5
:104C10001380BA000000060020206E0020206700EC
:104C20002020200020207300202065002020650027
:104C30002020640020202000202050002020570049
:104C400020204D00626C20007565660073656F0062
:104C500065647200202D20002053440065744F00CD
:104C600073202E0074680D0065200A007374000024
:104C700061720000746900003220EF00030320001D
:104C8000830150000500310083652200008041004F
:104C90001040BA000160EF000000060080652200AD
:104CA00083814100808141001380BA00000006002A
:104CB0002020690020206E00202067002020200096
:104CC0002020730020206500202065002020640043
:104CD00020202000202050002020570077684D0021
:104CE000697420006573660065656F00642072005A
:104CF0002D202000536570007473480020742E002E
:104D000068650D0020730A00746100007274000071
:104D10003220EF00A3032000830150000500310082
:104D2000436A2200008041001040BA000160EF0099
:104D300000000600406A220083814100808141001A
:104D40001380BA00000006002020200020207200FE
:104D500020206500202066002020650020207200B1
:104D60002020650020206E002020630020206500A8
:104D700020202000626C6C0075656900726167001C
:104D80006E676800652074002D2020005365660062
:104D900074736F00207472006865200020744400F2
:104DA0006F6C4F0065722E00616E0D0063650A0026
:104DB00020720000616E0000676500003220EF0085
:104DC000A30420008301500005003100A36F2200DE
:104DD000008041001040BA000160EF0000000600B2
:104DE000A06F220083814100808141001380BA00BE
:104DF0000000060020207300202075002020720093
:104E00002020650020202000202074002020680041
:104E10002020650020202000202074002020750024
:104E200077646200202D65002053200065746900BE
:104E3000732073007468200065206F006F66750032
:104E4000667374006574200020666F006F726600E0
:104E50002074200068657400207068007265650029
:104E600073732000757277006520610073657400AC
:104E70006E7365006F7272002E202E00204D0D00A3
:104E8000616B0A00652000003220EF0083052000DE
:104E900083015000050031000376220000804100AC
:104EA0001040BA000160EF0000000600007622000A
:104EB00083814100808141001380BA000000060018
:104EC0002020620020206500202072002020200089
:104ED000202076002020610020206C00202075001A
:104EE0002020650020202E00202020007068200057
:104EF0006F6654006673680065746900202D730046
:104F0000205320006574770073206F00746872006E
:104F100065206B00736C730069642000696E770014
:104F20006720690073637400616C6800652020006D
:104F30006F667000667368006574720020666500B5
:104F40006F72640020707600482E610020206C0093
:104F5000546875006973650020692E0073200D0088
:104F600061200A0070480000206E0000756D00008E
:104F70003220EF008304200083015000050031003F
:104F8000437D2200008041001040BA000160EF0024
:104F900000000600407D22008381410080814100A5
:104FA0001380BA00000006002020610020206C0061
:104FB00020206500202020002020660020206F0097
:104FC0002020720020202000202070002020480097
:104FD00020202E00706820007265570064766F00F4
:104FE000616C720075656B00202D730020532000EA
:104FF0006574770073206900746874006520680028
:105000007265200064207000766168006C756F0026
:1050100065206600666F6600722073007468650024
:1050200065207400736C2E0069640D00696E0A00BF
:1050300067200000736300003220EF00230320008C
:10504000830150000500310083832200008041006D
:105050001040BA000160EF000000060080832200CB
:1050600083814100808141001380BA000000060066
:1050700020207500202072002020650020202000C4
:1050800020206D002020650020206100202073007A
:1050900020207500202072002020650077746D00AC
:1050A0006869650067686E00202D74002053200039
:1050B0006574680073206900776167007465680033
:1050C00072202E0074650D006D700A00657200007C
:1050D000617400003220EF000303200083015000C0
:1050E0000500310063882200008041001040BA00B2
:1050F0000160EF000000060060882200838141000B
:10510000808141001380BA00000006002020740056
:105110002020750020207200202065002020200023
:1051200020206D00202065002020610020207300D9
:105130002020750020207200777465006D696D0075
:10514000642065002D206E00536574007473200088
:1051500020776D00617469006572640020742E0010
:10516000656D0D0070650A00726100003220EF006D
:10517000030320008301500005003100238D22002D
:10518000008041001040BA000160EF0000000600FE
:10519000208D220083814100808141001380BA006C
:1051A00000000600202074002020750020207200DE
:1051B000202065002020200020206D002020650098
:1051C0002020610020207300202075002020720024
:1051D000777465006C6F6D00772065002D206E0080
:1051E000536574007473200020776C0061746F0045
:1051F0006572770020742E00656D0D0070650A00E1
:10520000726100003220EF00C303200083015000D0
:1052100005003100E3912200008041001040BA00F7
:105220000160EF0000000600E09122008381410050
:10523000808141001380BA00000006002020650034
:1052400020206D002020650020206E0020207400AA
:1052500020202000202068002020690020206700F6
:10526000202068002020200077747200766165009D
:105270006C686100202D64002053690065746E0025
:105280007320670077612F007465760072206100DB
:1052900074656C006D7075006572650061742E0038
:1052A00075720D0065200A006D65000061730000D5
:1052B000757200003220EF00A3032000830150002C
:1052C0000500310063972200008041001040BA00C1
:1052D0000160EF000000060060972200838141001A
:1052E000808141001380BA00000006002020750074
:1052F000202072002020650020206D002020650005
:1053000020206E00202074002020200020206D002E
:1053100020206900202064007774200076617200EC
:105320006C6D6500202D6100205364006574690078
:1053300073206E007761670074652F00722076001D
:10534000746561006D706C00657275006174650054
:1053500075722E0065200D006D650A0061730000F6
:105360003220EF00A303200083015000050031002C
:10537000C39C2200008041001040BA000160EF0091
:1053800000000600C09C2200838141008081410012
:105390001380BA0000000600202075002020720053
:1053A0002020650020206D002020650020206E0058
:1053B000202074002020200020206C0020206F007E
:1053C0002020770077742000766172006C6C650095
:1053D000202D6100205364006574690073206E0005
:1053E0007761670074652F00722076007465610034
:1053F0006D706C00657275006174650075722E00C9
:1054000065200D006D650A00617300003220EF0019
:1054100063042000830150000500310023A2220014
:10542000008041001040BA000160EF00000006005B
:1054300020A2220083814100808141001380BA00B4
:1054400000000600202065002020200020206600AB
:1054500020206F00202072002020200020207000DB
:105460002020480020202E0020202000202057004F
:1054700065636F006869720067686B00202D7300B8
:1054800020532000657477007320690074687400ED
:1054900065206800726520006420700076616800F5
:1054A0006C756F0065206600666F66007220730081
:1054B0007468650065207400736C2E0069640D00CB
:1054C000696E0A006720000073630000616C0000D1
:1054D0003220EF004304200083015000050031001A
:1054E00043A82200008041001040BA000160EF0094
:1054F0000000060040A82200838141008081410015
:105500001380BA000000060020206C0020206500F7
:10551000202020002020660020206F002020720024
:1055200020202000202070002020480020202E0075
:1055300020202000656357006D696F0064207200B1
:105540002D206B0053657300747320002074770066
:105550006865690020727400656468002076200028
:10556000616C70007565680020666F006F72660080
:105570002074660068657300207365006C697400B0
:1055800064692E006E670D0020730A0063610000DD
:105590003220EF0043042000830150000500310059
:1055A00043AE2200008041001040BA000160EF00CD
:1055B0000000060040AE220083814100808141004E
:1055C0001380BA000000060020206C002020650037
:1055D000202020002020660020206F002020720064
:1055E00020202000202070002020480020202E00B5
:1055F00020202000656357006C6F6F0077207200D9
:105600002D206B00536573007473200020747700A5
:105610006865690020727400656468002076200067
:10562000616C70007565680020666F006F726600BF
:105630002074660068657300207365006C697400EF
:1056400064692E006E670D0020730A00636100001C
:105650003220EF0063042000830150000500310078
:1056600043B42200008041001040BA000160EF0006
:105670000000060040B42200838141008081410087
:105680001380BA00000006002020650020202000C2
:105690002020660020206F002020720020202000A3
:1056A000202070002020480020202E0020202000F4
:1056B0002020570065636F00766172006C686B0094
:1056C000202D73002053200065747700732069003B
:1056D00074687400652068007265200064207000A2
:1056E000766168006C756F0065206600666F660005
:1056F000722073007468650065207400736C2E005E
:1057000069640D00696E0A00672000007363000081
:10571000616C00003220EF00630420008301500020
:105720000500310063BA2200008041001040BA0039
:105730000160EF000000060060BA22008381410092
:10574000808141001380BA0000000600202065001F
:10575000202020002020660020206F0020207200E2
:1057600020202000202070002020480020202E0033
:10577000202020002020570065636F0076617200B2
:105780006C6D6B00202D7300205320006574770032
:1057900073206900746874006520680072652000D9
:1057A00064207000766168006C756F00652066008B
:1057B000666F66007220730074686500652074006F
:1057C000736C2E0069640D00696E0A00672000008A
:1057D00073630000616C00003220EF00630420005E
:1057E000830150000500310083C022000080410089
:1057F0001040BA000160EF000000060080C02200E7
:1058000083814100808141001380BA0000000600BE
:1058100020206500202020002020660020206F002E
:10582000202072002020200020207000202048002E
:1058300020202E00202020002020570065636F00CC
:10584000766172006C6C6B00202D73002053200079
:1058500065747700732069007468740065206800BF
:105860007265200064207000766168006C756F00BE
:1058700065206600666F66007220730074686500BC
:1058800065207400736C2E0069640D00696E0A0057
:105890006720000073630000616C00003220EF009D
:1058A000830420008301500005003100A3C62200BC
:1058B000008041001040BA000160EF0000000600C7
:1058C000A0C6220083814100808141001380BA007C
:1058D000000006002020610020206C0020206500D0
:1058E000202020002020660020206F002020720051
:1058F00020202000202070002020480020202E00A2
:1059000070682000627557006C626F0067617200FA
:10591000696E6B00202D73002053200065747700A2
:105920007320690074687400652068007265200047
:1059300064207000766168006C756F0065206600F9
:10594000666F6600722073007468650065207400DD
:10595000736C2E0069640D00696E0A0067200000F8
:10596000736300003220EF006304200083015000C5
:1059700005003100E3CC2200008041001040BA0055
:105980000160EF0000000600E0CC220083814100AE
:10599000808141001380BA000000060020206C00C6
:1059A00020206500202020002020660020206F009D
:1059B000202072002020200020207000202048009D
:1059C00020202E00202020007068570062756F0094
:1059D0006C62720037206B002D207300536520002D
:1059E0007473770020746900686574002072680021
:1059F0006564200020767000616C680075656F003A
:105A0000206666006F72660020747300686565002A
:105A1000207374006C692E0064690D006E670A00C3
:105A200020730000636100003220EF00C3032000F8
:105A3000830150000500310003D3220000804100A3
:105A40001040BA000160EF000000060000D3220001
:105A500083814100808141001380BA00000006006C
:105A600020206C0020206C002020200020206F00CF
:105A700020206E00202020002020690020207300BC
:105A8000202020002020310020203100706F2000D5
:105A900072742000202D410020546C0068696C0055
:105AA0007320200074756F00726E660073206600AC
:105AB0006F6E2000206169006E647300206F20000B
:105AC00066663000207030006F720D0074730A003B
:105AD0002E200000204100003220EF0003032000B0
:105AE000830150000500310083D82200008041006E
:105AF0001040BA000160EF000000060080D82200CC
:105B000083814100808141001380BA0000000600BB
:105B10002020650020207200202020002020280066
:105B2000202069002020650020202E002020200059
:105B30002020650020206E0020206300656E20007C
:105B400063202000202D2000205341006574450073
:105B5000732053007468290065202E0057690D00DA
:105B600066690A00204500006E6300006F64000053
:105B70003220EF00A3022000830150000500310015
:105B800043DD2200008041001040BA000160EF00B8
:105B90000000060040DD2200838141008081410039
:105BA0001380BA0000000600202069002020200099
:105BB0002020520020206F0020207500202074003B
:105BC0002020650020207200202020002020490095
:105BD000202044007373200069644E00202061007F
:105BE0002D206D005365650074732E0020740D0028
:105BF00068650A0020570000696600003220EF0047
:105C0000630320008301500005003100A3E122005E
:105C1000008041001040BA000160EF000000060063
:105C2000A0E1220083814100808141001380BA00FD
:105C30000000060020204D002020690020206E007A
:105C40002020690020206D002020750020206D009C
:105C50002020200020206F0020206600202020002F
:105C60007061380073732000202063002D206800CD
:105C7000536561007473720020746100686563008D
:105C800020577400696665006920720050617300D6
:105C900073732E00776F0D0072640A002E200000CF
:105CA0003220EF0003032000830150000500310083
:105CB000C3E62200008041001040BA000160EF00FE
:105CC00000000600C0E6220083814100808141007F
:105CD0001380BA000000060020202E0020202000A3
:105CE000202028002020690020202E002020650090
:105CF00020202E0020202000202061002020750080
:105D0000202074006175680074682000202057000E
:105D10002D205000536541007473500020745300CF
:105D200068654B002057290069660D0069200A004C
:105D300041750000746800003220EF00A3022000CB
:105D4000830150000500310083EB220000804100F8
:105D50001040BA000160EF000000060080EB220056
:105D600083814100808141001380BA000000060059
:105D70002020570020204D002020200020206C00F3
:105D800020206500202076002020650020206C0067
:105D9000202020002020660020206F006E68720006
:105DA0003373200065654E0064204800202D3300C9
:105DB00020530D0065740A0020740000686500001F
:105DC000205000003220EF00A30720008301500084
:105DD00005003100E3EF2200008041001040BA00CE
:105DE0000160EF0000000600E0EF22008381410027
:105DF000808141001380BA0000000600202062006C
:105E00002020650020202000202073002020650035
:105E100020207400202020002020740020206F000B
:105E20002020200020203100726A200034356F00CD
:105E3000202D7200205420006869300073202E004D
:105E40007365200074732000207441006865200091
:105E5000206431006566200061756D006C7465001A
:105E6000206661006F726E00206173006C6C200010
:105E7000204969006E747400657227006E657300B6
:105E800074202000636F63006D6D6F00756E6E008F
:105E900069636E0061746500696F63006E737400FE
:105EA000207465006F206400676F20002074740008
