:08000000B01B04000000000029
:040054008E02000018
:04017000EC0200009D
:100400003220EF00C3202000008041001040BA00DD
:100410000160EF000000060072650000642000002B
:10042000254C000075200000204700003D250000FD
:100430006420000020200000000000003220EF00B7
:10044000A3222000008041001040BA000160EF00AC
:100450000000060067720000656500006E20000065
:10046000254C000075200000204700003D250000BD
:100470006420000020200000000000003220EF0077
:10048000A3242000008041001040BA000160EF006A
:1004900000000600626C0000756500002025000069
:1004A0004C75000020200000473D0000256400003E
:1004B00020200000200000003220EF0083262000D2
:1004C000008041001040BA000160EF00000006000B
:1004D000626C000075650000202500004C7500006E
:1004E000200000003220EF00E327200000804100C0
:1004F0001040BA000160EF000000060050610000EB
:10050000756C0000735F0000426F000061720000B4
:10051000643A000057460000500000004200F80016
:100520003600F8003200F800801F7800200020001C
:100530000C000900B01F7800E48D2000F34E80000D
:10054000848241002202AE00FEFF3700301180009D
:10055000804A7800DEC9BF0068F9B700F44E800019
:10056000610242008402780005027800F30F200047
:10057000110009000302D800F14E8800DE89BF0097
:10058000E009E30003003A0068D9BF000000FB0067
:10059000DEA9B700F44E8000F48FB20001003A00EB
:1005A000DE29EF00044F8000F48FB20001003A0012
:1005B000E029EF008560A900A00120000C000900DF
:1005C0004F1078004F0078003200F9003600F90033
:1005D0004200F900004006004200F8003600F80032
:1005E0003200F800801F7800200020000C00090075
:1005F000B01F7800D822A900DC22A80024BE200069
:1006000013788000848241005202AE00FEFF370062
:10061000B0128000804A780002CFBF0068F9B700AE
:10062000147880006102420084027800050278009C
:1006300003322000110009000302D800117888005D
:10064000028FBF00040FE30003003A0068D9BF0027
:100650000000FB0002AFB7001478800004B2B200C3
:1006600001003A00022FEF002478800004B2B200AB
:1006700001003A00042FEF008E40A900A0012000E5
:100680000C0009004F1078004F0078003200F9008C
:100690003600F9004200F900004006000200200088
:1006A000C1852000020078007202020000000000F4
:1006B000805878000201E8000004E0004220AE000B
:1006C000F8FF37007628EF0004142400C4438800A4
:1006D000A828EF00843424005445880004402A00F0
:1006E000F4448800C4602400044588008628EF0094
:1006F000041A24004444880000000600F0FF2F0084
:100700001862AE000500370019C2AF00FEFF3700C7
:100710009110880019C2AF00FEFF370000002000D2
:1007200019E2AF000000E80000000600F0FF2F0013
:100730007862AE000500370079C2AF00FEFF3700D7
:100740009113880079C2AF00FEFF3700000020003F
:1007500079E2AF000000E8000000060082002000FF
:100760001E00090000000000F442A900F042A900A8
:100770001F0009000000000081C0D200F462A9003F
:100780004200AF00F062A8004200AE00F062A90093
:10079000F042A800F242AE00FEFF37000201E9007D
:1007A000EFFF3A001E00090000000000F442A9001B
:1007B000F042A90000000000F062A8001F0009003C
:1007C000000000001F00090000000000F042A80027
:1007D000F242AE00FEFF37001F00090000000000DB
:1007E00000002000F262AF000000A000F442A90067
:1007F000F042A900F462A900F062A900000006001E
:10080000851F78003279EF0074C980004822DE002D
:100810006624E1000200360060C0B3002FF9B70083
:1008200074C980006324E1000200360030C0B300C8
:100830002EF9B7002ED9BF000160EF00C402DD0021
:10084000050078002F59B40032F9B70084C9800040
:100850006220E10019003A001862AE00040037007F
:100860001622A8001622AF00FEFF37000300370053
:100870001602A8001602AF00FEFF370021C7B30022
:100880007E0302000000000071C8B3007E03020076
:100890000000000032D9BF0002E0B7007E03020072
:1008A00000000000F00120001602B600FDFF3A0033
:1008B0001642A8001642AF00FEFF370084C9800030
:1008C0006120E10019003A007862AE0004003700B0
:1008D0007622A8007622AF00FEFF37000300370023
:1008E0007602A8007602AF00FEFF370021C7B300F2
:1008F000960302000000000071C8B30096030200D6
:100900000000000032D9BF0002E0B70096030200E9
:1009100000000000F00120007602B600FDFF3A0062
:100920007642A8007642AF00FEFF370084C98000FF
:100930006320E10022003A00F062A8001E000900D6
:1009400000000000F042A8001F00090000000000A5
:10095000F462A900F062A9001E0009000000000076
:10096000F442A900F042A90021C7B300AE0302007F
:100970000000000071C8B300AE03020000000000D8
:1009800032D9BF0002E0B700AE0302000000000051
:10099000F062A90000000000F042A800F242AE00A0
:1009A000FEFF37001E0009000000000001000900E2
:1009B00000000000F062A8001E0009000000000016
:1009C000CF0278000000060074C980006120E100B9
:1009D00018003A001862AE00040037001622A80082
:1009E0001622AF00FEFF3700030037001602A800F2
:1009F0001602AF00FEFF370021C7B3007E030200DE
:100A00000000000001C8B3007E03020000000000E7
:100A100031C0B3007E03020000000000F00120009E
:100A20001602B600FDFF3A001642A8001642AF00BB
:100A3000FEFF370074C980006220E10018003A0010
:100A40007862AE00040037007622A8007622AF005C
:100A5000FEFF3700030037007602A8007602AF00E1
:100A6000FEFF370021C7B30096030200000000001C
:100A700001C8B300960302000000000031C0B300BB
:100A80009603020000000000F00120007602B6008C
:100A9000FDFF3A007642A8007642AF00FEFF370025
:100AA00074C980006320E10021003A00F062A800D0
:100AB0001E00090000000000F042A8001F0009000D
:100AC00000000000F462A900F062A9001E00090005
:100AD00000000000F442A900F042A90021C7B300C1
:100AE000AE0302000000000001C8B300AE03020024
:100AF0000000000031C0B300AE030200000000009F
:100B0000F062A90000000000F042A800F242AE002E
:100B1000FEFF37001E000900000000000100090070
:100B200000000000F062A8001E00090000000000A4
:100B30000000060054C680006224E1000200360076
:100B400020C0B300CAF8B70054C680004822DE00B7
:100B50006124E10019003A001862AE000400370079
:100B60001622A8001622AF00FEFF37000300370050
:100B70001602A8001602AF00FEFF370021C7B3001F
:100B80007E0302000000000011C8B3007E030200D3
:100B900000000000CAD8BF0002E0B7007E030200D8
:100BA00000000000F00120001602B600FDFF3A0030
:100BB0001642A8001642AF00FEFF370054C6800060
:100BC0004822DE006224E10019003A007862AE009B
:100BD000040037007622A8007622AF00FEFF37001F
:100BE000030037007602A8007602AF00FEFF370050
:100BF00021C7B300960302000000000011C8B30033
:100C00009603020000000000CAD8BF0002E0B7004F
:100C10009603020000000000F00120007602B600FA
:100C2000FDFF3A007642A8007642AF00FEFF370093
:100C300054C680004822DE006324E10022003A000E
:100C4000F062A8001E00090000000000F042A800A9
:100C50001F00090000000000F462A900F062A90072
:100C60001E00090000000000F442A900F042A900A3
:100C700021C7B300AE0302000000000011C8B3009A
:100C8000AE03020000000000CAD8BF0002E0B700B7
:100C9000AE03020000000000F062A90000000000A6
:100CA000F042A800F242AE00FEFF37001E0009002D
:100CB000000000000100090000000000F062A80030
:100CC0001E0009000000000000000600C878EF00C8
:100CD000C978EF00C8D8BF002EF9B700C9D8BF0047
:100CE0002FF9B7001400200084C988000004020016
:100CF00000000000C8D8BF002EF9B700C9D8BF0057
:100D00002FF9B7002400200084C9880000040200E5
:100D100000000000C8D8BF002EF9B700C9D8BF0036
:100D20002FF9B7003400200084C9880000040200B5
:100D3000000000001400200074C98800E4040200D0
:100D4000000000002400200074C98800E4040200B0
:100D5000000000003400200074C98800E404020090
:100D60000000000010C0B300CAF8B70010C0B30004
:100D7000CBF8B7009A0502000000000020C0B300C5
:100D8000CAF8B70020C0B300CBF8B7009A0502003C
:100D90000000000030C0B300CAF8B70030C0B30094
:100DA000CBF8B7009A050200000000000000060022
:100DB00004F0290024198800040E28000419880072
:100DC000F4DD2F00641988002223EF0000000600E4
:100DD0000000E0004220AF00040037007B3E090025
:100DE000000000000000E900FCFF3A0000000600DF
:100DF000E022A900E422A80034CA80000448B2001E
:100E00000440780047F9B7004759E2000400320077
:100E1000E0A2A900E4A2A80014070400000000005A
:100E2000E0A2A900E4A2A90034CA80000444B200F0
:100E30000440780047F9B7004759E2000400320047
:100E4000E082A900E482A8002C0704000000000052
:100E5000E082A900E482A90034CA80000442B20002
:100E60000440780047F9B7004759E2000400320017
:100E7000E062A900E462A80044070400000000004A
:100E8000E062A900E462A90046D9BF00704060009A
:100E900047F9B7004759E20004003200E042A900D8
:100EA000E442A8005A07040000000000E042A90044
:100EB000E442A9009E00090000000000E022A90011
:100EC000E422A9009E00090000000000E022A90021
:100ED000E422A80046D9BF006840600047F9B70087
:100EE0004759E20004003200E0A2A900E4A2A800F1
:100EF0008007040000000000E0A2A900E4A2A9000D
:100F000046D9BF006440600047F9B7004759E20086
:100F100004003200E082A900E482A80096070400E1
:100F200000000000E082A900E482A90046D9BF00C9
:100F30006240600047F9B7004759E2000400320000
:100F4000E062A900E462A800AC0704000000000011
:100F5000E062A900E462A90046D9BF0061406000D8
:100F600047F9B7004759E20004003200E042A90007
:100F7000E442A800C207040000000000E042A9000B
:100F8000E442A9009E00090000000000E022A90040
:100F9000E422A9009E0009000000000000000600F5
:100FA000E002A900E402A900E022A900E422A900CD
:100FB000803E2000E806020000000000E002A900D8
:100FC000E402A900E022A900E422A8008E010900A1
:100FD00000000000E0A2A900E4A2A900E082A900AC
:100FE000E482A900E062A900E462A800E042A9004E
:100FF000E442A9003E06090000000000E022A9002A
:10100000E422A9003E06090000000000E0C0B30091
:1010100046F9B700F806020000000000E002A9004F
:10102000E402A9003E0609000000000000000600DE
:10103000401F2000E806020000000000E002A900B6
:10104000E402A90010C0B30046F9B700F806020098
:1010500000000000E002A900E402A8000000060071
:10106000FE18F800AA01F90000000600FE18F800BA
:101070009601F90000000600811F780011838000AE
:10108000805878008048EB00CF0078006230EC0098
:1010900000000600851F7800C5002000030009003D
:1010A000B51F7800800378008404780004F0A10064
:1010B0000400E00006003A0009F0A7000200370033
:1010C0000500200014003700050020001200370042
:1010D000E64252000F0039000003200009F0A6008C
:1010E00000022000811F7800829FBE00801F7800D0
:1010F0004F0078003C080200000000004F01BE00D5
:10110000CF0078008502E900F6FF3B005500200083
:1011100001003700840278006400200005E0A00090
:1011200009F0A70005F0A0000871220011000900D5
:101130008883D800D80802000000000081037800EE
:10114000883E2000110009008883D800D8080200DA
:10115000000000008103780048062000110009000B
:101160008883D800D80802000000000081037800BE
:10117000A8002000110009008883D800D8080200C8
:10118000000000000003200000C04000811F780024
:10119000829FBE00801F78004F0078003C0802004C
:1011A000000000004F01BE00CF0078001A00370099
:1011B000060320000000E0000E003A0005E0A60053
:1011C0000D0037000402E9000524E10002003200AE
:1011D0004200AF00000006000000E00005003A00F9
:1011E00005E0A6000400370005F0A6000602200076
:1011F0000100370005E0A10000404300811F780096
:10120000801F78004F0078003C08020000000000BA
:10121000CF0078000000060025012000030009002F
:10122000CF127800CF02780000000600E002A9008B
:10123000E402A90060C0B30046F9B700F806020056
:10124000000000003E39EF003C99BF001080B20062
:10125000070032003080B200090032001080B20076
:101260000B0032007080B2000D0032001000370019
:1012700004082000F4C98800580904000000000098
:10128000040A2000F4C98800580904000000000086
:10129000040C2000F4C98800580904000000000074
:1012A000040E2000F4C98800580904000000000062
:1012B0003E99BF003A19B4003EB9B7003ED9BF000D
:1012C00046F9B700F8060200000000003E060900DB
:1012D0000000000000000600851F78004219F80099
:1012E0004419F9004499BF001004E00003003200E3
:1012F0004439EC00720904000000000024CA800098
:1013000013CA800003005200CF02780000000600DC
:10131000E002A900E402A80044D9BF0046F9B700E2
:10132000F80602000000000000000600851F78009B
:101330003A19F8004219F9006C0902000000000097
:101340003EF9B7003F79EF003C39EF003C99BF0010
:10135000F4C980000020E1000B0034003C99BF007C
:101360003A19B400904278004419F800E5FF9F0054
:101370004419F90088090200000000003C39EC0023
:10138000A609040000000000CF027800000006005B
:101390002E19F8003A19F9003019F8003C19F90033
:1013A000160902000000000040062000E8060200C6
:1013B000000000003219F8003A19F90096090200FD
:1013C0000000000000000600F0FF2F001862AE00D1
:1013D00011003700B21080007F016100FDFF3A006C
:1013E0001662A8000100A70016A2A9000100A6002D
:1013F00016A2A800B21080007F016100FDFF3A0034
:101400001682A8001822AE00FEFF37001082BF002F
:1014100018C2AF0018C2A90000000600F0FF2F009C
:101420007862AE0011003700B21380007F016100C6
:10143000FDFF3A007662A8000100A70076A2A9008D
:101440000100A60076A2A800B21380007F0161000F
:10145000FDFF3A007682A8007822AE00FEFF37003A
:101460007082BF0078C2AF0078C2A90000000600F9
:1014700083002000F062A8001F00090000000000A7
:10148000F042A800F242AE00FEFF3700F262AF0069
:101490004200A800F262AE004200A9000281D20020
:1014A0001E00090000000000F042A900F442A9005B
:1014B0008301E900EFFF3A00F062A8001F00090075
:1014C00000000000F462A9000100E0004220AE002C
:1014D000F062A90000000000F042A800F242AE0055
:1014E000FEFF37001E00090000000000F442A900C2
:1014F000F042A9001F00090000000000F462A900EA
:10150000F062A900020078000000060084C9800093
:101510006120E10084013A002E99BF002080B200D2
:10152000070032003080B200630032002080B20039
:10153000BF0032007080B2001B013200780137001A
:101540001862AE00040037001622A8001622AF0071
:10155000FEFF3700030037001602A8001602AF0096
:10156000FEFF370021C7B3007E0302000000000029
:1015700001C9B3007E03020000000000F00120005A
:101580001602B600FDFF3A001642A8001642AF0050
:10159000FEFF37001862AE00040037001622A800D4
:1015A0001622AF00FEFF3700030037001602A80026
:1015B0001602AF00FEFF370031C7B3007E03020002
:1015C0000000000001002000811F7800CF0078009B
:1015D000E40902000000000048EFB700496FEF0087
:1015E000F00120001602B600FDFF3A001642A800E6
:1015F0001642AF00FEFF37001862AE00040037004D
:101600001622A8001622AF00FEFF370003003700A5
:101610001602A8001602AF00FEFF370021C7B30074
:101620007E0302000000000011C9B3007E03020027
:1016300000000000F00120001602B600FDFF3A0095
:101640001642A8001642AF00FEFF37001862AE0037
:10165000040037001622A8001622AF00FEFF370054
:10166000030037001602A8001602AF00FEFF370085
:1016700031C7B3007E03020000000000010020001B
:10168000811F7800CF007800E4090200000000000C
:101690004AEFB7004B6FEF00F00120001602B600D2
:1016A000FDFF3A001642A8001642AF00FEFF3700C9
:1016B000940D0400000000001862AE000400370022
:1016C0001622A8001622AF00FEFF370003003700E5
:1016D0001602A8001602AF00FEFF370021C7B300B4
:1016E0007E0302000000000021C9B3007E03020057
:1016F00000000000F00120001602B600FDFF3A00D5
:101700001642A8001642AF00FEFF37001862AE0076
:10171000040037001622A8001622AF00FEFF370093
:10172000030037001602A8001602AF00FEFF3700C4
:1017300031C7B3007E03020000000000010020005A
:10174000811F7800CF007800E4090200000000004B
:1017500048EFB700496FEF00F00120001602B60015
:10176000FDFF3A001642A8001642AF00FEFF370008
:101770001862AE00040037001622A8001622AF003F
:10178000FEFF3700030037001602A8001602AF0064
:10179000FEFF370021C7B3007E03020000000000F7
:1017A00031C9B3007E03020000000000F0012000F8
:1017B0001602B600FDFF3A001642A8001642AF001E
:1017C000FEFF37001862AE00040037001622A800A2
:1017D0001622AF00FEFF3700030037001602A800F4
:1017E0001602AF00FEFF370031C7B3007E030200D0
:1017F0000000000001002000811F7800CF00780069
:10180000E4090200000000004AEFB7004B6FEF0050
:10181000F00120001602B600FDFF3A001642A800B3
:101820001642AF00FEFF3700940D040000000000D8
:101830001862AE00040037001622A8001622AF007E
:10184000FEFF3700030037001602A8001602AF00A3
:10185000FEFF370021C7B3007E0302000000000036
:1018600041C9B3007E03020000000000F001200027
:101870001602B600FDFF3A001642A8001642AF005D
:10188000FEFF37001862AE00040037001622A800E1
:101890001622AF00FEFF3700030037001602A80033
:1018A0001602AF00FEFF370031C7B3007E0302000F
:1018B0000000000001002000811F7800CF007800A8
:1018C000E40902000000000048EFB700496FEF0094
:1018D000F00120001602B600FDFF3A001642A800F3
:1018E0001642AF00FEFF37001862AE00040037005A
:1018F0001622A8001622AF00FEFF370003003700B3
:101900001602A8001602AF00FEFF370021C7B30081
:101910007E0302000000000051C9B3007E030200F4
:1019200000000000F00120001602B600FDFF3A00A2
:101930001642A8001642AF00FEFF37001862AE0044
:10194000040037001622A8001622AF00FEFF370061
:10195000030037001602A8001602AF00FEFF370092
:1019600031C7B3007E030200000000000100200028
:10197000811F7800CF007800E40902000000000019
:101980004AEFB7004B6FEF00F00120001602B600DF
:10199000FDFF3A001642A8001642AF00FEFF3700D6
:1019A000940D0400000000001862AE00040037002F
:1019B0001622A8001622AF00FEFF370003003700F2
:1019C0001602A8001602AF00FEFF370021C7B300C1
:1019D0007E0302000000000061C9B3007E03020024
:1019E00000000000F00120001602B600FDFF3A00E2
:1019F0001642A8001642AF00FEFF37001862AE0084
:101A0000040037001622A8001622AF00FEFF3700A0
:101A1000030037001602A8001602AF00FEFF3700D1
:101A200031C7B3007E030200000000000100200067
:101A3000811F7800CF007800E40902000000000058
:101A400048EFB700496FEF00F00120001602B60022
:101A5000FDFF3A001642A8001642AF00FEFF370015
:101A60001862AE00040037001622A8001622AF004C
:101A7000FEFF3700030037001602A8001602AF0071
:101A8000FEFF370021C7B3007E0302000000000004
:101A900071C9B3007E03020000000000F0012000C5
:101AA0001602B600FDFF3A001642A8001642AF002B
:101AB000FEFF37001862AE00040037001622A800AF
:101AC0001622AF00FEFF3700030037001602A80001
:101AD0001602AF00FEFF370031C7B3007E030200DD
:101AE0000000000001002000811F7800CF00780076
:101AF000E4090200000000004AEFB7004B6FEF005E
:101B0000F00120001602B600FDFF3A001642A800C0
:101B10001642AF00FEFF3700940D040000000000E5
:101B2000940D04000000000084C980006220E100E0
:101B300084013A002E99BF002080B20007003200D5
:101B40003080B200630032002080B200BF0032005B
:101B50007080B2001B013200780137007862AE005D
:101B6000040037007622A8007622AF00FEFF37007F
:101B7000030037007602A8007602AF00FEFF3700B0
:101B800021C7B300960302000000000001C9B300A2
:101B90009603020000000000F00120007602B6006B
:101BA000FDFF3A007642A8007642AF00FEFF370004
:101BB0007862AE00040037007622A8007622AF00DB
:101BC000FEFF3700030037007602A8007602AF0060
:101BD000FEFF370031C7B30096030200000000008B
:101BE00001002000811F7800CF0078000E0A02005B
:101BF0000000000048EFB700496FEF00F00120003F
:101C00007602B600FDFF3A007642A8007642AF00A9
:101C1000FEFF37007862AE00040037007622A8008D
:101C20007622AF00FEFF3700030037007602A800DF
:101C30007602AF00FEFF370021C7B3009603020013
:101C40000000000011C9B30096030200000000006C
:101C5000F00120007602B600FDFF3A007642A800AF
:101C60007642AF00FEFF37007862AE000400370016
:101C70007622A8007622AF00FEFF3700030037006F
:101C80007602A8007602AF00FEFF370031C7B3002E
:101C9000960302000000000001002000811F780070
:101CA000CF0078000E0A0200000000004AEFB700E3
:101CB0004B6FEF00F00120007602B600FDFF3A0006
:101CC0007642A8007642AF00FEFF3700A210040063
:101CD000000000007862AE00040037007622A80001
:101CE0007622AF00FEFF3700030037007602A8001F
:101CF0007602AF00FEFF370021C7B3009603020053
:101D00000000000021C9B30096030200000000009B
:101D1000F00120007602B600FDFF3A007642A800EE
:101D20007642AF00FEFF37007862AE000400370055
:101D30007622A8007622AF00FEFF370003003700AE
:101D40007602A8007602AF00FEFF370031C7B3006D
:101D5000960302000000000001002000811F7800AF
:101D6000CF0078000E0A02000000000048EFB70024
:101D7000496FEF00F00120007602B600FDFF3A0047
:101D80007642A8007642AF00FEFF37007862AE00D0
:101D9000040037007622A8007622AF00FEFF37004D
:101DA000030037007602A8007602AF00FEFF37007E
:101DB00021C7B300960302000000000031C9B30040
:101DC0009603020000000000F00120007602B60039
:101DD000FDFF3A007642A8007642AF00FEFF3700D2
:101DE0007862AE00040037007622A8007622AF00A9
:101DF000FEFF3700030037007602A8007602AF002E
:101E0000FEFF370031C7B300960302000000000058
:101E100001002000811F7800CF0078000E0A020028
:101E2000000000004AEFB7004B6FEF00F001200008
:101E30007602B600FDFF3A007642A8007642AF0077
:101E4000FEFF3700A2100400000000007862AE0020
:101E5000040037007622A8007622AF00FEFF37008C
:101E6000030037007602A8007602AF00FEFF3700BD
:101E700021C7B300960302000000000041C9B3006F
:101E80009603020000000000F00120007602B60078
:101E9000FDFF3A007642A8007642AF00FEFF370011
:101EA0007862AE00040037007622A8007622AF00E8
:101EB000FEFF3700030037007602A8007602AF006D
:101EC000FEFF370031C7B300960302000000000098
:101ED00001002000811F7800CF0078000E0A020068
:101EE0000000000048EFB700496FEF00F00120004C
:101EF0007602B600FDFF3A007642A8007642AF00B7
:101F0000FEFF37007862AE00040037007622A8009A
:101F10007622AF00FEFF3700030037007602A800EC
:101F20007602AF00FEFF370021C7B3009603020020
:101F30000000000051C9B300960302000000000039
:101F4000F00120007602B600FDFF3A007642A800BC
:101F50007642AF00FEFF37007862AE000400370023
:101F60007622A8007622AF00FEFF3700030037007C
:101F70007602A8007602AF00FEFF370031C7B3003B
:101F8000960302000000000001002000811F78007D
:101F9000CF0078000E0A0200000000004AEFB700F0
:101FA0004B6FEF00F00120007602B600FDFF3A0013
:101FB0007642A8007642AF00FEFF3700A210040070
:101FC000000000007862AE00040037007622A8000E
:101FD0007622AF00FEFF3700030037007602A8002C
:101FE0007602AF00FEFF370021C7B3009603020060
:101FF0000000000061C9B300960302000000000069
:10200000F00120007602B600FDFF3A007642A800FB
:102010007642AF00FEFF37007862AE000400370062
:102020007622A8007622AF00FEFF370003003700BB
:102030007602A8007602AF00FEFF370031C7B3007A
:10204000960302000000000001002000811F7800BC
:10205000CF0078000E0A02000000000048EFB70031
:10206000496FEF00F00120007602B600FDFF3A0054
:102070007642A8007642AF00FEFF37007862AE00DD
:10208000040037007622A8007622AF00FEFF37005A
:10209000030037007602A8007602AF00FEFF37008B
:1020A00021C7B300960302000000000071C9B3000D
:1020B0009603020000000000F00120007602B60046
:1020C000FDFF3A007642A8007642AF00FEFF3700DF
:1020D0007862AE00040037007622A8007622AF00B6
:1020E000FEFF3700030037007602A8007602AF003B
:1020F000FEFF370031C7B300960302000000000066
:1021000001002000811F7800CF0078000E0A020035
:10211000000000004AEFB7004B6FEF00F001200015
:102120007602B600FDFF3A007642A8007642AF0084
:10213000FEFF3700A210040000000000A2100400FF
:102140000000000084C980006320E10014023A000E
:102150002E99BF002080B200070032003080B2000C
:10216000870032002080B200070132007080B20088
:102170008701320008023700F062A8001E00090043
:1021800000000000F042A8001F000900000000004D
:10219000F462A900F062A9001E000900000000001E
:1021A000F442A900F042A90021C7B300AE03020027
:1021B0000000000001C9B300AE03020000000000EF
:1021C000F062A90000000000F042A800F242AE0058
:1021D000FEFF37001E00090000000000010009009A
:1021E00000000000F062A8001E00090000000000CE
:1021F000F062A8001E00090000000000F042A800E4
:102200001F00090000000000F462A900F062A900AC
:102210001E00090000000000F442A900F042A900DD
:1022200031C7B300AE03020000000000010020002F
:10223000811F7800CF007800380A020000000000FB
:1022400048EFB700496FEF00F062A90000000000FE
:10225000F042A800F242AE00FEFF37001E00090067
:10226000000000000100090000000000F062A8006A
:102270001E00090000000000F062A8001E00090016
:1022800000000000F042A8001F000900000000004C
:10229000F462A900F062A9001E000900000000001D
:1022A000F442A900F042A90021C7B300AE03020026
:1022B0000000000011C9B300AE03020000000000DE
:1022C000F062A90000000000F042A800F242AE0057
:1022D000FEFF37001E000900000000000100090099
:1022E00000000000F062A8001E00090000000000CD
:1022F000F062A8001E00090000000000F042A800E3
:102300001F00090000000000F462A900F062A900AB
:102310001E00090000000000F442A900F042A900DC
:1023200031C7B300AE03020000000000010020002E
:10233000811F7800CF007800380A020000000000FA
:102340004AEFB7004B6FEF00F062A90000000000F9
:10235000F042A800F242AE00FEFF37001E00090066
:10236000000000000100090000000000F062A80069
:102370001E00090000000000D0140400000000004E
:10238000F062A8001E00090000000000F042A80052
:102390001F00090000000000F462A900F062A9001B
:1023A0001E00090000000000F442A900F042A9004C
:1023B00021C7B300AE0302000000000021C9B30032
:1023C000AE03020000000000F062A900000000005F
:1023D000F042A800F242AE00FEFF37001E000900E6
:1023E000000000000100090000000000F062A800E9
:1023F0001E00090000000000F062A8001E00090095
:1024000000000000F042A8001F00090000000000CA
:10241000F462A900F062A9001E000900000000009B
:10242000F442A900F042A90031C7B300AE03020094
:102430000000000001002000811F7800CF0078001C
:10244000380A02000000000048EFB700496FEF00B3
:10245000F062A90000000000F042A800F242AE00C5
:10246000FEFF37001E000900000000000100090007
:1024700000000000F062A8001E000900000000003B
:10248000F062A8001E00090000000000F042A80051
:102490001F00090000000000F462A900F062A9001A
:1024A0001E00090000000000F442A900F042A9004B
:1024B00021C7B300AE0302000000000031C9B30021
:1024C000AE03020000000000F062A900000000005E
:1024D000F042A800F242AE00FEFF37001E000900E5
:1024E000000000000100090000000000F062A800E8
:1024F0001E00090000000000F062A8001E00090094
:1025000000000000F042A8001F00090000000000C9
:10251000F462A900F062A9001E000900000000009A
:10252000F442A900F042A90031C7B300AE03020093
:102530000000000001002000811F7800CF0078001B
:10254000380A0200000000004AEFB7004B6FEF00AE
:10255000F062A90000000000F042A800F242AE00C4
:10256000FEFF37001E000900000000000100090006
:1025700000000000F062A8001E000900000000003A
:10258000D014040000000000F062A8001E00090042
:1025900000000000F042A8001F0009000000000039
:1025A000F462A900F062A9001E000900000000000A
:1025B000F442A900F042A90021C7B300AE03020013
:1025C0000000000041C9B300AE030200000000009B
:1025D000F062A90000000000F042A800F242AE0044
:1025E000FEFF37001E000900000000000100090086
:1025F00000000000F062A8001E00090000000000BA
:10260000F062A8001E00090000000000F042A800CF
:102610001F00090000000000F462A900F062A90098
:102620001E00090000000000F442A900F042A900C9
:1026300031C7B300AE03020000000000010020001B
:10264000811F7800CF007800380A020000000000E7
:1026500048EFB700496FEF00F062A90000000000EA
:10266000F042A800F242AE00FEFF37001E00090053
:10267000000000000100090000000000F062A80056
:102680001E00090000000000F062A8001E00090002
:1026900000000000F042A8001F0009000000000038
:1026A000F462A900F062A9001E0009000000000009
:1026B000F442A900F042A90021C7B300AE03020012
:1026C0000000000051C9B300AE030200000000008A
:1026D000F062A90000000000F042A800F242AE0043
:1026E000FEFF37001E000900000000000100090085
:1026F00000000000F062A8001E00090000000000B9
:10270000F062A8001E00090000000000F042A800CE
:102710001F00090000000000F462A900F062A90097
:102720001E00090000000000F442A900F042A900C8
:1027300031C7B300AE03020000000000010020001A
:10274000811F7800CF007800380A020000000000E6
:102750004AEFB7004B6FEF00F062A90000000000E5
:10276000F042A800F242AE00FEFF37001E00090052
:10277000000000000100090000000000F062A80055
:102780001E00090000000000D0140400000000003A
:10279000F062A8001E00090000000000F042A8003E
:1027A0001F00090000000000F462A900F062A90007
:1027B0001E00090000000000F442A900F042A90038
:1027C00021C7B300AE0302000000000061C9B300DE
:1027D000AE03020000000000F062A900000000004B
:1027E000F042A800F242AE00FEFF37001E000900D2
:1027F000000000000100090000000000F062A800D5
:102800001E00090000000000F062A8001E00090080
:1028100000000000F042A8001F00090000000000B6
:10282000F462A900F062A9001E0009000000000087
:10283000F442A900F042A90031C7B300AE03020080
:102840000000000001002000811F7800CF00780008
:10285000380A02000000000048EFB700496FEF009F
:10286000F062A90000000000F042A800F242AE00B1
:10287000FEFF37001E0009000000000001000900F3
:1028800000000000F062A8001E0009000000000027
:10289000F062A8001E00090000000000F042A8003D
:1028A0001F00090000000000F462A900F062A90006
:1028B0001E00090000000000F442A900F042A90037
:1028C00021C7B300AE0302000000000071C9B300CD
:1028D000AE03020000000000F062A900000000004A
:1028E000F042A800F242AE00FEFF37001E000900D1
:1028F000000000000100090000000000F062A800D4
:102900001E00090000000000F062A8001E0009007F
:1029100000000000F042A8001F00090000000000B5
:10292000F462A900F062A9001E0009000000000086
:10293000F442A900F042A90031C7B300AE0302007F
:102940000000000001002000811F7800CF00780007
:10295000380A0200000000004AEFB7004B6FEF009A
:10296000F062A90000000000F042A800F242AE00B0
:10297000FEFF37001E0009000000000001000900F2
:1029800000000000F062A8001E0009000000000026
:10299000D014040000000000D01404000000000067
:1029A00000000600851F7800C50020000300090014
:1029B000B51F780000F0A6000D0037000000EA0007
:1029C0000480A00004F0A60009003700801F7800F2
:1029D000D0022000801F78004F0078003C080200E1
:1029E000000000004F0078000480A1000860ED00A6
:1029F0008002EB00800378008404780004F0A100DA
:102A00000404E00006003A0009F0A70002003700C5
:102A10000500200010003700050020000E003700E0
:102A2000E64252000B0039000003200009F0A60026
:102A300000022000801F78004F0078003C08020050
:102A4000000000008502E900FAFF3B00550020006D
:102A50000100370084027800640020000580A70090
:102A60000402E80005E0A00009F0A70005F0A000BE
:102A700008712200110009008883D8008615020021
:102A80000000000081037800883E2000110009004A
:102A90008883D800861502000000000081037800BA
:102AA00048062000110009008883D800861502001E
:102AB0000000000081037800A80020001100090038
:102AC0008883D80086150200000000000980A60057
:102AD00006003700D0022000801F78004F007800E9
:102AE0003C080200000000000980A1000003200053
:102AF00000C0400050018800801F78004F0078001F
:102B00003C080200000000002400370006032000FB
:102B10000000E0000E003A0005E0A60017003700B4
:102B20000402E9000524E100020032004200AF0087
:102B3000000006000000E00005003A0005E0A600E5
:102B40000E00370005F0A600060220000B0037003B
:102B500005E0A1000980A600080037000005780004
:102B6000D0022000801F78004F0078003C0802004F
:102B7000000000000980A1000A0078000040430026
:102B8000811F7800801F78004F0078003C08020009
:102B900000000000CF0078000000060025012000A2
:102BA00003000900CF127800CF0278000000060071
:102BB0000039EF001400200014C88800FED8BF00C0
:102BC0000000FB006400E10021013A0030C0B300C6
:102BD000FEF8B700FED8BF002EF9B70000D9BF003D
:102BE0002FF9B700FFD8BF00004278008401FB0036
:102BF00083C988000004020000000000FFD8BF0065
:102C0000004278008401FB0073C98800E4040200DC
:102C100000000000A0002000E80602000000000004
:102C2000FFD8BF00004278008401FB0083C9880000
:102C30002300200073C98800860A020000000000FB
:102C4000547A80000310200003A0B900447A800069
:102C50000400400052AFB700FFD8BF000042780028
:102C60008401FB0083C988001300200073C9880019
:102C7000860A020000000000547A80000310200041
:102C800003A0B900447A80000400400050AFB700B0
:102C9000FFD8BF00004278008401FB0083C9880090
:102CA0004300200073C98800860A0200000000006B
:102CB000547A80000310200003A0B900447A8000F9
:102CC000040040005CAFB700FFD8BF0000427800AE
:102CD0008401FB0083C988003300200073C9880089
:102CE000860A020000000000547A800003102000D1
:102CF00003A0B900447A80000400400054AFB7003C
:102D0000947A8000F3FF2F000418E10008003200DD
:102D1000847A8000F3FF2F000418E10004003200E1
:102D2000A47A8000F3FF2F000418E10014003A0099
:102D3000FED8BF000000FB000000E00003003A00E6
:102D40000239EF00A816040000000000FE78ED0034
:102D5000FED8BF002EF9B70000D9BF002FF9B70089
:102D6000FFD8BF00004278008401FB0083C98800BF
:102D700000040200000000001E1804000000000013
:102D80000239EF00449021001483880001002000E4
:102D9000010078000160EF00000202000000000066
:102DA0008100E800811F7800801F78004F007800C4
:102DB0003C08020000000000CF0078003000200036
:102DC0000008E600F2FF3700508FBF00040020002B
:102DD0004A08020000000000710020000100780095
:102DE0000160EF0000020200000000008100E80026
:102DF000811F7800801F78004F0078003C08020097
:102E000000000000CF007800A00020000008E600CD
:102E1000F2FF3700FED8BF000000FB0004002000D6
:102E2000D21402000000000000C2B3003C080200FF
:102E30000000000000C2B3003C08020000000000D7
:102E400000C2B3003C080200000000001400200093
:102E500074C988002400200084C98800449021009F
:102E600094C98800C80902000000000044902100B5
:102E70001483880001002000010078000160EF0049
:102E80001E020200000000008100E800811F78009F
:102E9000801F78004F0078003C080200000000000E
:102EA000CF007800500020000008E600F2FF370055
:102EB000528FBF00040020004A08020000000000FA
:102EC00091002000010078000160EF001E02020066
:102ED000000000008100E800811F7800801F78005A
:102EE0004F0078003C08020000000000CF0078008E
:102EF000C00020000008E600F2FF3700FED8BF0047
:102F00000000FB0004002000D214020000000000BA
:102F100000C2B3003C0802000000000000C2B30081
:102F20003C0802000000000000C2B3003C080200A0
:102F3000000000001400200074C988001400200064
:102F400084C988004490210094C98800C8090200FF
:102F5000000000004490210014838800010020003C
:102F6000010078000160EF003E0202000000000056
:102F70008100E800811F7800801F78004F007800F2
:102F80003C08020000000000CF0078004000200054
:102F90000008E600F2FF3700548FBF000400200055
:102FA0004A080200000000008100200001007800B3
:102FB0000160EF003E020200000000008100E80016
:102FC000811F7800801F78004F0078003C080200C5
:102FD00000000000CF007800B00020000008E600EC
:102FE000F2FF3700FED8BF000000FB000400200005
:102FF000D21402000000000000C2B3003C0802002E
:103000000000000000C2B3003C0802000000000005
:1030100000C2B3003C0802000000000014002000C1
:1030200074C988003400200084C9880044902100BD
:1030300094C98800C80902000000000014C880007C
:103040006120E100F3FE3200AC1804000000000033
:10305000FED8BF002EF9B70000D9BF002FF9B70086
:10306000FFD8BF00004278008401FB0083C98800BC
:103070000004020000000000FFD8BF0000427800FA
:103080008401FB0083C988002300200073C98800E5
:10309000860A020000000000547A8000031020001D
:1030A00003A0B900447A80000400400052AFB7008A
:1030B000FFD8BF00004278008401FB0083C988006C
:1030C0001300200073C98800860A02000000000077
:1030D000547A80000310200003A0B900447A8000D5
:1030E0000400400050AFB700FFD8BF000042780096
:1030F0008401FB0083C988004300200073C9880055
:10310000860A020000000000547A800003102000AC
:1031100003A0B900447A8000040040005CAFB7000F
:10312000FFD8BF00004278008401FB0083C98800FB
:103130003300200073C98800860A020000000000E6
:10314000547A80000310200003A0B900447A800064
:103150000400400054AFB700FED8BF0000E0B70045
:1031600000000600F4FF2700F4C7880030080200C2
:1031700000000000FEB8EF0036080200000000006A
:1031800054C680006120E1004C003A00CC38EF00CA
:10319000F4FF270063C6800003005200CEB8B700DA
:1031A000CE18F800FE18F9003008020000000000F8
:1031B0009E00090000000000248D21001483880077
:1031C00001002000010078000160EF005C020200B5
:1031D000000000008100E800811F7800801F780057
:1031E0004F0078003C08020000000000CF0078008B
:1031F000400020000008E600F2FF3700CE98BF0034
:10320000040020004A0802000000000000C2B300D1
:103210003C080200000000001400200074C988006F
:103220004400200084C98800248D210094C98800AE
:10323000C80902000000000040C0B300FEF8B7005B
:1032400010C0B300FFF8B700D8150200000000005E
:103250000000FB00D0B8B70084C680006320E10006
:1032600002003D002400200084C6880084C680003F
:103270006220E1000B003A00A47A800003E82300FA
:103280000418E10007003D00F4FF2700F4C78800A0
:103290003008020000000000CC18F8000000F9001F
:1032A000370037000408200063C680000480410016
:1032B000CCB8B700C81804000000000054C6800055
:1032C0006220E1002C003A00CC38EF00F4FF2F0020
:1032D00063C6800003005200CEB8B700CE18F800D5
:1032E000FE18F90036080200000000009E000900E8
:1032F0000000000054C680006220E10019003A007E
:1033000040C0B300FEF8B70020C0B300FFF8B7001C
:10331000D8150200000000000000FB00D0B8B70084
:1033200084C680006220E1000E003A00A47A80008A
:1033300003E823000418E1000A003D0054C68000A1
:103340006220E10007003A00F4FF2700F4C788007C
:103350003608020000000000CC18F8000000F90058
:103360000700370064C680006802420064C6880017
:103370006619040000000000CC18F8000000F900F5
:1033800000000600851F7800028FBF00040FE300D5
:10339000FDFF320024BE200023788000048041001D
:1033A00014C780000042900014C788002478800071
:1033B0006102420084027800050278000332200096
:1033C000110009000302D80021788800E2D8BF006C
:1033D00000E0B700CF02780000000600851F7800EB
:1033E000E318A900E678EF00E838EF0014C7800082
:1033F000E4C7B20003003A00E318A800DD69EF005B
:10340000E678EF00E318AE0031003700E2D8BF00E5
:103410000160EF00E087B200070032003082B200A6
:10342000070032001087B200080032006082B2004C
:10343000100032001A003700641A04000000000077
:10344000E318A900641A040000000000D4428000C0
:103450004822DE0004007800E418B40080027800FE
:10346000804AEB005B68EF00DD69EC00641A040041
:1034700000000000D44280004822DE0004007800F2
:10348000E418B40080027800804AEB005B68EF002B
:10349000DD69EF00E678EC00641A0400000000002B
:1034A000D44280004822DE0004007800E418B40012
:1034B00080027800E298BF00804298005B68EC00D0
:1034C000641A040000000000681A040000000000F4
:1034D000CF02780000000600851F7800028FBF0031
:1034E000040FE3009A003200C2190200000000003D
:1034F000E0F8B7005A28AF003A0037005A48A90050
:10350000E0D8BF000160EF008084B2000700320005
:10351000F080B2000E003200C086B200150032000A
:10352000E086B2001C0032002400370070C7B300F0
:103530000CEFB7005A28A800B0C5B30044F9B70093
:103540008809020000000000E61A040000000000E4
:1035500020C7B3000CEFB7005A28A800B0C5B300CD
:1035600044F9B7008809020000000000E61A0400D0
:103570000000000010C6B3000CEFB7005A28A800E6
:10358000B0C5B30044F9B70088090200000000008C
:10359000E61A04000000000050C6B3000CEFB700AC
:1035A0005A28A800B0C5B30044F9B7008809020042
:1035B00000000000E61A0400000000000C6FEF009D
:1035C0005A28A900E61A040000000000E0D8BF0055
:1035D00044F9B7008809020000000000A41B0400A1
:1035E00000000000E0D8BF0044F9B70088090200DD
:1035F000000000000CCFBF000160EF007087B20038
:10360000070032005080B2001F0032003081B2004B
:10361000310032004080B2004300320046003700E3
:103620005A48AE000C00370004C7800084C6B200C0
:1036300008003A005A28A9000C6FEF00D0C5B3006B
:1036400044F9B70088090200000000002C1B0400A8
:10365000000000005A48A90004C78000F4C2B2006C
:1036600001003A005A48A800E0D8BF00E2F8B700CD
:10367000848C210024C78800EE190200000000009D
:10368000A41B0400000000005A48AE000C003700E4
:1036900004C780006A24E10008003A005A28A90003
:1036A0000C6FEF00D0C5B30044F9B70088090200E1
:1036B00000000000601B0400000000005A48A90040
:1036C00004C780006A24E10001003A005A48A800BB
:1036D000A41B0400000000005A48AE000C00370094
:1036E00004C780006A24E10008003A005A28A900B3
:1036F0000C6FEF00D0C5B30044F9B7008809020091
:1037000000000000881B0400000000005A48A900C7
:1037100004C780006A24E10001003A005A48A8006A
:10372000A41B0400000000005A28A9000C6FEF0041
:10373000A41B0400000000000C6FEF005A28A90031
:10374000A41B0400000000006E1A0400000000002A
:103750000CCFBF0000E0B700CF02780000000600E9
:103760000F7B2400F07F240020A0B70000000000A1
:10377000404424004005880081E0A8006004200047
:1037800042E7B7007005200042E7B70042C7A90032
:10379000F0E32000A2A6B70000F02300A4A6B70023
:1037A00000302000C0A6B70000402100D6A6B70018
:1037B00020012000D8A6B70000C02100DCA6B70079
:1037C0006004200042E7B7007005200042E7B70020
:1037D00042C7A80004022000243A88005A08A90021
:1037E00004002800041188000440200014118800FF
:1037F0002062A800041A200044118800DE29EF008E
:10380000E029EF0004002800841288000440200012
:10381000941288005062A800041A2000C412880084
:10382000022FEF00042FEF005B68EF00DD69EF006F
:103830000C6FEF005A28A9005A48A9001021EF0088
:10384000F49F2F0064088800040028008408880082
:1038500064002000840C8800C4002000940C8800C0
:10386000F4CF2700B40C880064002000240D8800E9
:10387000C4002000340D8800F4CF2700540D8800C8
:103880005A68A900EC82A90017E2A80017A2A800B4
:1038900016C2A8001762A90016E2A8001702A90024
:1038A0001722A8001742A9001A22EF00D40920000D
:1038B000A4108800E4E2A90077E2A80077A2A8009B
:1038C00076C2A8007762A90076E2A8007702A90074
:1038D0007722A8007742A9007A22EF00D4092000BD
:1038E000A4138800E40120007479880054002000AB
:1038F000847988003400200094798800342FEF0008
:1039000004082C00B4798800A4702D00C4798800C4
:1039100034C22300D479880044352E00E47988002D
:1039200054D22300F4798800C45A2C00047A880009
:10393000748A2300147A8800247A2E00247A88005E
:10394000B4632B00347A88000D6FEF002CA3EF00D6
:10395000BB00370081000900E2003E007C42F80015
:10396000C684BA0095ABE900D76D5300112F4F0004
:1039700071330D00B789CB00F5DAE400A698220078
:103980001C5E60009EA0E200DC6658001A240B005A
:1039900035774900F3CD8F00B1D1EF00AD93290009
:1039A00017556B00447A380006BC8200C0FE5900EF
:1039B00067251B00A19FDD00E3CCF200B08E340030
:1039C0000A48760016286A0054EED00092AC8300B4
:1039D000BDFFC1007B45070039C7F900BB853F002B
:1039E00001437D00526C2E0010AA9400D6E8880096
:1039F000B6F4CA00704E0C00321D2300615FE50072
:103A0000DB99A700B28CCE00F04A7400360827007C
:103A1000195B6500DFE1A3009DFDC30081BF0500C8
:103A20003B794700685614002A90AE00ECD22C0077
:103A300012506E00D4EAA80096B98700C5FB410079
:103A40007F3D0300635D1F00219BA500E7D9F600C1
:103A5000C88AB4000E3072004CEBD50097A9130051
:103A60002D6F51007E4002003C86B800FAC4A400CD
:103A70009AD8E6005C6220001E310F004D73C90029
:103A8000F7B58B00754B0900378DB300F1CFE0001F
:103A9000DE9CA200182664005A3A04004678C20050
:103AA000FCBE8000AF91D300ED5769002B1540009C
:103AB000060000004BF03F005C0A5800F63B8F0008
:103AC00000C03C008B28AC003CBEF6003FD2D500C5
:103AD00044168C0015D7BF0069005A002E1B8700C2
:103AE000993F9A005FAD4B0091E40100C05D110069
:103AF0002F92E40081FB3F0038DA9100809DC500E1
:103B0000E0BF6F0012C0B400C309AB003F6BC1003F
:103B1000034EC100B545BF00F7400500FF00A100FE
:103B2000EF3FF300A3E2F700D7FF010040C0B4006D
:103B3000FF053C0058FC3F003BD3C000B5BA8C00E9
:103B4000E23F3900D3C73D004179B2003F870D0005
:103B50003C50D000AF623F00304B8D00A282AA00E3
:103B600004400900A0404A000576030040EC9E0096
:103B70003788A60044F03F008F128D00299A5B0021
:103B8000C73F0E00E0807C00A1D886003F294B0093
:103B9000FB95C200371A3F0032000000004B0000C6
:103BA00000006E000000000086000000009600008B
:103BB0000000C800000000002C01000000580200B6
:103BC0000000B00004000000600900000080250033
:103BD000000000004B000000009600000000E10023
:103BE00000000000C2010000008403000000460045
:103BF000050000000807400009008000020F0600D1
:103C000000000000000000000201E8006110E10077
:103C100004003A009101BA003182BA0006C0BF0028
:103C2000000006006210E10002003A0007C0BF0079
:103C30000000060008C0BF000001EB000000060005
:103C4000060020000000200090018800A0CA21008A
:103C5000800078000001EB00041E0200000000005C
:103C60000BE0B700041E0200000000000AE0B700ED
:103C70000500E0001900320005F0A600070037003B
:103C8000041E0200000000000DE0B700041E020048
:103C9000000000000CE0B70005F0A10005E0A60060
:103CA0000800370005E0A1008502E900041E0200BB
:103CB000000000008043780005800900075B780061
:103CC000E5FF3700041E020000000000005B7800E2
:103CD0008502E900FBFF3A00DFFF37009E40A800A5
:103CE0009E40A80081E0A9004220EF0081E0A800EA
:103CF00010C6B30064F6B700E401200034B38800B6
:103D00004E030200000000006606020000000000F2
:103D1000D806020000000000D007020000000000EA
:103D20001808020000000000D5C2A80014002000FE
:103D300044C688001400200054C68800B21802004F
:103D40000000000060B6B7007E3E090000000000E1
:103D5000961E0400000000008454260054B488001D
:103D6000C4C6260064B48800F406220074B4880037
:103D700074F5260084B4880024C7260094B4880013
:103D800044062000A4B4880054232300E4C588001E
:103D900044232300F4C588008483230004C68800DC
:103DA000C278EF00C48B2100D4C58800F4FF27003F
:103DB000F4C788003008020000000000FEB8EF00E1
:103DC0003608020000000000F122A900F522A80038
:103DD000800C2000E80602000000000010C4B300C0
:103DE0005322AF00FEFF370054E2B7005562EF00E8
:103DF000A0C0B3005322AF00FEFF370054E2B7006B
:103E00005562EF006C1A020000000000021F04005F
:083E100000000000FFFF370075
:020000040005F5
:1057F000000000FFFFFF00FFF99300FF5F3600FF8E
:00000001FF
;PIC24FJ256GB106
;CRC=A7DB  CREATED="01-Nov-14 12:57"
