:080000005A1E0400000000007C
:0400EC0038020000D6
:10040000F0FF2F001862AE00FEFF37001922AF0088
:10041000040037001742AE00020037001902AE0098
:10042000F8FF37001822AE00FEFF37001082BF0031
:1004300018C2AF0018C2A9001782A8000000060069
:10044000F0FF2F001862AE00080037001842AE001F
:10045000060037001742AE00020037001902AE0056
:1004600002003700911088001782A80000000600E3
:100470004200F8003600F8003200F800801F7800D3
:10048000200020000C000900B01F780018A2AF0067
:1004900004003700A86DEF001842AE0001003700DD
:1004A000A8EDA800A8CDBF000160EF00A86DEC008A
:1004B00047EFB700347A80004822DE0003082000AE
:1004C000041CE1002F00390011002000811F78007A
:1004D000CF007800000202000000000046EFB700E5
:1004E000347A80004822DE006124E10003003A00F3
:1004F00046CFBF0065EDB700A76DEF00347A8000EE
:100500004822DE006224E10007003A00246B8000EC
:100510004822DE0063D6200083024200468FBF00DF
:1005200080429800A76DEF00347A80004822DE00F8
:100530006124E10003003A0046CFBF0065EDB7003B
:1005400010003700347A80004822DE006224E10087
:100550000C003900347A80004822DE0004C8B20062
:100560000800320065CDBF00656DEC000080FB0027
:1005700064D6200084024000468FBF00804298006D
:10058000A76DEF00347A80004822DE0003082000C7
:10059000041CE10001003E00020037000040EB00B7
:1005A0000100370010C0B30080427800346D800035
:1005B0006124E10002003A000040EB000100370036
:1005C00010C0B30000C062000004E0000900320067
:1005D000A7CDBF00A76DEC000080FB0044D2200037
:1005E000040040009042780085407800200202001C
:1005F00000000000347A80004822DE00030820005A
:10060000041CE10001003E00020037000040EB0046
:100610000100370010C0B30080427800346D8000C4
:100620006124E100020032000040EB0001003700CD
:1006300010C0B30000C062000004E00004003200FB
:1006400091C3B3002002020000000000A66DEF007D
:100650008A20A900A00120000C0009004F1078009A
:100660004F0078003200F9003600F9004200F9002E
:1006700000400600851F7800BE2DEF00F46D80005D
:10068000130420000418E1000600340044D22000C6
:10069000F36D80008482410080CAEB00BE2DEC0027
:1006A000F6FF3700CF027800000006000000E000EF
:1006B0004220AF00040037007B3E0900000000002C
:1006C0000000E900FCFF3A0000000600C982A90012
:1006D000CD82A900C8A2A900CCA2A900C962A90024
:1006E000CD62A800C942A900CD42A900C8A2A900B4
:1006F000CCA2A800A00F20005603020000000000BA
:10070000C8A2A900CCA2A900C982A900CD82A900D3
:10071000A00F20005603020000000000C982A900BB
:10072000CD82A900C942A900CD42A800A00F200097
:100730005603020000000000C962A900CD62A900B2
:10074000C942A900CD42A900C8A2A900CCA2A90013
:10075000A00F200056030200000000000000060069
:10076000247680006320E1000300340024768000BA
:1007700064005200C4AEB700C40EE20004003A00A8
:10078000C9E2A900CDE2A900C9C2A900CDC2A90051
:10079000247680006120E10004003A00C9E2A9004B
:1007A000CDE2A800C9C2A900CDC2A900247680006C
:1007B0006220E10004003A00C9E2A900CDE2A900EC
:1007C000C9C2A900CDC2A800247680006320E10040
:1007D00004003A00C9E2A900CDE2A800C9C2A900FC
:1007E000CDC2A80000000600F0FF2F000862AE0096
:1007F0000500370009C2AF00FEFF37001110880066
:1008000009C2AF00FEFF37000000200009E2AF0080
:100810000000E80000000600C00DF800C40EF9005A
:10082000B0030200000000000862AE0004003700C0
:100830000622A8000622AF00FEFF370003003700A3
:100840000602A8000602AF00FEFF370021C5B30074
:10085000F40302000000000001C8B300F40302002A
:100860000000000011C0B300F4030200000000000B
:10087000F00120000602B600FDFF3A000642A80083
:100880000642AF00FEFF37007E3B0900000000007B
:10089000FF3F090000000000FF3F090000000000CA
:1008A0000862AE00040037000622A8000622AF004E
:1008B000FEFF3700030037000602A8000602AF0063
:1008C000FEFF370021C5B300F40302000000000062
:1008D000D1C8B300F4030200000000008040EB0028
:1008E000F403020000000000F00120000602B60040
:1008F000FDFF3A000642A8000642AF00FEFF3700A7
:1009000000000600C02DEF000C04020000000000F3
:1009100014002000046E88000C0402000000000097
:1009200034002000046E88000C0402000000000067
:100930007E3B090000000000FF3F090000000000AE
:10094000FF3F09000000000000000600851F78003E
:10095000C500200003000900B51F78000202B8009E
:1009600003F0A600020037000383B900010037003E
:100970000303B8004200A9008502430060844B00D5
:1009800001F0A60002003700028BB9000100370019
:10099000020BB80085024B0008844B000980B000B0
:1009A000038BB90008044B0087834C008701780053
:1009B00008017800850078000400780025012000F7
:1009C00003000900CF127800CF0278000000060073
:1009D00001E02F0083814000F1072000E080480003
:1009E000910188000500A1000500E000030032002D
:1009F000331ABA008582E900FCFF3A0000000600C5
:100A0000851F7800861F7800871F7800C62DEF00AD
:100A1000346E80006220E10019003D0085DC20007A
:100A2000346E80006220B80005004000800278002B
:100A3000346E80006223B8002000200001002000F6
:100A4000126E8000236E8000A604020000000000E9
:100A500006034000E0834800851F78008601780087
:100A60000400200025002000E8040200000000002F
:100A7000CF027800800A7800C62DEC00E4FF370032
:100A8000C88DBF00516E8000CF0378004F037800FF
:100A9000CF02780000000600000178008101780094
:100AA000014078000080FD0000F0A0008180D200AD
:100AB0000180FD008180FB00E4082000814052009D
:100AC000060032000000E000040032004200A900ED
:100AD0000080D3008100E900FAFF3A0003F0A6008D
:100AE000020037000000EA000000370000000600A6
:100AF000C22DEF00C42DEF00000502000000000031
:100B0000D6ACB700C166880014002000146E8800BF
:100B1000C42DEF000005020000000000DAACB700B1
:100B2000E166880024002000146E8800C42DEF00C8
:100B30000005020000000000DEACB700016788007D
:100B400034002000146E8800C42DEF000005020060
:100B500000000000E2ACB7002167880044002000DC
:100B6000146E8800C42DEF00000502000000000094
:100B7000E6ACB7004167880054002000146E88007E
:100B8000C42DEF000005020000000000EAACB70031
:100B90006167880064002000146E8800C42DEF0097
:100BA0000005020000000000EEACB700816788007D
:100BB00074002000146E8800C42DEF0000050200B0
:100BC00000000000F2ACB700A1678800840020009C
:100BD000146E8800C42DEF00000502000000000024
:100BE000F6ACB700C167880094002000146E88003E
:100BF000C42DEF000005020000000000FAACB700B1
:100C0000E1678800A4002000146E8800C42DEF0066
:100C10000005020000000000FEACB700016888007B
:100C2000B4002000146E8800C42DEF0000050200FF
:100C30000000000002ADB70021688800C400200059
:100C4000146E8800C42DEF000005020000000000B3
:100C500006ADB70041688800D4002000146E8800FB
:100C6000C42DEF0000050200000000000AADB7002F
:100C700061688800E4002000146E8800C42DEF0035
:100C800000050200000000000EADB700816888007A
:100C9000F4002000146E8800C42DEF00000502004F
:100CA0000000000012ADB700A16888000401200018
:100CB000146E8800C42DEF00000502000000000043
:100CC00016ADB700C168880014012000146E8800BA
:100CD000C42DEF0000050200000000001AADB700AF
:100CE000E168880024012000146E8800C42DEF0004
:100CF00000050200000000004C050200000000009A
:100D00001EADB70034012000146E8800C42DEF0022
:100D100000050200000000004C0502000000000079
:100D200020ADB70044012000146E8800C42DEF00F0
:100D300000050200000000004C0502000000000059
:100D400022ADB7000020EF0000000600851F7800EC
:100D5000861F7800E10820000600A10000F0A60030
:100D6000030037000600A0000000EA000000370082
:100D70000000E0001400320000F0A700040037007B
:100D80004200A9000080D2008100E900FAFF37008C
:100D90000180FD004200A9008180D30000F0A10085
:100DA0000080FD00814068000040B2000600A700FE
:100DB00001F0A00007003700014078000170A0009A
:100DC0000140B200030037000000EB008000EB00A0
:100DD000000037004F037800CF02780000000600C3
:100DE000851F7800C500200003000900B51F7800AA
:100DF0008004EB00080028004300AF0083016C0072
:100E00000000E00003003A00FAFF27000A856000B6
:100E10004220AE00010578008A8569000103780050
:100E200083037800030678004220A9004200A9004D
:100E30000683D2000680FD00F60FB2000600E00037
:100E4000A10032004220A9004200A9008783D200FD
:100E50000780FD00F70FB2000700E0009F0032009E
:100E60004220A9004200A9000638E1009C0032009F
:100E7000A30033000900A1000910A000068453005C
:100E800007037800F10FB2000170A000F30FB20069
:100E90000370A000870220000838E1001100330031
:100EA0004220A9004200A9008180D3000080D30025
:100EB0000804E900FAFF3A000D003700870220001D
:100EC0000838E100090033004220A9004200A900CF
:100ED0008381D3000281D3000804E900FAFF3A00BD
:100EE0000F003700020078008300780043003700CD
:100EF0000BF0A600110037000940A7008C05780010
:100F00000000EA000200320081C0EA000100370060
:100F10008100EA000940A7002B00370007003700D6
:100F20000BF0A600050037000201EA0002003200C3
:100F300083C1EA00010037008301EA00F50FB20027
:100F40004220A9004200A9000200400083C04800DE
:100F50004200AF000930A0000900A70009003700D7
:100F60000910A700010037000B0037000BF0A700A5
:100F7000150037000930A700290037000960A000DC
:100F80001E0037000BF0A7000F0037000930A70044
:100F900023003700190037000920A1000BF0A7003B
:100FA000040037008A0578000930A7001C003700CC
:100FB000360037000940A00001C8B2000170A70048
:100FC000CDFF37008A057800F10FB2008103700071
:100FD0000A0032000170A700080037004220A90073
:100FE0004200A9000080D2008180D2000603E900FF
:100FF0004220AF0031003700F6FF37000900A7009C
:101000008A0578000910A7008C0578000950A60011
:101010001A0037000AF0A7000080A0001B0037006C
:101020004200A80081C0D3000080D3004200AF007E
:101030000950A0000603E800200032000950A60075
:10104000080037000000E80006003A008140E80090
:1010500004003A0081C0D3000080D3000603E800FA
:10106000160032000900A7008A0578000910A700C1
:101070008C0578004220AF00100037000960A700FF
:101080008A0578000970A7008C05780001017000BE
:10109000230032000170A1000680FD004220A9005B
:1010A0004200A9000683D30081006B0001F0A0007C
:1010B0000BF0A60001F0A10019003700000020008D
:1010C00001002000160037000AF0A70083016C0021
:1010D000020078008300780011003700100037000C
:1010E000F30FB2000370A000F10FB2000170A00076
:1010F0000BF0A7000370A1000920A00088FF3700B3
:1011000007045300F10FB2000170A000F30FB2000A
:101110000370A0000910A1000900A00067FF3700BC
:101120002501200003000900CF127800CF027800CB
:1011300000000600851F7800861F7800E108200067
:101140000000E0001200320000F0A70004003700A9
:101150004200A9000080D2008100E900FAFF3700B8
:101160000180FD004200A9008180D30000F0A100B1
:101170000080FD00814068000040B2000700370099
:10118000014078000170A0000140B2000300370068
:101190000000EB008000EB00000037004F037800F8
:1011A000CF02780000000600851F7800C5002000EF
:1011B00004000900B51F78008004EB0083846800F8
:1011C000010378008002780003047800820378002D
:1011D0008180D2000180FD008180FB000100E000E1
:1011E0004E0032008381D2000380FD008381FB002A
:1011F0000300E000490032000000EB0003C0500093
:1012000003003900F047B00044003100030037000C
:101210001048B100410039004000320085007800DC
:10122000060178000270A000F20FB200F80FB200C1
:101230000870A0009A0120008001EB000002EB0082
:10124000878050000801590002003300040031007B
:1012500004003A008780400008014900010037007F
:101260000400A0000A05E900070032004200A900BE
:101270008180D2000281D2004200A9000482D20003
:101280008381D200EEFF37000005EB000380A7004A
:1012900001003700060037004200A9008381D30017
:1012A0000370A1000482D3000A85D2000200370037
:1012B0000000E900190032000AF0A700050039001B
:1012C0008180D2000281D20087805000080159003D
:1012D000090039000402E80007003A008301E80031
:1012E00005003A000000E8000C0032000200370060
:1012F0000000E900090032000080FD008080D3007A
:1013000001F0A00009F0A60001F0A1000370A10007
:1013100081C069000400780003003700000020004D
:1013200001002000000037004501200004000900F2
:10133000CF127800CF02780000000600BB6EEF00ED
:10134000F47580006320E10004003A0040C6B30059
:10135000BBEEB70030C0B300BCEEB700F475800040
:101360006120E10004003A0040C6B300BBEEB700C4
:1013700030C0B300BCEEB700BE0EE20004003A007D
:1013800040C6B300BBEEB70030C0B300BCEEB70040
:10139000BBCEBF000160EF009A0802000000000011
:1013A000C0AEB70011768800C08EBF0011768000F5
:1013B000A299290093012400D40802000000000033
:1013C000C0AEB70011768800C08EBF0011768000D5
:1013D0004C05020000000000BBEEB7000400200036
:1013E000D3758000C819DE0003405200BAEEB70082
:1013F000BE0EF800C40EF900B003020000000000A9
:101400000862AE00040037000622A8000622AF00E2
:10141000FEFF3700030037000602A8000602AF00F7
:10142000FEFF370021C5B300F403020000000000F6
:1014300011C8B300F403020000000000BACEBF00E0
:1014400002E0B700F403020000000000F0012000F9
:101450000602B600FDFF3A000642A8000642AF00B1
:10146000FEFF37000862AE00040037000622A80025
:101470000622AF00FEFF3700030037000602A80077
:101480000602AF00FEFF370021C5B300F4030200DF
:101490000000000031C8B300F403020000000000A7
:1014A00080C0EB00F403020000000000F001200007
:1014B0000602B600FDFF3A000642A8000642AF0051
:1014C000FEFF37000862AE00040037000622A800C5
:1014D0000622AF00FEFF3700030037000602A80017
:1014E0000602AF00FEFF370021C5B300F40302007F
:1014F00000000000F1C8B300F40302000000000087
:10150000BCCEBF0002E0B700F40302000000000000
:10151000F00120000602B600FDFF3A000642A800D6
:101520000642AF00FEFF370000000600F0FF2F006C
:101530000862AE0011003700321080007F016100A8
:10154000FDFF3A000662A8000100A70006A2A9005C
:101550000100A60006A2A800321080007F016100F1
:10156000FDFF3A000682A8000822AE00FEFF370009
:101570000082BF0008C2AF0008C2A9000000060038
:10158000BA8EBF002080B200070032003080B20067
:10159000620032002080B200BD0032007080B200D4
:1015A00018013200740137000862AE0004003700F1
:1015B0000622A8000622AF00FEFF37000300370016
:1015C0000602A8000602AF00FEFF370021C5B300E7
:1015D000F40302000000000081C9B300F40302001C
:1015E00000000000F00120000602B600FDFF3A00F6
:1015F0000642A8000642AF00FEFF37000862AE00B8
:10160000040037000622A8000622AF00FEFF3700C4
:10161000030037000602A8000602AF00FEFF3700F5
:1016200031C5B300F40302000000000001002000F7
:10163000811F7800CF007800960A020000000000A9
:10164000A6EAB700A76AEF00F00120000602B60084
:10165000FDFF3A000642A8000642AF00FEFF370039
:101660000862AE00040037000622A8000622AF0080
:10167000FEFF3700030037000602A8000602AF0095
:10168000FEFF370021C5B300F40302000000000094
:1016900091C9B300F403020000000000F001200033
:1016A0000602B600FDFF3A000642A8000642AF005F
:1016B000FEFF37000862AE00040037000622A800D3
:1016C0000622AF00FEFF3700030037000602A80025
:1016D0000602AF00FEFF370031C5B300F40302007D
:1016E0000000000001002000811F7800CF0078007A
:1016F000960A020000000000A8EAB700A96AEF00FD
:10170000F00120000602B600FDFF3A000642A800E4
:101710000642AF00FEFF3700180137000862AE0036
:10172000040037000622A8000622AF00FEFF3700A3
:10173000030037000602A8000602AF00FEFF3700D4
:1017400021C5B300F40302000000000061C9B3002A
:10175000F403020000000000F00120000602B600C1
:10176000FDFF3A000642A8000642AF00FEFF370028
:101770000862AE00040037000622A8000622AF006F
:10178000FEFF3700030037000602A8000602AF0084
:10179000FEFF370031C5B300F40302000000000073
:1017A00001002000811F7800CF007800960A020017
:1017B00000000000A6EAB700A76AEF00F0012000D1
:1017C0000602B600FDFF3A000642A8000642AF003E
:1017D000FEFF37000862AE00040037000622A800B2
:1017E0000622AF00FEFF3700030037000602A80004
:1017F0000602AF00FEFF370021C5B300F40302006C
:101800000000000071C9B300F403020000000000F2
:10181000F00120000602B600FDFF3A000642A800D3
:101820000642AF00FEFF37000862AE00040037003A
:101830000622A8000622AF00FEFF37000300370093
:101840000602A8000602AF00FEFF370031C5B30054
:10185000F40302000000000001002000811F780056
:10186000CF007800960A020000000000A8EAB70046
:10187000A96AEF00F00120000602B600FDFF3A0061
:101880000642A8000642AF00FEFF3700BB0037004B
:101890000862AE00040037000622A8000622AF004E
:1018A000FEFF3700030037000602A8000602AF0063
:1018B000FEFF370021C5B300F40302000000000062
:1018C000A1C9B300F403020000000000F0012000F1
:1018D0000602B600FDFF3A000642A8000642AF002D
:1018E000FEFF37000862AE00040037000622A800A1
:1018F0000622AF00FEFF3700030037000602A800F3
:101900000602AF00FEFF370031C5B300F40302004A
:101910000000000001002000811F7800CF00780047
:10192000960A020000000000A6EAB700A76AEF00CE
:10193000F00120000602B600FDFF3A000642A800B2
:101940000642AF00FEFF37000862AE000400370019
:101950000622A8000622AF00FEFF37000300370072
:101960000602A8000602AF00FEFF370021C5B30043
:10197000F403020000000000B1C9B300F403020048
:1019800000000000F00120000602B600FDFF3A0052
:101990000642A8000642AF00FEFF37000862AE0014
:1019A000040037000622A8000622AF00FEFF370021
:1019B000030037000602A8000602AF00FEFF370052
:1019C00031C5B300F4030200000000000100200054
:1019D000811F7800CF007800960A02000000000006
:1019E000A8EAB700A96AEF00F00120000602B600DD
:1019F000FDFF3A000642A8000642AF00FEFF370096
:101A00005E0037000862AE00040037000622A8001E
:101A10000622AF00FEFF3700030037000602A800D1
:101A20000602AF00FEFF370021C5B300F403020039
:101A30000000000041C9B300F403020000000000F0
:101A4000F00120000602B600FDFF3A000642A800A1
:101A50000642AF00FEFF37000862AE000400370008
:101A60000622A8000622AF00FEFF37000300370061
:101A70000602A8000602AF00FEFF370031C5B30022
:101A8000F40302000000000001002000811F780024
:101A9000CF007800960A020000000000A6EAB70016
:101AA000A76AEF00F00120000602B600FDFF3A0031
:101AB0000642A8000642AF00FEFF37000862AE00F3
:101AC000040037000622A8000622AF00FEFF370000
:101AD000030037000602A8000602AF00FEFF370031
:101AE00021C5B300F40302000000000051C9B30097
:101AF000F403020000000000F00120000602B6001E
:101B0000FDFF3A000642A8000642AF00FEFF370084
:101B10000862AE00040037000622A8000622AF00CB
:101B2000FEFF3700030037000602A8000602AF00E0
:101B3000FEFF370031C5B300F403020000000000CF
:101B400001002000811F7800CF007800960A020073
:101B500000000000A8EAB700A96AEF00F001200029
:101B60000602B600FDFF3A000642A8000642AF009A
:101B7000FEFF3700010037000000370000000600BC
:101B8000851F7800C500200003000900B51F7800FC
:101B90000202B8000303B8004200A9008502430016
:101BA00060844B00020BB80085024B0008844B0098
:101BB000030BB800080443000780B00087017800D9
:101BC00008017800850078000400780025012000D5
:101BD00003000900CF127800CF0278000000060051
:101BE000851F7800861F7800B3CEBF0000427800C2
:101BF0008401FB00F37588009E09020000000000CC
:101C00000862AE00040037000622A8000622AF00DA
:101C1000FEFF3700030037000602A8000602AF00EF
:101C2000FEFF370021C5B300F403020000000000EE
:101C300001C8B300F40302000000000031C0B3008B
:101C4000F403020000000000F00120000602B600CC
:101C5000FDFF3A000642A8000642AF00FEFF370033
:101C6000A00020005603020000000000B42EEF0088
:101C7000A4758000833E20000418E1003400340085
:101C80000862AE00040037000622A8000622AF005A
:101C9000FEFF3700030037000602A8000602AF006F
:101CA000FEFF370021C5B300F4030200000000006E
:101CB00031C9B300F403020000000000F00120006D
:101CC0000602B600FDFF3A000642A8000642AF0039
:101CD000FEFF37000862AE00040037000622A800AD
:101CE0000622AF00FEFF3700030037000602A800FF
:101CF0000602AF00FEFF370031C5B300F403020057
:101D00000000000001002000811F7800CF00780053
:101D1000960A020000000000B6EEB700B76EEF00B2
:101D2000F00120000602B600FDFF3A000642A800BE
:101D30000642AF00FEFF3700B47580007120E1005D
:101D400001003A0002003700B42EEC00C8FF370053
:101D5000A4758000E33D20000418E10002003D006E
:101D600000E0EF00A00037000862AE00040037007A
:101D70000622A8000622AF00FEFF3700030037004E
:101D80000602A8000602AF00FEFF370021C5B3001F
:101D9000F40302000000000001C8B300F4030200D5
:101DA0000000000011C0B300F403020000000000B6
:101DB000F00120000602B600FDFF3A000642A8002E
:101DC0000642AF00FEFF37007E3B09000000000026
:101DD000FF3F090000000000FF3F09000000000075
:101DE000B3CEBF00004278008401FB00E375880099
:101DF00023002000D3758800C00A02000000000004
:101E0000445580000310200003A0B9003455800021
:101E100004004000ACAAB700B3CEBF000042780077
:101E20008401FB00E375880013002000D37588004F
:101E3000C00A02000000000044558000031020008A
:101E400003A0B9003455800004004000AAAAB700DE
:101E5000B3CEBF00004278008401FB00E375880028
:101E600043002000D3758800C00A02000000000073
:101E7000445580000310200003A0B90034558000B1
:101E800004004000B0AAB700B3CEBF000042780003
:101E90008401FB00E375880033002000D3758800BF
:101EA000C00A02000000000044558000031020001A
:101EB00003A0B9003455800004004000AEAAB7006A
:101EC000B2CEBF000000FB000000E00002003A00BC
:101ED00014002000C4758800B2CEBF000000FB00D3
:101EE0006100E10002003A0044002000C47588004F
:101EF000B2CEBF000000FB006200E10002003A0029
:101F000004012000C4758800B2CEBF000000FB00B1
:101F10006300E10002003A0004042000C475880058
:101F20005555800006002000B88EBF00010020003B
:101F300000017800810178000500780086007800B3
:101F4000C00D020000000000CCABB700715E88003D
:101F50006555800006002000B88EBF0001002000FB
:101F60000001780081017800050078008600780083
:101F7000C00D020000000000D4ABB700B15E8800C5
:101F80007555800006002000B88EBF0001002000BB
:101F90000001780081017800050078008600780053
:101FA000C00D020000000000D0ABB700915E8800B9
:101FB0008555800006002000B88EBF00010020007B
:101FC0000001780081017800050078008600780023
:101FD000C00D020000000000D8ABB700D15E880041
:101FE000B2CEBF0000E0B7004F037800CF02780008
:101FF00000000600851F7800861F78000002780028
:10200000810278000000EB008000EB000600A100D8
:1020100005F0A600060037000600A0000402EA0052
:10202000020032008582EA00010037008502EA00E2
:1020300085017200130032000001EB00610B2000EB
:102040000270A700070037004200A9000482D200F6
:102050008582D2000080D2000281D2008100E90096
:10206000F7FF3A000180FD004200A9008180D30003
:1020700001F0A1000270A100814069000600A700E4
:1020800001F0A0004F037800CF02780000000600A6
:10209000851F7800C500200004000900B51F7800E6
:1020A0000002780081027800830378000203780040
:1020B0004200A9004220A9008180D2000180FD00D9
:1020C000F10FB2000100E0004B0032004200A90015
:1020D0004220A9008381D2000380FD00F30FB200EB
:1020E0000300E000440032000080FB0001C041001A
:1020F00004003100F007B1003F0032003E0039001B
:10210000020037001048B0003B00310007856A002C
:102110004200A9004220A900F50FB2000570A000FE
:102120004200A900F70FB2000770A0000621B80016
:10213000062CB80083014C00890078004200AF00F3
:102140008100E8004200A900043CB80083014C0073
:1021500081804C00072CB80081004C000000E80092
:102160000100E0004220AF0001003700030037000B
:102170000300E0004220AF000500370001F0A70097
:10218000030037008381D2008180D2000000E90083
:10219000010178004200A9000370A6000900370081
:1021A00007F02F00878161000310B0006001490033
:1021B0000200E00003003A000300E00001003A00E2
:1021C0000000E8000080FD004200A9004220A900B4
:1021D0008080D3000AF0A70001F0A00002F0A10067
:1021E0000280FD00814069000380FD00034178000A
:1021F00002007800030037000000200001002000EA
:10220000000037004501200004000900CF127800CB
:10221000CF02780000000600851F78008102780058
:1022200000017800640B20008180D2000180FD0055
:10223000F10FB20001425200854178000370A00006
:10224000F30FB2000000EB008000EB007820E1000B
:102250000F0033004200A9008381D3000281D30024
:102260008180D3000080D3000402E900F9FF3A0026
:1022700005F0A600060037000000EA000200320068
:102280008180EA00020037008100EA000000370088
:10229000CF02780000000600851F7800861F7800B6
:1022A000871F7800C4002000446F8800C02DEF0015
:1022B000C22DEF00C42DEF00C62DEF00C82DEF009A
:1022C000CA2DEF00CC2DEF00CE2DEF00E88DBF0022
:1022D000A6060200000000008002780001037800DA
:1022E0004300A80005007800860078000200200066
:1022F00003002400F006020000000000D0ADB7008B
:10230000916E8800E42DEF00E48DBF00446F8000E3
:102310000020E10026003400BECDBF00B2EEB700C1
:10232000BFCDBF00B3EEB700F00D0200000000000B
:102330000000FB00E6ADB700246F80006420B80009
:10234000C4DE200084024000C4BC2000B41A78001F
:10235000B41A7800246F80006420B800C4E1200023
:102360008402400044BD2000B41A7800B41A7800FA
:10237000246F80006420B800C4E420008402400080
:1023800004BD2000B41A7800B41A7800246F8000CD
:102390006420B800C4E720008402400084BD20000F
:1023A000B41A7800B41A7800E42DEC00D6FF370098
:1023B000B02EEF00B00EE20090003A0014002000B2
:1023C00084758800E42DEF00246F80006B20E1000D
:1023D00089003D00246F80006420B800C4E720001D
:1023E00004004000A4002000301A7800301A780061
:1023F000246F8000E1034200070278006420B800E7
:10240000C4E7200004004000000278000300200020
:10241000B4197800B41978000608E10074003C0093
:10242000020035000500E10071003100B02EEF0020
:10243000246F80006420B800C4E72000040040003E
:10244000C4EA2000301A7800301A7800246F800027
:102450006420B800C4E7200084024000246F80009C
:1024600061034200060278006420B800C4E720003F
:1024700004004000B01A7800B01A7800246F800081
:10248000E1024200050278006420B800C4E72000A1
:1024900084024000C4EA2000B41A7800B41A78001C
:1024A000246F80006420B800C4DE200004004000D7
:1024B000C4EA2000301A7800301A7800246F8000B7
:1024C0006420B800C4DE200084024000246F800035
:1024D00061034200060278006420B800C4DE2000D8
:1024E00004004000B01A7800B01A7800246F800011
:1024F000E1024200050278006420B800C4DE20003A
:1025000084024000C4EA2000B41A7800B41A7800AB
:10251000246F80006420B800C4E120000400400063
:10252000C4EA2000301A7800301A7800246F800046
:102530006420B800C4E1200084024000246F8000C1
:1025400061034200060278006420B800C4E1200064
:1025500004004000B01A7800B01A7800246F8000A0
:10256000E1024200050278006420B800C4E12000C6
:1025700084024000C4EA2000B41A7800B41A78003B
:10258000246F80006420B800C4E4200004004000F0
:10259000C4EA2000301A7800301A7800246F8000D6
:1025A0006420B800C4E4200084024000246F80004E
:1025B00061034200060278006420B800C4E42000F1
:1025C00004004000B01A7800B01A7800246F800030
:1025D000E1024200050278006420B800C4E4200053
:1025E00084024000C4EA2000B41A7800B41A7800CB
:1025F000E42DEC0074FF37006EFF3700140020005C
:10260000246F8800246F80006B20E10068003D008B
:10261000246F80006420B800C4DE20000400400065
:102620000002780003002000B4197800B419780083
:10263000FA0F020000000000D4ADB700B16E8800B0
:10264000246F80006420B800C4E72000040040002C
:102650000002780003002000B4197800B419780053
:10266000FA0F020000000000E0ADB700116F880013
:10267000246F80006420B800C4E120000400400002
:102680000002780003002000B4197800B419780023
:10269000FA0F020000000000D8ADB700D16E88002C
:1026A000246F80006420B800C4E4200004004000CF
:1026B0000002780003002000B4197800B4197800F3
:1026C000FA0F020000000000DCADB700F16E8800D8
:1026D000D48DBF00B16E8000026F8000136F800048
:1026E000D4080200000000004300A90000017800A7
:1026F00081017800C08DBF00116E8000F0060200DD
:1027000000000000C0ADB700116E8800DC8DBF0076
:10271000F16E8000026F8000136F8000D408020009
:10272000000000004300A90000017800810178004A
:10273000C48DBF00316E8000F00602000000000072
:10274000C4ADB700316E8800D88DBF00D16E800057
:10275000026F8000136F8000D408020000000000A8
:102760004300A9000001780081017800C88DBF00F6
:10277000516E8000F006020000000000C8ADB700F6
:10278000516E88004300A900CC8DBF00716E80009F
:10279000026F8000136F8000F0060200000000004E
:1027A000CCADB700716E8800E42DEC0095FF3700CA
:1027B000C08DBF00116E800002002400C3612400A0
:1027C0004810020000000000800278000103780039
:1027D0000500780086007800826E8000936E80008D
:1027E000D408020000000000C0ADB700116E8800E0
:1027F000C48DBF00316E800002002400C36124003C
:1028000048100200000000008002780001037800F8
:102810000500780086007800826E8000936E80004C
:10282000D408020000000000C4ADB700316E88007B
:10283000C88DBF00516E800002002400C3612400D7
:1028400048100200000000008002780001037800B8
:102850000500780086007800826E8000936E80000C
:10286000D408020000000000C8ADB700516E880017
:10287000CC8DBF00716E8000826E8000936E8000F0
:10288000D408020000000000CCADB700716E8800D3
:10289000C08DBF00116E80000C110200000000000E
:1028A000CCABB700715E8800C48DBF00316E800074
:1028B0000C11020000000000D0ABB700915E880050
:1028C000C88DBF00516E80000C1102000000000096
:1028D000D4ABB700B15E8800CC8DBF00716E8000B4
:1028E0000C11020000000000D8ABB700D15E8800D8
:1028F000CF0378004F037800CF0278000000060075
:1029000031748000F101B200F20F20000201E800F2
:102910007200B2004511DD0082807000411A88000B
:10292000A000200056030200000000008A2EEF00E5
:102930008C2EEF0064748000030220000418E10074
:102940000B0034009E000900000000004003A900B5
:102950004023A8004003AE00FEFF37000083BF0005
:102960004200DE008A2EB4008C2EEC00F1FF37000E
:102970008A8EBF004500DE0088AEB700880EF800E2
:102980000000F90000000600851F7800861F78000F
:10299000871F78000382680004F0A6000600370055
:1029A0004200A9004220A90001F0A600260037003D
:1029B0004200A8002400370001027800800278005D
:1029C00003037800820378008180D2000180FD003B
:1029D0008381D2000380FD0081C0510005003200D8
:1029E00004F0A600180037001000200042E0B600F6
:1029F0001500370084407800864178000170A100FE
:102A00000370A10081C051000500320004F0A6004F
:102A10000D0037001000200042E0B6000A00370029
:102A2000858053000500320004F0A6000600370040
:102A30001000200042E0B600030037004200A90069
:102A40000100370000003700CF0378004F03780003
:102A5000CF02780000000600851F7800861F7800EE
:102A6000B20EF800B60EF900B40EF800B80EF90078
:102A7000B68EBF00C17580000200200003F823005D
:102A8000C414020000000000B200320090EB2000ED
:102A9000801F780010407800AFEEB7004F0078003C
:102AA00095EB2000F0C3B300804A780080EB200053
:102AB000747580000042900074758800AEEEA90025
:102AC00085EB2000AE8EBF0080429800AFEEAE00D6
:102AD0000600370065EB200063804200800278002A
:102AE000154278000448B300844298004300A800CF
:102AF000B68EBF00C17580000200200003F82300DD
:102B0000F006020000000000800278000103780057
:102B10004300A900B68EBF00C175800002002000EE
:102B200003F82300F0060200000000000001780016
:102B3000810178000500780086007800D408020042
:102B400000000000B6AEB700C1758800B68EBF00A9
:102B5000C1758000B2758000C37580004810020006
:102B600000000000C2AEB70021768800D888BF0000
:102B7000D146800012768000237680004810020043
:102B80000000000080027800010378004300A900E3
:102B90000500780086007800E2468000F346800059
:102BA000F006020000000000BAAEB700E175880030
:102BB000E888BF00514780001276800023768000AD
:102BC0004810020000000000800278000103780035
:102BD0004300A90005007800860078006247800065
:102BE00073478000F006020000000000BEAEB70090
:102BF00001768800BE8EBF000176800012768000CC
:102C00002376800048100200000000008002780057
:102C1000010378004300A9000500780086007800D1
:102C20000200200003F82300F0060200000000006C
:102C3000BEAEB70001768800B68EBF00C1758000B9
:102C4000D2758000E375800048100200000000008B
:102C50008002780001037800050078008600780083
:102C6000F275800003768000D408020000000000A6
:102C7000BAAEB700E175880050EB20007475800093
:102C80000042900074758800E1EA20009158D2005B
:102C900040EB2000801F780010407800AFEEB700B6
:102CA0004F007800AFEEAE0001003700AE0EA80076
:102CB000747580000960EF00E307200003005200F4
:102CC000B0EEB700B0CEBF000000FB006000E10036
:102CD0000A003D000400200083758000034052007C
:102CE0000000FB00A606020000000000BEAEB70018
:102CF00001768800C1EEAA0006003700B0CEBF0002
:102D00000000FB00A606020000000000BEAEB700F7
:102D100001768800BE8EBF000176800082212700E8
:102D200013F3230048100200000000004300A90034
:102D30000001780081017800BA8EBF00E175800043
:102D4000F006020000000000BAAEB700E17588008E
:102D500002003700BA2EEF00BC2EEF00BA8EBF0083
:102D6000E17580004F037800CF0278000000060074
:102D7000851F7800861F7800871F7800881F7800DD
:102D8000C08ABF0011568000825680009356800092
:102D90004810020000000000800278000103780063
:102DA00005007800860078000257800013578000E5
:102DB0004810020000000000B2AEB700A175880004
:102DC000CC8ABF0071568000E2568000F356800026
:102DD0004810020000000000800278000103780023
:102DE0000500780086007800425680005356800027
:102DF00048100200000000004300A9000001780014
:102E000081017800B28EBF00A1758000F00602003B
:102E1000000000008002780001037800D88ABF001B
:102E2000D1568000225680003356800048100200A0
:102E3000000000008003780001047800070078009B
:102E400088007800A2568000B35680004810020027
:102E5000000000004300A900000178008101780013
:102E60000500780086007800F006020000000000EF
:102E7000AEAEB70081758800C88ABF005156800089
:102E80008256800093568000481002000000000027
:102E90008002780001037800050078008600780041
:102EA000C2568000D3568000481002000000000087
:102EB0008002780001037800D48ABF00B1568000F8
:102EC000E2568000F3568000481002000000000027
:102ED00080037800010478000700780088007800FB
:102EE00002568000135680004810020000000000C7
:102EF0004300A900000178008101780005007800F6
:102F000086007800F00602000000000080027800D1
:102F100001037800E08ABF0011578000225680002C
:102F20003356800048100200000000008003780043
:102F3000010478000700780088007800625680005D
:102F40007356800048100200000000004300A900F2
:102F50000001780081017800050078008600780083
:102F6000F006020000000000B6AEB700C175880090
:102F7000C88ABF0051568000825680009356800058
:102F80004810020000000000800278000103780071
:102F90000500780086007800C2568000D356800075
:102FA0004810020000000000800278000103780051
:102FB000D48ABF00B1568000E2568000F3568000EC
:102FC000481002000000000080037800010478002F
:102FD00007007800880078000256800013568000B1
:102FE00048100200000000004300A9000001780022
:102FF000810178000500780086007800F006020064
:10300000000000008002780001037800E08ABF0021
:10301000115780002256800033568000481002006D
:1030200000000000800378000104780007007800A9
:1030300088007800625680007356800048100200B5
:10304000000000004300A900000178008101780021
:103050000500780086007800F006020000000000FD
:103060004300A8000001780081017800AE8EBF0007
:1030700081758000F006020000000000AEAEB700CF
:1030800081758800AE8EBF00817580004F04780086
:10309000CF0378004F037800CF02780000000600CD
:1030A000222CEF0004222400246188002A2CEF0047
:1030B000841A240064618800322CEF00040C240080
:1030C000A461880004002A0034618800045A2400A6
:1030D0004461880004402B0074618800B4642400BB
:1030E0008461880004402900B4618800746D240064
:1030F000C46188004300A900228CBF0021618000C8
:103100000200280083382400F006020000000000BE
:1031100000017800810178000000200001F8230000
:10312000D40802000000000086AEB7004174880099
:103130004300A9002A8CBF006161800002002800C2
:1031400083382400F006020000000000000178002F
:10315000810178000000200001F82300D40802005B
:10316000000000008AAEB700617488004300A90027
:10317000328CBF00A1618000020028008338240047
:10318000F0060200000000000001780081017800D4
:103190000000200001F82300D40802000000000015
:1031A0008EAEB70081748800260CF800B20EF900CC
:1031B000280CF800B40EF9002C15020000000000E5
:1031C00092AEB700A17488002E0CF800B20EF90080
:1031D000300CF800B40EF9002C15020000000000BD
:1031E00096AEB700C1748800360CF800B20EF90034
:1031F000380CF800B40EF9002C1502000000000095
:103200009AAEB700E1748800C02AEF0004F82300EA
:1032100014568800CC2AEF0004F823007456880066
:10322000D82AEF0004F82300D4568800920EF80044
:10323000C40AF900940EF800C60AF900960EF800C8
:10324000D00AF900980EF800D20AF9009A0EF80098
:10325000DC0AF9009C0EF800DE0AF900928EBF002D
:10326000A174800092748000A37480004810020052
:1032700000000000C8AAB70051568800968EBF0013
:10328000C1748000B2748000C374800048100200D2
:1032900000000000D4AAB700B15688009A8EBF0083
:1032A000E1748000D2748000E37480004810020052
:1032B00000000000E0AAB70011578800B81602000D
:1032C000000000009EAEB70001758800860EF80071
:1032D000C00AF900880EF800C20AF9008A0EF80048
:1032E000CC0AF9008C0EF800CE0AF9008E0EF80018
:1032F000D80AF900900EF800DA0AF900920EF800E8
:10330000C40AF900940EF800C60AF900960EF800F7
:10331000D00AF900980EF800D20AF9009A0EF800C7
:10332000DC0AF9009C0EF800DE0AF900928EBF005C
:10333000A174800092748000A37480004810020081
:1033400000000000C8AAB70051568800968EBF0042
:10335000C1748000B2748000C37480004810020001
:1033600000000000D4AAB700B15688009A8EBF00B2
:10337000E1748000D2748000E37480004810020081
:1033800000000000E0AAB70011578800B81602003C
:1033900000000000A2AEB70021758800A28EBF0019
:1033A00021758000F274800003758000D40802004B
:1033B000000000009AAAB700E1548800C02AEF007C
:1033C00004F8230014568800CC2AEF0004F82300E8
:1033D00074568800D82AEF0004F82300D4568800D9
:1033E000860EF800C40AF900880EF800C60AF90033
:1033F0008A0EF800D00AF9008C0EF800D20AF90003
:103400008E0EF800DC0AF900900EF800DE0AF900D2
:10341000928EBF00A174800092748000A37480001B
:103420004810020000000000C8AAB70051568800EA
:10343000968EBF00C1748000B2748000C374800097
:103440004810020000000000D4AAB700B15688005E
:103450009A8EBF00E1748000D2748000E374800013
:103460004810020000000000E0AAB70011578800D1
:10347000B816020000000000A6AEB7004175880033
:10348000A68EBF0041758000F27480000375800035
:10349000D4080200000000009EAAB7000155880071
:1034A000C02AEF0004F8230014568800CC2AEF004D
:1034B00004F8230074568800D82AEF0004F823008B
:1034C000D4568800920EF800C40AF900940EF80051
:1034D000C60AF900960EF800D00AF900980EF80016
:1034E000D20AF9009A0EF800DC0AF9009C0EF800E6
:1034F000DE0AF900860EF800C80AF900880EF80006
:10350000CA0AF9008A0EF800D40AF9008C0EF800F5
:10351000D60AF9008E0EF800E00AF900900EF800C5
:10352000E20AF900B816020000000000AAAEB700D7
:1035300061758800AA8EBF0061758000F2748000FA
:1035400003758000D408020000000000A2AAB700A2
:103550002155880000000600851F7800861F78002E
:10356000871F7800881F7800740EF800860EF90017
:10357000801402000000000076AEB700768EBF0017
:10358000A60602000000000080AEB700117488009B
:10359000768EBF00A60602000000000080027800C0
:1035A000010378000500780086007800323323009C
:1035B000330524004810020000000000800278005B
:1035C00001037800050078008600780002002000E2
:1035D00003482400D40802000000000078AEB700C1
:1035E000D1738800768EBF00F00FB20073EEB70083
:1035F000760EF800840EF90000F02F00842EB6003D
:10360000B47380006820E10002003C000040EB0041
:103610000100370010C0B30072EEB70073CEBF00D8
:1036200032EDB70072CEBF0031EDB7004300A80005
:103630003033230031052400C2738000D37380002F
:10364000F00602000000000080027800010378000C
:10365000050078008600780002002600F359240057
:10366000D408020000000000000178008101780009
:10367000788EBF00D1738000D408020000000000E3
:1036800078AEB700D1738800501802000000000027
:10369000780EF800B20EF9007A0EF800B40EF900B8
:1036A0002C15020000000000000178008101780064
:1036B0009E8ABF00015580004810020000000000F3
:1036C0004300A90000017800810178009A8ABF00B8
:1036D000E1548000F0060200000000008002780043
:1036E00001037800780EF800B20EF9007A0EF800A7
:1036F000B40EF9002C1502000000000080037800D1
:1037000001047800780EF800B20EF9007A0EF80085
:10371000B40EF9002C150200000000000001780032
:1037200081017800070078008800780048100200C6
:10373000000000000001780081017800A28ABF002B
:103740002155800048100200000000004300A9003D
:10375000000178008101780005007800860078007B
:10376000F0060200000000000001780081017800EE
:103770000000200001F82300D4080200000000002F
:1037800080027800010378004300A800050078005B
:10379000860078003233290083382400F0060200C6
:1037A000000000007CAEB700F17388007C8EBF0083
:1037B000F17380004F047800CF0378004F03780046
:1037C000CF02780000000600851F7800861F780071
:1037D000871F78006C2EEF0064738000A302200026
:1037E0000418E1000D003400647380006420B80008
:1037F000E4DB200084024000B4002000A4738800B1
:10380000AC1A02000000000004002000B41A780086
:10381000B41A78006C2EEC00EFFF37006A2EEF0030
:103820006C2EEF0064738000930220000418E10006
:1038300038003400647380006420B800E4DB2000AA
:1038400004004000A4002000301A7800301A7800EC
:1038500064738000E1034200070278006420B8002E
:10386000E4DB200004004000000278000300200098
:10387000B4197800B419780000017800810178004B
:103880000500780086007800C414020000000000E3
:103890001E003900647380006420B800E4DB20005F
:1038A0000400400064E62000301A7800301A7800E6
:1038B000647380006420B800E4DB200084024000D0
:1038C0006473800061034200060278006420B8003F
:1038D000E4DB200004004000B01A7800B01A780041
:1038E00064738000E1024200050278006420B800A1
:1038F000E4DB20008402400064E62000B41A780073
:10390000B41A780014002000547388006C2EEC0068
:10391000C4FF3700547380006120E100BFFF320014
:10392000662EEF00682EEF001400200064738800FC
:1039300064738000930220000418E1001300340037
:10394000647380006420B800E4DB200004004000C1
:103950000002780003002000B4197800B419780040
:103960004300A9000001780081017800668EBF0045
:1039700041738000F00602000000000066AEB70050
:10398000417388006C2EEC00E9FF3700668EBF00A3
:10399000417380000200200003222400D4080200AA
:1039A0000000000066AEB70041738800668EBF005D
:1039B00041738000CF0378004F037800CF02780076
:1039C00000000600851F7800861F780069CDBF00C3
:1039D000BEEDB7006ACDBF00BFEDB700BFCDBF00E1
:1039E0000000FB00C0ADB700C0CDBF000BE0B700CA
:1039F0008042EB00BECDBF000000FB000500400090
:103A000060ACB7006BCDBF00BEEDB7006CCDBF00A2
:103A1000BFEDB700BFCDBF000000FB00C0ADB700D9
:103A2000C0CDBF000BE0B7008042EB00BECDBF00B1
:103A30000000FB000500400062ACB7006DCDBF0088
:103A4000BEEDB7006ECDBF00BFEDB700BFCDBF006C
:103A50000000FB00C0ADB700C0CDBF000BE0B70059
:103A60008042EB00BECDBF000000FB00050040001F
:103A700064ACB7006FCDBF00BEEDB70070CDBF0026
:103A8000BFEDB700BFCDBF000000FB00C0ADB70069
:103A9000C0CDBF000BE0B7008042EB00BECDBF0041
:103AA0000000FB000500400066ACB70071CDBF0010
:103AB000BEEDB70072CDBF00BFEDB700BFCDBF00F8
:103AC0000000FB00C0ADB700C0CDBF000BE0B700E9
:103AD0008042EB00BECDBF000000FB0005004000AF
:103AE00068ACB70073CDBF00BEEDB70074CDBF00AA
:103AF000BFEDB700BFCDBF000000FB00C0ADB700F9
:103B0000C0CDBF000BE0B7008042EB00BECDBF00D0
:103B10000000FB00050040006AACB70075CDBF0097
:103B2000BEEDB70076CDBF00BFEDB700BFCDBF0083
:103B30000000FB00C0ADB700C0CDBF000BE0B70078
:103B40008042EB00BECDBF000000FB00050040003E
:103B50006CACB70077CDBF00BEEDB70078CDBF002D
:103B6000BFEDB700BFCDBF000000FB00C0ADB70088
:103B7000C0CDBF000BE0B7008042EB00BECDBF0060
:103B80000000FB00050040006EACB70079CDBF001F
:103B9000BEEDB7007ACDBF00BFEDB700BFCDBF000F
:103BA0000000FB00C0ADB700C0CDBF000BE0B70008
:103BB0008042EB00BECDBF000000FB0005004000CE
:103BC00070ACB700C22DEF00146E80006420E100DD
:103BD0000B003D0045DC200005007800C20DB4005C
:103BE00080027800146E80007503420064D62000C5
:103BF00004004300904A7800C22DEC00F2FF370029
:103C0000C40DF800720CF900C60DF800740CF90030
:103C1000C22DEF00146E80006420E1000B003D0017
:103C200045DC200005007800C20DB4008002780059
:103C3000146E80007903420064D620000400430023
:103C4000904A7800C22DEC00F2FF3700C40DF80056
:103C5000720CF900C60DF800740CF900C22DEF00CB
:103C6000146E80006420E1000B003D0045DC200064
:103C700005007800C20DB40080027800146E800048
:103C80007D03420064D6200004004300904A78007F
:103C9000C22DEC00F2FF3700C40DF800720CF900E1
:103CA000C60DF800740CF9004F037800CF027800BD
:103CB000000006000FF52000F0FF200020A0B70054
:103CC0000000000081E0A8004440A800000020009F
:103CD000A00188004427EF00CC42A90017E2A80009
:103CE00017A2A80016C2A8001762A90016E2A80031
:103CF0001702A9001722A8001742A90004052000F6
:103D0000D4108800CD22A90007E2A80007A2A800CD
:103D100006C2A8000762A90006E2A8000702A900DF
:103D20000722A8000742A9000A22EF00D4092000B8
:103D300024108800256AEF00B26AEF0020C0B300AB
:103D4000B3EAB700D4CC2C00C45C8800C4DC2B00E0
:103D5000D45C8800042CEF00062CEF00041A240029
:103D600044608800A40F2000646288004E2CEF009D
:103D7000840C200084628800522CEF00A76DEF00B5
:103D800030C0B300A8EDB700E024EF00E224EF005C
:103D9000A6003700800208005A000000808008005A
:103DA000607C88005939E00097A63A00C41D1E00C7
:103DB0003C5E5000633D1A00FE753E0018723100F3
:103DC0003F0F8C0055A6820095D93D00E6D7FF0035
:103DD000E5C99000C7BDCE00401247000CB74200B5
:103DE0003E9F6D0094C325006D7A3E00DA320E00CE
:103DF000BE9F3E00B63E6D00AA28C200B4FAEF0096
:103E00003E89E00029E5A40030243F00A38EFA009B
:103E1000E37ED800553FC600048A7800ABB2830029
:103E20003FCDED00A6D608006BAC3F00FDD184006D
:103E3000FFBDBF00CE3FA10035FAFE00422EE600D6
:103E40003F9947008ABF0000000040004008000082
:103E500000084C00F3BA3D002B9D5F00BF400800F6
:103E60000000180005BD9A004A1AA600C2BFB4009F
:103E7000B92A1D0007D9F5003F02EB008967DB0076
:103E8000F608C00040070000003940002BF2930004
:103E90008B43C500783F4F00E05DA20084A9CA00B3
:103EA000BF388F00ACEFB500D2F13F00D83FDF0044
:103EB000BC304C00FEBF3700BFFD3E003DAA930062
:103EC000C0EE5000B340000000803F000A8DB100FA
:103ED000C0EE5000B3404000060000006BF03F0011
:103EE0005C0A5800F63B8F0000C03C008B28AC00F9
:103EF0003CBEF6003FD2D50044168C0015D7BF005B
:103F000069005A002E1B8700993F9A005FAD4B0055
:103F100091E40100C05D11002F92E40081FB3F009D
:103F200038DA9100809DC500E0BF6F0012C0B40078
:103F3000C309AB003F6BC100034EC100B545BF00D4
:103F40000A8934003E7C7900B5403F0002B341004D
:103F5000338C9E0041000000803F1B00E43541008F
:103F6000A4DBE70041338C009E41F7004005FF00D1
:103F7000005FEF003FF3A300E2F7D700FF0140002E
:103F8000C0B4FF00053C5800FC3F3B00D3C0B50067
:103F9000BA8CE2003F39D300C73D410079B23F00FF
:103FA000870D3C0050D0AF00623F30004B8DA20027
:103FB00082AA04004009A000404A050076034000A0
:103FC000EC9E370088A64400F03F8F00128D290038
:103FD0009A5BC7003F0EE000807CA100D8863F00BE
:103FE000294BFB0095C237001A3F3000312E3000BC
:103FF000310000000201E8006110E10004003A0015
:104000009101BA003182BA0006C0BF00000006006C
:104010006210E10002003A0007C0BF000000060085
:1040200008C0BF000001EB000000060006002000F1
:104030000000200090018800A0EC210080007800A2
:104040000001EB00FA1F0200000000000BE0B700C7
:10405000FA1F0200000000000AE0B7000500E000BF
:104060001900320005F0A60007003700FA1F020011
:10407000000000000DE0B700FA1F02000000000081
:104080000CE0B70005F0A10005E0A600080037002D
:1040900005E0A1008502E900FA1F0200000000000F
:1040A0008043780005800900075B7800E5FF370052
:1040B000FA1F020000000000005B78008502E900A2
:1040C000FBFF3A00DFFF3700AC6DEF00D62CEF00AE
:1040D00084112400C4668800DA2CEF000408240050
:1040E000E4668800DE2CEF00E02CEF00E22CEF000D
:1040F000040F240024678800E62CEF000408240045
:1041000044678800EA2CEF00EC2CEF006466260080
:1041100074678800640D240084678800F22CEF0027
:1041200004082400A4678800F62CEF00F82CEF00A8
:10413000FA2CEF0084622400E467880004002E005B
:10414000F4678800B4622400046888000400280032
:1041500014688800B4632400246888000480200068
:104160003468880004632400446888000400280040
:1041700054688800B4632400646888000400220046
:1041800074688800B46424008468880004402200B5
:104190009468880024642400A46888000400220035
:1041A000B4688800B4642400C468880004002C004B
:1041B000D4688800A4652400E4688800A400200076
:1041C000F4688800440120000469880094012000FC
:1041D00014698800C8E2A900CCE2A9003A030200F1
:1041E00000000000660302000000000082040200DC
:1041F00000000000803E2000560302000000000086
:1042000004F02900241A880004472800041A8800B2
:10421000E024EF0004002300142788004223EF006D
:104220009A20A8007805020000000000684DE20016
:10423000020032000040EB0000003700C982A900F4
:10424000CD82A800BE6DEF0010C0B300BFEDB70077
:104250004C11020000000000E41B020000000000FE
:1042600006ACB70041608800C982A900CD82A900D0
:10427000D40BF800B20DF900B28DBF00F00FB20000
:10428000AEEDB700B20DF800BC0DF90000F02F0044
:10429000BC2DB6000160EF00BDCDBF00ADEDB70095
:1042A000CC0BF800B20DF900B28DBF00F00FB200D8
:1042B000AEEDB700B20DF800BC0DF90000F02F0014
:1042C000BC2DB6000160EF00BDCDBF00ADEDB70065
:1042D000AECDBF0034EDB700ADCDBF0033EDB700BC
:1042E000D00BF800B20DF900B28DBF00F00FB20094
:1042F000AEEDB700B20DF800BC0DF90000F02F00D4
:10430000BC2DB6000160EF00BDCDBF00ADEDB70024
:10431000D80BF800B20DF900B28DBF00F00FB2005B
:10432000AEEDB700B20DF800BC0DF90000F02F00A3
:10433000BC2DB6000160EF00BDCDBF00ADEDB700F4
:10434000C8A2A900CCA2A800BE6DEF00BF6DEF000F
:104350004C11020000000000C8A2A900CCA2A900D4
:10436000D40BF800B20DF900B28DBF00F00FB2000F
:10437000AEEDB700B20DF800BC0DF90000F02F0053
:10438000BC2DB6000160EF00BDCDBF00ADEDB700A4
:10439000AECDBF003AEDB700ADCDBF0039EDB700EF
:1043A000CC0BF800B20DF900B28DBF00F00FB200D7
:1043B000AEEDB700B20DF800BC0DF90000F02F0013
:1043C000BC2DB6000160EF00BDCDBF00ADEDB70064
:1043D000AECDBF0038EDB700ADCDBF0037EDB700B3
:1043E000D00BF800B20DF900B28DBF00F00FB20093
:1043F000AEEDB700B20DF800BC0DF90000F02F00D3
:10440000BC2DB6000160EF00BDCDBF00ADEDB70023
:10441000AECDBF003CEDB700ADCDBF003BEDB7006A
:10442000D80BF800B20DF900B28DBF00F00FB2004A
:10443000AEEDB700B20DF800BC0DF90000F02F0092
:10444000BC2DB6000160EF00BDCDBF00ADEDB700E3
:10445000AECDBF003EEDB700ADCDBF003DEDB70026
:10446000C942A900CD42A800BE6DEF0030C0B30024
:10447000BFEDB7004C11020000000000C942A900C6
:10448000CD42A900D40BF800B20DF900B28DBF00E7
:10449000F00FB200AEEDB700B20DF800BC0DF900A0
:1044A00000F02F00BC2DB6000160EF00BDCDBF00B5
:1044B000ADEDB700AECDBF0040EDB700ADCDBF0054
:1044C0003FEDB700CC0BF800B20DF900B28DBF0084
:1044D000F00FB200AEEDB700B20DF800BC0DF90060
:1044E00000F02F00BC2DB6000160EF00BDCDBF0075
:1044F000ADEDB700AECDBF0044EDB700ADCDBF0010
:1045000043EDB700D00BF800B20DF900B28DBF003B
:10451000F00FB200AEEDB700B20DF800BC0DF9001F
:1045200000F02F00BC2DB6000160EF00BDCDBF0034
:10453000ADEDB700AECDBF0046EDB700ADCDBF00CD
:1045400045EDB700D80BF800B20DF900B28DBF00F1
:10455000F00FB200AEEDB700B20DF800BC0DF900DF
:1045600000F02F00BC2DB6000160EF00BDCDBF00F4
:10457000ADEDB700AECDBF0048EDB700ADCDBF008B
:1045800047EDB700060CF800440AF900080CF800E3
:10459000460AF900448ABF00315280000200200020
:1045A00003002000C41402000000000004003900D1
:1045B000442AEF00462AEF00062CEF00082CEF00FB
:1045C000068CBF00416080004C0502000000000026
:1045D00029EDB700068CBF00416080004C05020049
:1045E00000000000A6060200000000004300A80032
:1045F0000001780081017800068CBF0041608000D6
:10460000F00602000000000080027800010378003C
:10461000050078008600780002002000832C24002A
:1046200048100200000000004C05020000000000DD
:104630002AEDB700ACCDBF000000FB000000E00099
:1046400005003A00C8E2A900CCE2A90010C0B300FE
:10465000ACEDB70003003700C8E2A900CCE2A80027
:10466000AC6DEF00446B80006124E10016003A005D
:10467000E21C020000000000684DE200020032006F
:104680000040EB0000003700AA6DEF00AACDBF008C
:104690000000FB00140420000020E1000A003400A8
:1046A000AACDBF000000FB0064D62000040040003B
:1046B0001004E000020032000040EB000000370070
:1046C000AA6DEC00F1FF3700DCFE3700FFFF37007A
:0200000401F009
:100000000F0000FF000000FF030000FFE30000FFFF
:10001000FA0000FF5F0000FFF40000FF030000FF94
:04002000DF0000FFFE
:00000001FF
;PIC24FV32KA302
;CRC=72C4  CREATED="03-May-17 08:03"
