:08000000C82604000000000006
:0400EC0038020000D6
:10040000F0FF2F001862AE00FEFF37001922AF0088
:10041000040037001742AE00020037001902AE0098
:10042000F8FF37001822AE00FEFF37001082BF0031
:1004300018C2AF0018C2A9001782A8000000060069
:10044000F0FF2F001862AE00080037001842AE001F
:10045000060037001742AE00020037001902AE0056
:1004600002003700911088001782A80000000600E3
:100470004200F8003600F8003200F800801F7800D3
:10048000200020000C000900B01F780018A2AF0067
:1004900004003700B86DEF001842AE0001003700CD
:1004A000B8EDA800B8CDBF000160EF00B86DEC005A
:1004B0004DEFB700647A80004822DE000308200078
:1004C000041CE1002F00390011002000811F78007A
:1004D000CF00780000020200000000004CEFB700DF
:1004E000647A80004822DE006124E10003003A00C3
:1004F0004CCFBF0075EDB700B76DEF00647A800098
:100500004822DE006224E10007003A00A46B80006C
:100510004822DE0063D72000830242004C8FBF00D8
:1005200080429800B76DEF00647A80004822DE00B8
:100530006124E10003003A004CCFBF0075EDB70025
:1005400010003700647A80004822DE006224E10057
:100550000C003900647A80004822DE0004C8B20032
:100560000800320075CDBF00756DEC000080FB0007
:1005700064D72000840240004C8FBF008042980066
:10058000B76DEF00647A80004822DE000308200087
:10059000041CE10001003E00020037000040EB00B7
:1005A0000100370010C0B30080427800B46D8000B5
:1005B0006124E10002003A000040EB000100370036
:1005C00010C0B30000C062000004E0000900320067
:1005D000B7CDBF00B76DEC000080FB0044D3200016
:1005E000040040009042780085407800200202001C
:1005F00000000000647A80004822DE00030820002A
:10060000041CE10001003E00020037000040EB0046
:100610000100370010C0B30080427800B46D800044
:100620006124E100020032000040EB0001003700CD
:1006300010C0B30000C062000004E00004003200FB
:1006400091C3B3002002020000000000B66DEF006D
:100650008A20A900A00120000C0009004F1078009A
:100660004F0078003200F9003600F9004200F9002E
:1006700000400600851F7800C42DEF00246E800026
:10068000130420000418E1000600340044D32000C5
:10069000236E80008482410080CAEB00C42DEC00F0
:1006A000F6FF3700CF027800000006000000E000EF
:1006B0004220AF00040037007B3E0900000000002C
:1006C0000000E900FCFF3A0000000600C982A90012
:1006D000CD82A900C8A2A900CCA2A900C962A90024
:1006E000CD62A800C942A900CD42A900C8A2A900B4
:1006F000CCA2A800A00F20005603020000000000BA
:10070000C8A2A900CCA2A900C982A900CD82A900D3
:10071000A00F20005603020000000000C982A900BB
:10072000CD82A900C942A900CD42A800A00F200097
:100730005603020000000000C962A900CD62A900B2
:10074000C942A900CD42A900C8A2A900CCA2A90013
:10075000A00F200056030200000000000000060069
:10076000547680006320E10003003400547680005A
:1007700064005200CAAEB700CA0EE20004003A009C
:10078000C9E2A900CDE2A900C9C2A900CDC2A90051
:10079000547680006120E10004003A00C9E2A9001B
:1007A000CDE2A800C9C2A900CDC2A900547680003C
:1007B0006220E10004003A00C9E2A900CDE2A900EC
:1007C000C9C2A900CDC2A800547680006320E10010
:1007D00004003A00C9E2A900CDE2A800C9C2A900FC
:1007E000CDC2A80000000600F0FF2F000862AE0096
:1007F0000500370009C2AF00FEFF37001110880066
:1008000009C2AF00FEFF37000000200009E2AF0080
:100810000000E80000000600C60DF800CA0EF9004E
:10082000B0030200000000000862AE0004003700C0
:100830000622A8000622AF00FEFF370003003700A3
:100840000602A8000602AF00FEFF370021C5B30074
:10085000F40302000000000001C8B300F40302002A
:100860000000000011C0B300F4030200000000000B
:10087000F00120000602B600FDFF3A000642A80083
:100880000642AF00FEFF37007E3B0900000000007B
:10089000FF3F090000000000FF3F090000000000CA
:1008A0000862AE00040037000622A8000622AF004E
:1008B000FEFF3700030037000602A8000602AF0063
:1008C000FEFF370021C5B300F40302000000000062
:1008D000D1C8B300F4030200000000008040EB0028
:1008E000F403020000000000F00120000602B60040
:1008F000FDFF3A000642A8000642AF00FEFF3700A7
:1009000000000600C62DEF000C04020000000000ED
:1009100014002000346E88000C0402000000000067
:1009200034002000346E88000C0402000000000037
:100930007E3B090000000000FF3F090000000000AE
:10094000FF3F09000000000000000600851F78003E
:10095000C500200003000900B51F78000202B8009E
:1009600003F0A600020037000383B900010037003E
:100970000303B8004200A9008502430060844B00D5
:1009800001F0A60002003700028BB9000100370019
:10099000020BB80085024B0008844B000980B000B0
:1009A000038BB90008044B0087834C008701780053
:1009B00008017800850078000400780025012000F7
:1009C00003000900CF127800CF0278000000060073
:1009D00001E02F0083814000F1072000E080480003
:1009E000910188000500A1000500E000030032002D
:1009F000331ABA008582E900FCFF3A0000000600C5
:100A0000851F7800861F7800871F7800CC2DEF00A7
:100A1000646E80006220E10019003D00E5DC2000EA
:100A2000646E80006220B8000500400080027800FB
:100A3000646E80006223B8002000200001002000C6
:100A4000426E8000536E8000A60402000000000089
:100A500006034000E0834800851F78008601780087
:100A60000400200025002000E8040200000000002F
:100A7000CF027800800A7800CC2DEC00E4FF37002C
:100A8000CE8DBF00816E8000CF0378004F037800C9
:100A9000CF02780000000600000178008101780094
:100AA000014078000080FD0000F0A0008180D200AD
:100AB0000180FD008180FB00E4082000814052009D
:100AC000060032000000E000040032004200A900ED
:100AD0000080D3008100E900FAFF3A0003F0A6008D
:100AE000020037000000EA000000370000000600A6
:100AF000C82DEF00CA2DEF00000502000000000025
:100B0000E6ACB7004167880014002000446E8800FE
:100B1000CA2DEF000005020000000000EAACB7009B
:100B20006167880024002000446E8800CA2DEF0011
:100B30000005020000000000EEACB70081678800ED
:100B400034002000446E8800CA2DEF00000502002A
:100B500000000000F2ACB700A1678800440020004C
:100B6000446E8800CA2DEF0000050200000000005E
:100B7000F6ACB700C167880054002000446E8800BE
:100B8000CA2DEF000005020000000000FAACB7001B
:100B9000E167880064002000446E8800CA2DEF00E1
:100BA0000005020000000000FEACB70001688800EC
:100BB00074002000446E8800CA2DEF00000502007A
:100BC0000000000002ADB70021688800840020000A
:100BD000446E8800CA2DEF000005020000000000EE
:100BE00006ADB7004168880094002000446E88007C
:100BF000CA2DEF0000050200000000000AADB7009A
:100C000061688800A4002000446E8800CA2DEF00AF
:100C100000050200000000000EADB70081688800EA
:100C2000B4002000446E8800CA2DEF0000050200C9
:100C30000000000012ADB700A1688800C4002000C9
:100C4000446E8800CA2DEF0000050200000000007D
:100C500016ADB700C1688800D4002000446E88003B
:100C6000CA2DEF0000050200000000001AADB70019
:100C7000E1688800E4002000446E8800CA2DEF007F
:100C800000050200000000001EADB70001698800E9
:100C9000F4002000446E8800CA2DEF000005020019
:100CA0000000000022ADB700216988000401200087
:100CB000446E8800CA2DEF0000050200000000000D
:100CC00026ADB7004169880014012000446E8800F9
:100CD000CA2DEF0000050200000000002AADB70099
:100CE0006169880024012000446E8800CA2DEF004D
:100CF00000050200000000004C050200000000009A
:100D00002EADB70034012000446E8800CA2DEF00DC
:100D100000050200000000004C0502000000000079
:100D200030ADB70044012000446E8800CA2DEF00AA
:100D300000050200000000004C0502000000000059
:100D400032ADB700D4CC2C0054518800C4DC230051
:100D50006451880004002A0034518800C4532400E0
:100D600044518800322AEF00040A2400A45188006C
:100D700004002300745188004455240084518800E5
:100D80003A2AEF0004122400E451880004002E00E7
:100D9000B451880044572400C4518800422AEF000F
:100DA000842C24002452880004002C00F451880074
:100DB000E4572400045288000020EF0000000600E1
:100DC000851F7800861F7800E10820000600A1003A
:100DD00000F0A600030037000600A0000000EA00B3
:100DE000000037000000E0001400320000F0A7000F
:100DF000040037004200A9000080D2008100E90011
:100E0000FAFF37000180FD004200A9008180D30075
:100E100000F0A1000080FD00814068000040B200A9
:100E20000600A70001F0A00007003700014078008D
:100E30000170A0000140B200030037000000EB0089
:100E40008000EB00000037004F037800CF027800ED
:100E500000000600851F7800C5002000030009007F
:100E6000B51F78008004EB00080028004300AF00A5
:100E700083016C000000E00003003A00FAFF270045
:100E80000A8560004220AE00010578008A8569006D
:100E90000103780083037800030678004220A9004C
:100EA0004200A9000683D2000680FD00F60FB200C2
:100EB0000600E000A10032004220A9004200A90083
:100EC0008783D2000780FD00F70FB2000700E00023
:100ED0009F0032004220A9004200A9000638E1002C
:100EE0009C003200A30033000900A1000910A000FB
:100EF0000684530007037800F10FB2000170A000D0
:100F0000F30FB2000370A000870220000838E10050
:100F1000110033004220A9004200A9008180D300C3
:100F20000080D3000804E900FAFF3A000D00370002
:100F3000870220000838E100090033004220A900A0
:100F40004200A9008381D3000281D3000804E90094
:100F5000FAFF3A000F0037000200780083007800A3
:100F6000430037000BF0A600110037000940A7002E
:100F70008C0578000000EA000200320081C0EA001F
:100F8000010037008100EA000940A7002B0037006C
:100F9000070037000BF0A600050037000201EA0049
:100FA0000200320083C1EA00010037008301EA0039
:100FB000F50FB2004220A9004200A9000200400043
:100FC00083C048004200AF000930A0000900A7001C
:100FD000090037000910A700010037000B00370097
:100FE0000BF0A700150037000930A70029003700D3
:100FF0000960A0001E0037000BF0A7000F003700AB
:101000000930A70023003700190037000920A1008C
:101010000BF0A700040037008A0578000930A7000C
:101020001C003700360037000940A00001C8B2009C
:101030000170A700CDFF37008A057800F10FB200DC
:10104000810370000A0032000170A7000800370019
:101050004220A9004200A9000080D2008180D20075
:101060000603E9004220AF0031003700F6FF3700E9
:101070000900A7008A0578000910A7008C057800F0
:101080000950A6001A0037000AF0A7000080A0004F
:101090001B0037004200A80081C0D3000080D300AD
:1010A0004200AF000950A0000603E8002000320013
:1010B0000950A600080037000000E80006003A00CA
:1010C0008140E80004003A0081C0D3000080D300D2
:1010D0000603E800160032000900A7008A05780020
:1010E0000910A7008C0578004220AF0010003700DF
:1010F0000960A7008A0578000970A7008C057800B0
:1011000001017000230032000170A1000680FD0083
:101110004220A9004200A9000683D30081006B0091
:1011200001F0A0000BF0A60001F0A10019003700AB
:101130000000200001002000160037000AF0A70080
:1011400083016C00020078008300780011003700F2
:1011500010003700F30FB2000370A000F10FB200CF
:101160000170A0000BF0A7000370A1000920A000EF
:1011700088FF370007045300F10FB2000170A00090
:10118000F30FB2000370A0000910A1000900A00035
:1011900067FF37002501200003000900CF12780007
:1011A000CF02780000000600851F7800861F7800B7
:1011B000E10820000000E0001200320000F0A7006B
:1011C000040037004200A9000080D2008100E9003D
:1011D000FAFF37000180FD004200A9008180D300A2
:1011E00000F0A1000080FD00814068000040B200D6
:1011F00007003700014078000170A0000140B200F4
:10120000030037000000EB008000EB000000370017
:101210004F037800CF02780000000600851F780099
:10122000C500200004000900B51F78008004EB0011
:10123000838468000103780080027800030478004A
:10124000820378008180D2000180FD008180FB0054
:101250000100E0004E0032008381D2000380FD00D7
:101260008381FB000300E000490032000000EB0036
:1012700003C0500003003900F047B00044003100C3
:10128000030037001048B10041003900400032002F
:1012900085007800060178000270A000F20FB2000D
:1012A000F80FB2000870A0009A0120008001EB0046
:1012B0000002EB0087805000080159000200330053
:1012C0000400310004003A00878040000801490012
:1012D000010037000400A0000A05E9000700320001
:1012E0004200A9008180D2000281D2004200A90000
:1012F0000482D2008381D200EEFF37000005EB00AC
:101300000380A70001003700060037004200A90053
:101310008381D3000370A1000482D3000A85D20028
:10132000020037000000E900190032000AF0A700AF
:10133000050039008180D2000281D20087805000F0
:1013400008015900090039000402E80007003A00CA
:101350008301E80005003A000000E8000C003200BC
:10136000020037000000E900090032000080FD00A3
:101370008080D30001F0A00009F0A60001F0A100D8
:101380000370A10081C069000400780003003700E9
:10139000000020000100200000003700450120006F
:1013A00004000900CF127800CF0278000000060088
:1013B000C16EEF00247680006320E10004003A0053
:1013C00040C6B300C1EEB70030C0B300C2EEB700F4
:1013D000247680006120E10004003A0040C6B3009A
:1013E000C1EEB70030C0B300C2EEB700C40EE200D9
:1013F00004003A0040C6B300C1EEB70030C0B300ED
:10140000C2EEB700C1CEBF000160EF00D4080200F9
:1014100000000000C6AEB70041768800C68EBF004F
:1014200041768000A2992900930124000E09020050
:1014300000000000C6AEB70041768800C68EBF002F
:10144000417680004C05020000000000C1EEB700AC
:101450000400200003768000C819DE00034052001B
:10146000C0EEB700C40EF800CA0EF900B0030200C7
:10147000000000000862AE00040037000622A80049
:101480000622AF00FEFF3700030037000602A80067
:101490000602AF00FEFF370021C5B300F4030200CF
:1014A0000000000011C8B300F403020000000000B7
:1014B000C0CEBF0002E0B700F4030200000000004D
:1014C000F00120000602B600FDFF3A000642A80027
:1014D0000642AF00FEFF37000862AE00040037008E
:1014E0000622A8000622AF00FEFF370003003700E7
:1014F0000602A8000602AF00FEFF370021C5B300B8
:10150000F40302000000000031C8B300F40302003D
:101510000000000080C0EB00F403020000000000A7
:10152000F00120000602B600FDFF3A000642A800C6
:101530000642AF00FEFF37000862AE00040037002D
:101540000622A8000622AF00FEFF37000300370086
:101550000602A8000602AF00FEFF370021C5B30057
:10156000F403020000000000F1C8B300F40302001D
:1015700000000000C2CEBF0002E0B700F40302008A
:1015800000000000F00120000602B600FDFF3A0056
:101590000642A8000642AF00FEFF3700000006002A
:1015A000F0FF2F000862AE001100370032108000FB
:1015B0007F016100FDFF3A000662A8000100A7005C
:1015C00006A2A9000100A60006A2A8003210800011
:1015D0007F016100FDFF3A000682A8000822AE00EC
:1015E000FEFF37000082BF0008C2AF0008C2A9009A
:1015F00000000600C08EBF002080B200070032004D
:101600003080B200620032002080B200BD003200A3
:101610007080B20018013200740137000862AE0019
:10162000040037000622A8000622AF00FEFF3700A4
:10163000030037000602A8000602AF00FEFF3700D5
:1016400021C5B300F40302000000000081C9B3000B
:10165000F403020000000000F00120000602B600C2
:10166000FDFF3A000642A8000642AF00FEFF370029
:101670000862AE00040037000622A8000622AF0070
:10168000FEFF3700030037000602A8000602AF0085
:10169000FEFF370031C5B300F40302000000000074
:1016A00001002000811F7800CF007800D00A0200DE
:1016B00000000000F6EAB700F76AEF00F001200032
:1016C0000602B600FDFF3A000642A8000642AF003F
:1016D000FEFF37000862AE00040037000622A800B3
:1016E0000622AF00FEFF3700030037000602A80005
:1016F0000602AF00FEFF370021C5B300F40302006D
:101700000000000091C9B300F403020000000000D3
:10171000F00120000602B600FDFF3A000642A800D4
:101720000642AF00FEFF37000862AE00040037003B
:101730000622A8000622AF00FEFF37000300370094
:101740000602A8000602AF00FEFF370031C5B30055
:10175000F40302000000000001002000811F780057
:10176000CF007800D00A020000000000F8EAB700BD
:10177000F96AEF00F00120000602B600FDFF3A0012
:101780000642A8000642AF00FEFF370018013700EE
:101790000862AE00040037000622A8000622AF004F
:1017A000FEFF3700030037000602A8000602AF0064
:1017B000FEFF370021C5B300F40302000000000063
:1017C00061C9B300F403020000000000F001200032
:1017D0000602B600FDFF3A000642A8000642AF002E
:1017E000FEFF37000862AE00040037000622A800A2
:1017F0000622AF00FEFF3700030037000602A800F4
:101800000602AF00FEFF370031C5B300F40302004B
:101810000000000001002000811F7800CF00780048
:10182000D00A020000000000F6EAB700F76AEF00F5
:10183000F00120000602B600FDFF3A000642A800B3
:101840000642AF00FEFF37000862AE00040037001A
:101850000622A8000622AF00FEFF37000300370073
:101860000602A8000602AF00FEFF370021C5B30044
:10187000F40302000000000071C9B300F403020089
:1018800000000000F00120000602B600FDFF3A0053
:101890000642A8000642AF00FEFF37000862AE0015
:1018A000040037000622A8000622AF00FEFF370022
:1018B000030037000602A8000602AF00FEFF370053
:1018C00031C5B300F4030200000000000100200055
:1018D000811F7800CF007800D00A020000000000CD
:1018E000F8EAB700F96AEF00F00120000602B6003E
:1018F000FDFF3A000642A8000642AF00FEFF370097
:10190000BB0037000862AE00040037000622A800C2
:101910000622AF00FEFF3700030037000602A800D2
:101920000602AF00FEFF370021C5B300F40302003A
:1019300000000000A1C9B300F40302000000000091
:10194000F00120000602B600FDFF3A000642A800A2
:101950000642AF00FEFF37000862AE000400370009
:101960000622A8000622AF00FEFF37000300370062
:101970000602A8000602AF00FEFF370031C5B30023
:10198000F40302000000000001002000811F780025
:10199000CF007800D00A020000000000F6EAB7008D
:1019A000F76AEF00F00120000602B600FDFF3A00E2
:1019B0000642A8000642AF00FEFF37000862AE00F4
:1019C000040037000622A8000622AF00FEFF370001
:1019D000030037000602A8000602AF00FEFF370032
:1019E00021C5B300F403020000000000B1C9B30038
:1019F000F403020000000000F00120000602B6001F
:101A0000FDFF3A000642A8000642AF00FEFF370085
:101A10000862AE00040037000622A8000622AF00CC
:101A2000FEFF3700030037000602A8000602AF00E1
:101A3000FEFF370031C5B300F403020000000000D0
:101A400001002000811F7800CF007800D00A02003A
:101A500000000000F8EAB700F96AEF00F00120008A
:101A60000602B600FDFF3A000642A8000642AF009B
:101A7000FEFF37005E0037000862AE00040037004A
:101A80000622A8000622AF00FEFF37000300370041
:101A90000602A8000602AF00FEFF370021C5B30012
:101AA000F40302000000000041C9B300F403020087
:101AB00000000000F00120000602B600FDFF3A0021
:101AC0000642A8000642AF00FEFF37000862AE00E3
:101AD000040037000622A8000622AF00FEFF3700F0
:101AE000030037000602A8000602AF00FEFF370021
:101AF00031C5B300F4030200000000000100200023
:101B0000811F7800CF007800D00A0200000000009A
:101B1000F6EAB700F76AEF00F00120000602B6000F
:101B2000FDFF3A000642A8000642AF00FEFF370064
:101B30000862AE00040037000622A8000622AF00AB
:101B4000FEFF3700030037000602A8000602AF00C0
:101B5000FEFF370021C5B300F403020000000000BF
:101B600051C9B300F403020000000000F00120009E
:101B70000602B600FDFF3A000642A8000642AF008A
:101B8000FEFF37000862AE00040037000622A800FE
:101B90000622AF00FEFF3700030037000602A80050
:101BA0000602AF00FEFF370031C5B300F4030200A8
:101BB0000000000001002000811F7800CF007800A5
:101BC000D00A020000000000F8EAB700F96AEF004E
:101BD000F00120000602B600FDFF3A000642A80010
:101BE0000642AF00FEFF370001003700000037005B
:101BF00000000600851F7800C500200003000900D2
:101C0000B51F78000202B8000303B8004200A90023
:101C10008502430060844B00020BB80085024B0034
:101C200008844B00030BB800080443000780B00091
:101C300087017800080178008500780004007800AA
:101C40002501200003000900CF127800CF027800A0
:101C500000000600851F7800861F7800B9CEBF00FF
:101C6000004278008401FB0023768800D809020036
:101C7000000000000862AE00040037000622A80041
:101C80000622AF00FEFF3700030037000602A8005F
:101C90000602AF00FEFF370021C5B300F4030200C7
:101CA0000000000001C8B300F403020000000000BF
:101CB00031C0B300F403020000000000F001200076
:101CC0000602B600FDFF3A000642A8000642AF0039
:101CD000FEFF3700A00020005603020000000000B5
:101CE000BA2EEF00D4758000833E20000418E10076
:101CF000340034000862AE00040037000622A80059
:101D00000622AF00FEFF3700030037000602A800DE
:101D10000602AF00FEFF370021C5B300F403020046
:101D20000000000031C9B300F4030200000000000D
:101D3000F00120000602B600FDFF3A000642A800AE
:101D40000642AF00FEFF37000862AE000400370015
:101D50000622A8000622AF00FEFF3700030037006E
:101D60000602A8000602AF00FEFF370031C5B3002F
:101D7000F40302000000000001002000811F780031
:101D8000CF007800D00A020000000000BCEEB700CF
:101D9000BD6EEF00F00120000602B600FDFF3A0024
:101DA0000642A8000642AF00FEFF3700E47580003F
:101DB0007120E10001003A0002003700BA2EEC0069
:101DC000C8FF3700D4758000E33D20000418E1000F
:101DD00002003D0000E0EF00A00037000862AE0006
:101DE000040037000622A8000622AF00FEFF3700DD
:101DF000030037000602A8000602AF00FEFF37000E
:101E000021C5B300F40302000000000001C8B300C4
:101E1000F40302000000000011C0B300F40302004C
:101E200000000000F00120000602B600FDFF3A00AD
:101E30000642A8000642AF00FEFF37007E3B0900C5
:101E400000000000FF3F090000000000FF3F090004
:101E500000000000B9CEBF00004278008401FB0002
:101E6000137688002300200003768800FA0A020017
:101E700000000000C45780000310200003A0B90038
:101E8000B457800004004000FCAAB700B9CEBF00E0
:101E9000004278008401FB001376880013002000C4
:101EA00003768800FA0A020000000000C457800090
:101EB0000310200003A0B900B457800004004000C4
:101EC000FAAAB700B9CEBF00004278008401FB0037
:101ED000137688004300200003768800FA0A020087
:101EE00000000000C45780000310200003A0B900C8
:101EF000B45780000400400000ABB700B9CEBF006B
:101F0000004278008401FB00137688003300200033
:101F100003768800FA0A020000000000C45780001F
:101F20000310200003A0B900B45780000400400053
:101F3000FEAAB700B8CEBF000000FB000000E00022
:101F400002003A0014002000F4758800B8CEBF00EB
:101F50000000FB006100E10002003A0044002000A4
:101F6000F4758800B8CEBF000000FB006200E100FD
:101F700002003A0004012000F4758800B8CEBF00CA
:101F80000000FB006300E10002003A0004042000AE
:101F9000F4758800D557800006002000BE8EBF0073
:101FA0000100200000017800810178000500780020
:101FB00086007800FA0D020000000000DCABB700DC
:101FC000F15E8800E557800006002000BE8EBF004D
:101FD00001002000000178008101780005007800F0
:101FE00086007800FA0D020000000000E4ABB700A4
:101FF000315F8800F557800006002000BE8EBF00CC
:1020000001002000000178008101780005007800BF
:1020100086007800FA0D020000000000E0ABB70077
:10202000115F88000558800006002000BE8EBF00AA
:10203000010020000001780081017800050078008F
:1020400086007800FA0D020000000000E8ABB7003F
:10205000515F8800B8CEBF0000E0B7004F037800A2
:10206000CF02780000000600851F7800861F7800E8
:1020700000027800810278000000EB008000EB0095
:102080000600A10005F0A600060037000600A0002B
:102090000402EA00020032008582EA0001003700F3
:1020A0008502EA0085017200130032000001EB0096
:1020B000610B20000270A700070037004200A90052
:1020C0000482D2008582D2000080D2000281D20038
:1020D0008100E900F7FF3A000180FD004200A900FD
:1020E0008180D30001F0A1000270A100814069004D
:1020F0000600A70001F0A0004F037800CF0278008F
:1021000000000600851F7800C500200004000900BB
:10211000B51F780000027800810278008303780000
:10212000020378004200A9004220A9008180D20069
:102130000180FD00F10FB2000100E0004B00320011
:102140004200A9004220A9008381D2000380FD0043
:10215000F30FB2000300E000440032000080FB00F7
:1021600001C0410004003100F007B1003F0032001F
:102170003E003900020037001048B0003B0031003B
:1021800007856A004200A9004220A900F50FB200AD
:102190000570A0004200A900F70FB2000770A00070
:1021A0000621B800062CB80083014C008900780095
:1021B0004200AF008100E8004200A900043CB800E2
:1021C00083014C0081804C00072CB80081004C003A
:1021D0000000E8000100E0004220AF0001003700ED
:1021E000030037000300E0004220AF000500370085
:1021F00001F0A700030037008381D2008180D20064
:102200000000E900010178004200A9000370A60067
:102210000900370007F02F00878161000310B0002C
:10222000600149000200E00003003A000300E00002
:1022300001003A000000E8000080FD004200A90013
:102240004220A9008080D3000AF0A70001F0A0007E
:1022500002F0A1000280FD00814069000380FD00C2
:1022600003417800020078000300370000002000DE
:102270000100200000003700450120000400090093
:10228000CF127800CF02780000000600851F78008A
:102290008102780000017800640B20008180D20068
:1022A0000180FD00F10FB20001425200854178002B
:1022B0000370A000F30FB2000000EB008000EB0001
:1022C0007820E1000F0033004200A9008381D30091
:1022D0000281D3008180D3000080D3000402E90092
:1022E000F9FF3A0005F0A600060037000000EA00FA
:1022F000020032008180EA00020037008100EA001B
:1023000000003700CF02780000000600851F78002B
:10231000861F7800871F7800C4002000746F880033
:10232000C62DEF00C82DEF00CA2DEF00CC2DEF0019
:10233000CE2DEF00D02DEF00D22DEF00D42DEF00E9
:10234000EE8DBF00E0060200000000008002780071
:10235000010378004300A80005007800860078009B
:1023600002002000030024002A07020000000000F1
:10237000D6ADB700C16E8800EA2DEF00EA8DBF0030
:10238000746F80000020E10026003400C4CDBF003F
:10239000B8EEB700C5CDBF00B9EEB7002A0E0200F7
:1023A000000000000000FB00ECADB700546F80009F
:1023B0006420B80024DF200084024000C4BD200057
:1023C000B41A7800B41A7800546F80006420B80002
:1023D00024E220008402400044BE2000B41A7800A9
:1023E000B41A7800546F80006420B80024E52000FF
:1023F0008402400004BE2000B41A7800B41A7800A9
:10240000546F80006420B80024E82000840240005B
:1024100084BE2000B41A7800B41A7800EA2DEC00CB
:10242000D6FF3700B62EEF00B60EE20090003A005D
:1024300014002000B4758800EA2DEF00546F80006E
:102440006B20E10089003D00546F80006420B800DB
:1024500024E8200004004000A4002000301A780086
:10246000301A7800546F8000E103420007027800C0
:102470006420B80024E82000040040000002780036
:1024800003002000B4197800B41978000608E100B0
:1024900074003C00020035000500E10071003100CD
:1024A000B62EEF00546F80006420B80024E82000AE
:1024B0000400400024EB2000301A7800301A780025
:1024C000546F80006420B80024E82000840240009B
:1024D000546F800061034200060278006420B80057
:1024E00024E8200004004000B01A7800B01A7800F8
:1024F000546F8000E1024200050278006420B800B9
:1025000024E820008402400024EB2000B41A780064
:10251000B41A7800546F80006420B80024DF2000D3
:102520000400400024EB2000301A7800301A7800B4
:10253000546F80006420B80024DF20008402400033
:10254000546F800061034200060278006420B800E6
:1025500024DF200004004000B01A7800B01A780090
:10256000546F8000E1024200050278006420B80048
:1025700024DF20008402400024EB2000B41A7800FD
:10258000B41A7800546F80006420B80024E2200060
:102590000400400024EB2000301A7800301A780044
:1025A000546F80006420B80024E2200084024000C0
:1025B000546F800061034200060278006420B80076
:1025C00024E2200004004000B01A7800B01A78001D
:1025D000546F8000E1024200050278006420B800D8
:1025E00024E220008402400024EB2000B41A78008A
:1025F000B41A7800546F80006420B80024E52000ED
:102600000400400024EB2000301A7800301A7800D3
:10261000546F80006420B80024E52000840240004C
:10262000546F800061034200060278006420B80005
:1026300024E5200004004000B01A7800B01A7800A9
:10264000546F8000E1024200050278006420B80067
:1026500024E520008402400024EB2000B41A780016
:10266000B41A7800EA2DEC0074FF37006EFF3700D3
:1026700014002000546F8800546F80006B20E1002C
:1026800068003D00546F80006420B80024DF200003
:10269000040040000002780003002000B419780014
:1026A000B41978003410020000000000DAADB70061
:1026B000E16E8800546F80006420B80024E8200098
:1026C000040040000002780003002000B4197800E4
:1026D000B41978003410020000000000E6ADB70025
:1026E000416F8800546F80006420B80024E220000D
:1026F000040040000002780003002000B4197800B4
:10270000B41978003410020000000000DEADB700FC
:10271000016F8800546F80006420B80024E5200019
:10272000040040000002780003002000B419780083
:10273000B41978003410020000000000E2ADB700C8
:10274000216F8800DA8DBF00E16E8000326F80005B
:10275000436F80000E090200000000004300A90042
:102760000001780081017800C68DBF00416E8000B5
:102770002A07020000000000C6ADB700416E8800C5
:10278000E28DBF00216F8000326F8000436F8000B8
:102790000E090200000000004300A90000017800BB
:1027A00081017800CA8DBF00616E80002A07020097
:1027B00000000000CAADB700616E8800DE8DBF006A
:1027C000016F8000326F8000436F80000E090200AD
:1027D000000000004300A90000017800810178009A
:1027E000CE8DBF00816E80002A070200000000002D
:1027F000CEADB700816E88004300A900D28DBF0026
:10280000A16E8000326F8000436F80002A070200B3
:1028100000000000D2ADB700A16E8800EA2DEC00E8
:1028200095FF3700C68DBF00416E80000200240076
:10283000C3612400821002000000000080027800C2
:10284000010378000500780086007800B26E8000F1
:10285000C36E80000E09020000000000C6ADB70084
:10286000416E8800CA8DBF00616E800002002400A6
:10287000C361240082100200000000008002780082
:10288000010378000500780086007800B26E8000B1
:10289000C36E80000E09020000000000CAADB70040
:1028A000616E8800CE8DBF00816E80000200240022
:1028B000C361240082100200000000008002780042
:1028C000010378000500780086007800B26E800071
:1028D000C36E80000E09020000000000CEADB700FC
:1028E000816E8800D28DBF00A16E8000B26E800024
:1028F000C36E80000E09020000000000D2ADB700D8
:10290000A16E8800C68DBF00416E80004611020096
:1029100000000000DCABB700F15E8800CA8DBF008C
:10292000616E80004611020000000000E0ABB700BD
:10293000115F8800CE8DBF00816E800046110200BD
:1029400000000000E4ABB700315F8800D28DBF000B
:10295000A16E80004611020000000000E8ABB70045
:10296000515F8800CF0378004F037800CF027800D2
:102970000000060061748000F101B200F20F200037
:102980000201E8007200B2004511DD008280700093
:10299000411A8800A0002000560302000000000039
:1029A000902EEF00922EEF0094748000030220001E
:1029B0000418E1000B0034009E0009000000000034
:1029C0004003A9004023A8004003AE00FEFF3700EB
:1029D0000083BF004200DE00902EB400922EEC0077
:1029E000F1FF3700908EBF004500DE008EAEB700CD
:1029F0008E0EF8000000F90000000600851F780028
:102A0000861F7800871F78000382680004F0A60004
:102A1000060037004200A9004220A90001F0A600EC
:102A2000260037004200A800240037000102780089
:102A30008002780003037800820378008180D2004E
:102A40000180FD008381D2000380FD0081C0510020
:102A50000500320004F0A600180037001000200026
:102A600042E0B600150037008440780086417800C7
:102A70000170A1000370A10081C051000500320067
:102A800004F0A6000D0037001000200042E0B60060
:102A90000A003700858053000500320004F0A600CC
:102AA000060037001000200042E0B60003003700A7
:102AB0004200A9000100370000003700CF03780072
:102AC0004F037800CF02780000000600851F7800D1
:102AD000861F7800B80EF800BC0EF900BA0EF80098
:102AE000BE0EF900BC8EBF00F17580000200200010
:102AF00003F82300FE14020000000000B2003200C0
:102B0000F0EB2000801F780010407800B5EEB70091
:102B10004F007800F5EB2000F0C3B300804A780046
:102B2000E0EB2000A475800000429000A4758800AE
:102B3000B4EEA900E5EB2000B48EBF0080429800FF
:102B4000B5EEAE0006003700C5EB20006380420002
:102B500080027800154278000448B300844298004F
:102B60004300A800BC8EBF00F17580000200200069
:102B700003F823002A07020000000000800278000A
:102B8000010378004300A900BC8EBF00F1758000EE
:102B90000200200003F823002A07020000000000C2
:102BA0000001780081017800050078008600780037
:102BB0000E09020000000000BCAEB700F1758800ED
:102BC000BC8EBF00F1758000E2758000F375800057
:102BD0008210020000000000C8AEB70051768800E5
:102BE000D888BF00D14680004276800053768000AE
:102BF00082100200000000008002780001037800CB
:102C00004300A9000500780086007800E2468000B5
:102C1000F34680002A07020000000000C0AEB700A3
:102C200011768800E888BF00514780004276800016
:102C300053768000821002000000000080027800BD
:102C4000010378004300A9000500780086007800A1
:102C500062478000734780002A07020000000000DE
:102C6000C4AEB70031768800C48EBF0031768000D4
:102C7000427680005376800082100200000000003F
:102C800080027800010378004300A9000500780065
:102C9000860078000200200003F823002A070200C3
:102CA00000000000C4AEB70031768800BC8EBF00C3
:102CB000F175800002768000137680008210020099
:102CC0000000000080027800010378000500780011
:102CD0008600780022768000337680000E0902009C
:102CE00000000000C0AEB70011768800B0EB2000F5
:102CF000A475800000429000A475880041EB20007C
:102D00009158D200A0EB2000801F7800104078007E
:102D1000B5EEB7004F007800B5EEAE000100370009
:102D2000B40EA800A47580000960EF00E30720003E
:102D300003005200B6EEB700B6CEBF000000FB00A5
:102D40006000E1000A003D0004002000B37580002F
:102D5000034052000000FB00E006020000000000FB
:102D6000C4AEB70031768800C7EEAA00060037006F
:102D7000B6CEBF000000FB00E0060200000000002D
:102D8000C4AEB70031768800C48EBF0031768000B3
:102D90008221270013F323008210020000000000AC
:102DA0004300A9000001780081017800C08EBF00B7
:102DB000117680002A07020000000000C0AEB700B4
:102DC0001176880002003700C02EEF00C22EEF00FF
:102DD000C08EBF00117680004F037800CF027800CC
:102DE00000000600851F7800861F7800871F780086
:102DF000881F7800108BBF00915880000259800016
:102E00001359800082100200000000008002780048
:102E10000103780005007800860078008259800060
:102E2000935980008210020000000000B8AEB70085
:102E3000D17588001C8BBF00F1588000625980005A
:102E400073598000821002000000000080027800A8
:102E5000010378000500780086007800C2588000E1
:102E6000D358800082100200000000004300A90037
:102E70000001780081017800B88EBF00D175800014
:102E80002A07020000000000800278000103780099
:102E9000288BBF0051598000A2588000B358800091
:102EA0008210020000000000800378000104780016
:102EB000070078008800780022598000335980008C
:102EC00082100200000000004300A9000001780009
:102ED0008101780005007800860078002A0702004A
:102EE00000000000B4AEB700B1758800188BBF00B9
:102EF000D1588000025980001359800082100200CE
:102F000000000000800278000103780005007800CE
:102F100086007800425980005359800082100200D8
:102F2000000000008002780001037800248BBF00BD
:102F3000315980006259800073598000821002006C
:102F4000000000008003780001047800070078008A
:102F50008800780082588000935880008210020018
:102F6000000000004300A900000178008101780002
:102F700005007800860078002A07020000000000A3
:102F80008002780001037800308BBF0091598000E7
:102F9000A2588000B3588000821002000000000098
:102FA000800378000104780007007800880078002A
:102FB000E2588000F35880008210020000000000F8
:102FC0004300A90000017800810178000500780025
:102FD000860078002A07020000000000BCAEB7009F
:102FE000F1758800188BBF00D1588000025980000D
:102FF0001359800082100200000000008002780057
:1030000001037800050078008600780042598000AE
:1030100053598000821002000000000080027800F6
:1030200001037800248BBF00315980006259800071
:1030300073598000821002000000000080037800B5
:10304000010478000700780088007800825880002A
:103050009358800082100200000000004300A90085
:103060000001780081017800050078008600780072
:103070002A070200000000008002780001037800A7
:10308000308BBF0091598000A2588000B358800057
:103090008210020000000000800378000104780024
:1030A0000700780088007800E2588000F35880001C
:1030B00082100200000000004300A9000001780017
:1030C0008101780005007800860078002A07020058
:1030D000000000004300A800000178008101780092
:1030E000B48EBF00B17580002A0702000000000006
:1030F000B4AEB700B1758800B48EBF00B175800062
:103100004F047800CF0378004F037800CF02780097
:1031100000000600322CEF0004222400A461880085
:103120003A2CEF00841A2400E4618800422CEF005E
:10313000040C24002462880004002A00B461880082
:10314000045A2400C461880004402B00F461880004
:10315000B4642400046288000440290034628800BA
:10316000746D2400446288004300A900328CBF00C3
:10317000A161800002002800833824002A07020091
:1031800000000000000178008101780000002000AC
:1031900001F823000E090200000000008CAEB70009
:1031A000717488004300A9003A8CBF00E16180007F
:1031B00002002800833824002A07020000000000D3
:1031C00000017800810178000000200001F8230050
:1031D0000E0902000000000090AEB7009174880054
:1031E0004300A900428CBF00216280000200280039
:1031F000833824002A070200000000000001780044
:10320000810178000000200001F823000E0902006F
:103210000000000094AEB700B1748800360CF800CE
:10322000B80EF900380CF800BA0EF9006615020065
:103230000000000098AEB700D17488003E0CF80082
:10324000B80EF900400CF800BA0EF900661502003D
:10325000000000009CAEB700F1748800460CF80036
:10326000B80EF900480CF800BA0EF9006615020015
:1032700000000000A0AEB70011758800102BEF0011
:1032800004F82300945888001C2BEF0004F8230056
:10329000F4588800282BEF0004F8230054598800C4
:1032A000980EF800140BF9009A0EF800160BF900AE
:1032B0009C0EF800200BF9009E0EF800220BF9007E
:1032C000A00EF8002C0BF900A20EF8002E0BF9004E
:1032D000988EBF00D1748000C2748000D3748000C7
:1032E000821002000000000018ABB700D15888001F
:1032F0009C8EBF00F1748000E2748000F374800043
:10330000821002000000000024ABB7003159880091
:10331000A08EBF00117580000275800013758000BB
:10332000821002000000000030ABB7009159880005
:10333000F216020000000000A4AEB700317588004C
:103340008C0EF800100BF9008E0EF800120BF9002D
:10335000900EF8001C0BF900920EF8001E0BF900FD
:10336000940EF800280BF900960EF8002A0BF900CD
:10337000980EF800140BF9009A0EF800160BF900DD
:103380009C0EF800200BF9009E0EF800220BF900AD
:10339000A00EF8002C0BF900A20EF8002E0BF9007D
:1033A000988EBF00D1748000C2748000D3748000F6
:1033B000821002000000000018ABB700D15888004E
:1033C0009C8EBF00F1748000E2748000F374800072
:1033D000821002000000000024ABB70031598800C1
:1033E000A08EBF00117580000275800013758000EB
:1033F000821002000000000030ABB7009159880035
:10340000F216020000000000A8AEB7005175880057
:10341000A88EBF0051758000227580003375800032
:103420000E09020000000000EAAAB70061578800F8
:10343000102BEF0004F82300945888001C2BEF0099
:1034400004F82300F4588800282BEF0004F8230028
:10345000545988008C0EF800140BF9008E0EF800F9
:10346000160BF900900EF800200BF900920EF800F0
:10347000220BF900940EF8002C0BF900960EF800C0
:103480002E0BF900988EBF00D1748000C2748000AA
:10349000D3748000821002000000000018ABB70057
:1034A000D15888009C8EBF00F1748000E2748000C7
:1034B000F3748000821002000000000024ABB7000B
:1034C00031598800A08EBF00117580000275800000
:1034D00013758000821002000000000030ABB700BE
:1034E00091598800F216020000000000ACAEB7004F
:1034F00071758800AC8EBF007175800022758000E8
:10350000337580000E09020000000000EEAAB7002B
:1035100081578800102BEF0004F82300945888008E
:103520001C2BEF0004F82300F4588800282BEF0030
:1035300004F8230054598800980EF800140BF90081
:103540009A0EF800160BF9009C0EF800200BF900FB
:103550009E0EF800220BF900A00EF8002C0BF900CB
:10356000A20EF8002E0BF9008C0EF800180BF900D3
:103570008E0EF8001A0BF900900EF800240BF900DB
:10358000920EF800260BF900940EF800300BF900AB
:10359000960EF800320BF900F2160200000000004F
:1035A000B0AEB70091758800B08EBF0091758000F5
:1035B00022758000337580000E09020000000000B3
:1035C000F2AAB700A157880000000600851F780006
:1035D000861F7800871F7800881F78007A0EF80011
:1035E0008C0EF900BA140200000000007CAEB70097
:1035F0007C8EBF00E00602000000000086AEB7002F
:10360000417488007C8EBF00E006020000000000CC
:1036100080027800010378000500780086007800B9
:103620003233230033052400821002000000000022
:103630008002780001037800050078008600780099
:1036400002002000034824000E09020000000000D0
:103650007EAEB700017488007C8EBF00F00FB20010
:1036600079EEB7007C0EF8008A0EF90000F02F000A
:103670008A2EB600E47380006820E10002003C005E
:103680000040EB000100370010C0B30078EEB70037
:1036900079CEBF0042EDB70078CEBF0041EDB70054
:1036A0004300A8003033230031052400F27380006A
:1036B000037480002A0702000000000080027800E6
:1036C00001037800050078008600780002002600DB
:1036D000F35924000E0902000000000000017800E8
:1036E000810178007E8EBF00017480000E09020007
:1036F000000000007EAEB700017488008A18020046
:10370000000000007E0EF800B80EF900800EF800F0
:10371000BA0EF900661502000000000000017800F2
:1037200081017800EE8ABF0081578000821002007C
:10373000000000004300A90000017800810178002A
:10374000EA8ABF00615780002A07020000000000DB
:1037500080027800010378007E0EF800B80EF900B0
:10376000800EF800BA0EF900661502000000000095
:1037700080037800010478007E0EF800B80EF9008E
:10378000800EF800BA0EF900661502000000000075
:103790000001780081017800070078008800780037
:1037A0008210020000000000000178008101780012
:1037B000F28ABF00A15780008210020000000000C2
:1037C0004300A9000001780081017800050078001D
:1037D000860078002A07020000000000000178003F
:1037E000810178000000200001F823000E0902008A
:1037F0000000000080027800010378004300A80068
:1038000005007800860078003233290083382400D0
:103810002A0702000000000082AEB7002174880071
:10382000828EBF00217480004F047800CF0378009F
:103830004F037800CF02780000000600851F780053
:10384000861F7800871F7800722EEF009473800027
:10385000A30220000418E1000D00340094738000DE
:103860006420B80044DC200084024000B400200042
:10387000D4738800E61A0200000000000400200053
:10388000B41A7800B41A7800722EEC00EFFF3700FB
:10389000702EEF00722EEF009473800093022000D0
:1038A0000418E10038003400947380006420B800EC
:1038B00044DC200004004000A4002000301A7800FE
:1038C000301A780094738000E10342000702780008
:1038D0006420B80044DC20000400400000027800AE
:1038E00003002000B4197800B419780000017800B2
:1038F000810178000500780086007800FE1402003F
:10390000000000001E003900947380006420B8009D
:1039100044DC200004004000C4E62000301A780097
:10392000301A7800947380006420B80044DC2000D2
:103930008402400094738000610342000602780014
:103940006420B80044DC200004004000B01A780075
:10395000B01A780094738000E102420005027800FA
:103960006420B80044DC200084024000C4E620004B
:10397000B41A7800B41A7800140020008473880008
:10398000722EEC00C4FF3700847380006120E100D8
:10399000BFFF32006C2EEF006E2EEF0014002000EF
:1039A0009473880094738000930220000418E1004F
:1039B00013003400947380006420B80044DC2000BD
:1039C000040040000002780003002000B4197800D1
:1039D000B41978004300A900000178008101780043
:1039E0006C8EBF00717380002A0702000000000087
:1039F0006CAEB70071738800722EEC00E9FF3700DF
:103A00006C8EBF007173800002002000032224002E
:103A10000E090200000000006CAEB7007173880050
:103A20006C8EBF0071738000CF0378004F03780065
:103A3000CF02780000000600851F7800861F7800FE
:103A4000170EA900180EF8001C0EF9001A0EF80047
:103A50001E0EF900188EBF00D170800002002000F9
:103A600003002000FE1402000000000006003900E0
:103A7000170EA800C0E12000C1E1200003000900EA
:103A8000B01878001FEEAA001C8EBF00F1708000F5
:103A90000200200003702400FE1402000000000059
:103AA0000100310009003A001C8EBF00F170800057
:103AB0004C05020000000000D408020000000000D5
:103AC00020AEB70011718800490037001C8EBF007E
:103AD000F17080000268290083B12400FE14020006
:103AE000000000003E0039001C8EBF00F170800015
:103AF000020020000380230082100200000000006A
:103B00004C0502000000000024AEB7001C8EBF0070
:103B1000F170800002002000038023008210020068
:103B2000000000008002780001037800248EBF00AE
:103B3000D4080200000000004300A8000001780043
:103B40008101780005007800860078002A070200CD
:103B500000000000000178008101780000002000D2
:103B60000170240082100200000000001CAEB700AB
:103B7000F1708800248EBF00D4080200000000000D
:103B8000000178008101780000002000017024000D
:103B9000821002000000000020AEB7001171880002
:103BA0001C8EBF00F17080004C0502000000000078
:103BB000D4080200000000004300A90000017800C2
:103BC00081017800208EBF00117180002A07020059
:103BD0000000000020AEB70011718800040037001B
:103BE0001C0EF800200EF9001E0EF800220EF9003F
:103BF0001C8EBF00F17080004C0502000000000028
:103C0000D4080200000000004300A8000001780072
:103C1000810178001C8EBF00F17080002A0702002D
:103C2000000000001CAEB700F1708800170EAE0057
:103C30000500370000E2200001E220000300090037
:103C4000B018780023EEAA001C8EBF00F17080002F
:103C50000200200003002000FE140200000000000B
:103C60001B003200170EAE000B003700164EE200AC
:103C700009003A004300A800208EBF0011718000A7
:103C80000200200003F823002A07020000000000C1
:103C900020AEB70011718800170EAF000C0037007E
:103CA000B47080006124E10009003A004300A900DB
:103CB000208EBF00117180000200200003F8230055
:103CC0002A0702000000000020AEB7001171880032
:103CD000188EBF00D1708000020020000300200079
:103CE000FE1402000000000002003A00202EEF0047
:103CF000222EEF00208EBF00117180004F0378004C
:103D0000CF0278000000060010C0B30016EEB70026
:103D10000E0EF800180EF900100EF8001A0EF90039
:103D20001C1D0200000000000000BE000000060094
:103D3000166EEF000E0EF800180EF900100EF800C7
:103D40001A0EF9001C1D0200000000000000BE0059
:103D500000000600851F7800861F7800008EBF00D7
:103D6000117080000200200003002000FE140200F9
:103D7000000000003A003200FC8DBF00F16F8000AF
:103D800002708000137080000E0902000000000025
:103D90008002780001037800050078008600780032
:103DA0000200200003002000FE14020000000000BA
:103DB0000D003900FC8DBF00F16F800002708000A3
:103DC000137080000E0902000000000080027800DD
:103DD000010378007570880086708800841E0200D8
:103DE000000000000C003700FC8DBF00F16F800068
:103DF00002708000137080000E09020000000000B5
:103E00008002780001037800757088008670880051
:103E1000981E02000000000004AEB7003170880058
:103E2000048EBF003170800002708000137080002B
:103E300082100200000000004300A800000178008A
:103E400081017800FC8DBF00F16F80002A0702001D
:103E5000000000000000BE00010037000000370035
:103E60004F037800CF02780000000600851F78001D
:103E7000861F7800008EBF0011708000B2A32A0058
:103E800083FB230082100200000000004C050200AA
:103E900000000000FDEDB700FE0DA900000EF800C7
:103EA000040EF900020EF800060EF900008EBF00A5
:103EB000117080000200200003002000FE140200A8
:103EC000000000000B003900FE0DA80004002000D7
:103ED000E36F8000C819DE0003405200FDEDB7001B
:103EE00040E0200041E0200003000900B018780005
:103EF00007EEAA00082EEF000A2EEF00FDCDBF004E
:103F00000000FB00F007B000FCEDB700FC0DAE00B8
:103F10000600370085E020006280420080027800C1
:103F2000154278000448B30084429800C1DF2000A5
:103F30009150D300FCEDA900B5E02000FC8DBF003E
:103F400080429800048EBF0031708000B2A32A0026
:103F500083FB230082100200000000008002780032
:103F600001037800FDCDBF000000FB00E006020069
:103F7000000000004300A8000001780081017800E3
:103F800005007800860078002A0702000000000083
:103F900004AEB700317088006088BF001143800014
:103FA0002270800033708000821002000000000048
:103FB00080027800010378004300A9000500780022
:103FC0008600780022438000334380002A070200E5
:103FD000000000000CAEB700717088000C8EBF00AE
:103FE00071708000227080003370800082100200A7
:103FF0000000000080027800010378004300A9005F
:10400000050078008600780042438000534380001A
:104010002A070200000000000CAEB7007170880093
:104020000C8EBF00717080002270800033708000A1
:104030008210020000000000800278000103780076
:104040004300A900050078008600780062438000E4
:10405000734380002A070200000000000CAEB70086
:10406000717088000C8EBF0071708000227080001B
:10407000337080008210020000000000800278008F
:10408000010378004300A90005007800860078004D
:1040900082438000934380002A0702000000000052
:1040A0000CAEB700717088000C8EBF00717080007C
:1040B0002270800033708000821002000000000037
:1040C00080027800010378004300A9000500780011
:1040D00086007800A2438000B34380002A070200D4
:1040E000000000000CAEB70071708800048EBF00A5
:1040F0003170800062708000737080008210020056
:10410000000000004300A900000178008101780050
:104110000000200001F823002A0702000000000030
:104120000001780081017800088EBF005170800086
:10413000821002000000000008AEB7005170880035
:10414000FE0DAE00080037000000200001F823003B
:1041500042708000537080000E09020000000000D1
:1041600008AEB70051708800088EBF005170800003
:104170004F037800CF02780000000600851F78000A
:10418000861F7800871F7800881F7800F08DBF0099
:10419000916F80000200200003002000FE14020046
:1041A0000000000056003900F40DF800FC0DF90085
:1041B000F60DF800FE0DF900002EEF0004F82300C4
:1041C00014708800AA1E020000000000800378001E
:1041D00001047800070078008800780002002000C1
:1041E00003002000FE1402000000000044003A001A
:1041F000F40DF800FC0DF900F60DF800FE0DF900C5
:10420000002EEF000400240014708800AA1E020093
:1042100000000000800378000104780007007800A7
:10422000880078000200200003002000FE14020035
:104230000000000018003A00856F8000966F800033
:1042400006F0A200C5758800D675880066150200C4
:10425000000000008002780001037800050078006B
:1042600086007800A26F8000B36F80008210020089
:1042700000000000800278000103780005708800CB
:1042800016708800361F0200000000000000BE000B
:104290006100370019003700856F8000966F80003D
:1042A00006F0A200C5758800D67588006615020064
:1042B000000000008002780001037800050078000B
:1042C00086007800A26F8000B36F80008210020029
:1042D000000000008002780001037800057088006B
:1042E00016708800361F0200000000000000BE00AB
:1042F00001F0A2000000BE00470037004600370072
:10430000F08DBF00916F80000200200003002000AC
:10431000FE1402000000000016003900F40DF80041
:10432000FC0DF900F60DF800FE0DF900002EEF006F
:1043300004F8230014708800AA1E02000000000088
:104340008003780001047800070078008800780076
:104350000200200003002000FE1402000000000004
:104360000400320000002000010020002A00370075
:1043700029003700F08DBF00916F800002002000FF
:1043800003002000FE1402000000000008003A00B4
:10439000F48DBF00B16F80000200200003002000F8
:1043A000FE140200000000000100310017003A0076
:1043B000F00DF800B80EF900F20DF800BA0EF90091
:1043C00066150200000000008002780001037800FA
:1043D0000500780086007800A26F8000B36F80002F
:1043E00082100200000000008002780001037800C3
:1043F0000570880016708800361F0200000000005B
:104400000000BE0004003700030037000000200059
:1044100001002000000037004F047800CF0378002F
:104420004F037800CF02780000000600851F780057
:10443000861F7800F02DEF00846F80006320E1007C
:1044400019003D00F22DEF00946F80006320E10021
:1044500013003D00846F80006C20B800800278005B
:10446000946F80006420B8000500400004B1200073
:1044700084024000846F80006C23B800946F800039
:104480006420B8000600400044B32000040040004F
:10449000B01A7800B01A7800F22DEC00EAFF37006D
:1044A000F02DEC00E4FF3700F216020000000000DF
:1044B000E0ADB700116F8800F02DEF00846F800031
:1044C0006320E10019003D00F22DEF00946F8000A1
:1044D0006320E10013003D00846F80006C20B80071
:1044E00080027800946F80006420B80005004000CE
:1044F00004B1200084024000846F80006C23B80067
:10450000946F80006420B8000600400044B320008F
:1045100004004000B01A7800B01A7800F22DEC00C8
:10452000EAFF3700F02DEC00E4FF3700F22DEF003A
:10453000946F80006320E1000C003D00946F8000C8
:104540006420B80004B1200084024000946F800011
:104550006420B80084B5200004004000B01A780040
:10456000B01A7800F22DEC00F1FF3700F2160200CD
:1045700000000000E4ADB700316F8800E48DBF009B
:10458000316F8000026F8000136F80000E090200FF
:104590000000000064ABB700315B8800F02DEF0035
:1045A000846F80006320E10019003D00F22DEF00D0
:1045B000946F80006320E10013003D00846F800051
:1045C0006C20B80080027800946F80006420B800EE
:1045D0000500400004B1200084024000846F800088
:1045E0006C23B800946F80006420B800060040007F
:1045F00044B3200004004000B01A7800B01A7800DC
:10460000F22DEC00EAFF3700F02DEC00E4FF37005C
:10461000F22DEF00946F80006320E1000C003D005C
:10462000946F80006420B800C4B120008402400070
:10463000946F80006420B80084B52000040040001E
:10464000B01A7800B01A7800F22DEC00F1FF3700B4
:10465000F216020000000000E8ADB700516F8800BC
:10466000E88DBF00516F8000026F8000136F8000E3
:104670000E0902000000000068ABB700515B880023
:10468000F02DEF00846F80006320E10019003D00F1
:10469000F22DEF00946F80006320E10013003D00D5
:1046A000846F80006C20B80080027800946F8000D6
:1046B0006420B8000500400004B1200084024000DE
:1046C000846F80006C23B800946F80006420B80071
:1046D0000600400044B3200004004000B01A7800F7
:1046E000B01A7800F22DEC00EAFF3700F02DEC0054
:1046F000E4FF3700F22DEF00946F80006320E100AB
:104700000C003D00946F80006420B80084B220004B
:1047100084024000946F80006420B80084B52000BB
:1047200004004000B01A7800B01A7800F22DEC00B6
:10473000F1FF3700F216020000000000ECADB700F8
:10474000716F8800EC8DBF00716F8000026F800078
:10475000136F80000E090200000000006CABB70070
:10476000715B88004F037800CF02780000000600DC
:10477000851F7800C500200005000900B51F7800DE
:1047800044002000346E880024002000746E8800ED
:10479000CA2DEF00CA8DBF00746E80000020E100BA
:1047A00039003500C82DEF00C88DBF00746E800041
:1047B0000020E10032003500D02DEF00D22DEF00B7
:1047C000CC2DEF00CC8DBF00346E80000020E100C6
:1047D0001E003400646E80006820B80080027800FB
:1047E00064A2200004804200C4002000301A780037
:1047F000301A7800C88DBF00CA0DB400E006020070
:10480000000000000004BE00866F8800976F8800DB
:10481000A86F8800B96F8800BE2002000000000069
:104820004300A9000001780081017800D08DBF000D
:10483000916E80002A07020000000000D0ADB70092
:10484000916E8800CC2DEC00DEFF3700446E8000B6
:104850006C20B80080027800546E80006420B8009C
:104860000500400044B320008402400004DD200025
:10487000B41A7800B41A7800C82DEC00CAFF3700CB
:10488000CA2DEC00C3FF3700C68DBF00E006020052
:104890000000000010ABB70091588800C82DEF0051
:1048A000C88DBF00346E80000020E1003C00340061
:1048B000D02DEF00D22DEF00CC2DEF00CC8DBF001E
:1048C000346E80000020E1002C003400646E800013
:1048D0006820B800800278006480420064A2200052
:1048E00004004000A4002000301A7800301A78003C
:1048F000646E80006820B8008003780064A2200005
:104900000480430004012000301A7800301A780037
:10491000C88DBF00E0060200000000000005BE00D8
:10492000886F8800996F8800AA6F8800BB6F880025
:10493000BE20020000000000000178008101780024
:104940000500780086007800821002000000000058
:104950004300A9000001780081017800D08DBF00DC
:10496000916E80002A07020000000000D0ADB70061
:10497000916E8800CC2DEC00D0FF3700446E800093
:104980006420B80084B520008402400004DD2000CB
:10499000B41A7800B41A7800C82DEC00C0FF3700B4
:1049A00016220200000000006C0BF800DC0DF9007C
:1049B0006E0BF800DE0DF900680BF800D80DF90059
:1049C0006A0BF800DA0DF900640BF800D40DF90059
:1049D000660BF800D60DF900C48DBF00E00602009A
:1049E00000000000D0ADB700916E8800D88DBF00E8
:1049F000D16E8000826E8000936E80008210020073
:104A0000000000004300A900000178008101780047
:104A1000D48DBF00B16E80002A07020000000000A4
:104A20008002780001037800DC8DBF00F16E800009
:104A3000826E8000936E80008210020000000000F1
:104A4000800378000104780007007800880078006F
:104A5000826E8000936E80008210020000000000D1
:104A60004300A9000001780081017800050078006A
:104A7000860078002A07020000000000D0ADB700D1
:104A8000916E8800D08DBF00916E8000650120007E
:104A900005000900CF127800CF0278000000060060
:104AA000851F7800861F780079CDBF00C4EDB70060
:104AB0007ACDBF00C5EDB700C5CDBF000000FB003B
:104AC000C6ADB700C6CDBF000BE0B7008042EB001B
:104AD000C4CDBF000000FB000500400070ACB70073
:104AE0007BCDBF00C4EDB7007CCDBF00C5EDB700E6
:104AF000C5CDBF000000FB00C6ADB700C6CDBF00EE
:104B00000BE0B7008042EB00C4CDBF000000FB000B
:104B10000500400072ACB7007DCDBF00C4EDB7000A
:104B20007ECDBF00C5EDB700C5CDBF000000FB00C6
:104B3000C6ADB700C6CDBF000BE0B7008042EB00AA
:104B4000C4CDBF000000FB000500400074ACB700FE
:104B50007FCDBF00C4EDB70080CDBF00C5EDB7006D
:104B6000C5CDBF000000FB00C6ADB700C6CDBF007D
:104B70000BE0B7008042EB00C4CDBF000000FB009B
:104B80000500400076ACB70081CDBF00C4EDB70092
:104B900082CDBF00C5EDB700C5CDBF000000FB0052
:104BA000C6ADB700C6CDBF000BE0B7008042EB003A
:104BB000C4CDBF000000FB000500400078ACB7008A
:104BC00083CDBF00C4EDB70084CDBF00C5EDB700F5
:104BD000C5CDBF000000FB00C6ADB700C6CDBF000D
:104BE0000BE0B7008042EB00C4CDBF000000FB002B
:104BF000050040007AACB70085CDBF00C4EDB7001A
:104C000086CDBF00C5EDB700C5CDBF000000FB00DD
:104C1000C6ADB700C6CDBF000BE0B7008042EB00C9
:104C2000C4CDBF000000FB00050040007CACB70015
:104C300087CDBF00C4EDB70088CDBF00C5EDB7007C
:104C4000C5CDBF000000FB00C6ADB700C6CDBF009C
:104C50000BE0B7008042EB00C4CDBF000000FB00BA
:104C6000050040007EACB70089CDBF00C4EDB700A1
:104C70008ACDBF00C5EDB700C5CDBF000000FB0069
:104C8000C6ADB700C6CDBF000BE0B7008042EB0059
:104C9000C4CDBF000000FB000500400080ACB700A1
:104CA000C82DEF00446E80006420E1000B003D0041
:104CB000A5DC200005007800C80DB4008002780053
:104CC000446E80007503420064D720000400430056
:104CD000904A7800C82DEC00F2FF3700CA0DF800AA
:104CE000820CF900CC0DF800840CF900C82DEF00FF
:104CF000446E80006420E1000B003D00A5DC200034
:104D000005007800C80DB40080027800446E800071
:104D10007903420064D7200004004300904A7800E1
:104D2000C82DEC00F2FF3700CA0DF800820CF90024
:104D3000CC0DF800840CF900C82DEF00446E800003
:104D40006420E1000B003D00A5DC20000500780098
:104D5000C80DB40080027800446E80007D034200DC
:104D600064D7200004004300904A7800C82DEC006E
:104D7000F2FF3700CA0DF800820CF900CC0DF800E4
:104D8000840CF9004F037800CF0278000000060081
:104D90000FF52000F0FF200020A0B7000000000069
:104DA00081E0A8004440A80000002000A001880085
:104DB0004427EF00CC42A90017E2A80017A2A800E0
:104DC00016C2A8001762A90016E2A8001702A900DF
:104DD0001722A8001742A90004052000D41088005B
:104DE000CD22A90007E2A80007A2A80006C2A800D9
:104DF0000762A90006E2A8000702A9000722A8008E
:104E00000742A9000A22EF00D409200024108800DC
:104E1000256AEF00026BEF0020C0B30003EBB70080
:104E2000D4CC2C00445D8800C4DC2B00545D880089
:104E3000142CEF00162CEF00041A2400C460880024
:104E4000A40F2000E46288005E2CEF00840C200098
:104E500004638800622CEF00B76DEF0030C0B30030
:104E6000B8EDB700E024EF00E224EF00A600370021
:104E7000800208005A00000080800800607C8800E2
:104E80005939E00097A63A00C41D1E003C5E500050
:104E9000633D1A00FE753E00187231003F0F8C0012
:104EA00055A6820095D93D00E6D7FF00E5C99000E0
:104EB000C7BDCE00401247000CB742003E9F6D00B8
:104EC00094C325006D7A3E00DA320E00BE9F3E008C
:104ED000B63E6D00AA28C200B4FAEF003E89E00099
:104EE00029E5A40030243F00A38EFA00E37ED80019
:104EF000553FC600048A7800ABB283003FCDED0079
:104F0000A6D608006BAC3F00FDD18400FFBDBF00FA
:104F1000CE3FA10035FAFE00422EE6003F99470041
:104F20008ABF0000000040004008000000084C005C
:104F3000F3BA3D002B9D5F00BF4008000000180041
:104F400005BD9A004A1AA600C2BFB400B92A1D00C6
:104F500007D9F5003F02EB008967DB00F608C000C7
:104F600040070000003940002BF293008B43C5003E
:104F7000783F4F00E05DA20084A9CA00BF388F00CF
:104F8000ACEFB500D2F13F00D83FDF00BC304C00A1
:104F9000FEBF3700BFFD3E003DAA9300C0EE5000AB
:104FA000B340000000803F000A8DB100C0EE500009
:104FB000B3404000060000006BF03F005C0A580060
:104FC000F63B8F0000C03C008B28AC003CBEF600D6
:104FD0003FD2D50044168C0015D7BF0069005A0097
:104FE0002E1B8700993F9A005FAD4B0091E40100B2
:104FF000C05D11002F92E40081FB3F0038DA910080
:10500000809DC500E0BF6F0012C0B400C309AB00B3
:105010003F6BC100034EC100B545BF000A89340093
:105020003E7C7900B5403F0002B34100338C9E00C6
:1050300041000000803F1B00E4354100A4DBE70095
:1050400041338C009E41F7004005FF00005FEF00F8
:105050003FF3A300E2F7D700FF014000C0B4FF0018
:10506000053C5800FC3F3B00D3C0B500BA8CE200C1
:105070003F39D300C73D410079B23F00870D3C0066
:1050800050D0AF00623F30004B8DA20082AA0400D6
:105090004009A000404A050076034000EC9E37001E
:1050A00088A64400F03F8F00128D29009A5BC7004C
:1050B0003F0EE000807CA100D8863F00294BFB001A
:1050C00095C237001A3F3000312E30003100000009
:1050D0000201E8006110E10004003A009101BA0009
:1050E0003182BA0006C0BF00000006006210E10075
:1050F00002003A0007C0BF000000060008C0BF0061
:105100000001EB0000000600060020000000200067
:105110009001880080732200800078000001EB007D
:1051200068280200000000000BE0B70068280200B9
:10513000000000000AE0B7000500E000190032009E
:1051400005F0A600070037006828020000000000F4
:105150000DE0B70068280200000000000CE0B70076
:1051600005F0A10005E0A6000800370005E0A10059
:105170008502E900682802000000000080437800F2
:1051800005800900075B7800E5FF3700682802000A
:1051900000000000005B78008502E900FBFF3A0098
:1051A000DFFF3700BB6DEF00E62CEF008411240019
:1051B00044678800EA2CEF00040824006467880034
:1051C000EE2CEF00F02CEF00F22CEF00040F240087
:1051D000A4678800F62CEF0004082400C467880048
:1051E000FA2CEF00FC2CEF0064662600F4678800C0
:1051F000640D240004688800022DEF0004082400D8
:1052000024688800062DEF00082DEF000A2DEF001E
:10521000846224006468880004002E00746888009A
:10522000B462240084688800040028009468880020
:10523000B4632400A468880004802000B468880057
:1052400004632400C468880004002800D46888002F
:10525000B4632400E468880004002200F468880035
:10526000B4642400046988000440220014698800A2
:105270002464240024698800040022003469880022
:10528000B46424004469880004002C005469880038
:10529000A465240064698800A40020007469880063
:1052A00044012000846988009401200094698800EA
:1052B000C8E2A900CCE2A9003A0302000000000005
:1052C00066030200000000008204020000000000EB
:1052D000803E2000560302000000000004F0290078
:1052E000241A880004472800041A8800E024EF00EC
:1052F00004002300142788004223EF009A20A8000E
:105300007805020000000000784DE2000200320043
:105310000040EB0000003700C982A900CD82A80040
:10532000C46DEF0010C0B300C5EDB70086110200D8
:10533000000000001E1C02000000000016ACB700B8
:10534000C1608800C982A900CD82A900E40BF800E1
:10535000C00DF900C08DBF00F00FB200BDEDB70069
:10536000C00DF800C20DF90000F02F00C22DB600EC
:105370000160EF00C3CDBF00BCEDB700DC0BF8004F
:10538000C00DF900C08DBF00F00FB200BDEDB70039
:10539000C00DF800C20DF90000F02F00C22DB600BC
:1053A0000160EF00C3CDBF00BCEDB700BDCDBF00B5
:1053B00044EDB700BCCDBF0043EDB700E00BF800F3
:1053C000C00DF900C08DBF00F00FB200BDEDB700F9
:1053D000C00DF800C20DF90000F02F00C22DB6007C
:1053E0000160EF00C3CDBF00BCEDB700E80BF800D3
:1053F000C00DF900C08DBF00F00FB200BDEDB700C9
:10540000C00DF800C20DF90000F02F00C22DB6004B
:105410000160EF00C3CDBF00BCEDB700C8A2A9007A
:10542000CCA2A800C46DEF00C56DEF00861102008C
:1054300000000000C8A2A900CCA2A900E40BF8005B
:10544000C00DF900C08DBF00F00FB200BDEDB70078
:10545000C00DF800C20DF90000F02F00C22DB600FB
:105460000160EF00C3CDBF00BCEDB700BDCDBF00F4
:105470004AEDB700BCCDBF0049EDB700DC0BF8002A
:10548000C00DF900C08DBF00F00FB200BDEDB70038
:10549000C00DF800C20DF90000F02F00C22DB600BB
:1054A0000160EF00C3CDBF00BCEDB700BDCDBF00B4
:1054B00048EDB700BCCDBF0047EDB700E00BF800EA
:1054C000C00DF900C08DBF00F00FB200BDEDB700F8
:1054D000C00DF800C20DF90000F02F00C22DB6007B
:1054E0000160EF00C3CDBF00BCEDB700BDCDBF0074
:1054F0004CEDB700BCCDBF004BEDB700E80BF8009A
:10550000C00DF900C08DBF00F00FB200BDEDB700B7
:10551000C00DF800C20DF90000F02F00C22DB6003A
:105520000160EF00C3CDBF00BCEDB700BDCDBF0033
:105530004EEDB700BCCDBF004DEDB700C942A9008C
:10554000CD42A800C46DEF0030C0B300C5EDB70078
:105550008611020000000000C942A900CD42A90046
:10556000E40BF800C00DF900C08DBF00F00FB200D1
:10557000BDEDB700C00DF800C20DF90000F02F001E
:10558000C22DB6000160EF00C3CDBF00BCEDB70077
:10559000BDCDBF0050EDB700BCCDBF004FEDB70093
:1055A000DC0BF800C00DF900C08DBF00F00FB20099
:1055B000BDEDB700C00DF800C20DF90000F02F00DE
:1055C000C22DB6000160EF00C3CDBF00BCEDB70037
:1055D000BDCDBF0054EDB700BCCDBF0053EDB7004B
:1055E000E00BF800C00DF900C08DBF00F00FB20055
:1055F000BDEDB700C00DF800C20DF90000F02F009E
:10560000C22DB6000160EF00C3CDBF00BCEDB700F6
:10561000BDCDBF0056EDB700BCCDBF0055EDB70006
:10562000C00DF800C40DF900B8230200000000000E
:10563000DAAAB700E1568800E80BF800C00DF900BF
:10564000C08DBF00F00FB200BDEDB700C00DF80077
:10565000C20DF90000F02F00C22DB6000160EF006E
:10566000C3CDBF00BCEDB700BDCDBF0058EDB70046
:10567000BCCDBF0057EDB700DA8ABF00E15680000D
:105680004C0502000000000035EDB700DA8ABF00CB
:10569000E15680004C05020000000000E006020018
:1056A000000000004300A80000017800810178009C
:1056B000DA8ABF00E15680002A07020000000000DD
:1056C00080027800010378000500780086007800E9
:1056D00002002000832C2400821002000000000041
:1056E0004C0502000000000036EDB700160CF80073
:1056F000940AF900180CF800960AF900948ABF0081
:10570000B15480000200200003002000FE140200BB
:105710000000000004003900942AEF00962AEF00F0
:10572000162CEF00182CEF00168CBF00C160800013
:105730004C0502000000000039EDB700168CBF00D8
:10574000C16080004C05020000000000E00602007D
:10575000000000004300A8000001780081017800EB
:10576000168CBF00C16080002A0702000000000004
:105770008002780001037800050078008600780038
:1057800002002000832C2400821002000000000090
:105790004C050200000000003AEDB700BBCDBF0091
:1057A0000000FB000000E00005003A00C8E2A9008C
:1057B000CCE2A90010C0B300BBEDB7000300370076
:1057C000C8E2A900CCE2A800BB6DEF00C46B80006A
:1057D0006124E10016003A0050250200000000009C
:1057E000784DE200020032000040EB00000037007C
:1057F000BA6DEF00BACDBF000000FB00140420001A
:105800000020E1000A003400BACDBF000000FB0018
:1058100064D72000040040001004E00002003200C1
:105820000040EB0000003700BA6DEC00F1FF3700DC
:08583000B9FE3700FFFF37004D
:0200000401F009
:100000000F0000FF000000FF030000FFE30000FFFF
:10001000FA0000FF5F0000FFF40000FF030000FF94
:04002000DF0000FFFE
:00000001FF
;PIC24FV32KA302
;CRC=B7AB  CREATED="06-May-17 09:24"
