:08000000101D040000000000C7
:0400EC0038020000D6
:10040000F0FF2F001862AE00FEFF37001922AF0088
:10041000040037001742AE00020037001902AE0098
:10042000F8FF37001822AE00FEFF37001082BF0031
:1004300018C2AF0018C2A9001782A8000000060069
:10044000F0FF2F001862AE00080037001842AE001F
:10045000060037001742AE00020037001902AE0056
:1004600002003700911088001782A80000000600E3
:100470004200F8003600F8003200F800801F7800D3
:10048000200020000C000900B01F780018A2AF0067
:1004900004003700A36DEF001842AE0001003700E2
:1004A000A3EDA800A3CDBF000160EF00A36DEC0099
:1004B00041EFB700047A80004822DE0003082000E4
:1004C000041CE1002F00390011002000811F78007A
:1004D000CF007800000202000000000040EFB700EB
:1004E000047A80004822DE006124E10003003A0023
:1004F00040CFBF00AFEAB700616DEF00047A800023
:100500004822DE006224E10007003A0074558000B2
:100510004822DE0023D6200083024200408FBF0025
:1005200080429800616DEF00047A80004822DE006E
:100530006124E10003003A0040CFBF00AFEAB700FA
:1005400010003700047A80004822DE006224E100B7
:100550000C003900047A80004822DE0004C8B20092
:1005600008003200AFCABF00AF6AEC000080FB0099
:1005700024D6200084024000408FBF0080429800B3
:10058000616DEF00047A80004822DE00030820003D
:10059000041CE10001003E00020037000040EB00B7
:1005A0000100370010C0B30080427800146D800055
:1005B0006124E10002003A000040EB000100370036
:1005C00010C0B30000C062000004E0000900320067
:1005D00061CDBF00616DEC000080FB0004D2200003
:1005E000040040009042780085407800200202001C
:1005F00000000000047A80004822DE00030820008A
:10060000041CE10001003E00020037000040EB0046
:100610000100370010C0B30080427800146D8000E4
:100620006124E100020032000040EB0001003700CD
:1006300010C0B30000C062000004E00004003200FB
:1006400091C3B3002002020000000000A26DEF0081
:100650008A20A900A00120000C0009004F1078009A
:100660004F0078003200F9003600F9004200F9002E
:1006700000400600851F7800B82DEF00C46D800093
:10068000130420000418E1000600340004D2200006
:10069000C36D80008482410080CAEB00B82DEC005D
:1006A000F6FF3700CF027800000006000000E000EF
:1006B0004220AF00040037007B3E0900000000002C
:1006C0000000E900FCFF3A0000000600C982A90012
:1006D000CD82A900C8A2A900CCA2A900C962A90024
:1006E000CD62A800C942A900CD42A900C8A2A900B4
:1006F000CCA2A800A00F20005603020000000000BA
:10070000C8A2A900CCA2A900C982A900CD82A900D3
:10071000A00F20005603020000000000C982A900BB
:10072000CD82A900C942A900CD42A800A00F200097
:100730005603020000000000C962A900CD62A900B2
:10074000C942A900CD42A900C8A2A900CCA2A90013
:10075000A00F200056030200000000000000060069
:10076000446F80006320E10003003400446F800088
:1007700064005200E8ADB700E80DE20004003A0062
:10078000C9E2A900CDE2A900C9C2A900CDC2A90051
:10079000446F80006120E10004003A00C9E2A90032
:1007A000CDE2A800C9C2A900CDC2A900446F800053
:1007B0006220E10004003A00C9E2A900CDE2A900EC
:1007C000C9C2A900CDC2A800446F80006320E10027
:1007D00004003A00C9E2A900CDE2A800C9C2A900FC
:1007E000CDC2A80000000600F0FF2F000862AE0096
:1007F0000500370009C2AF00FEFF37001110880066
:1008000009C2AF00FEFF37000000200009E2AF0080
:100810000000E80000000600BA0DF800E80DF9003D
:10082000B0030200000000000862AE0004003700C0
:100830000622A8000622AF00FEFF370003003700A3
:100840000602A8000602AF00FEFF370021C5B30074
:10085000F40302000000000001C8B300F40302002A
:100860000000000011C0B300F4030200000000000B
:10087000F00120000602B600FDFF3A000642A80083
:100880000642AF00FEFF37007E3B0900000000007B
:10089000FF3F090000000000FF3F090000000000CA
:1008A0000862AE00040037000622A8000622AF004E
:1008B000FEFF3700030037000602A8000602AF0063
:1008C000FEFF370021C5B300F40302000000000062
:1008D000D1C8B300F4030200000000008040EB0028
:1008E000F403020000000000F00120000602B60040
:1008F000FDFF3A000642A8000642AF00FEFF3700A7
:1009000000000600BA2DEF000C04020000000000F9
:1009100014002000D46D88000C04020000000000C8
:1009200034002000D46D88000C0402000000000098
:100930007E3B090000000000FF3F090000000000AE
:10094000FF3F09000000000000000600851F78003E
:10095000C500200003000900B51F78000202B8009E
:1009600003F0A600020037000383B900010037003E
:100970000303B8004200A9008502430060844B00D5
:1009800001F0A60002003700028BB9000100370019
:10099000020BB80085024B0008844B000980B000B0
:1009A000038BB90008044B0087834C008701780053
:1009B00008017800850078000400780025012000F7
:1009C00003000900CF127800CF0278000000060073
:1009D00001E02F0083814000F1072000E080480003
:1009E000910188000500A1000500E000030032002D
:1009F000331ABA008582E900FCFF3A0000000600C5
:100A0000851F7800861F7800871F7800C02DEF00B3
:100A1000046E80006220E10019003D0025DC20000A
:100A2000046E80006220B80005004000800278005B
:100A3000046E80006223B800200020000100200026
:100A4000E26D8000F36D8000A6040200000000004B
:100A500006034000E0834800851F78008601780087
:100A60000400200025002000E8040200000000002F
:100A7000CF027800800A7800C02DEC00E4FF370038
:100A8000C28DBF00216E8000CF0378004F03780035
:100A9000CF02780000000600000178008101780094
:100AA000014078000080FD0000F0A0008180D200AD
:100AB0000180FD008180FB00E4082000814052009D
:100AC000060032000000E000040032004200A900ED
:100AD0000080D3008100E900FAFF3A0003F0A6008D
:100AE000020037000000EA000000370000000600A6
:100AF000BC2DEF00BE2DEF0000050200000000003D
:100B0000D2ACB700A166880014002000E46D880014
:100B1000BE2DEF000005020000000000D6ACB700BB
:100B2000C166880024002000E46D8800BE2DEF001F
:100B30000005020000000000DAACB700E1668800A2
:100B400034002000E46D8800BE2DEF000005020097
:100B500000000000DEACB700016788004400200000
:100B6000E46D8800BE2DEF000005020000000000CB
:100B7000E2ACB7002167880054002000E46D8800D3
:100B8000BE2DEF000005020000000000E6ACB7003B
:100B90004167880064002000E46D8800BE2DEF00EE
:100BA0000005020000000000EAACB70061678800A1
:100BB00074002000E46D8800BE2DEF0000050200E7
:100BC00000000000EEACB7008167880084002000C0
:100BD000E46D8800BE2DEF0000050200000000005B
:100BE000F2ACB700A167880094002000E46D880093
:100BF000BE2DEF000005020000000000F6ACB700BB
:100C0000C1678800A4002000E46D8800BE2DEF00BD
:100C10000005020000000000FAACB700E1678800A0
:100C2000B4002000E46D8800BE2DEF000005020036
:100C300000000000FEACB70001688800C40020007E
:100C4000E46D8800BE2DEF000005020000000000EA
:100C500002ADB70021688800D4002000E46D880050
:100C6000BE2DEF00000502000000000006ADB70039
:100C700041688800E4002000E46D8800BE2DEF008C
:100C800000050200000000000AADB700616888009E
:100C9000F4002000E46D8800BE2DEF000005020086
:100CA000000000000EADB70081688800040120003C
:100CB000E46D8800BE2DEF0000050200000000007A
:100CC00012ADB700A168880014012000E46D88000F
:100CD000BE2DEF00000502000000000016ADB700B9
:100CE000C168880024012000E46D8800BE2DEF005B
:100CF00000050200000000004C050200000000009A
:100D00001AADB70034012000E46D8800BE2DEF005D
:100D100000050200000000004C0502000000000079
:100D20001CADB70044012000E46D8800BE2DEF002B
:100D300000050200000000004C0502000000000059
:100D40001EADB7000020EF0000000600851F7800F0
:100D5000861F7800E10820000000E0001200320049
:100D600000F0A700040037004200A9000080D20074
:100D70008100E900FAFF37000180FD004200A90070
:100D80008180D30000F0A1000080FD008140680058
:100D90000040B20007003700014078000170A00059
:100DA0000140B200030037000000EB008000EB00C0
:100DB000000037004F037800CF02780000000600E3
:100DC000851F7800C500200004000900B51F7800C9
:100DD0008004EB00838468000103780080027800BF
:100DE00003047800820378008180D2000180FD0036
:100DF0008180FB000100E0004E0032008381D200C0
:100E00000380FD008381FB000300E0004900320005
:100E10000000EB0003C0500003003900F047B000B1
:100E200044003100030037001048B1004100390090
:100E30004000320085007800060178000270A000B2
:100E4000F20FB200F80FB2000870A0009A01200063
:100E50008001EB000002EB00878050000801590080
:100E6000020033000400310004003A008780400093
:100E700008014900010037000400A0000A05E9004C
:100E8000070032004200A9008180D2000281D20016
:100E90004200A9000482D2008381D200EEFF370015
:100EA0000005EB000380A7000100370006003700B3
:100EB0004200A9008381D3000370A1000482D30003
:100EC0000A85D200020037000000E9001900320054
:100ED0000AF0A700050039008180D2000281D2000B
:100EE0008780500008015900090039000402E80019
:100EF00007003A008301E80005003A000000E8001E
:100F00000C003200020037000000E9000900320046
:100F10000080FD008080D30001F0A00009F0A60051
:100F200001F0A1000370A10081C0690004007800F5
:100F300003003700000020000100200000003700FF
:100F40004501200004000900CF127800CF0278008C
:100F500000000600DF6DEF00146F80006320E100E9
:100F600004003A0040C6B300DFEDB70030C0B30064
:100F7000E0EDB700146F80006120E10004003A004A
:100F800040C6B300DFEDB70030C0B300E0EDB700FE
:100F9000E20DE20004003A0040C6B300DFEDB70006
:100FA00030C0B300E0EDB700DFCDBF000160EF005F
:100FB000A606020000000000E4ADB700316F880013
:100FC000E48DBF00316F8000A299290093012400B5
:100FD000E006020000000000E4ADB700316F8800B9
:100FE000E48DBF00316F80004C050200000000005E
:100FF000DFEDB70004002000F36E8000C819DE00AA
:1010000003405200DEEDB700E20DF800E80DF900F4
:10101000B0030200000000000862AE0004003700C8
:101020000622A8000622AF00FEFF370003003700AB
:101030000602A8000602AF00FEFF370021C5B3007C
:10104000F40302000000000011C8B300F403020022
:1010500000000000DECDBF0002E0B700F403020094
:1010600000000000F00120000602B600FDFF3A007B
:101070000642A8000642AF00FEFF37000862AE003D
:10108000040037000622A8000622AF00FEFF37004A
:10109000030037000602A8000602AF00FEFF37007B
:1010A00021C5B300F40302000000000031C8B30002
:1010B000F40302000000000080C0EB00F403020013
:1010C00000000000F00120000602B600FDFF3A001B
:1010D0000642A8000642AF00FEFF37000862AE00DD
:1010E000040037000622A8000622AF00FEFF3700EA
:1010F000030037000602A8000602AF00FEFF37001B
:1011000021C5B300F403020000000000F1C8B300E1
:10111000F403020000000000E0CDBF0002E0B700D1
:10112000F403020000000000F00120000602B600F7
:10113000FDFF3A000642A8000642AF00FEFF37005E
:1011400000000600F0FF2F000862AE00110037001B
:10115000321080007F016100FDFF3A000662A800A6
:101160000100A70006A2A9000100A60006A2A8008F
:10117000321080007F016100FDFF3A000682A80066
:101180000822AE00FEFF37000082BF0008C2AF0099
:1011900008C2A90000000600DE8DBF002080B2005A
:1011A000070032003080B200620032002080B200BE
:1011B000BD0032007080B2001801320074013700A7
:1011C0000862AE00040037000622A8000622AF0025
:1011D000FEFF3700030037000602A8000602AF003A
:1011E000FEFF370021C5B300F40302000000000039
:1011F00081C9B300F403020000000000F0012000E8
:101200000602B600FDFF3A000642A8000642AF0003
:10121000FEFF37000862AE00040037000622A80077
:101220000622AF00FEFF3700030037000602A800C9
:101230000602AF00FEFF370031C5B300F403020021
:101240000000000001002000811F7800CF0078001E
:10125000A208020000000000A0EAB700A16AEF00A7
:10126000F00120000602B600FDFF3A000642A80089
:101270000642AF00FEFF37000862AE0004003700F0
:101280000622A8000622AF00FEFF37000300370049
:101290000602A8000602AF00FEFF370021C5B3001A
:1012A000F40302000000000091C9B300F40302003F
:1012B00000000000F00120000602B600FDFF3A0029
:1012C0000642A8000642AF00FEFF37000862AE00EB
:1012D000040037000622A8000622AF00FEFF3700F8
:1012E000030037000602A8000602AF00FEFF370029
:1012F00031C5B300F403020000000000010020002B
:10130000811F7800CF007800A208020000000000D2
:10131000A2EAB700A36AEF00F00120000602B600BF
:10132000FDFF3A000642A8000642AF00FEFF37006C
:10133000180137000862AE00040037000622A8003A
:101340000622AF00FEFF3700030037000602A800A8
:101350000602AF00FEFF370021C5B300F403020010
:101360000000000061C9B300F403020000000000A7
:10137000F00120000602B600FDFF3A000642A80078
:101380000642AF00FEFF37000862AE0004003700DF
:101390000622A8000622AF00FEFF37000300370038
:1013A0000602A8000602AF00FEFF370031C5B300F9
:1013B000F40302000000000001002000811F7800FB
:1013C000CF007800A208020000000000A0EAB700E9
:1013D000A16AEF00F00120000602B600FDFF3A000E
:1013E0000642A8000642AF00FEFF37000862AE00CA
:1013F000040037000622A8000622AF00FEFF3700D7
:10140000030037000602A8000602AF00FEFF370007
:1014100021C5B300F40302000000000071C9B3004D
:10142000F403020000000000F00120000602B600F4
:10143000FDFF3A000642A8000642AF00FEFF37005B
:101440000862AE00040037000622A8000622AF00A2
:10145000FEFF3700030037000602A8000602AF00B7
:10146000FEFF370031C5B300F403020000000000A6
:1014700001002000811F7800CF007800A208020040
:1014800000000000A2EAB700A36AEF00F00120000C
:101490000602B600FDFF3A000642A8000642AF0071
:1014A000FEFF3700BB0037000862AE0004003700C3
:1014B0000622A8000622AF00FEFF37000300370017
:1014C0000602A8000602AF00FEFF370021C5B300E8
:1014D000F403020000000000A1C9B300F4030200FD
:1014E00000000000F00120000602B600FDFF3A00F7
:1014F0000642A8000642AF00FEFF37000862AE00B9
:10150000040037000622A8000622AF00FEFF3700C5
:10151000030037000602A8000602AF00FEFF3700F6
:1015200031C5B300F40302000000000001002000F8
:10153000811F7800CF007800A208020000000000A0
:10154000A0EAB700A16AEF00F00120000602B60091
:10155000FDFF3A000642A8000642AF00FEFF37003A
:101560000862AE00040037000622A8000622AF0081
:10157000FEFF3700030037000602A8000602AF0096
:10158000FEFF370021C5B300F40302000000000095
:10159000B1C9B300F403020000000000F001200014
:1015A0000602B600FDFF3A000642A8000642AF0060
:1015B000FEFF37000862AE00040037000622A800D4
:1015C0000622AF00FEFF3700030037000602A80026
:1015D0000602AF00FEFF370031C5B300F40302007E
:1015E0000000000001002000811F7800CF0078007B
:1015F000A208020000000000A2EAB700A36AEF0000
:10160000F00120000602B600FDFF3A000642A800E5
:101610000642AF00FEFF37005E0037000862AE00F2
:10162000040037000622A8000622AF00FEFF3700A4
:10163000030037000602A8000602AF00FEFF3700D5
:1016400021C5B300F40302000000000041C9B3004B
:10165000F403020000000000F00120000602B600C2
:10166000FDFF3A000642A8000642AF00FEFF370029
:101670000862AE00040037000622A8000622AF0070
:10168000FEFF3700030037000602A8000602AF0085
:10169000FEFF370031C5B300F40302000000000074
:1016A00001002000811F7800CF007800A20802000E
:1016B00000000000A0EAB700A16AEF00F0012000DE
:1016C0000602B600FDFF3A000642A8000642AF003F
:1016D000FEFF37000862AE00040037000622A800B3
:1016E0000622AF00FEFF3700030037000602A80005
:1016F0000602AF00FEFF370021C5B300F40302006D
:101700000000000051C9B300F40302000000000013
:10171000F00120000602B600FDFF3A000642A800D4
:101720000642AF00FEFF37000862AE00040037003B
:101730000622A8000622AF00FEFF37000300370094
:101740000602A8000602AF00FEFF370031C5B30055
:10175000F40302000000000001002000811F780057
:10176000CF007800A208020000000000A2EAB70043
:10177000A36AEF00F00120000602B600FDFF3A0068
:101780000642A8000642AF00FEFF37000100370006
:101790000000370000000600851F7800C50020000B
:1017A00003000900B51F78000202B8000303B80067
:1017B0004200A9008502430060844B00020BB80080
:1017C00085024B0008844B00030BB800080443005B
:1017D0000780B00087017800080178008500780054
:1017E000040078002501200003000900CF127800D2
:1017F000CF02780000000600851F7800861F780061
:10180000D7CDBF00004278008401FB00136F880031
:10181000AA070200000000000862AE0004003700C2
:101820000622A8000622AF00FEFF370003003700A3
:101830000602A8000602AF00FEFF370021C5B30074
:10184000F40302000000000001C8B300F40302002A
:101850000000000031C0B300F403020000000000EB
:10186000F00120000602B600FDFF3A000642A80083
:101870000642AF00FEFF3700A00020005603020022
:1018800000000000D82DEF00C46E8000833E2000D1
:101890000418E100340034000862AE000400370090
:1018A0000622A8000622AF00FEFF37000300370023
:1018B0000602A8000602AF00FEFF370021C5B300F4
:1018C000F40302000000000031C9B300F403020079
:1018D00000000000F00120000602B600FDFF3A0003
:1018E0000642A8000642AF00FEFF37000862AE00C5
:1018F000040037000622A8000622AF00FEFF3700D2
:10190000030037000602A8000602AF00FEFF370002
:1019100031C5B300F4030200000000000100200004
:10192000811F7800CF007800A208020000000000AC
:10193000DAEDB700DB6DEF00F00120000602B60023
:10194000FDFF3A000642A8000642AF00FEFF370046
:10195000D46E80007120E10001003A0002003700DF
:10196000D82DEC00C8FF3700C46E8000E33D200096
:101970000418E10002003D0000E0EF00A000370085
:101980000862AE00040037000622A8000622AF005D
:10199000FEFF3700030037000602A8000602AF0072
:1019A000FEFF370021C5B300F40302000000000071
:1019B00001C8B300F40302000000000011C0B3002E
:1019C000F403020000000000F00120000602B6004F
:1019D000FDFF3A000642A8000642AF00FEFF3700B6
:1019E0007E3B090000000000FF3F090000000000EE
:1019F000FF3F090000000000D7CDBF000042780083
:101A00008401FB00036F880023002000F36E880030
:101A1000CC080200000000001455800003102000D4
:101A200003A0B9000455800004004000A6AAB70036
:101A3000D7CDBF00004278008401FB00036F88000F
:101A400013002000F36E8800CC08020000000000A4
:101A5000145580000310200003A0B9000455800035
:101A600004004000A4AAB700D7CDBF000042780010
:101A70008401FB00036F880043002000F36E8800A0
:101A8000CC08020000000000145580000310200064
:101A900003A0B9000455800004004000AAAAB700C2
:101AA000D7CDBF00004278008401FB00036F88009F
:101AB00033002000F36E8800CC0802000000000014
:101AC000145580000310200003A0B90004558000C5
:101AD00004004000A8AAB700D6CDBF000000FB005C
:101AE0000000E00002003A0014002000E46E8800CC
:101AF000D6CDBF000000FB006100E10002003A000B
:101B000044002000E46E8800D6CDBF000000FB003A
:101B10006200E10002003A0004012000E46E880047
:101B2000D6CDBF000000FB006300E10002003A00D8
:101B300004042000E46E8800255580000600200083
:101B4000DC8DBF00010020000001780081017800D9
:101B50000500780086007800CC0B02000000000031
:101B6000C8ABB700515E88003555800006002000E4
:101B7000DC8DBF00010020000001780081017800A9
:101B80000500780086007800CC0B02000000000001
:101B9000D0ABB700915E880045558000060020005C
:101BA000DC8DBF0001002000000178008101780079
:101BB0000500780086007800CC0B020000000000D1
:101BC000CCABB700715E8800555580000600200040
:101BD000DC8DBF0001002000000178008101780049
:101BE0000500780086007800CC0B020000000000A1
:101BF000D4ABB700B15E8800D6CDBF0000E0B7001F
:101C00004F037800CF0278000000060001748000C6
:101C1000F101B200F20F20000201E8007200B200F0
:101C20004511DD0082807000411A8800A00020006C
:101C30005603020000000000842EEF00862EEF0005
:101C400034748000030220000418E1000B0034000B
:101C50009E000900000000004003A9004023A800E6
:101C60004003AE00FEFF37000083BF004200DE00ED
:101C7000842EB400862EEC00F1FF3700848EBF0066
:101C80004500DE0082AEB700820EF8000000F900C9
:101C900000000600851F7800861F7800E1082000FC
:101CA0000600A10000F0A600030037000600A00017
:101CB0000000EA00000037000000E00014003200DD
:101CC00000F0A700040037004200A9000080D20005
:101CD0008100E900FAFF37000180FD004200A90001
:101CE0008180D30000F0A1000080FD0081406800E9
:101CF0000040B2000600A70001F0A0000700370076
:101D0000014078000170A0000140B20003003700DC
:101D10000000EB008000EB00000037004F0378006C
:101D2000CF02780000000600851F7800C500200063
:101D300004000900B51F78000002780081027800D5
:101D400083037800020378004200A9004220A90022
:101D50008180D2000180FD00F10FB2000100E0009F
:101D60004B0032004200A9004220A9008381D2002A
:101D70000380FD00F30FB2000300E00044003200D6
:101D80000080FB0001C0410004003100F007B100F9
:101D90003F0032003E003900020037001048B0001A
:101DA0003B00310007856A004200A9004220A900DB
:101DB000F50FB2000570A0004200A900F70FB200B5
:101DC0000770A0000621B800062CB80083014C0063
:101DD000890078004200AF008100E8004200A900BD
:101DE000043CB80083014C0081804C00072CB800F3
:101DF00081004C000000E8000100E0004220AF003C
:101E000001003700030037000300E0004220AF006C
:101E10000500370001F0A700030037008381D200DE
:101E20008180D2000000E900010178004200A90091
:101E30000370A6000900370007F02F0087816100BA
:101E40000310B000600149000200E00003003A0006
:101E50000300E00001003A000000E8000080FD00FF
:101E60004200A9004220A9008080D3000AF0A70008
:101E700001F0A00002F0A1000280FD008140690095
:101E80000380FD0003417800020078000300370062
:101E90000000200001002000000037004501200064
:101EA00004000900CF127800CF027800000006007D
:101EB000851F7800C500200003000900B51F7800C9
:101EC0008004EB00080028004300AF0083016C0091
:101ED0000000E00003003A00FAFF27000A856000D6
:101EE0004220AE00010578008A8569000103780070
:101EF00083037800030678004220A9004200A9006D
:101F00000683D2000680FD00F60FB2000600E00056
:101F1000A10032004220A9004200A9008783D2001C
:101F20000780FD00F70FB2000700E0009F003200BD
:101F30004220A9004200A9000638E1009C003200BE
:101F4000A30033000900A1000910A000068453007B
:101F500007037800F10FB2000170A000F30FB20088
:101F60000370A000870220000838E1001100330050
:101F70004220A9004200A9008180D3000080D30044
:101F80000804E900FAFF3A000D003700870220003C
:101F90000838E100090033004220A9004200A900EE
:101FA0008381D3000281D3000804E900FAFF3A00DC
:101FB0000F003700020078008300780043003700EC
:101FC0000BF0A600110037000940A7008C0578002F
:101FD0000000EA000200320081C0EA000100370080
:101FE0008100EA000940A7002B00370007003700F6
:101FF0000BF0A600050037000201EA0002003200E3
:1020000083C1EA00010037008301EA00F50FB20046
:102010004220A9004200A9000200400083C04800FD
:102020004200AF000930A0000900A70009003700F6
:102030000910A700010037000B0037000BF0A700C4
:10204000150037000930A700290037000960A000FB
:102050001E0037000BF0A7000F0037000930A70063
:1020600023003700190037000920A1000BF0A7005A
:10207000040037008A0578000930A7001C003700EB
:10208000360037000940A00001C8B2000170A70067
:10209000CDFF37008A057800F10FB2008103700090
:1020A0000A0032000170A700080037004220A90092
:1020B0004200A9000080D2008180D2000603E9001E
:1020C0004220AF0031003700F6FF37000900A700BB
:1020D0008A0578000910A7008C0578000950A60031
:1020E0001A0037000AF0A7000080A0001B0037008C
:1020F0004200A80081C0D3000080D3004200AF009E
:102100000950A0000603E800200032000950A60094
:10211000080037000000E80006003A008140E800AF
:1021200004003A0081C0D3000080D3000603E80019
:10213000160032000900A7008A0578000910A700E0
:102140008C0578004220AF00100037000960A7001E
:102150008A0578000970A7008C05780001017000DD
:10216000230032000170A1000680FD004220A9007A
:102170004200A9000683D30081006B0001F0A0009B
:102180000BF0A60001F0A1001900370000002000AC
:1021900001002000160037000AF0A70083016C0040
:1021A000020078008300780011003700100037002B
:1021B000F30FB2000370A000F10FB2000170A00095
:1021C0000BF0A7000370A1000920A00088FF3700D2
:1021D00007045300F10FB2000170A000F30FB2002A
:1021E0000370A0000910A1000900A00067FF3700DC
:1021F0002501200003000900CF127800CF027800EB
:1022000000000600851F7800861F7800871F780071
:102210000382680004F0A600060037004200A9000F
:102220004220A90001F0A600260037004200A800C5
:102230002400370001027800800278000303780050
:10224000820378008180D2000180FD008381D2006A
:102250000380FD0081C051000500320004F0A6009B
:10226000180037001000200042E0B60015003700CB
:1022700084407800864178000170A1000370A100BD
:1022800081C051000500320004F0A6000D003700A7
:102290001000200042E0B6000A003700858053009D
:1022A0000500320004F0A6000600370010002000F0
:1022B00042E0B600030037004200A90001003700E9
:1022C00000003700CF0378004F037800CF0278007A
:1022D00000000600851F7800861F7800AC0EF8000D
:1022E000B00EF900AE0EF800B20EF900B08EBF00CD
:1022F000917580000200200003F823000211020003
:1023000000000000B200320030EB2000801F780097
:1023100010407800A9EEB7004F00780035EB2000A0
:10232000F0C3B300804A780020EB200044758000A1
:102330000042900044758800A8EEA90025EB20001B
:10234000A88EBF0080429800A9EEAE0006003700BC
:1023500005EB20006380420080027800154278007F
:102360000448B300844298004300A800B08EBF0028
:10237000917580000200200003F82300580F02002E
:102380000000000080027800010378004300A900EB
:10239000B08EBF00917580000200200003F823007A
:1023A000580F020000000000000178008101780051
:1023B0000500780086007800E006020000000000BA
:1023C000B0AEB70091758800B08EBF0091758000E7
:1023D0008275800093758000940E0200000000005A
:1023E000BCAEB700F1758800D888BF00D146800028
:1023F000E2758000F3758000940E0200000000007A
:1024000080027800010378004300A90005007800ED
:1024100086007800E2468000F3468000580F0200F4
:1024200000000000B4AEB700B1758800E888BF00B6
:1024300051478000E2758000F3758000940E020021
:102440000000000080027800010378004300A9002A
:10245000050078008600780062478000734780009E
:10246000580F020000000000B8AEB700D175880018
:10247000B88EBF00D1758000E2758000F3758000D2
:10248000940E020000000000800278000103780032
:102490004300A900050078008600780002002000B3
:1024A00003F82300580F020000000000B8AEB70088
:1024B000D1758800B08EBF0091758000A275800034
:1024C000B3758000940E02000000000080027800C6
:1024D000010378000500780086007800C27580004E
:1024E000D3758000E006020000000000B4AEB70023
:1024F000B1758800F0EA2000447580000042900029
:102500004475880081EA20009158D200E0EA20005A
:10251000801F780010407800A9EEB7004F007800C7
:10252000A9EEAE0001003700A80EA8004475800097
:102530000960EF00E307200003005200AAEEB70095
:10254000AACEBF000000FB006000E1000A003D00D1
:102550000400200053758000034052000000FB007F
:102560004A0E020000000000B8AEB700D175880026
:10257000BBEEAA0006003700AACEBF000000FB0099
:102580004A0E020000000000B8AEB700D175880006
:10259000B88EBF00D17580008221270013F323007D
:1025A000940E0200000000004300A9000001780022
:1025B00081017800B48EBF00B1758000580F020011
:1025C00000000000B4AEB700B1758800020037000B
:1025D000B42EEF00B62EEF00B48EBF00B1758000B0
:1025E0004F037800CF02780000000600851F7800B6
:1025F000861F7800871F7800881F7800BC8ABF007C
:10260000F15580006256800073568000940E0200DF
:1026100000000000800278000103780005007800C7
:1026200086007800E2568000F3568000940E020087
:1026300000000000ACAEB70071758800C88ABF000A
:1026400051568000C2568000D3568000940E02007E
:102650000000000080027800010378000500780087
:10266000860078002256800033568000940E0200C7
:10267000000000004300A9000001780081017800FB
:10268000AC8EBF0071758000580F02000000000082
:102690008002780001037800D48ABF00B156800020
:1026A0000256800013568000940E020000000000C5
:1026B0008003780001047800070078008800780023
:1026C0008256800093568000940E020000000000A5
:1026D0004300A9000001780081017800050078001E
:1026E00086007800580F020000000000A8AEB70076
:1026F00051758800C48ABF00315680006256800040
:1027000073568000940E02000000000080027800E2
:10271000010378000500780086007800A25680004A
:10272000B3568000940E0200000000008002780082
:1027300001037800D08ABF0091568000C256800005
:10274000D3568000940E0200000000008003780041
:10275000010478000700780088007800E2558000C6
:10276000F3558000940E0200000000004300A90011
:10277000000178008101780005007800860078006B
:10278000580F02000000000080027800010378006A
:10279000DC8ABF00F156800002568000135680008C
:1027A000940E02000000000080037800010478000D
:1027B0000700780088007800425680005356800059
:1027C000940E0200000000004300A9000001780000
:1027D000810178000500780086007800580F02001B
:1027E00000000000B0AEB70091758800C48ABF0039
:1027F000315680006256800073568000940E0200AD
:1028000000000000800278000103780005007800D5
:1028100086007800A2568000B3568000940E020015
:10282000000000008002780001037800D08ABF0019
:1028300091568000C2568000D3568000940E02004C
:102840000000000080037800010478000700780091
:1028500088007800E2558000F3558000940E020055
:10286000000000004300A900000178008101780009
:102870000500780086007800580F02000000000074
:102880008002780001037800DC8ABF00F1568000E6
:102890000256800013568000940E020000000000D3
:1028A0008003780001047800070078008800780031
:1028B0004256800053568000940E02000000000033
:1028C0004300A9000001780081017800050078002C
:1028D00086007800580F0200000000004300A800A6
:1028E0000001780081017800A88EBF00517580003A
:1028F000580F020000000000A8AEB7005175880014
:10290000A88EBF00517580004F047800CF03780077
:102910004F037800CF027800000006001E2CEF0065
:102920000422240004618800262CEF00841A24006D
:10293000446188002E2CEF00040C24008461880080
:1029400004002A0014618800045A240024618800CD
:1029500004402B0054618800B46424006461880042
:102960000440290094618800746D2400A4618800EB
:102970004300A9001E8CBF000161800002002800F6
:1029800083382400580F0200000000000001780086
:10299000810178000000200001F82300E006020019
:1029A0000000000080AEB700117488004300A90049
:1029B000268CBF004161800002002800833824007B
:1029C000580F02000000000000017800810178002B
:1029D0000000200001F82300E006020000000000D3
:1029E00084AEB700317488004300A9002E8CBF006C
:1029F000816180000200280083382400580F020003
:102A00000000000000017800810178000000200033
:102A100001F82300E00602000000000088AEB700C5
:102A200051748800220CF800AC0EF900240CF80058
:102A3000AE0EF9006A110200000000008CAEB70073
:102A4000717488002A0CF800AC0EF9002C0CF80008
:102A5000AE0EF9006A1102000000000090AEB7004F
:102A600091748800320CF800AC0EF900340CF800B8
:102A7000AE0EF9006A1102000000000094AEB7002B
:102A8000B1748800BC2AEF0004F82300F4558800D4
:102A9000C82AEF0004F8230054568800D42AEF0017
:102AA00004F82300B45688008C0EF800C00AF90020
:102AB0008E0EF800C20AF900900EF800CC0AF90058
:102AC000920EF800CE0AF900940EF800D80AF90028
:102AD000960EF800DA0AF9008C8EBF00717480003F
:102AE0006274800073748000940E02000000000085
:102AF000C4AAB70031568800908EBF009174800040
:102B00008274800093748000940E02000000000024
:102B1000D0AAB70091568800948EBF00B17480008F
:102B2000A2748000B3748000940E020000000000C4
:102B3000DCAAB700F1568800F6120200000000007F
:102B400098AEB700D1748800800EF800BC0AF90076
:102B5000820EF800BE0AF900840EF800C80AF900D7
:102B6000860EF800CA0AF900880EF800D40AF900A7
:102B70008A0EF800D60AF9008C0EF800C00AF90097
:102B80008E0EF800C20AF900900EF800CC0AF90087
:102B9000920EF800CE0AF900940EF800D80AF90057
:102BA000960EF800DA0AF9008C8EBF00717480006E
:102BB0006274800073748000940E020000000000B4
:102BC000C4AAB70031568800908EBF00917480006F
:102BD0008274800093748000940E02000000000054
:102BE000D0AAB70091568800948EBF00B1748000BF
:102BF000A2748000B3748000940E020000000000F4
:102C0000DCAAB700F1568800F612020000000000AE
:102C10009CAEB700F17488009C8EBF00F1748000F8
:102C2000C2748000D3748000E0060200000000003F
:102C300094AAB700B1548800BC2AEF0004F823001E
:102C4000F4558800C82AEF0004F823005456880081
:102C5000D42AEF0004F82300B4568800800EF80050
:102C6000C00AF900820EF800C20AF900840EF800CA
:102C7000CC0AF900860EF800CE0AF900880EF8009A
:102C8000D80AF9008A0EF800DA0AF9008C8EBF0023
:102C9000717480006274800073748000940E02006E
:102CA00000000000C4AAB70031568800908EBF0013
:102CB000917480008274800093748000940E0200EE
:102CC00000000000D0AAB70091568800948EBF0083
:102CD000B1748000A2748000B3748000940E02006E
:102CE00000000000DCAAB700F1568800F6120200CE
:102CF00000000000A0AEB70011758800A08EBF00D4
:102D000011758000C2748000D3748000E006020058
:102D10000000000098AAB700D1548800BC2AEF0038
:102D200004F82300F4558800C82AEF0004F82300B3
:102D300054568800D42AEF0004F82300B4568800C3
:102D40008C0EF800C00AF9008E0EF800C20AF900D5
:102D5000900EF800CC0AF900920EF800CE0AF900A5
:102D6000940EF800D80AF900960EF800DA0AF90075
:102D7000800EF800C40AF900820EF800C60AF900B5
:102D8000840EF800D00AF900860EF800D20AF90085
:102D9000880EF800DC0AF9008A0EF800DE0AF90055
:102DA000F612020000000000A4AEB70031758800E2
:102DB000A48EBF0031758000C2748000D37480007F
:102DC000E0060200000000009CAAB700F154880051
:102DD00000000600851F7800861F7800871F780096
:102DE000881F78006E0EF800800EF900060E0200B3
:102DF0000000000070AEB700708EBF004A0E0200E7
:102E0000000000007AAEB700E1738800708EBF004A
:102E10004A0E0200000000008002780001037800E2
:102E20000500780086007800323323003305240043
:102E3000940E020000000000800278000103780078
:102E40000500780086007800020020000348240076
:102E5000E00602000000000072AEB700A173880017
:102E6000708EBF00F00FB2006DEEB700700EF8006C
:102E70007E0EF90000F02F007E2EB60084738000D5
:102E80006820E10002003C000040EB000100370038
:102E900010C0B3006CEEB7006DCEBF002EEDB700D2
:102EA0006CCEBF002DEDB7004300A80030332300E7
:102EB0003105240092738000A3738000580F020034
:102EC000000000008002780001037800050078000F
:102ED0008600780002002600F3592400E006020074
:102EE000000000000001780081017800728EBF00B0
:102EF000A1738000E00602000000000072AEB7007F
:102F0000A17388008E14020000000000720EF80009
:102F1000AC0EF900740EF800AE0EF9006A11020052
:102F2000000000000001780081017800988ABF004D
:102F3000D1548000940E0200000000004300A9005C
:102F40000001780081017800948ABF00B1548000AC
:102F5000580F020000000000800278000103780092
:102F6000720EF800AC0EF900740EF800AE0EF90007
:102F70006A1102000000000080037800010478005C
:102F8000720EF800AC0EF900740EF800AE0EF900E7
:102F90006A11020000000000000178008101780041
:102FA0000700780088007800940E020000000000FE
:102FB00000017800810178009C8ABF00F1548000F4
:102FC000940E0200000000004300A90000017800F8
:102FD000810178000500780086007800580F020013
:102FE000000000000001780081017800000020004E
:102FF00001F82300E00602000000000080027800D3
:10300000010378004300A8000500780086007800DE
:103010003233290083382400580F020000000000DA
:1030200076AEB700C1738800768EBF00C173800092
:103030004F047800CF0378004F037800CF02780068
:1030400000000600851F7800861F7800871F780023
:10305000662EEF0034738000A30220000418E10004
:103060000D003400347380006420B80084DB20003D
:1030700084024000B400200074738800EA16020045
:103080000000000004002000B41A7800B41A780090
:10309000662EEC00EFFF3700642EEF00662EEF0087
:1030A00034738000930220000418E10038003400DB
:1030B000347380006420B80084DB200004004000EA
:1030C000A4002000301A7800301A78003473800091
:1030D000E1034200070278006420B80084DB20008E
:1030E000040040000002780003002000B4197800BA
:1030F000B41978000001780081017800050078009B
:103100008600780002110200000000001E00390055
:10311000347380006420B80084DB20000400400089
:1031200004E62000301A7800301A780034738000EA
:103130006420B80084DB20008402400034738000E7
:1031400061034200060278006420B80084DB20009E
:1031500004004000B01A7800B01A78003473800080
:10316000E1024200050278006420B80084DB200000
:103170008402400004E62000B41A7800B41A7800F3
:103180001400200024738800662EEC00C4FF370072
:10319000247380006120E100BFFF3200602EEF0049
:1031A000622EEF0014002000347388003473800016
:1031B000930220000418E1001300340034738000EF
:1031C0006420B80084DB2000040040000002780086
:1031D00003002000B4197800B41978004300A90056
:1031E0000001780081017800608EBF0011738000BB
:1031F000580F02000000000060AEB7001173880095
:10320000662EEC00E9FF3700608EBF00117380006E
:103210000200200003222400E0060200000000005B
:1032200060AEB70011738800608EBF00117380001C
:10323000CF0378004F037800CF027800000006002B
:10324000851F7800861F78000002780081027800D0
:103250000000EB008000EB000600A10005F0A600D6
:10326000060037000600A0000402EA000200320057
:103270008582EA00010037008502EA0085017200BC
:10328000130032000001EB00610B20000270A70068
:10329000070037004200A9000482D2008582D200D4
:1032A0000080D2000281D2008100E900F7FF3A00DD
:1032B0000180FD004200A9008180D30001F0A1003F
:1032C0000270A100814069000600A70001F0A00083
:1032D0004F037800CF02780000000600851F7800B9
:1032E0008102780000017800640B20008180D20008
:1032F0000180FD00F10FB2000142520085417800CB
:103300000370A000F30FB2000000EB008000EB00A0
:103310007820E1000F0033004200A9008381D30030
:103320000281D3008180D3000080D3000402E90031
:10333000F9FF3A0005F0A600060037000000EA0099
:10334000020032008180EA00020037008100EA00BA
:1033500000003700CF02780000000600851F7800CB
:10336000861F7800A4002000946E8800B9CDBF00AD
:103370000000FB006300E10009003A005400200057
:10338000946E8800CA2DEF00040A2400646E880041
:1033900034002000446F8800B003020000000000E9
:1033A000B9CDBF000000FB000000E00008003A00BB
:1033B00054002000946E8800CA2DEF00040A2400F7
:1033C000646E8800E82DEF00B003020000000000EA
:1033D000B9CDBF000000FB006100E10009003A0028
:1033E00054002000946E8800CA2DEF00040A2400C7
:1033F000646E880014002000446F8800B00302004F
:1034000000000000BA2DEF00BC2DEF00BE2DEF0034
:10341000C02DEF00C22DEF00C42DEF00C62DEF0030
:10342000C82DEF00CE2DEF00CE8DBF00946E800032
:103430000020E10081003400B8CDBF00D6EDB70018
:10344000B9CDBF00D7EDB700FC0B020000000000B3
:103450000000FB00D0ADB700846E80006320E10067
:1034600002003A0014002000A46E8800846E8000E0
:103470006220E10002003A0044002000A46E8800AF
:10348000846E80006120E10002003A000401200007
:10349000A46E8800D00DE20002003A00040420006F
:1034A000A46E88002555800006002000D48DBF0042
:1034B00001002000000178008101780005007800FB
:1034C00086007800CC0B020000000000C8ABB700FB
:1034D000515E88003555800006002000D48DBF0065
:1034E00001002000000178008101780005007800CB
:1034F00086007800CC0B020000000000D0ABB700C3
:10350000915E88004555800006002000D48DBF00E4
:10351000010020000001780081017800050078009A
:1035200086007800CC0B020000000000CCABB70096
:10353000715E88005555800006002000D48DBF00C4
:10354000010020000001780081017800050078006A
:1035500086007800CC0B020000000000D4ABB7005E
:10356000B15E8800C88BBF00515E80002019020048
:10357000000000004300A9000001780081017800EC
:10358000BA8DBF00E16D8000580F020000000000FE
:10359000BAADB700E16D8800CC8BBF00715E8000D2
:1035A00020190200000000004300A900000178007B
:1035B00081017800BE8DBF00016E8000580F0200AF
:1035C00000000000BEADB700016E8800D08BBF00C8
:1035D000915E800020190200000000004300A90055
:1035E0000001780081017800C28DBF00216E80004B
:1035F000580F020000000000C2ADB700216E880025
:10360000D48BBF00B15E80002019020000000000D2
:103610004300A9000001780081017800C68DBF0039
:10362000416E8000580F020000000000C6ADB700D8
:10363000416E8800CE2DEC007BFF3700BA8DBF00B5
:10364000E16D8000526E8000636E8000E006020033
:1036500000000000BAADB700E16D8800BE8DBF006C
:10366000016E8000526E8000636E8000E0060200F2
:1036700000000000BEADB700016E8800C28DBF0023
:10368000216E8000526E8000636E8000E0060200B2
:1036900000000000C2ADB700216E8800C68DBF00DB
:1036A000416E8000526E8000636E8000E006020072
:1036B00000000000C6ADB700416E8800BA8DBF00A3
:1036C000E16D80006E19020000000000C8ABB70079
:1036D000515E8800BE8DBF00016E80006E19020031
:1036E00000000000CCABB700715E8800C28DBF0047
:1036F000216E80006E19020000000000D0ABB70000
:10370000915E8800C68DBF00416E80006E19020078
:1037100000000000D4ABB700B15E8800D0CDBF0080
:1037200000E0B7004F037800CF02780000000600E9
:10373000851F7800861F780065CDBF00B8EDB70003
:1037400066CDBF00B9EDB700B9CDBF000000FB00EA
:10375000BAADB700BACDBF000BE0B7008042EB00B6
:10376000B8CDBF000000FB00050040005CACB70016
:1037700067CDBF00B8EDB70068CDBF00B9EDB700A9
:10378000B9CDBF000000FB00BAADB700BACDBF0095
:103790000BE0B7008042EB00B8CDBF000000FB009B
:1037A000050040005EACB70069CDBF00B8EDB700C2
:1037B0006ACDBF00B9EDB700B9CDBF000000FB0076
:1037C000BAADB700BACDBF000BE0B7008042EB0046
:1037D000B8CDBF000000FB000500400060ACB700A2
:1037E0006BCDBF00B8EDB7006CCDBF00B9EDB70031
:1037F000B9CDBF000000FB00BAADB700BACDBF0025
:103800000BE0B7008042EB00B8CDBF000000FB002A
:103810000500400062ACB7006DCDBF00B8EDB70049
:103820006ECDBF00B9EDB700B9CDBF000000FB0001
:10383000BAADB700BACDBF000BE0B7008042EB00D5
:10384000B8CDBF000000FB000500400064ACB7002D
:103850006FCDBF00B8EDB70070CDBF00B9EDB700B8
:10386000B9CDBF000000FB00BAADB700BACDBF00B4
:103870000BE0B7008042EB00B8CDBF000000FB00BA
:103880000500400066ACB70071CDBF00B8EDB700D1
:1038900072CDBF00B9EDB700B9CDBF000000FB008D
:1038A000BAADB700BACDBF000BE0B7008042EB0065
:1038B000B8CDBF000000FB000500400068ACB700B9
:1038C00073CDBF00B8EDB70074CDBF00B9EDB70040
:1038D000B9CDBF000000FB00BAADB700BACDBF0044
:1038E0000BE0B7008042EB00B8CDBF000000FB004A
:1038F000050040006AACB70075CDBF00B8EDB70059
:1039000076CDBF00B9EDB700B9CDBF000000FB0018
:10391000BAADB700BACDBF000BE0B7008042EB00F4
:10392000B8CDBF000000FB00050040006CACB70044
:10393000BC2DEF00E46D80006420E1000B003D0031
:10394000E5DB200005007800BC0DB40080027800A3
:10395000E46D80007503420024D62000040043007B
:10396000904A7800BC2DEC00F2FF3700BE0DF80045
:103970006E0CF900C00DF800700CF900BC2DEF00C2
:10398000E46D80006420E1000B003D00E5DB2000D9
:1039900005007800BC0DB40080027800E46D800062
:1039A0007903420024D6200004004300904A7800A6
:1039B000BC2DEC00F2FF3700BE0DF8006E0CF900D4
:1039C000C00DF800700CF900BC2DEF00E46D800014
:1039D0006420E1000B003D00E5DB200005007800DD
:1039E000BC0DB40080027800E46D80007D034200CD
:1039F00024D6200004004300904A7800BC2DEC003F
:103A0000F2FF3700BE0DF8006E0CF900C00DF80093
:103A1000700CF9004F037800CF0278000000060018
:103A20000FF52000F0FF200020A0B70000000000EC
:103A300081E0A8004440A80000002000A001880008
:103A40004427EF00CC42A90017E2A80017A2A80063
:103A500016C2A8001762A90016E2A8001702A90062
:103A60001722A8001742A90004052000D4108800DE
:103A7000CD22A90007E2A80007A2A80006C2A8005C
:103A80000762A90006E2A8000702A9000722A80011
:103A90000742A9000A22EF00D40920002410880060
:103AA000AC6AEF00AD6AEF0020C0B300AEEAB70029
:103AB000D4CC2C00A45C8800C4DC2B00B45C88004F
:103AC000002CEF00022CEF00041A24002460880070
:103AD000A40F2000446288004A2CEF00840C2000D0
:103AE000646288004E2CEF00616DEF0030C0B300BF
:103AF000A3EDB700E024EF00E224EF00A5003700BB
:103B0000800208005A00000080800800607C880065
:103B10005939E00097A63A00C41D1E003C5E5000D3
:103B2000633D1A00FE753E00187231003F0F8C0095
:103B300055A6820095D93D00E6D7FF00E5C9900063
:103B4000C7BDCE00401247000CB742003E9F6D003B
:103B500094C325006D7A3E00DA320E00BE9F3E000F
:103B6000B63E6D00AA28C200B4FAEF003E89E0001C
:103B700029E5A40030243F00A38EFA00E37ED8009C
:103B8000553FC600048A7800ABB283003FCDED00FC
:103B9000A6D608006BAC3F00FDD18400FFBDBF007E
:103BA000CE3FA10035FAFE00422EE6003F994700C5
:103BB0008ABF0000000040004008000000084C00E0
:103BC000F3BA3D002B9D5F00BF40080000001800C5
:103BD00005BD9A004A1AA600C2BFB400B92A1D004A
:103BE00007D9F5003F02EB008967DB00F608C0004B
:103BF00040070000003940002BF293008B43C500C2
:103C0000783F4F00E05DA20084A9CA00BF388F0052
:103C1000ACEFB500D2F13F00D83FDF00BC304C0024
:103C2000FEBF3700BFFD3E003DAA9300C0EE50002E
:103C3000B340000000803F000A8DB100C0EE50008C
:103C4000B3404000060000006BF03F005C0A5800E3
:103C5000F63B8F0000C03C008B28AC003CBEF60059
:103C60003FD2D50044168C0015D7BF0069005A001A
:103C70002E1B8700993F9A005FAD4B0091E4010035
:103C8000C05D11002F92E40081FB3F0038DA910003
:103C9000809DC500E0BF6F0012C0B400C309AB0037
:103CA0003F6BC100034EC100B545BF000A89340017
:103CB0003E7C7900B5403F0002B34100338C9E004A
:103CC00041000000803F1B00E4354100A4DBE70019
:103CD00041338C009E41F7004005FF00005AEF0081
:103CE0003FF3A300E2F7D700FF014000C0B4FF009C
:103CF000053C5800FC3F3B00D3C0B500BA8CE20045
:103D00003F39D300C73D410079B23F00870D3C00E9
:103D100050D0AF00623F30004B8DA20082AA040059
:103D20004009A000404A050076034000EC9E3700A1
:103D300088A64400F03F8F00128D29009A5BC700CF
:103D40003F0EE000807CA100D8863F00294BFB009D
:103D500095C237001A3F0000000000000201E80091
:103D60006110E10004003A009101BA003182BA000A
:103D700006C0BF00000006006210E10002003A0029
:103D800007C0BF000000060008C0BF000001EB0034
:103D900000000600060020000000200090018800BE
:103DA00000D82100800078000001EB00AE1E020068
:103DB000000000000BE0B700AE1E02000000000093
:103DC0000AE0B7000500E0001900320005F0A60087
:103DD00007003700AE1E0200000000000DE0B70033
:103DE000AE1E0200000000000CE0B70005F0A100CC
:103DF00005E0A6000800370005E0A1008502E90003
:103E0000AE1E02000000000080437800058009001B
:103E1000075B7800E5FF3700AE1E020000000000DF
:103E2000005B78008502E900FBFF3A00DFFF370006
:103E3000A66DEF00D22CEF0084112400A466880048
:103E4000D62CEF0004082400C4668800DA2CEF00AA
:103E5000DC2CEF00DE2CEF00040F24000467880048
:103E6000E22CEF000408240024678800E62CEF0011
:103E7000E82CEF006466260054678800640D240077
:103E800064678800EE2CEF00040824008467880033
:103E9000F22CEF00F42CEF00F62CEF0084622400EB
:103EA000C467880004002E00D4678800B462240030
:103EB000E467880004002800F4678800B4632400E5
:103EC00004688800048020001468880004632400CB
:103ED000246888000400280034688800B463240043
:103EE000446888000400220054688800B4642400F8
:103EF00064688800044022007468880024642400F8
:103F0000846888000400220094688800B464240057
:103F1000A468880004002C00B4688800A46524000C
:103F2000C4688800A4002000D468880044012000F0
:103F3000E468880094012000F4688800C8E2A900C1
:103F4000CCE2A9003A030200000000006603020070
:103F5000000000008204020000000000803E2000FB
:103F6000560302000000000004F02900241A880013
:103F700004472800041A8800E024EF00040023000E
:103F8000142788004223EF009A20A8007805020039
:103F900000000000644DE200020032000040EB002F
:103FA00000003700C982A900CD82A80030C0B3004C
:103FB000D6EDB70010C0B300D7EDB700FC0B020080
:103FC00000000000A5EDB70022180200000000006C
:103FD00002ACB70021608800C982A900CD82A90087
:103FE000D00BF800AC0DF900AC8DBF00F00FB200A3
:103FF000A8EDB700AC0DF800B60DF90000F02F00E9
:10400000B62DB6000160EF00B7CDBF00A7EDB70039
:10401000C80BF800AC0DF900AC8DBF00F00FB2007A
:10402000A8EDB700AC0DF800B60DF90000F02F00B8
:10403000B62DB6000160EF00B7CDBF00A7EDB70009
:10404000A8CDBF0030EDB700A7CDBF002FEDB70062
:10405000CC0BF800AC0DF900AC8DBF00F00FB20036
:10406000A8EDB700AC0DF800B60DF90000F02F0078
:10407000B62DB6000160EF00B7CDBF00A7EDB700C9
:10408000D40BF800AC0DF900AC8DBF00F00FB200FE
:10409000A8EDB700AC0DF800B60DF90000F02F0048
:1040A000B62DB6000160EF00B7CDBF00A7EDB70099
:1040B000C8A2A900CCA2A80030C0B300B8EDB700D8
:1040C000B96DEF00AE19020000000000A5EDB700C9
:1040D000C8A2A900CCA2A900D00BF800AC0DF90031
:1040E000AC8DBF00F00FB200A8EDB700AC0DF8002A
:1040F000B60DF90000F02F00B62DB6000160EF00FC
:10410000B7CDBF00A7EDB700A8CDBF0036EDB70013
:10411000A7CDBF0035EDB700C80BF800AC0DF90016
:10412000AC8DBF00F00FB200A8EDB700AC0DF800E9
:10413000B60DF90000F02F00B62DB6000160EF00BB
:10414000B7CDBF00A7EDB700A8CDBF0034EDB700D5
:10415000A7CDBF0033EDB700CC0BF800AC0DF900D4
:10416000AC8DBF00F00FB200A8EDB700AC0DF800A9
:10417000B60DF90000F02F00B62DB6000160EF007B
:10418000B7CDBF00A7EDB700A8CDBF0038EDB70091
:10419000A7CDBF0037EDB700D40BF800AC0DF90088
:1041A000AC8DBF00F00FB200A8EDB700AC0DF80069
:1041B000B60DF90000F02F00B62DB6000160EF003B
:1041C000B7CDBF00A7EDB700A8CDBF003AEDB7004F
:1041D000A7CDBF0039EDB700C942A900CD42A80064
:1041E00030C0B300B8EDB70030C0B300B9EDB700D0
:1041F000AE19020000000000A5EDB700C942A900F9
:10420000CD42A900D00BF800AC0DF900AC8DBF0079
:10421000F00FB200A8EDB700AC0DF800B60DF90034
:1042200000F02F00B62DB6000160EF00B7CDBF0043
:10423000A7EDB700A8CDBF003CEDB700A7CDBF00EC
:104240003BEDB700C80BF800AC0DF900AC8DBF001A
:10425000F00FB200A8EDB700AC0DF800B60DF900F4
:1042600000F02F00B62DB6000160EF00B7CDBF0003
:10427000A7EDB700A8CDBF0040EDB700A7CDBF00A8
:104280003FEDB700CC0BF800AC0DF900AC8DBF00D2
:10429000F00FB200A8EDB700AC0DF800B60DF900B4
:1042A00000F02F00B62DB6000160EF00B7CDBF00C3
:1042B000A7EDB700A8CDBF0042EDB700A7CDBF0066
:1042C00041EDB700D40BF800AC0DF900AC8DBF0088
:1042D000F00FB200A8EDB700AC0DF800B60DF90074
:1042E00000F02F00B62DB6000160EF00B7CDBF0083
:1042F000A7EDB700A8CDBF0044EDB700A7CDBF0024
:1043000043EDB700020CF8003E0AF900040CF80077
:10431000400AF9003E8ABF000152800002002000DE
:104320000300200002110200000000000400390018
:104330003E2AEF00402AEF00022CEF00042CEF0091
:10434000028CBF00216080004C05020000000000CC
:1043500025EDB700028CBF00216080004C050200F3
:10436000000000004A0E0200000000004300A80008
:104370000001780081017800028CBF00216080007C
:10438000580F02000000000080027800010378004E
:10439000050078008600780002002000832C2400AD
:1043A000940E0200000000004C0502000000000016
:1043B00026EDB700A6CDBF000000FB000000E00026
:1043C00005003A00C8E2A900CCE2A90010C0B30081
:1043D000A6EDB70003003700C8E2A900CCE2A800B0
:1043E000A66DEF00246B80006124E10016003A0006
:1043F000981B020000000000644DE2000200320041
:104400000040EB0000003700A46DEF00A4CDBF001A
:104410000000FB00140420000020E1000A0034002A
:10442000A4CDBF000000FB0024D620000400400003
:104430001004E000020032000040EB0000003700F2
:10444000A46DEC00F1FF3700D6FE3700FFFF370008
:0200000401F009
:100000000F0000FF000000FF030000FFE30000FFFF
:10001000FA0000FF5F0000FFF40000FF030000FF94
:04002000DF0000FFFE
:00000001FF
;PIC24FV32KA302
;CRC=BE90  CREATED="27-Apr-17 07:18"
