:08000000AE85040000000000C1
:100400003220EF00C3202000008041001040BA00DD
:100410000160EF00000006002E2E0000000000002A
:100420003220EF00C3212000008041001040BA00BC
:100430000160EF00000006002121000021450000BE
:10044000525200004F520000212100002100000004
:100450003220EF0043232000008041001040BA000A
:100460000160EF000000060021210000214E000085
:100470004F540000204D00004F5500004E54000026
:100480004544000021210000210000003220EF003F
:1004900003022000830150000500310023262000C4
:1004A000008041001040BA000160EF00000006002B
:1004B0002026200083814100808141001380BA0002
:1004C000000006000D0A6F004D652000646964009D
:1004D000612065006E6F6C00742065006D6F7400A4
:1004E000756E650074652000642C6600206E6900DE
:1004F0006F746C00206765006F6921006E670000F3
:10050000207400003220EF00E3282000008041002A
:100510001040BA000160EF00000006000D0A000064
:10052000446500006C650000746900006E6700009F
:100530002027000025730000273A0000200000005B
:100540003220EF00C32A2000008041001040BA0092
:100550000160EF000000060045720000726F0000AD
:1005600072200000646500006C6500007469000082
:100570006E67000020660000696C000065000000E6
:100580003220EF00E301200083015000050031001C
:10059000C32D2000008041001040BA000160EF0030
:1005A00000000600C02D20008381410080814100B1
:1005B0001380BA00000006000D0A20004D6574008B
:1005C00064696F00612020006E6F6D00742061000F
:1005D0006D6F6B00756E650074652000642C66009D
:1005E000206E69006F746C00206765006F692100E0
:1005F0006E6700003220EF00633020000080410071
:100600001040BA000160EF00000006007700000013
:100610003220EF0043312000008041001040BA003A
:100620000160EF000000060045720000726F0000DC
:1006300072200000286F0000706500006E2000002E
:1006400065720000726F00007220000025580000E3
:10065000290000003220EF006333200000804100B9
:100660001040BA000160EF00000006004572000073
:10067000726F000072200000286300006C6F0000A1
:100680007365000020650000727200006F72000048
:1006900020250000582000002558000029000000F7
:1006A0003220EF00030220008301500005003100DA
:1006B000C3362000008041001040BA000160EF0006
:1006C00000000600C0362000838141008081410087
:1006D0001380BA00000006000D0A6F004D6520006F
:1006E00064696100612070006E6F700074206500A5
:1006F0006D6F6E00756E640074652000642C66007A
:10070000206E69006F746C00206765006F692100BE
:100710006E670000207400003220EF008339200053
:10072000008041001040BA000160EF0000000600A8
:100730000D0A000041700000706500006E6400004A
:10074000696E000067200000272500007327000065
:10075000207400006F200000272500007327000090
:100760003A200000000000003220EF00033C20008F
:10077000008041001040BA000160EF000000060058
:10078000610000003220EF00E33C200000804100C7
:100790001040BA000160EF00000006004572000042
:1007A000726F000072200000282500005829000008
:1007B000000000003220EF00633E20000080410076
:1007C0001040BA000160EF00000006004572000012
:1007D000726F0000722000002825000058200000E1
:1007E00025580000290000003220EF0043022000BD
:1007F00083015000050031000341200000804100CA
:100800001040BA000160EF00000006000041200027
:1008100083814100808141001380BA0000000600FE
:100820000D0A61004D656E00646967006120650016
:100830006E6F2000742064006D6F6900756E720029
:1008400074656500642C6300206E74006F746F0023
:10085000206772006F6979006E67210020740000C4
:100860006F200000636800003220EF000344200086
:10087000008041001040BA000160EF000000060057
:100880000D0A000045720000726F00007220000027
:1008900063680000616E0000676900006E67000019
:1008A000206400006972000065630000746F00003E
:1008B00072790000000000003220EF0043022000A7
:1008C0008301500005003100834720000080410073
:1008D0001040BA000160EF000000060080472000D1
:1008E00083814100808141001380BA00000006002E
:1008F0000D0A73004D65700064696C006120610031
:100900006E6F7900742020006D6F6400756E690051
:1009100074657200642C6500206E63006F7474004F
:1009200020676F006F6972006E6779002074210084
:100930006F200000646900003220EF00834A20002D
:10094000008041001040BA000160EF000000060086
:100950002A2E00002A0000003220EF00834B2000E6
:10096000008041001040BA000160EF000000060066
:100970000D0A00000A44000069720000656300006F
:10098000746F000072790000207300006561000040
:100990007263000068200000636F00006D7000004B
:1009A0006C65000074650000640000003220EF00F8
:1009B000234E2000008041001040BA000160EF008B
:1009C0000000060020280000465300006572000069
:1009D000726E00006F2000003D20000025750000B1
:1009E000290000003220EF00E34F2000008041008A
:1009F0001040BA000160EF00000006003C44000017
:100A0000495200003E200000200000003220EF008C
:100A100023512000008041001040BA000160EF0027
:100A20000000060020200000202000002020000000
:100A3000200000003220EF0023022000830150003C
:100A40000500310063532000008041001040BA00CF
:100A50000160EF0000000600605320008381410028
:100A6000808141001380BA00000006000D0A6D006D
:100A70004D65610064696B00612065006E6F200048
:100A8000742064006D6F6900756E72007465650096
:100A9000642C6300206E74006F746F002067720016
:100AA0006F6979006E672100207400006F200000DC
:100AB0003220EF0043562000008041001040BA0071
:100AC0000160EF00000006000D0A00004D6100000B
:100AD0006B6900006E67000020640000697200000E
:100AE00065630000746F0000727900002027000029
:100AF00025730000273A0000200000003220EF009C
:100B0000A3582000008041001040BA000160EF00AF
:100B10000000060045720000726F000072200000A5
:100B20006372000065610000746900006E67000078
:100B3000206400006972000065630000746F0000AB
:100B40007279000020280000465300006572000002
:100B5000726E00006F2000003D200000257500002F
:100B6000290000003220EF004302200083015000E2
:100B700005003100E35C2000008041001040BA0015
:100B80000160EF0000000600E05C2000838141006E
:100B9000808141001380BA00000006000D0A6D003C
:100BA0004D656F0064697600612065006E6F2000FE
:100BB000742064006D6F6900756E72007465650065
:100BC000642C6300206E74006F746F0020677200E5
:100BD0006F6979006E672100207400006F200000AB
:100BE000726500003220EF00E35F200000804100CA
:100BF0001040BA000160EF00000006000D0A00007E
:100C0000526500006D6F0000766900006E6700009D
:100C1000206400006972000065630000746F0000CA
:100C2000727900002027000025730000273A000099
:100C3000200000003220EF006362200000804100AD
:100C40001040BA000160EF0000000600457200008D
:100C5000726F000072200000726500006D6F00006E
:100C6000766900006E670000206400006972000071
:100C700065630000746F00007279000000000000DE
:100C80003220EF00030220008301500005003100F4
:100C9000C3652000008041001040BA000160EF00F1
:100CA00000000600C0652000838141008081410072
:100CB0001380BA00000006000D0A6F004D65200089
:100CC00064696400612069006E6F730074207000B5
:100CD0006D6F6C00756E610074657900642C200086
:100CE000206E66006F74690020676C006F69650094
:100CF0006E672100207400003220EF00836820001E
:100D0000008041001040BA000160EF0000000600C2
:100D1000720000003220EF00636920000080410073
:100D20001040BA000160EF00000006000D0A00004C
:100D300045720000726F0000722000006F700000AA
:100D4000656E0000696E00006720000066690000A3
:100D50006C6500002028000045720000726F0000E2
:100D60007220000025580000290000003220EF000A
:100D7000236C2000008041001040BA000160EF00A9
:100D8000000006000D0A00002121000021200000C3
:100D900045720000726F0000722000007265000052
:100DA00061640000696E0000672000006669000051
:100DB0006C6500002028000045720000726F000082
:100DC0007220000025580000290000003220EF00AA
:100DD000236F2000008041001040BA000160EF0046
:100DE000000006000D0A000045720000726F00004E
:100DF000722C0000204D0000656400006961000055
:100E0000206E00006F740000206600006F75000007
:100E10006E640000210000003220EF002302200059
:100E200083015000050031008372200000804100E2
:100E30001040BA000160EF00000006008072200040
:100E400083814100808141001380BA0000000600C8
:100E50000D0A73004F4B3D002028250053655500B7
:100E600063742C006F72200020535400697A79005B
:100E7000653D7000254C6500552C3D002053250034
:100E80006563550020502900657200002043000072
:100E90006C7500003220EF00230220008301500017
:100EA0000500310063762000008041001040BA0048
:100EB0000160EF00000006006076200083814100A1
:100EC000808141001380BA00000006000D0A460030
:100ED00045725300726F6500722C720020667200BA
:100EE000696C6E0065206F0073793D007374250096
:100EF000656D5500206E29006F742100206D210062
:100F00006F7521006E7400006564000020280000E9
:100F10003220EF0043792000008041001040BA00E9
:100F20000160EF00000006000D0A0000457200009D
:100F3000726F0000722C0000206600006F720000CB
:100F40006D61000074740000696E0000672000008D
:100F50006469000073610000626C00006564000059
:100F600021210000210000003220EF008302200038
:100F70008301500005003100037D20000080410006
:100F80001040BA000160EF0000000600007D200064
:100F900083814100808141001380BA000000060077
:100FA0000D0A6E004765640074747300696E20005A
:100FB000672074006D656F006469200061206D001A
:100FC000696E6900666F6E00202875007468740091
:100FD00069736500206D73006179290020742E000B
:100FE000616B2E0065202E0073650000636F0000AA
:100FF0003220EF00A30220008301500005003100E1
:1010000043812000008041001040BA000160EF00E1
:101010000000060040812000838141008081410062
:101020001380BA00000006000D0A20000A46740072
:10103000696C7200652079007379200073746D000B
:10104000656D6F002074750068696E006E6B7400CA
:10105000732069006D656E0064696700612020007F
:10106000697361006E276700742061006D6F69000D
:10107000756E6E0074652100642C00003220EF0054
:10108000A3842000008041001040BA000160EF00FE
:10109000000006000D0A00000A4500007272000000
:1010A0006F72000020670000657400007469000022
:1010B0006E670000206900006E6600006F0000008F
:1010C0003220EF00C3862000008041001040BA00AB
:1010D0000160EF00000006000D0A00000A42000057
:1010E00079740000657300002070000065720000D4
:1010F0002073000065630000746F0000723A000006
:10110000202500004C550000000000003220EF00B8
:1011100023892000008041001040BA000160EF00E8
:10112000000006000D0A0000536500006374000013
:101130006F720000732000007065000072200000D4
:10114000636C00007573000074650000723A000063
:1011500020250000550000003220EF00838B200086
:10116000008041001040BA000160EF00000006005E
:101170000D0A0000546F0000746100006C20000034
:10118000736900007A650000206F0000662000008F
:101190006D65000064690000613A000020250000D0
:1011A0004C550000000000003220EF00038E2000AC
:1011B000008041001040BA000160EF00000006000E
:1011C0000D0A0000467200006565000020730000F3
:1011D0007061000063650000206F00006620000061
:1011E0006D65000064690000613A00002025000080
:1011F0004C550000000000003220EF0083902000DA
:10120000008041001040BA000160EF0000000600BD
:101210000D0A00004D6500006469000061200000B7
:101220006E6F0000742000006D6F0000756E00008E
:1012300074650000642C0000206E00006F740000D4
:101240002067000065740000746900006E6700008C
:10125000206900006E6600006F21000000000000A1
:101260003220EF00230220008301500005003100EE
:10127000C3942000008041001040BA000160EF00DC
:1012800000000600C094200083814100808141005D
:101290001380BA00000006000D0A430046415300C7
:1012A0005420200053684300656C20006C204300EC
:1012B00048656F006C706D00202D70002043690040
:1012C0006F6D6C00706965006C65720064202000B1
:1012D0007769000074680000204300003220EF00AE
:1012E000A3972000008041001040BA000160EF0089
:1012F00000000600504300004420000000000000F1
:101300003220EF00C3982000008041001040BA0056
:101310000160EF0000000600352E000030330000B1
:10132000320000003220EF00430320008301500010
:1013300005003100E39A2000008041001040BA000F
:101340000160EF0000000600E09A20008381410068
:10135000808141001380BA00000006000D0A690078
:10136000206D72006F7565006E746400202D200082
:101370002D2D6200206965006E69660074696F003A
:10138000616C7200697A650065202000616E6600FC
:10139000642069006D6F6C00756E6500742020001C
:1013A000666961006C656300207363007973650092
:1013B000746573006D2E73002020000072650000BC
:1013C000717500003220EF00E39E20000080410094
:1013D0001040BA000160EF00000006000D0A000096
:1013E00020640000656C000020660000696C00004D
:1013F000656E0000616D0000652000002D2D00006D
:101400002D200000446500006C650000746500003C
:101410007320000074680000652000006669000009
:101420006C650000000000003220EF00E3012000A6
:10143000830150000500310003A32000008041001B
:101440001040BA000160EF000000060000A3200079
:1014500083814100808141001380BA0000000600B2
:101460000D0A6E00206D2000616B650065206D0027
:10147000666970006C6574006E6179006D652000AE
:10148000202D66002D2D690020436C0072656500DB
:101490006174000065730000206100003220EF00DD
:1014A000E30220008301500005003100A3A62000C4
:1014B000008041001040BA000160EF00000006000B
:1014C000A0A6200083814100808141001380BA00E2
:1014D000000006000D0A6F0020612000707074008B
:1014E000656E680064206500666920006C656500B3
:1014F0006E616E006D6564002073200074726F0071
:10150000696E6600672020002D2D74002D20680074
:1015100041706500706520006E646600732069008C
:1015200073746C00726965006E67000020740000BF
:101530003220EF00E301200083015000050031005C
:1015400043AB2000008041001040BA000160EF0072
:101550000000060040AB20008381410080814100F3
:101560001380BA00000006000D0A6E0020636700B9
:101570006420200064696400722069002D2D7200CF
:101580002D20650043686300616E740067656F001D
:101590002074720068657900207700006F72000087
:1015A0006B6900003220EF0003022000830150002D
:1015B00005003100E3AE2000008041001040BA0079
:1015C0000160EF0000000600E0AE200083814100D2
:1015D000808141001380BA00000006000D0A20003F
:1015E0002064740069726800202D65002D2D200094
:1015F00020536400686F690077737200207465007F
:1016000068656300206374006F6E6F00746572001C
:101610006E747900732000006F6600003220EF00C6
:10162000E30120008301500005003100A3B2200037
:10163000008041001040BA000160EF000000060089
:10164000A0B2200083814100808141001380BA0054
:10165000000006000D0A6F0020636E0061747400C4
:1016600020666500696C6E00656E7400616D200017
:1016700065206F002D2D66002D2020004469660036
:10168000737069006C616C00797365002063000001
:101690003220EF00A302200083015000050031003A
:1016A00043B62000008041001040BA000160EF0006
:1016B0000000060040B62000838141008081410087
:1016C0001380BA00000006000D0A63002074680051
:1016D000616961006C207200666961006C6563007D
:1016E0006E6174006D656500202D72002D2D7300F4
:1016F0002044200069736F00706C660061792000DF
:10170000732066007468690065206C006C61650078
:101710007374000020380000302000003220EF00F9
:10172000A3B92000008041001040BA000160EF0022
:10173000000006000D0A0000206D00006B64000030
:10174000697200002064000069720000202D000012
:101750002D2D000020430000726500006174000020
:1017600065200000612000006469000072650000CF
:10177000637400006F720000790000003220EF00F7
:10178000A3BC2000008041001040BA000160EF00BF
:10179000000006000D0A0000207200006D640000C9
:1017A000697200002064000069720000202D0000B2
:1017B0002D2D000020440000656C000065740000C1
:1017C000657300002074000068650000206400005C
:1017D0006972000065630000746F00007279000098
:1017E000000000003220EF0083032000830150003E
:1017F00005003100E3C02000008041001040BA0025
:101800000160EF0000000600E0C02000838141007D
:10181000808141001380BA00000006000D0A3000EC
:10182000206639006F7231006D613200742027002C
:10183000736920007A652D00202D6F002D2D720018
:1018400020462D006F7220006D6127007420660015
:1018500063616F00726472002E206D0020286100A9
:1018600045787400616D2000706C3500653A310078
:1018700020273200666F4D00726D270061742000D2
:101880002035000033360000383700003220EF00EA
:1018900083032000830150000500310023C620008F
:1018A000008041001040BA000160EF000000060017
:1018B00020C6200083814100808141001380BA004E
:1018C000000006000D0A6E00202064002020200089
:1018D0002020500020206100202072002020740071
:1018E0002020690020207400206669006F726F005C
:1018F0006D616E00747320002061300020352E0071
:10190000313220004D422000206354006172680093
:10191000642969002E20730020432000726569004D
:101920006174730065732000204D00004252000076
:10193000206100003220EF004303200083015000AB
:101940000500310063CB2000008041001040BA0048
:101950000160EF000000060060CB200083814100A1
:10196000808141001380BA00000006000D0A790052
:1019700020206F0020207500202020002020630000
:101980002020610020206E002020200020207500F3
:10199000206E73006F746500207220006563610023
:1019A0006F6D20006D6563006E646F0065646D008F
:1019B000206F70006E2075006465740076696500A4
:1019C00063657200732020007768740069636F009C
:1019D000682000003220EF00C30220008301500085
:1019E0000500310063D02000008041001040BA00A3
:1019F0000160EF000000060060D0200083814100FC
:101A0000808141001380BA00000006000D0A20000A
:101A10002020610020206E00202020002020530084
:101A2000202044002020200020206F002020720071
:101A3000206620006F7243006D6146007420200014
:101A400074686400652065006472760069766900D8
:101A500065206300287365007563290068202E00E7
:101A6000617300003220EF008303200083015000E7
:101A700005003100E3D42000008041001040BA008E
:101A80000160EF0000000600E0D4200083814100E7
:101A9000808141001380BA00000006000D0A20007A
:101AA000206943006E6661006F206E002D2D2000BE
:101AB0002D207400536861006F776B002073650000
:101AC0006F6D200065207300696E6500666F76009B
:101AD00020616500626F72007574610020746C0093
:101AE00068652000206D73006564650069616300AE
:101AF0002F666F00696C6E00652064007379730057
:101B000073742100656D00002E2000003220EF006C
:101B100023D92000008041001040BA000160EF008E
:101B2000000006000D0A000020680000656C00003F
:101B300070090000596F00007520000061720000FC
:101B4000652000006865000072650000000000006C
:101B50003220EF0003022000830150000500310015
:101B600043DC2000008041001040BA000160EF001B
:101B70000000060040DC200083814100808141009C
:101B80001380BA00000006000D0A20000A20690038
:101B9000507574007420200061206800706161003D
:101BA000726173006D6520007465730072207000AF
:101BB000696E610020716300756F65007465730064
:101BC00073200000696600003220EF0003DF200070
:101BD000008041001040BA000160EF0000000600E4
:101BE0006D6F0000756E0000740000003220EF0081
:101BF00023E02000008041001040BA000160EF00A7
:101C00000000060061700000706500006E64000056
:101C1000206C00006F6700002E74000078740000D4
:101C20002062000075740000746F00006E200000D8
:101C3000707200006573000073650000642100008D
:101C4000210000003220EF00E3E22000008041008C
:101C50001040BA000160EF0000000600746500004B
:101C600073740000666900006C6500002E7400004B
:101C700078740000000000003220EF0083E42000B0
:101C8000008041001040BA000160EF000000060033
:101C9000486500006C6C00006F200000576F00006A
:101CA000726C0000640000003220EF00830220000C
:101CB000830150000500310003E72000008041004F
:101CC0001040BA000160EF000000060000E72000AD
:101CD00083814100808141001380BA00000006002A
:101CE0000D0A7400556E20006B6E6C006F776900F2
:101CF0006E207300436F74006D6D2000616E6F0085
:101D00006420660027252000732763002C206F00C5
:101D100075736D0065206D0027686100656C6E004D
:101D200070276400207473006F2000006765000056
:101D3000CCCFBF000000FB000000E00002003A0032
:101D4000F122A900F322A900CCCFBF000000FB00C4
:101D50006100E10002003A00F122A900F322A8008C
:101D600000000600F502A800F102A9005A08A80028
:101D7000000006004022EF004222EF000690BF0064
:101D80004222B70042C2A8004302A900E862A900AB
:101D9000E842A900E8C2A80041E2A800000006004D
:101DA000851F7800861F780034002000F47F8800AB
:101DB0000030EF0004052000048088000010E200DD
:101DC00006003A00F403200034808800BA0E0200B6
:101DD00000000000300F0400000000000010E200CE
:101DE00013003200048080006820E1000C003600FF
:101DF000FE2FED000090BF00E30260000500E00050
:101E000003003200048080006402420004808800E5
:101E10000030D5000030D500140F04000000000091
:101E2000180F040000000000EE0E04000000000087
:101E30000030ED00F57F80000502B3000090BF0088
:101E40004200DD000080EA00000378007C006300AF
:101E50008082720035808800BA0E02000000000007
:101E60004F037800CF027800000006003D71EF00BC
:101E70003CD1BF0048E2B7004962EF004002AE002B
:101E8000FEFF370048C2BF003DF1B7000060EF0021
:101E900000000600F40F2000441288004002AE004B
:101EA000FEFF370048C2BF0000E0B7000000060098
:101EB000851F78002231EF002431EF002631EF003A
:101EC0002831EF002A31EF002C31EF002E31EF00E6
:101ED0003031EF003231EF003431EF00F502A9006C
:101EE0001CD1BF000160EF00C202DD00C4DB200096
:101EF0000480420074898000004290007489880048
:101F00001E11F8002A11F9002011F8002C11F90017
:101F10001CD1BF000160EF00C202DD00E18242007F
:101F200005007800C4DB20000400400044898000E4
:101F300000429000448988002ED1A8002ED1BF0015
:101F40003CF1B700360F0200000000002DD1BF00A9
:101F50003CF1B700360F0200000000002CD1BF009A
:101F60003CF1B700360F0200000000002BD1BF008B
:101F70003CF1B700360F0200000000002AD1BF007C
:101F80003CF1B700360F02000000000028D1BF006E
:101F90003CF1B700360F020000000000E48880002A
:101FA0006524E10002003A004A0F02000000000030
:101FB00044012000848988004A0F020000000000CC
:101FC00022F1B7003031ED0014898000F4CFB20067
:101FD00002003A003011E200F7FF3A001CD1BF00C6
:101FE0000160EF00C202DD00E282420005007800DD
:101FF000C4DB200004004000104278006224E100AD
:1020000007003A0022D1BF0023F1B7004A0F0200B7
:102010000000000022F1B70074100400000000006E
:102020001CD1BF000160EF00C202DD00E28242006D
:1020300005007800C4DB2000040040001042780056
:102040006124E10012003A003231EF00A4002000C8
:10205000A48988004A0F02000000000022F1B700A6
:102060003231ED004200AE003431ED002251E20089
:1020700004003A003211E200F6FF3A003411E200A7
:10208000F4FF3A002271EF00741004000000000019
:102090001CD1BF000160EF00C202DD00E2824200FD
:1020A00005007800C4DB20000400400010427800E6
:1020B0006424E1000C003A004A0F02000000000016
:1020C00027F1B7004A0F02000000000026F1B70018
:1020D0004A0F02000000000025F1B7004A0F02007D
:1020E0000000000024F1B7003CF1EF00360F0200C1
:1020F000000000001CD1BF000160EF00C202DD0043
:10210000E382420005007800C4DB200004004000A8
:102110001004E00001003A00F502A8002291BF007F
:102120002189800032898000CF02780000000600FB
:1021300041E2A90000000600FF6FEF000030EF0051
:102140000230EF00FECFBF00FFEFB700FFCFBF00B0
:10215000FF6FED000004E0000E003200B47C2000B0
:10216000048088000230EF00118080000090BF00E2
:102170000030ED004200AE000230ED000000E00053
:10218000F9FF3A000100E000F7FF3A00A610040052
:10219000000000000000000000000600851F78001D
:1021A000C500200003000900B51F78000202B80036
:1021B0000303B8004200A9008502430060844B007D
:1021C000020BB80085024B0008844B00030BB800DB
:1021D000080443000780B0008701780008017800F8
:1021E0008500780004007800250120000300090024
:1021F000CF127800CF02780000000600851F78001B
:10220000861F7800871F7800DA2FEF00DC2FEF00A1
:10221000DE2FEF00E02FEF00E22FEF00E42FEF00C2
:10222000E62FEF00E82FEF00EA2FEF00EC2FEF0092
:10223000EE2FEF00F02FEF00F22FEF00F42FEF0062
:10224000F66FEF00F76FEF00F82FEF00FA2FEF00B7
:10225000FC6FEF00FD6FEF00A86DEF00A96DEF00C0
:10226000A02DEF00A22DEF00A66DEF00F502A80053
:10227000D00E020000000000E0C1B300FEEFB70086
:102280009C10020000000000F502A800DA2FEF0009
:10229000D47E80006A20E100060031003CF1EF00AE
:1022A000360F020000000000DA2FEC004811040095
:1022B0000000000044062000D47E8800F502A8003B
:1022C0003CF1EF00360F020000000000F502A9000B
:1022D000DA2FED001C71EF001E31EF002031EF000E
:1022E000580F020000000000DCAFB700F17E88004C
:1022F000027F8800E47E80006124E1000200320059
:10230000DA0FE200EDFF3A00DA0FE20022003A00B5
:10231000F502A8003CF1EF00360F020000000000BB
:10232000F502A90050C0B3001CF1B7001E31EF0048
:102330002031EF00580F020000000000DCAFB700B2
:10234000F17E8800027F88001C71EF001E31EF00D3
:102350002031EF00580F020000000000DCAFB70092
:10236000F17E8800027F8800E47E80006124E10025
:102370000700320020C0B300A8EDB70084DA2000C7
:10238000040088004B013700C81104000000000061
:10239000CC1104000000000020C0B3001CF1B70005
:1023A000A41A2000F48888002031EF00580F0200A2
:1023B00000000000DCAFB700F17E8800027F8800DB
:1023C000F0FF2000DE0FB600800278000003EB0073
:1023D000A41A20000520E10047003A000600E000B2
:1023E00045003A00DC4FAF004300370000C1B300A6
:1023F0001CF1B7001E31EF002031EF00580F020032
:1024000000000000DCAFB700F17E8800027F88008A
:10241000DA2FEF00D47E8000F3FF2F000418E100D4
:1024200017003200F0C0B3001CF1B7001E31EF00FE
:102430002031EF00580F02000000000020C1B3005F
:102440001CF1B7001E31EF0004002400048988004D
:10245000580F020000000000DCAFB700F17E8800DA
:10246000027F8800DC4FE20002003A0040120400C4
:1024700000000000DA2FEC000A1204000000000047
:10248000D47E8000F3FF2F000418E10002003A0020
:1024900020C0B300A8EDB70000C1B3001CF1B70025
:1024A0001E31EF002031EF00580F02000000000045
:1024B000DCAFB700F17E8800027F880000002400B6
:1024C000E00FB600800078000000EB000000E000A4
:1024D00002003A000100E0000400320010C0B30026
:1024E000A6EDB7007812040000000000A66DEF0012
:1024F000B812040000000000F502A80010C0B300EC
:10250000FEEFB7009C10020000000000F502A900D9
:10251000A66DEF00F4FF2100D47E880010C0B30048
:102520001CF1B7001E31EF002031EF00580F020000
:1025300000000000DCAFB700F17E8800027F880059
:10254000DA2FED00DC4FE20002003200DA0FE20089
:10255000F2FF3A00DA0FE20005003A0020C0B300B3
:10256000A8EDB700F502A800B812040000000000B2
:10257000F502A800E403200034808800BA0E0200AF
:1025800000000000F502A90044012000D47E88006C
:1025900030C0B3001CF1B7001E31EF002031EF0056
:1025A000580F020000000000DCAFB700F17E880089
:1025B000027F8800DA2FED00DC4FE20002003200DB
:1025C000DA0FE200F2FF3A00DA0FE2000200320016
:1025D000F81204000000000020C0B300A8EDB7000E
:1025E000F502A80084DA200004008800B10037005A
:1025F000F76FEF00F66FEF00B47F80007424E10006
:1026000011003100B47F80004822DE0023FE20004C
:10261000830242004A0F020000000000804A780056
:10262000F76FEC00F64FE20004003A00147F8000E0
:10263000E4CFB20001003A00F76FEF00F66FEC0054
:10264000FC1204000000000004202000246D88001B
:1026500004202000546D8800A90DA800E2CFBF001F
:10266000000CB2000000E00029003200E9CFBF00FA
:10267000804278000B60EF0006002000F503B200F6
:102680000003EB000503780005002000EACFBF003F
:102690000EE0B7000F60EF000740780001E0B700E0
:1026A0000040EB0080827200EBCFBF000160EF00C2
:1026B000F8EFB700F96FEF0005007800F82FB700CA
:1026C000D67F8800C47F80006102420084027800C7
:1026D000D47F800060024A0004037800A400200038
:1026E0000402E8000402E900030032008502D00081
:1026F0000683D200FBFF370061805200A0ADB70017
:1027000060005B00A2ADB7003A14040000000000B6
:10271000E8CFBF000AE0B7000B60EF000600200022
:102720000503780005002000E9CFBF008043780052
:102730000F60EF000740780001E0B7000040EB00B9
:1027400080827200EACFBF00F8EFB700F96FEF00A8
:1027500005007800F82FB700D67F880000FC2F0016
:10276000F82FB600FA8FBF0063006000FAAFB70021
:10277000640020000402E8000402E90003003200C3
:10278000FA2FD500F8AFD700FBFF3700EBCFBF0023
:102790000160EF00E3026000C12ADD00667F800077
:1027A0000608B2004730DE00FCEFB70005007800F5
:1027B000FC6FB700E7CFBF006F406000FDEFB700D0
:1027C000E47F80004822DE006900520000027800A9
:1027D000100020000400DD00FDEFB700FDEFB700A2
:1027E000C47F80006102420084027800D47F8000B0
:1027F00060024A0004037800E47F80000960EF0073
:1028000062024200040078000002780010002000FC
:102810000400DD008600780000017800030020003D
:1028200005007800CE100200000000008002780051
:1028300001037800801F7800FDCFBF0000417800C1
:102840004F0078000560EF000300200005007800CD
:1028500086007800CE1002000000000080027800A0
:102860000103780061805200A0ADB70060005B00FA
:10287000A2ADB70010C1B3001CF1B7001E31EF00CC
:102880002031EF00580F02000000000070C0B300BC
:102890001CF1B700A40DF8001E11F9002031EF0063
:1028A000580F020000000000F502A80084DA2000A2
:1028B00004008800CF0378004F037800CF0278002F
:1028C00000000600851F7800CC2FEF00CE2FEF0010
:1028D000D02FEF0041E2AF0030003700D26FEF00A1
:1028E000D00E02000000000040C0B300D2EFB700DD
:1028F000F502A8003CF1EF00360F020000000000D6
:10290000F502A900D26FED001C71EF001E31EF003F
:102910002031EF00580F020000000000CCAFB700DC
:10292000717E8800827E8800647E80006124E100E0
:1029300002003200D24FE200EDFF3A00647E8000D8
:102940006124E1000600320098100200000000003F
:102950000060EF0035003700CA14040000000000DA
:10296000FE10020000000000A84DE20005003A0041
:1029700010C0B30000E0B7002C003700CA140400F8
:102980000000000098100200000000000060EF004E
:1029900026003700121504000000000060C0B300DC
:1029A0001CF1B7001E31EF002031EF00580F02007C
:1029B00000000000CCAFB700717E8800827E8800E6
:1029C000C0C02E00CC0FB600800278000500E000E9
:1029D000110032009810020000000000FE100200FA
:1029E00000000000A84DE20005003A0010C0B3004E
:1029F00000E0B7000D0037000815040000000000DB
:102A000098100200000000000060EF00070037008F
:102A1000121504000000000010C0B30000E0B70071
:102A20000200370010C0B30000E0B700CF0278000A
:102A300000000600851F78000E71EF001031EF00D6
:102A40001231EF001431EF00C00020000C11B4006F
:102A500080027800154078000160EF000080B2002D
:102A60000B0032001080B2000B0032002080B20058
:102A7000500032001080B2007F003200C08FB200E0
:102A8000DA0032001080B200E5003200E4003700C6
:102A90000060EF00E9003700042020006470880027
:102AA0000C91BF00E1DA2000000178000D00090060
:102AB000B2587800A64DE20007003A0094002000CA
:102AC0000402E8000402E90003003200B62DD4003D
:102AD000B8ADD600FBFF3700946D80006020E100A8
:102AE00013003E0004003900846D800003202000A4
:102AF0000418E1000E0039005A48A80080C0B30055
:102B00001CF1B700B60DF8001E11F900B80DF80061
:102B10002011F900580F02000000000010B1B700AA
:102B200091888800A2888800B01504000000000089
:102B30005A48A90090C0B3001CF1B700B60DF800C8
:102B40001E11F900B80DF8002011F900580F02000D
:102B50000000000010B1B70091888800A2888800AA
:102B60001051E20008003200C00020000C11B40037
:102B700080027800E0CFB300804A780010C0B30034
:102B800000E0B700AD0037000E2EEF00440020003B
:102B900084708800C00020000C11B400800278000E
:102BA00030C0B300804A780010C0B30000E0B70026
:102BB000A20037000E0EE20002003A00100EE20002
:102BC000250032000E2EED004200AE00102EED006A
:102BD0004A0F0200000000000EF1B7007488800068
:102BE000F4CFB2001700320074888000E4CFB20046
:102BF0000A003A00C00020000C11B40080027800E6
:102C000020C0B300804A780020C0B30000E0B700C5
:102C10008A0037001E16040000000000C0002000DB
:102C20000C11B40080027800E0CFB300804A780035
:102C300010C0B30000E0B700800037002816040081
:102C40000000000010C0B30000E0B7007B003700B8
:102C50003C16040000000000C00020000C11B4006D
:102C600080027800E0CFB300804A780010C0B30043
:102C700000E0B70071003700B00DE20002003A003A
:102C8000B20DE20047003200000020000C11B40039
:102C9000901F7800AE0DF900600020000C11B40008
:102CA000901F7800B40DF900846D8000736D800072
:102CB00003005200B0ADB700946D800060005A0070
:102CC000B2ADB70064708000736D800003005200E5
:102CD0000CAEB700B40DF8001611F900AE0DF800F7
:102CE0001811F9001811E200150032001631ED003C
:102CF000F40F2000441288001631EC001831ED006A
:102D00001811E20002003A009616040000000000CC
:102D10004002AE00FEFF3700B58880004882BF0049
:102D20008042980078160400000000004002AE00C7
:102D3000FEFF3700B58880004882BF0080429800BF
:102D40000C0EE20012003A004A0F020000000000E0
:102D50004A0F020000000000B00DE20002003A003D
:102D6000B20DE20005003200C00020000C11B400DA
:102D70008002780030C0B300804A78000420200030
:102D80006470880010C0B30000E0B7002B0037006B
:102D900020C0B30000E0B70028003700F61604009A
:102DA000000000005A48AF000600370050C0B300D2
:102DB0001CF1B7001E31EF002031EF00580F020068
:102DC00000000000F502A8003CF1EF00360F020001
:102DD00000000000C00020000C11B4008002780048
:102DE000804AEB000060EF0014003700C0002000B4
:102DF0000C11B4008002780080CAEB0050C0B30010
:102E00001CF1B7001E31EF002031EF00580F020017
:102E10000000000010B1B70091888800A2888800E7
:102E2000F502A8003CF1EF00360F020000000000A0
:102E300000E0EF000100370000E0EF00CF02780073
:102E400000000600F830EF00FA30EF00FC30EF0031
:102E5000FE30EF000031EF000231EF000431EF00EF
:102E60000671EF0004202000C487880004202000A1
:102E7000D4878800FC30EF00F610F800FE10F9004F
:102E8000F210F8000011F900F410F8000211F90036
:102E900010C0B30004F1B700840F210064888800DB
:102EA0001A1502000000000006F1B7000651E2000A
:102EB00005003A0010C0B30000E0B7000A00370078
:102EC0006E1704000000000034888000F4CFB200C8
:102ED00002003A000060EF00030037004C170400C6
:102EE000000000000060EF0000000600851F780071
:102EF000F88FBF00F60FB400800278000540900004
:102F000000E0B700CF02780000000600851F7800BF
:102F1000C500200004000900B51F7800DC2FEF0079
:102F2000DE6FEF00DF6FEF00E02FEF00D47E800058
:102F30006002420004007800A10020000001780037
:102F400001000900B2587800F230EF00F430EF00D1
:102F5000B587880022170200000000006104E1002C
:102F60000600320080C0B300DEEFB70080C0B300BF
:102F7000B1E8B700581A040000000000D47E8000B9
:102F80006002420004007800A100200000017800E7
:102F900001000900B2587800057F8800E41F200076
:102FA000037F800004804100A10020000001780020
:102FB000B2587800540520000524E100CD003A0005
:102FC000F41F2000037F800004804100A100200046
:102FD00000017800B2587800A40A20000524E1001E
:102FE000C4003A00D47E80006002420004007800F1
:102FF000A10020000001780001000900B25878000B
:10300000B57F880064032000C47F88007617020023
:1030100000000000640420000024E10054003A0095
:10302000D47E80006002420004007800C1002000CD
:103030000001780001000900B2587800B67F8800CE
:1030400074032000C47F880076170200000000008F
:10305000140420000024E10045003A00D47E8000E2
:103060006002420004007800E100200000017800C6
:1030700001000900B2587800B77F8800840320005F
:10308000C47F88007617020000000000440520007D
:103090000024E10036003A00D47E80006002420045
:1030A00004007800010120000001780001000900FF
:1030B000B2587800B87F880094032000C47F88004D
:1030C0007617020000000000140320000024E10035
:1030D00027003A00D47E800060024200040078009D
:1030E000210120000001780001000900B258780099
:1030F000B97F880064022000C47F88007617020030
:1031000000000000940220000024E10018003A00B2
:10311000D47E8000620242000400780080027800C1
:10312000060020000700200085007800C200200073
:1031300001000900B25878008058EB008058EB007D
:1031400024022000D37E80000480410080027800A9
:1031500026C0B30085007800C2002000B258780075
:103160000060EF00D40037007A190400000000006E
:10317000D47E80006002420004007800A10020009C
:103180000001780001000900B2587800B57F88007E
:1031900024052000C47F880076170200000000008C
:1031A000640420000024E10052003A00D47E800034
:1031B0006002420004007800C10020000001780095
:1031C00001000900B2587800B67F8800340520005D
:1031D000C47F88007617020000000000140420005D
:1031E0000024E10043003A00D47E800060024200E7
:1031F00004007800E10020000001780001000900CF
:10320000B2587800B77F880044052000C47F88004A
:103210007617020000000000440520000024E100B1
:1032200034003A00D47E800060024200040078003E
:10323000010120000001780001000900B258780067
:10324000B87F880054052000C47F880076170200EC
:1032500000000000340320000024E10025003A00B3
:10326000D47E80006002420004007800210120002A
:103270000001780001000900B2587800B97F880089
:1032800024042000C47F880076170200000000009C
:10329000940220000024E10016003A00D47E800051
:1032A00062024200040078008002780006002000DC
:1032B0000700200085007800C200200001000900FE
:1032C000B25878008058EB008058EB0024022000B0
:1032D000D37E8000048041008002780036C0B300B5
:1032E00085007800C2002000B25878000060EF002E
:1032F00071003700D47E8000600242000400780034
:10330000A10020000001780001000900B2587800F7
:10331000E57E8800E41F2000E37E800004804100F9
:10332000A100200000017800B25878005405200068
:103330000524E10009003A00F41F2000E37E80002C
:1033400004804100A100200000017800B2587800FC
:10335000A40A20000524E1000600320040C0B300AA
:10336000B1E8B70040C0B300DEEFB700581A040060
:1033700000000000E26FEF00E41B2000E37E80000D
:1033800004804100E4AFB700E26FEF00147F8000DB
:103390006424E10042003100D47E800062024200D9
:1033A0000400780080027800247F800068024200D8
:1033B00004007800C100200000017800030009002B
:1033C000B25878000604BE00850078000201200093
:1033D00003000900B2587800247F80006402420094
:1033E00004007800A100200000017800B2587800A5
:1033F00005407800DFEFB700DFCFBF000160EF00CE
:103400004080B200090032002080B2000700320084
:103410008080B200050032005080B2000E00320001
:103420007080B2000C003200160037002402200029
:10343000D37E8000048041008002780026C0B30063
:1034400085007800C2002000B2587800DECFBF00AF
:1034500000E0B7001800370024022000D37E80006F
:10346000048041008002780036C0B30085007800F7
:10347000C2002000B2587800DECFBF0000E0B700E5
:103480000D003700E40FF80000012000E42FB40025
:103490004F007800E26FEC00C61904000000000045
:1034A00050C0B300B1E8B70050C0B300DEEFB700C2
:1034B000DECFBF0000E0B700450120000400090096
:1034C000CF127800CF02780000000600851F780038
:1034D0000E70EF000F70EF001030EF000C90BF0087
:1034E0000A10B4007480800000429000748088004C
:1034F0006480800061024200840278000500780048
:103500000A10B400801F7800104078000FF0B70058
:103510004F0078000FD0BF0010F0B7001170EF001F
:1035200010D0BF0011F0B7001070EF000ED0BF0038
:103530000160EF001030B7001010F8000000F90033
:10354000CF02780000000600851F7800FA2FEF00F8
:10355000FC2FEF00FE2FEF000030EF00F60FF80019
:103560000A10F900F80FF8000C10F900661A0200B2
:1035700000000000FAAFB700C47F80006202420082
:1035800084027800F60FF8000A10F90065808800C0
:10359000661A020000000000FCAFB700FC0FF80044
:1035A000FE0FF9000030EF00FE0FF8000010F900E8
:1035B000FE2FEF00FA8FBF00FE2FB700FE8FBF0077
:1035C00001808000CF02780000000600851F78008F
:1035D000C500200003000900B51F78000900200085
:1035E0004300AF0019002000891F78000002EB00A3
:1035F0008002EB000003EB008003EB000304690092
:1036000011003200080220004200A9000080D20010
:103610008180D2000482D2008582D2000328E1009A
:1036200001003A0002A0E10003003900020252004A
:1036300083825A004200A8000683D2008783D2000A
:103640000804E900F0FF3A008700780006007800DF
:10365000CF0478000900E000010032000400BE0041
:103660002501200003000900CF127800CF02780066
:1036700000000600851F7800C50020000400090036
:10368000B51F7800DC2FEF00DE2FEF00E02FEF00FA
:10369000E22FEF00E42FEF00E62FEF00E86FEF00DE
:1036A000EA2FEF00EC2FEF00EE2FEF00E90FA9005B
:1036B000E92FA900D47E8000620242000400780055
:1036C000A10020000001780003000900B258780032
:1036D000D47E80006002420004007800E1002000F7
:1036E0000001780001000900B25878009587880031
:1036F000A6878800B7878800221702000000000014
:103700006104E1000400320080C0B300E8EFB700BC
:103710000421040000000000D47E8000600242000A
:1037200004007800A10020000001780001000900D9
:10373000B2587800557F8800E41F2000537F800036
:1037400004804100A100200000017800B2587800F8
:10375000540520000524E10009003A00F41F200070
:10376000537F800004804100A10020000001780008
:10377000B2587800A40A20000524E10004003200B9
:1037800030C0B300E8EFB700221F040000000000C3
:10379000D47E80006002420004007800A100200076
:1037A0000001780001000900B258780055808800B7
:1037B000E400200064808800661A02000000000017
:1037C000EEAFB70014022000D37E800004804100D9
:1037D00080027800D47E80006002420004007800FD
:1037E000C10020000001780001000900B2587800F3
:1037F000B67F8800D4002000C47F880076170200BE
:10380000000000008043780085007800E20020007E
:10381000B2587800D47E800066024200040078002E
:1038200080027800D47E80006202420004007800AA
:10383000C10020000001780003000900B2587800A0
:1038400006007800EE0FB400E0834B00870078009C
:103850000003BE0085007800C200200003000900BC
:10386000B258780004022000D37E8000048041001A
:1038700080027800D47E800060024200040078005C
:10388000C10020000001780001000900B258780052
:10389000B67F880004012000C47F880076170200EC
:1038A000000000008043780085007800E2002000DE
:1038B000B2587800D47E80007C0242000400780078
:1038C00080027800D47E800060024200040078000C
:1038D000C10020000001780001000900B258780002
:1038E000568088006401200064808800661A020007
:1038F00000000000800378000800200085007800A8
:10390000E200200001000900B25878008058EB0066
:103910008058EB00D47E80007C02420004007800D6
:10392000A10020000001780003000900B2587800CF
:103930000500E00018003A000600E00016003A001A
:10394000D47E80007C02420004007800800278006F
:10395000D47E80006002420004007800C100200094
:103960000001780001000900B2587800B67F880095
:1039700044022000C47F8800A41A02000000000056
:10398000800378000104780085007800E2002000C0
:1039900003000900B2587800D47E80006A02420019
:1039A0000400780080027800D47E80006602420025
:1039B00004007800C1002000000178000300090025
:1039C000B258780004022000D37E800004804100B9
:1039D0000101200000017800B2587800D47E8000F8
:1039E0007C024200040078002101200000017800E0
:1039F00003000900B2587800010020000840780058
:103A00000160EF00090178008A017800CE10020001
:103A10000000000006004000878048000003BE0050
:103A200085007800C200200003000900B258780029
:103A3000D47E800072024200040078008002780088
:103A4000D47E80006002420004007800C1002000A3
:103A50000001780001000900B25878005680880003
:103A60001401200064808800661A02000000000033
:103A70008003780085007800E20020000100090042
:103A8000B2587800D47E80006002420004007800C2
:103A9000A10020000001780001000900B258780060
:103AA000558088003401200064808800661A020076
:103AB00000000000E0AFB700E22FEF00E00FE200EF
:103AC00010003A00E20FE2000E003A00D47E8000BF
:103AD0006002420004007800A1002000000178008C
:103AE00001000900B2587800B57F88000402200068
:103AF000C47F8800A41A020000000000E0AFB700F5
:103B0000117F8800D47E80006002420004007800AB
:103B1000A10020000001780001000900B2587800DF
:103B200055808800B400200064808800661A020076
:103B300000000000ECAFB700EC0FE2000400320020
:103B4000EC8FBF00E10260006128E10004003A0050
:103B500010C2B300E8EFB700221F0400000000000D
:103B6000D47E80007202420004007800A100200090
:103B70000001780001000900B2587800C52ADD0074
:103B8000647F8000610052008502400005027800D9
:103B9000637F8000110009000382D800DCAFB7000A
:103BA000DE2FEF0004022000D37E8000048041005D
:103BB000A100200000017800B2587800D47E800077
:103BC0007C02420004007800C1002000000178005F
:103BD00003000900B2587800010020000540780079
:103BE0000160EF000601780087017800CE10020026
:103BF00000000000747F800084024000E0804800E4
:103C00000103780005007800DC0FB400F47E80002A
:103C100084004B00047F800000005200E4AFB70036
:103C2000147F800001005A00E6AFB700D47E800008
:103C30007402420004007800800278001402200020
:103C4000D37E800004804100C10020000001780084
:103C5000B25878004300A900064178000560EF00E3
:103C600003002000E48FBF00317F8000E61A0200CD
:103C700000000000800378000104780085007800CF
:103C8000E200200003000900B2587800D47E8000D2
:103C90007402420004007800A100200000017800B6
:103CA00003000900B25878006030E1000E003E00C9
:103CB0000300390054FF2F000520E1000A00360000
:103CC00024022000D37E800004804100800278001E
:103CD00026C0B30085007800C2002000B2587800EA
:103CE000841E04000000000024022000D37E800017
:103CF000048041008002780036C0B300850078005F
:103D0000C2002000B258780024022000D37E800038
:103D100004804100A100200000017800B258780022
:103D2000632CE10024003A00D47E8000600242004F
:103D300004007800A10020000001780001000900C3
:103D4000B2587800B57F8800C4022000C47F880084
:103D5000A41A020000000000B2A8B700A145880024
:103D6000D47E80006E024200040078008002780059
:103D7000D47E80006A02420004007800C100200066
:103D80000001780003000900B258780006007800AE
:103D9000DC0FB400F47E800084804B000003BE0082
:103DA00085007800C200200003000900B2587800A6
:103DB000161F040000000000B228EF00B428EF0036
:103DC000D47E80006E0242000400780080027800F9
:103DD000D47E80006A02420004007800C100200006
:103DE0000001780003000900B2587800D47E8000FA
:103DF00072024200040078000101200000017800F6
:103E000001000900B25878004440DE00060040007E
:103E10000400200087004A000003BE0085007800EF
:103E2000C200200003000900B2587800647F8000BF
:103E3000032020000418E1000200310010C2B3008A
:103E4000E8EFB70024022000D37E80000480410008
:103E5000A100200000017800B2587800632CE10036
:103E600014003200E84FE200E30032002404200096
:103E7000537F800004804100A100200000017800F1
:103E8000B2587800940220000524E10009003200B5
:103E900024042000537F800004804100A100200002
:103EA00000017800B2587800840220000524E10067
:103EB000D1003A00547F8000730242000400780071
:103EC000A10020000001780001000900B25878002C
:103ED0000500E00072003A0044032000537F800098
:103EE00004804100A100200000017800B258780051
:103EF0000504E0006A003A0054032000537F80006C
:103F000004804100A100200000017800B258780030
:103F10000504E00062003A0064032000537F800043
:103F200004804100A100200000017800B258780010
:103F30000504E0005A003A0074032000537F80001B
:103F400004804100A100200000017800B2587800F0
:103F50000504E00052003A0084032000537F8000F3
:103F600004804100A100200000017800B2587800D0
:103F70000504E0004A003A0094032000537F8000CB
:103F800004804100A100200000017800B2587800B0
:103F90000504E00042003A00A4032000537F8000A3
:103FA00004804100A100200000017800B258780090
:103FB0000504E0003A003A00B4032000537F80007B
:103FC00004804100A100200000017800B258780070
:103FD0000504E00032003A00C4032000537F800053
:103FE00004804100A100200000017800B258780050
:103FF0000504E0002A003A00D4032000537F80002B
:1040000004804100A100200000017800B25878002F
:104010000504E00022003A00E4032000537F800002
:1040200004804100A100200000017800B25878000F
:104030000504E0001A003A00F4032000537F8000DA
:1040400004804100A100200000017800B2587800EF
:104050000504E00012003A0024042000537F800091
:1040600004804100A100200000017800B2587800CF
:10407000940220000524E1000B00320024042000FB
:10408000537F800004804100A100200000017800DF
:10409000B2587800840220000524E10002003200BA
:1040A00030C0B300E8EFB700E84FE2002C00320068
:1040B000E90FAF002A003700E90FA800D47E800086
:1040C0006202420004007800A10020000001780094
:1040D00003000900B258780024032000537F8000B9
:1040E00004804100E1002000000178000100090087
:1040F000B2587800858243000400200006034A007D
:10410000D47E80006002420004007800010120009B
:104110000001780001000900B258780095878800F6
:10412000A6878800B88788002217020000000000D8
:104130006104E1000700320080C0B300B1E8B700BD
:1041400080C0B30000E0B70035003700B0200400A5
:1041500000000000E86FEF000021040000000000F4
:10416000E84FE20024003200E92FAF0022003700C0
:10417000E92FA800D47E800062024200040078008B
:10418000A10020000001780003000900B258780067
:10419000E682420060034B00D47E80006002420051
:1041A00004007800E100200000017800010009000F
:1041B000B258780095878800A6878800B78788005E
:1041C00022170200000000006104E1000700320035
:1041D00080C0B300B1E8B70080C0B30000E0B70012
:1041E0000F003700FC20040000000000E86FEF0023
:1041F0000021040000000000042104000000000071
:104200009C1B040000000000E84FE20002003200A6
:10421000E8CFBF00B1E8B700E8CFBF0000E0B700CB
:104220004501200004000900CF127800CF02780079
:1042300000000600851F7800861F7800871F780021
:10424000D46FEF00D62FEF0034022000937E800061
:1042500004804100800278000043EB008500780074
:10426000C2002000B2587800947E800060024200B4
:10427000040078008002780006962000850078000F
:10428000C200200001000900B2587800FE100200B0
:1042900000000000D6AFB70000002000D60FB40029
:1042A0001004E0000600320060C0B300D4EFB70095
:1042B00060C0B300B1E8B700D021040000000000E6
:1042C00010002000D60FB400104278000400A600B1
:1042D0001D003700947E80007802420004007800C0
:1042E0008002780020002000D60FB4000002780081
:1042F0001400780000037800070020008500780093
:10430000C200200001000900B25878008058EB007C
:104310008058EB0020002000D60FB40090027800F7
:10432000042020000520E1000700310010C2B30086
:10433000D4EFB70010C2B300B1E8B700D4CFBF00CC
:1043400000E0B70018003700D20FF800DA0FF900CC
:104350008617020000000000D4EFB700D44FE2003F
:104360000F003A00D20FF800DA0FF9003A1B0200F2
:1043700000000000D4EFB700D44FE20008003A007C
:1043800034022000937E8000048041008002780087
:1043900016C0B30085007800C2002000B258780033
:1043A000D4CFBF0000E0B700CF0378004F03780000
:1043B000CF02780000000600851F7800CC2FEF00A8
:1043C000CC2FEF00647E80006120E10008003D00FA
:1043D000B4852000637E80008482410010C0B30059
:1043E000804A7800CC2FEC00E2210400000000009D
:1043F000B068EF009968EF00A4A8EF00A6A8EF004E
:10440000AAA8EF00ACA8EF00B20E02000000000066
:1044100005D62000957E88001A21020000000000C9
:104420000004E00058003A00F44A800060024200B4
:10443000040078008002780000C6B300804A78004B
:10444000D0C0B30090429800A00020005E09B400E4
:1044500080027800804AEB0000C0B30090429800D0
:10446000C00020005E09B40080027800804AEB00A2
:1044700000C0B30090429800E00020005E09B40044
:1044800080027800804AEB0000C0B30090429800A0
:1044900000C0B300A042980000C0B300B042980032
:1044A000200120005E09B40080027800804AEB0001
:1044B00000C0B3009042980000C0B300A042980032
:1044C00000C0B300B0429800C00120005E09B400F3
:1044D00080027800C0C5B300804A78001400200034
:1044E000647E8800647E80006B20E10009003D004E
:1044F000C0012000CC0FB400F44A800084024000C8
:1045000000C2B300804A7800CC2FEC007222040075
:1045100000000000800220005E09B40080027800E4
:10452000804AEB0000C0B30090429800C002200017
:104530005E09B4008002780000C1B300804A7800B0
:1045400000C0B30090429800E00220005E09B40071
:1045500080027800248B2000B41A7800B41A780006
:10456000200320005E09B40080027800248B200024
:10457000B41A7800B41A7800B168EF001400200073
:1045800004008800010037000020EF00CF0278000F
:1045900000000600861F7800871F7800881F7800BB
:1045A000891F78000002EB008002EB000003EB00A3
:1045B0008003EB00030469001100320008022000B0
:1045C0004200A9000080D2008180D2000482D20083
:1045D0008582D2000328E10001003A0002A0E10038
:1045E000030039000202520083825A004200A800F0
:1045F0000683D2008783D2000804E900F0FF3A0066
:104600008700780006007800CF0478004F04780017
:10461000CF0378004F03780000000600851F780064
:10462000C500200007000900B51F780000037800CE
:10463000810378000406780004F0A1000400E00083
:1046400002003A00050020000D003700EB42520046
:104650000A003900000320000CF0A6000002200030
:104660002322AF00FEFF370024A2B7008502E90035
:10467000FBFF3B00A500200001003700840278000A
:1046800008012000090020001000FA000C377C000F
:104690000884E900FDFF3B00A400200005E0A00025
:1046A0000CF0A70005F0A000040F78001507980093
:1046B000060078008700780002A02C00A3B9230030
:1046C000087122000DF0A1000DF0A200CA22020024
:1046D000000000000DF0A700070037004007980019
:1046E0005107980000017800810178002E009000A9
:1046F000BE009000F4FF370042079800530798006F
:1047000024079800350798001E0278009E0290004A
:10471000060320000000E00011003A0005E0A600BA
:10472000110037000402E900040F78000400E000E3
:104730000D0032000524E1004200AF000E003700FA
:10474000060320000000E00005003A0005E0A60096
:104750000500370005F0A600060220000200370021
:1047600005E0A10015079800004043002322AF0098
:10477000FEFF370024A2B7004E009000DE0090003C
:10478000A20020008001EB006100E1000100320086
:10479000CDFF37000080FA00A501200007000900C6
:1047A000CF127800CF02780000000600851F780045
:1047B000C500200003000900B51F780080037800C1
:1047C0008404780004F0A1000400E00006003A0030
:1047D00009F0A70002003700050020000F00370095
:1047E000050020000D003700E64252000A003900A3
:1047F0000003200009F0A600000220002322AF00E1
:10480000FEFF370024A2B7008502E900FBFF3B0052
:104810005500200001003700840278006400200069
:1048200005E0A00009F0A70005F0A0000871220033
:10483000110009008883D800502402000000000005
:1048400081037800883E2000110009008883D80089
:104850005024020000000000810378004806200078
:10486000110009008883D8005024020000000000D5
:1048700081037800A8002000110009008883D80077
:1048800050240200000000000003200000C040008F
:104890002322AF00FEFF370024A2B7001700370025
:1048A000060320000000E0000E003A0005E0A6002C
:1048B0000D0037000402E9000524E1000200320087
:1048C0004200AF00000006000000E00005003A00D2
:1048D00005E0A6000400370005F0A600060220004F
:1048E0000100370005E0A100004043002322AF0093
:1048F000FEFF370024A2B7000000060025012000BB
:1049000003000900CF127800CF02780000000600F3
:10491000851F7800861F7800871F7800881F780021
:104920005A68A900CC6FEF00980E0200000000004A
:10493000B20E02000000000062140200000000003D
:104940000004E0000D003A000100200001007800A2
:104950000160EF00E6060200000000008100E800B0
:104960002322AF00FEFF370024A2B7008001200001
:104970000008E600F5FF370065003700DC21020083
:10498000000000000000E000440032005A68A80067
:1049900001002000010078000160EF000C07020018
:1049A000000000008100E8002322AF00FEFF370076
:1049B00024A2B700100120000008E600F5FF370030
:1049C000A100200082D7200003000900B25878001F
:1049D0000500780086007800040020000E23020005
:1049E0000000000051012000010078000160EF008C
:1049F0000C070200000000008100E8002322AF0045
:104A0000FEFF370024A2B700300220000008E600B5
:104A1000F5FF3700E100200012D82000B2587800DE
:104A2000074078000160EF0004002000D623020058
:104A30000000000061022000010078000160EF002A
:104A40000C070200000000008100E8002322AF00F4
:104A5000FEFF370024A2B700C00220000008E600D5
:104A6000F5FF37000101200022D82000B25878005D
:104A7000084078000160EF0004002000D623020007
:104A8000000000002322AF00FEFF37009402200048
:104A90002411880088250400000000000100200087
:104AA000010078000160EF004A07020000000000EA
:104AB0008100E8002322AF00FEFF370024A2B700E8
:104AC000900220000008E600F5FF3700B1C8BF00E3
:104AD0000160EF0004002000D62302000000000067
:104AE000C1022000010078000160EF004A070200C7
:104AF000000000008100E8002322AF00FEFF370025
:104B000024A2B700F00220000008E600F5FF3700FD
:104B10004F047800CF0378004F037800CF0278006D
:104B200000000600811F78004175800080587800E1
:104B30008048EB00CF007800A82EEC0000000600B3
:104B40000000EB005A28AF000000E800000006005B
:104B5000851F78009230EF009010F8009210F90055
:104B60009290BF001004E000030032009230EC008D
:104B7000B02504000000000094848000838480003D
:104B80000300520000A0B700CF027800000006002A
:104B90009170EF009230EF009470EF009570EF008D
:104BA000346C80006C20E1000400360060C0B3006B
:104BB00091F0B700E0250400000000009170EF00C4
:104BC0009230EF009290BF00346C80000020E10032
:104BD0007F0036009290BF00840DB400801F7800E3
:104BE0001040780095F0B7004F007800A484800052
:104BF0004822DE0003022000041CE100040036000D
:104C0000A48480004822DE006524E1001C003A00F4
:104C1000A48480004822DE0024C2B20018003200C2
:104C2000A48480004822DE00F4C2B20014003200E6
:104C3000A48480004822DE00A4C3B2001000320029
:104C4000A48480004822DE00C4C3B2000C003200FD
:104C5000A48480004822DE00E4C3B20008003200D1
:104C6000A48480004822DE00C4C5B20004003200E3
:104C7000A48480004822DE00C4C7B20003003A00CA
:104C800070C0B30000E0B700520037009050E2005F
:104C90000B003A00A48480004822DE00A4C2B200C7
:104CA00004003200A48480004822DE00F4C3B20075
:104CB00003003A0070C0B30000E0B70045003700C1
:104CC000848480004822DE006624E1003D0032003A
:104CD000A48480004822DE0004C2B2001F0032001B
:104CE000A48480004822DE00B4C2B2001B0032005F
:104CF000A48480004822DE00C4C2B2001700320043
:104D0000A48480004822DE00B4C3B2001300320045
:104D1000A48480004822DE00D4C3B2000F00320019
:104D2000A48480004822DE00B4C5B2000B0032002B
:104D3000A48480004822DE00D4C5B20007003200FF
:104D4000A48480004822DE00E4C2B20007003A00DA
:104D5000A48480006124E10004003A0060C0B30034
:104D600091F0B700E226040000000000A484800057
:104D70004822DE00E4C2B20002003A0010C0B300D4
:104D800094F0B700848480004822DE006124E100B2
:104D90000C003200A48480004822DE0013062000AC
:104DA000041CE10007003E00A48480004822DE00CD
:104DB000A3072000041CE1000200390010C0B3006A
:104DC00091F0B7009230EC00E225040000000000F2
:104DD00091D0BF0000000600851F7800861F780074
:104DE000871F78006030EF005F70EF006230EF00E7
:104DF0006430EF006630EF006830EF006A30EF009B
:104E00006C10A9006E30EF007030EF007230EF00D0
:104E10007430EF007630EF007830EF007A30EF003A
:104E20007C30EF007E30EF008030EF008230EF000A
:104E30008430EF008630EF008830EF00C40020009F
:104E4000248388005A10F8009010F900A825020069
:104E50000000000086ADB7006490BF00346C800095
:104E60000020E10009003C005A90BF001042780089
:104E7000E4C2B200050032005A90BF0090427800B0
:104E80008502FB000500E00002003A000060EF0030
:104E9000C800370005072100256C88006430EF004A
:104EA0006490BF00346C80000020E10009003400F1
:104EB0006490BF00840DB400800278006490BF004D
:104EC0005A10B400904A78006430EC005027040077
:104ED000000000005ED0BF0090F0B700C8250200BF
:104EE000000000005FF0B700F48280004822DE007E
:104EF0006724E10002003A000060EF00AD003700D7
:104F0000860DF8006210F900F48280004822DE006D
:104F10006124E10000003A00F48280004822DE00B3
:104F20006624E100990032006C10AF009700370052
:104F30006830EF006890BF00148380000020E1001B
:104F40001E0034006890BF00840DB4001042780049
:104F5000E4C2B20005003A0014838000438380005D
:104F6000830252006428E10003003C004483800077
:104F70006820E100070034000060EF008D0037007A
:104F80006C10A800DE27040000000000D8270400F1
:104F9000000000006890BF00840DB400104278004B
:104FA000E4C2B20002003A00DE2704000000000064
:104FB0006830EC009A270400000000006C10AF007D
:104FC00072003700C00120005C10B40060B0B70070
:104FD0006430EF00248380006B20E10008003D0076
:104FE0006090BF006410B4008002780000C2B3007B
:104FF000804A78006430EC00EA27040000000000DA
:105000006810F8006A10F900840DF8006E10F900BD
:105010006430EF006630EF00348380006820E100E8
:1050200028003D006490BF00548380000020E10010
:10503000240034006490BF006E10B4001004E0003F
:105040001D0032006690BF006010B400800278003E
:105050006490BF006E10B400904A78006690BF0064
:105060006010B400904278008502FB001406200016
:105070000520E1000F003C006690BF006010B40006
:10508000904278008502FB00A40720000520E10083
:10509000080035006690BF006010B4008002780000
:1050A000154278000960EF0003022000030052005F
:1050B000804A78006630EC006430EC000C28040074
:1050C000000000006A90BF00148380000020E1000F
:1050D0002E0034006A30EC008400200044838800F5
:1050E000448380006B20E10028003D006A90BF00EF
:1050F000148380000020E100240034006A90BF0087
:105100006E10B4001004E0001D0032006890BF0073
:105110006010B400800278006A90BF006E10B40086
:10512000904A78006890BF006010B4009042780008
:105130008502FB00140620000520E1000F003C0062
:105140006890BF006010B400904278008502FB00B8
:10515000A40720000520E100080035006890BF008A
:105160006010B40080027800154278000960EF00FA
:105170000302200003005200804A78006830EC00EF
:105180006A30EC007028040000000000F482800007
:105190004822DE006624E100020032006C10AE00FE
:1051A000020037000060EF000200370010C0B300BB
:1051B00000E0B700CF0378004F037800CF027800FB
:1051C00000000600851F78006030EF006230EF00BD
:1051D0006430EF006630EF005C10F8006210F900F8
:1051E0005E10F8006410F900640320000483880056
:1051F0006630EF006690BF00048380000020E1006D
:10520000090034006690BF006210B400800278008C
:105210006690BF006410B400904A78006630EC00DD
:10522000FA28040000000000CF0278000000060009
:10523000851F78000231EF000431EF000631EF00E6
:105240000831EF000A31EF00C00020000011B40067
:1052500080027800154078000160EF000080B20005
:105260000B0032001080B2000B0032003080B20020
:10527000690032001080B200C20032007080B200BB
:105280000C013200A08FB200230132003001370040
:105290000060EF0037013700042020009470880080
:1052A0000091BF00E1DA2000000178000D00090044
:1052B000B2587800946D80006020E10009003E0043
:1052C00004003900846D8000032020000418E100F0
:1052D00004003900A0C0B300ADEDB700C029040040
:1052E00000000000B0C0B300ADEDB7009400200096
:1052F000B00DF8000211F900B20DF8000411F90028
:105300000402E8000402E900030032000431D50081
:1053100002B1D700FBFF37000211E20005003A009E
:105320000411E20003003A000231EC004220AF0019
:105330000431EC00F0C0B3001CF1B7001E31EF00E7
:105340002031EF00580F02000000000006B1B70046
:1053500041888800528888000651E20008003A001F
:1053600030C1B3001CF1B7000211F8001E11F900A2
:105370000411F8002011F900580F0200000000008D
:10538000A64DE20007003A00940020000402E80065
:105390000402E90003003200B62DD400B8ADD600F7
:1053A000FBFF3700ADCDBF001CF1B700B60DF80014
:1053B0001E11F900B80DF8002011F900580F020075
:1053C0000000000006B1B7004188880052888800BC
:1053D0000651E20008003200C00020000011B400B5
:1053E0008002780080CAEB0000E0EF00E1003700A7
:1053F000062A040000000000C00020000011B400D4
:105400008002780020C0B300804A780020C0B3003A
:1054100000E0B700D70037009470800004A0B2000D
:105420000E003A00646D80004822DE006B24E1002B
:1054300006003A00C0CFB3003CF1B700360F0200BF
:10544000000000002E2A040000000000E0CFB3009E
:105450003CF1B700360F0200000000000000200001
:105460000011B400901F7800AE0DF900600020001C
:105470000011B400901F7800B40DF900846D800015
:10548000736D800003005200B0ADB700946D8000D2
:1054900060005A00B2ADB70094708000736D800058
:1054A0000300520012AEB700B40DF8000C11F90061
:1054B000AE0DF8000E11F9000C91BF000C31EC009C
:1054C0004412800000429000441288004962EF00BC
:1054D0000E31ED004002AE00FEFF370048C2BF00B3
:1054E000A7EDB7000E11E200F3FF3A00120EE20042
:1054F00021003A0004202000947088003CF1EF0065
:10550000360F0200000000003CF1EF00360F0200F1
:10551000000000004A0F0200000000000160EF00E0
:10552000FF0260006528E10008003200C000200092
:105530000011B40080027800E0CFB300804A780008
:1055400030C0B30000E0B7008A003700C000200080
:105550000011B4008002780030C0B300804A7800A7
:10556000142EEF00A4002000B470880030C0B300F7
:1055700000E0B7007F00370020C0B30000E0B700B4
:105580007C003700140EE20002003A00160EE20022
:1055900040003200142EED004200AE00162EED0049
:1055A0003CF1EF00360F0200000000004A0F02003D
:1055B00000000000A7EDB700A74DE2003000320068
:1055C000B00DE20024003A00B20DE20022003A00E1
:1055D000142EEF00A4002000B4708800646D8000D9
:1055E0004822DE006B24E10011003A00D0CFB30066
:1055F0003CF1B700360F0200000000003CF1EF0064
:10560000360F020000000000C00020000011B400AE
:105610008002780040C0B300804A780030C0B300F8
:1056200000E0B700530037002C2B040000000000FE
:10563000F502A8003CF1EF00360F02000000000068
:10564000C00020000011B40080027800804AEB0006
:105650000060EF0047003700C00020000011B400D8
:105660008002780020C0B300804A780020C0B300D8
:1056700000E0B7003F003700462B040000000000A8
:1056800030C0B30000E0B7003A0037005A2B0400E6
:1056900000000000C00020000011B400800278006B
:1056A000E0CFB300804A780030C0B30000E0B7001C
:1056B00030003700140EE20002003A00160EE2003D
:1056C00015003200142EED004200AE00162EED0043
:1056D0004A0F020000000000A7EDB700A74DE2004E
:1056E0000A003200F502A8003CF1EF00360F02007C
:1056F00000000000C00020000011B400800278000B
:10570000804AEB000060EF001A00370030C0B300A1
:1057100000E0B7001700370050C0B3001CF1B7001D
:105720001E31EF002031EF00580F02000000000092
:10573000F502A8003CF1EF00360F02000000000067
:10574000C00020000011B4008002780080CAEB0085
:1057500000E0EF0007003700C00020000011B40097
:1057600080027800E0CFB300804A780030C0B300F8
:1057700000E0B700CF02780000000600F970EF00EB
:10578000F850E20006003A00F210E20004003A008D
:10579000F410E20002003A000060EF00230037003E
:1057A00004202000C470880004202000D4708800E9
:1057B0001C2EEF00F610F8001E0EF900F210F80093
:1057C000200EF900F410F800220EF90010C0B3000A
:1057D00024EEB70084E12000048888001829020024
:1057E00000000000F9F0B700F950E20005003A00AF
:1057F00010C0B30000E0B7000C0037000E2C04000E
:1058000000000000C48780004822DE00F4CFB20010
:1058100002003A000060EF0004003700EA2B0400A9
:105820000000000010C0B30000E0B7000000060058
:10583000851F7800861F7800871F7800881F7800F2
:10584000D370EF00D470EF00D570EF00D630EF00CA
:10585000D830EF00DA30EF00DC30EF00DE30EF0060
:10586000E030EF00E230EF00E430EF0024022000EF
:105870004386800004804100A100200000017800E0
:10588000B2587800632CE10013003200240220009B
:105890004386800004804100A100200000017800C0
:1058A000B2587800622CE1000B0032002402200084
:1058B0004386800004804100A100200000017800A0
:1058C000B2587800612CE10003003200F0FF2F0095
:1058D000F1FF20002B0137002402200043868000C6
:1058E00004804100A100200000017800B258780037
:1058F000054078000160EF003080B2000300320004
:105900001080B2000600320005003700E2B0EF0060
:10591000F4FF200024878800982C04000000000079
:10592000E2B0EF00E430EF00982C0400000000002B
:10593000B068EF00D250E20031003200D370EF00C7
:10594000A408F800DA10F900A608F800DC10F90045
:10595000040220004386800004804100A100200052
:1059600000017800B2587800948680004822DE005A
:105970000524E1001E003100F870EF00DA10F80095
:10598000F210F900DC10F800F410F90004B6200061
:10599000B4878800BE2B0200000000000004E00075
:1059A00003003A00E290BF0021878000F500370035
:1059B000D3D0BF00D370EC00448680007C0242004C
:1059C00004007800A1002000000178000300090015
:1059D000B258780005007800DA30B400060078008C
:1059E000DC90B400DCB0B700A82C0400000000007C
:1059F0009968EF000000200001002000E10037005E
:105A0000240220004386800004804100A100200081
:105A100000017800B2587800054078000160EF007E
:105A20003080B200030032001080B2000C0032005F
:105A30000B003700CA10F800D610F900CC10F8009F
:105A4000D810F900D630D400D8B0D600D630D40063
:105A5000D8B0D600D470EF00422D04000000000042
:105A6000CA10F800D610F900CC10F800D810F900D0
:105A7000D630D400D8B0D600D470EF00422D040048
:105A800000000000448680006602420004007800A6
:105A9000A10020000001780003000900B25878003E
:105AA000448680007802420004007800E100200073
:105AB0000001780003000900B25878004300A900F3
:105AC000D690BF00C1868000070178008801780069
:105AD000E61A02000000000005004000DEB0B7003A
:105AE00006804800E0B0B70044868000780242009B
:105AF00004007800A10020000001780003000900E4
:105B0000B258780061805200E0005B00D630B600E9
:105B100001007800D830B600A488BF00DE10E30092
:105B200003003A00A688BF00E010E3004500320001
:105B30009948E2002E003200D370EF00A408F8006C
:105B4000DA10F900A608F800DC10F90004022000C1
:105B50004386800004804100A100200000017800FD
:105B6000B2587800948680004822DE000524E100C7
:105B70001E003100F870EF00DA10F800F210F900A2
:105B8000DC10F800F410F90004B62000B487880097
:105B9000BE2B0200000000000004E00003003A00F9
:105BA000E290BF002187800076003700D3D0BF008D
:105BB000D370EC00448680007C0242000400780030
:105BC000A10020000001780003000900B25878000D
:105BD00005007800DA30B40006007800DC90B400EC
:105BE000DCB0B700A62D0400000000009968EF00AB
:105BF000DE10F800F210F900E010F800F410F900DF
:105C000004B62000B48788002217020000000000BC
:105C10000004E00007003A00A4A8EF00A628EF0067
:105C2000E290BF002187800056003700222E04003A
:105C300000000000DE10F800A408F900E010F800F1
:105C4000A608F90024022000438680000480410059
:105C5000A100200000017800B2587800632CE10018
:105C60002B003A0000B62000D610B4008002780065
:105C70008000EB00CE90BF00F00FB200804A7800A9
:105C800000B62000D610B40080027800E182420005
:105C9000050078008002780000F02F00CE10B600DA
:105CA000000378008003EB000DC0BF00804A78003D
:105CB00000B62000D610B40080027800E2824200D4
:105CC00005007800800278000003EB0087868000E2
:105CD000F70FB200874A780000B62000D610B40053
:105CE00080027800E382420005007800800278009C
:105CF0000003EB0000F02000D010B6008003780015
:105D00000FC0BF00804A7800BA2E040000000000D7
:105D1000240220004386800004804100A10020006E
:105D200000017800B2587800622CE10011003A00BE
:105D300000B62000D610B40080027800CE90BF00DC
:105D40008042980000B62000D610B400800278008F
:105D5000E1824200050078008002780000F02F0008
:105D6000CE10B600000378008003EB000DC0BF002A
:105D7000804A780010C0B30099E8B7000000200006
:105D8000010020004F047800CF0378004F03780013
:105D9000CF02780000000600851F7800861F78007B
:105DA000871F7800881F7800A870EF00AA30EF00E6
:105DB000AC30EF00AE30EF00B030EF00B230EF00AB
:105DC000B430EF00B630EF00B830EF00BA30EF007B
:105DD000BC30EF00BE30EF00C030EF00B068EF0025
:105DE000240220001385800004804100A1002000CF
:105DF00000017800B2587800054078000160EF009B
:105E00003080B200030032001080B2001300320074
:105E100012003700A410F800AA10F900A610F8002C
:105E2000AC10F900AA30D400ACB0D600AA30D4002F
:105E3000ACB0D600A870EF00BAB0EF00F4FF2000BD
:105E4000E485880084FF2F00F4858800F4FF20009B
:105E5000048688004A2F040000000000A410F80007
:105E6000AA10F900A610F800AC10F900AA30D4006E
:105E7000ACB0D600A870EF00BAB0EF00BC30EF00B5
:105E800084FF2F00F4858800C030EF004A2F040003
:105E900000000000148580006602420004007800C3
:105EA000A10020000001780003000900B25878002A
:105EB000148580007802420004007800E100200090
:105EC0000001780003000900B25878004300A900DF
