:080000001C2E040002000000A8
:04000C008C690000FB
:0C001000F062000058670000246500004A
:04005400CE6B00006F
:04017000466C0000D9
:100400003220EF00C3202000008041001040BA00DD
:100410000160EF00000006004C6900006D690000FB
:10042000742000006E7500006D62000065720000AF
:10043000206600006F720000205200006F750000FF
:1004400074650000722000005061000072730000AB
:10045000696E00006720000020250000690D000083
:100460000A0000003220EF00E3232000008041005A
:100470001040BA000160EF00000006007E0000009E
:100480003220EF00E301200083015000050031001D
:10049000C3252000008041001040BA000160EF0039
:1004A00000000600C02520008381410080814100BA
:1004B0001380BA00000006004854740054506500D0
:1004C0002F3178002E31740020322F003030680038
:1004D000204F74004B0A6D00436F6C006E740D006A
:1004E000656E0A00742D0D0054790A0070650000D5
:1004F0003A2000003220EF00630820008301500002
:100500000500310063292000008041001040BA003E
:100510000160EF0000000600602920008381410097
:10052000808141001380BA00000006003C21650074
:10053000444F630043543D005950640045206F0010
:10054000687463006D6C75003E3C6D0068746500F6
:100550006D6C6E003E3C740073632E007269710016
:10056000707475003E0A650020667200756E790031
:1005700063745300696F65006E206C0068616500EC
:100580006E6463006C65740052426F00436C7200CD
:10059000696328006B282700297B690063686E0067
:1005A000656370006B767500616C74003D645B0080
:1005B0006F636E00756D6100656E6D00742E650071
:1005C0007175200065723D0079532000656C220032
:1005D00065635300746F5300722849002769440013
:1005E0006E707200757422005B6E5D00616D3A0082
:1005F000652063003D206800225365005349630075
:1006000044726B00225D65003A63640068652700F0
:10061000636B290065642E00272974002E7669001B
:10062000616C740075656C003B20650063683B007D
:10063000656300006B7300003220EF002307200089
:100640008301500005003100833320000080410009
:100650001040BA000160EF00000006008033200067
:1006600083814100808141001380BA0000000600B0
:100670006966750028636D0068656500636B6E00D0
:10068000766174006C3D2E003D2267007E2165007E
:10069000244F74007468450065726C00222965005F
:1006A0007B766D006973650056616E00723D740063
:1006B0002276420069737900696249006C656400C2
:1006C000223B28007D202200656C53007365530097
:1006D0007B7649006973440056617400723D620084
:1006E000226822006964290064652E006E2273006E
:1006F0003B207400646F790063756C006D65650064
:100700006E742E002E67760065746900456C730068
:10071000656D6900656E62007442690079496C001C
:1007200064286900225374005349790044743D00E1
:1007300062227600292E6900766173006C7556007E
:10074000653D6100222272003B7D3B002064000079
:100750006F6300003220EF00C308200083015000C7
:1007600005003100633C2000008041001040BA00C9
:100770000160EF0000000600603C20008381410022
:10078000808141001380BA0000000600646F2E00D3
:10079000637576006D6569006E7473002E6769007D
:1007A00065746200456C6900656D6C00656E69007A
:1007B000744274007949790064283D002263220064
:1007C00075736800746F69006D506400726F640027
:1007D0007065650072746E006965220073223B00CB
:1007E000292E200073746400796C6F00652E6300FD
:1007F0007669750073696D00626965006C696E00E9
:10080000747974003D762E00697367005661650047
:10081000723B74000A69450066286C0063686500D5
:1008200065636D006B73650065636E002E6974000F
:100830006E644200657879004F66490028226400A2
:100840004E4F28004E452700222950003E2D4100E2
:1008500031295300207B5300646F7400637562007C
:100860006D6527006E7429002E672E006574760072
:10087000456C6100656D6C00656E750074426500C5
:1008800079493D00642822002270220077643B00F1
:1008900069767D0022290A002E7300007479000019
:1008A0006C6500003220EF00030720008301500038
:1008B00005003100E3462000008041001040BA00EE
:1008C0000160EF0000000600E04620008381410047
:1008D000808141001380BA0000000600656C2E0084
:1008E000736571007B6475006F636500756D7200E0
:1008F000656E7900742E53006765650074456C0061
:100900006C6565006D6563006E74740042796F00FC
:100910004964720028222800707727006469690002
:1009200076226E00292E700073747500796C740045
:10093000652E5B0076696E007369610062696D0007
:100940006C696500747920003D223D0076692000C5
:1009500073692200626C5300652253003B7D49009D
:100960007D664400756E720063742200696F5D00DD
:100970006E203A0073756300626D680069746500EB
:10098000466F6300726D6B0028296500207B640050
:10099000766127007220290073732E006964760047
:1009A000766161006C206C003D207500646F65000D
:1009B00063753B006D6500006E7400003220EF002F
:1009C000A30720008301500005003100A34F200041
:1009D000008041001040BA000160EF0000000600F6
:1009E000A04F200083814100808141001380BA0024
:1009F000000006007661420072207900656E4900B1
:100A000063726400797028005374270072205300C9
:100A10003D205300646F4900637544006D656800B4
:100A20006E7427002E71290075652E00727976008C
:100A3000536561006C656C00637475006F726500CE
:100A400028273D00696E640070756F00745B630059
:100A50006E6175006D656D00203D650020226E00A1
:100A60005353740049442E00722267005D3A6500BA
:100A700063687400656345006B656C0064276500FE
:100A8000292E6D0074696500746C6E00653B7400FE
:100A90002069420066287900737349006964640024
:100AA000766128006C3D27003D2253007E215300D3
:100AB000244F490074684400657274002229620062
:100AC0007B6427006F632900756D2E00656E7600CC
:100AD000742E610067656C00744575006C65650077
:100AE0006D653B006E7400003220EF0003072000AC
:100AF00083015000050031000359200000804100AF
:100B00001040BA000160EF0000000600005920000C
:100B100083814100808141001380BA0000000600FB
:100B2000646F6800637527006D6529006E742E0080
:100B30002E67760065746100456C6C00656D75000C
:100B4000656E650074423D007949640064286F0059
:100B5000274163005554750048686D0027296500DA
:100B60002E766E00616C740075652E003D64670022
:100B70006F636500756D7400656E4500742E6C00C2
:100B80006765650074456D006C6565006D656E0098
:100B90006E74740042794200496479002827490044
:100BA0004155640054482800444D2700272945003A
:100BB0002E764E00616C4300756552003B20590053
:100BC000646F5000637554006D6544006E744D0091
:100BD0002E67270065742900456C2E00656D760030
:100BE000656E610074426C00794975006428650087
:100BF00027453B004E437D0052590A0050540000E7
:100C00003220EF00C30520008301500005003100B1
:100C1000C3612000008041001040BA000160EF0075
:100C200000000600C06120008381410080814100F6
:100C30001380BA0000000600656C6E0073657400D6
:100C40007B642E006F636700756D6500656E7400D0
:100C5000742E450067656C00744565006C656D0019
:100C60006D6565006E746E004279740049644200DF
:100C70002827790053534900494464006827280015
:100C8000292E2700766141006C755500653D5400A2
:100C90007373480069646800766127006C3B290023
:100CA0000A692E0066287600656E610063726C002A
:100CB0007970750053746500722E3D00696E2200D4
:100CC00064655700784F5000662841002257320073
:100CD0005041500032225300293E4B002D3122005A
:100CE000297B3B00646F7D0063750A006D65000021
:100CF0003220EF00C30920008301500005003100BD
:100D000043692000008041001040BA000160EF00FC
:100D1000000006004069200083814100808141007D
:100D20001380BA0000000600656C5500736554001E
:100D30002069480066286800656E270063722900F4
:100D400079702E0053747600722E6100696E6C000B
:100D500064657500784F650066283D0022532200C7
:100D6000484157005245500044224100293E50005E
:100D70002D315300297B4B00646F220063753B00CB
:100D80006D657D006E740A002E67650065746C00E9
:100D9000456C7300656D6500656E7B007442640090
:100DA00079496F00642863002741750055546D0030
:100DB0004868650027296E002E767400616C2E004D
:100DC000756567003D226500534874004152450037
:100DD00045446C00223B65007D0A6D00656C650032
:100DE00073656E002069740066284200656E7900A4
:100DF000637249007970640053742800722E2700D2
:100E0000696E410064655500784F540066284800BB
:100E10002257680050412700505329004B222E00D2
:100E2000293E76002D316100297B6C00646F7500CE
:100E3000637565006D653D006E7422002E674F007E
:100E400065745000456C4500656D4E00656E22006E
:100E500074423B0079497D0064280A002741000064
:100E60003220EF00430720008301500005003100CD
:100E7000C3742000008041001040BA000160EF0000
:100E800000000600C0742000838141008081410081
:100E90001380BA000000060069662D002865310045
:100EA0006E63290072797B007053640074726F0066
:100EB0002E6963006E64750065786D004F6665008D
:100EC00028226E004145740053222E00293E6700FF
:100ED0002D316500297B7400646F450063756C00DB
:100EE0006D6565006E746D002E67650065746E003B
:100EF000456C7400656D4200656E7900744249006E
:100F00007949640064282800274527004E4345009E
:100F100052594E005054430068275200292E590060
:100F2000766150006C755400653D680022412700D1
:100F300045532900223B2E007D0A7600656C610036
:100F400073656C002069750066286500656E3D005C
:100F5000637222007970540053745000722E49005D
:100F6000696E4B0064652200784F3B0066287D0067
:100F700022540A00504900004B220000293E000084
:100F80003220EF00230620008301500005003100CD
:100F9000C37D2000008041001040BA000160EF00D6
:100FA00000000600C07D2000838141008081410057
:100FB0001380BA0000000600656C6E007365740053
:100FC00020692E0066286700656E650063727400F4
:100FD0007970450053746C00722E6500696E6D0067
:100FE00064656500784F6E006628740022574200E1
:100FF00045507900222949003E2D640031292800FE
:101000007B6427006F634500756D4E00656E43007D
:10101000742E520067655900744550006C65540089
:101020006D6568006E7427004279290049642E00BE
:1010300028277600454E610043526C0059507500D8
:101040005468650027293D002E762200616C4E0011
:1010500075654F003D224E00574545005022220045
:101060003B7D3B000A657D006C730A00657B7D005B
:10107000646F0000637500006D6500003220EF00B2
:10108000830520008301500005003100A385200066
:10109000008041001040BA000160EF00000006002F
:1010A000A085200083814100808141001380BA0027
:1010B00000000600646F2E00637567006D656500B3
:1010C0006E7474002E67450065746C00456C650095
:1010D000656D6D00656E650074426E00794974003F
:1010E0006428420027507900415349005368640046
:1010F000272928002E762700616C52007565730041
:101100003D646D006F637400756D2700656E290086
:10111000742E2E0067657300744575006C6562005F
:101120006D656D006E746900427974004964280031
:101130002827290050413B0053537D0074623C0036
:1011400027292F002E767300616C6300756572008D
:101150003B206900646F7000637574006D653E002C
:101160006E7400003220EF0023072000830150003E
:1011700005003100E38C2000008041001040BA00DF
:101180000160EF0000000600E08C20008381410038
:10119000808141001380BA00000006003C622600F6
:1011A0006F646E00793E62003C747300616270008F
:1011B0006C653B00205753004944650054486C005F
:1011C0003D2265003830630025257400223E200052
:1011D0003C6652006F726F006D2075006E61740086
:1011E0006D6565003D227200526F3A0075743C00D7
:1011F00065722F00204C54006973440074223E0035
:101200003E3C3C007472540020624400676320003E
:101210006F6C63006F726C003D2261002365730088
:101220003865730038653D00382222003E3C6D0071
:10123000544461002057690049446E00544822001C
:101240003D222000313176003022610020636C00A5
:101250006C616900737367003D226E006D613D0033
:10126000696E2200223E7400266E6F006273700069
:10127000703B2200266E3E0062730000703B00004F
:101280003220EF00030220008301500005003100EE
:10129000C3952000008041001040BA000160EF00BB
:1012A00000000600C095200083814100808141003C
:1012B0001380BA00000006003C64520069764200C8
:1012C00020694300643D6C00225369005349630068
:1012D00044726B0062222800206F29006E63220096
:1012E0006C693E00636B0A003D220A0068610000E1
:1012F0006E6400006C6500003220EF0083982000CF
:10130000008041001040BA000160EF0000000600BC
:101310005353000049440000000000003220EF0059
:10132000A30320008301500005003100A39A200090
:10133000008041001040BA000160EF00000006008C
:10134000A09A200083814100808141001380BA006F
:10135000000006003C6974006E70690075747400CA
:10136000206E6C00616D6500653D3D0022532200DA
:1013700053492500447273002220220069643E0014
:101380003D2220005353250049447300726220001F
:1013900025642800222025007479730070652500DB
:1013A0003D2225007261290064693C006F226200C1
:1013B00020767200616C200075652F003D223E0092
:1013C00025730A00222000003220EF0023042000B1
:1013D000830150000500310003A02000008041007F
:1013E0001040BA000160EF000000060000A02000DD
:1013F00083814100808141001380BA000000060013
:101400003C6974006E706C0075746500206E3D0060
:10141000616D2200653D4F002253740053496800FE
:101420004472650022207200696422003D2220007F
:101430005353630049446800726265002564630089
:1014400022206B0074796500706564003D223D00C8
:1014500072612200646963006F2268002076650073
:10146000616C630075656B003D2265007E21640040
:10147000244F220074683E0065720A0022200A0090
:10148000746900003220EF006306200083015000E1
:1014900005003100E3A52000008041001040BA00A3
:1014A0000160EF0000000600E0A5200083814100FC
:1014B000808141001380BA00000006004F7467006D
:1014C00068656300723A6F00203C6C00696E6F00C3
:1014D0007075720074203D007479220070652300DD
:1014E0003D2265007465380078746500222038005C
:1014F0006E6165006D6538003D22220053533E0049
:1015000049443C0072747400222064006964200025
:101510003D22540053534400494420007462570054
:10152000222049007769440064745400683D4800F3
:1015300022323D0035302200222031007661310018
:101540006C753000653D220022222000202F6300B0
:101550003E3C6C0062726100202F73003E3C7300C1
:101560002F643D00697622003E3C6D002F546100DF
:10157000443E69003C2F6E00747222003E3C3E00E7
:1015800074720A00206200003220EF00230820005D
:10159000830150000500310003AE200000804100AF
:1015A0001040BA000160EF000000060000AE20000D
:1015B00083814100808141001380BA000000060051
:1015C000266E610062736C00703B7500266E6500CC
:1015D00062733D00703B2200266E22006273200081
:1015E000703B7700266E690062736400703B740084
:1015F000266E680062733D00703B2200266E32004A
:1016000062733500703B3000266E2200627320004A
:10161000703B2F0053653E0063753C0072696200A9
:10162000747972003A3C20002F742F00643E3E0013
:101630003C543C00443E2F003C64640069766900E1
:1016400020697600643D3E0022703C0077646400AF
:1016500069766900223E760050612000737369004C
:10166000776F640072643D003A2022003C69630099
:101670006E707500757473002074740079706F005B
:10168000653D6D00227450006578720074226F0011
:10169000206E7000616D6500653D7200225074001F
:1016A000415369005322650020697300643D2200A4
:1016B00022503E0041530A00537400006222000091
:1016C000207600003220EF00A308200083015000A4
:1016D00005003100E3B72000008041001040BA004F
:1016E0000160EF0000000600E0B7200083814100A8
:1016F000808141001380BA0000000600417570002F
:10170000746874003A2069003C736F00656C6E0069
:101710006563200074207600696461003D226C00DE
:101720004155750054486500444D3D00223E22005D
:101730003C6F570070745000696F41006E2032009A
:10174000766150006C755300653D4B00224F2200BE
:10175000504520004E2273003E4F650050456C00FE
:101760004E3C65002F6F630070747400696F6500F4
:101770006E3E64003C6F3D0070742200696F730020
:101780006E20650076616C006C756500653D6300D8
:1017900022537400484165005245640044222200EF
:1017A0003E533E004841570052455000443C4100E2
:1017B0002F6F320070745000696F53006E3E4B0003
:1017C0003C6F3C0070742F00696F6F006E207000DA
:1017D000766174006C756900653D6F0022576E007C
:1017E00050413E0050533C004B222F003E577300A7
:1017F0005041650050536C004B3C65002F6F6300F7
:1018000070747400696F3E006E3E0A003C6F000009
:101810003220EF00C3082000830150000500310092
:1018200043C22000008041001040BA000160EF0078
:101830000000060040C220008381410080814100F9
:101840001380BA0000000600456E6500633A3D0053
:10185000203C2200736541006C65450063745300B1
:1018600020692200643D2000224563004E43680049
:101870005259650050546300444D6B00223E650090
:101880003C6F640070743D00696F22006E2063003D
:10189000766168006C756500653D6300224E6B00E3
:1018A0004F4E6500452264003E4E22004F4E200000
:1018B000453C73002F6F650070746C00696F6500A4
:1018C0006E3E63003C6F740070746500696F640065
:1018D0006E203D00766122006C757300653D6500E9
:1018E00022576C0045506500223E63005745740046
:1018F000503C65002F6F640070742200696F3E00D9
:101900006E3E41003C6F450070745300696F3C00AF
:101910006E202F0076616F006C757000653D74005D
:10192000225469004B496F0050226E003E543E0025
:101930004B493C00503C2F002F6F730070746500C2
:10194000696F6C006E3E65003C6F630070747400DC
:10195000696F3E006E200000766100006C7500002B
:101960003220EF00C3062000830150000500310043
:10197000C3CC2000008041001040BA000160EF009D
:1019800000000600C0CC200083814100808141001E
:101990001380BA00000006000A3C6D002F646C0042
:1019A000697622003E3C20002F542000443E6D000A
:1019B0003C2F6500747274003E3C68002F666F0017
:1019C0006F7264006D3E3D003C2F22007461670021
:1019D000626C6500653E74003C7422006162200008
:1019E0006C656F003E3C6E002F7473006162750081
:1019F0006C6562003E3C6D00666F6900726D74003C
:101A0000206E3D00616D2200653D7200225265002E
:101A10006F757400746575007220720053756E00E6
:101A2000626D200069747300222075006964620091
:101A30003D226D00527369006D74740022204600CF
:101A400061636F00746972006F6E6D003D22280043
:101A5000726F290075743B00657222005F733E004F
:101A600075620A006D690000742E00006874000041
:101A70003220EF00C3062000830150000500310032
:101A800043D52000008041001040BA000160EF0003
:101A90000000060040D52000838141008081410084
:101AA0001380BA00000006003C6969006E706E0089
:101AB000757470002074750079707400653D2000A5
:101AC0002268740069647900646570006E226500A4
:101AD000206E3D00616D2200653D68002253690063
:101AE000534964004422640020696500643D6E002F
:101AF000225322005349200044686E0022206100D6
:101B000076616D006C756500653D3D002222220006
:101B1000203E41003C6955006E70540075744800C9
:101B20002074220079702000653D690022686400FD
:101B300069643D00646522006E224100206E5500FC
:101B4000616D5400653D48002250680041532200F9
:101B50005322200020697600643D610022506C0011
:101B6000415375005368650022203D0076612200D4
:101B70006C752200653D3E0022220A003E3C0000BA
:101B80003220EF00230520008301500005003100C2
:101B9000C3DD2000008041001040BA000160EF006A
:101BA00000000600C0DD20008381410080814100EB
:101BB0001380BA00000006003C696C006E7075006E
:101BC0007574650020743D0079702200653D5300F6
:101BD000226875006964620064656D006E226900A8
:101BE000206E7400616D2200653D3E0022453C0080
:101BF0004E432F005259660050546F00222072004D
:101C000069646D003D223E00454E0A0043523C008F
:101C100059502F005468620022206F0076616400E2
:101C20006C757900653D3E0022223C003E3C2F0051
:101C3000696E68007075740074206D0074796C00B2
:101C400070653E003D220D0073750A00626D0D0047
:101C500069740A0022200000766100003220EF0043
:101C6000430520008301500005003100A3E420005B
:101C7000008041001040BA000160EF000000060043
:101C8000A0E4200083814100808141001380BA00DC
:101C9000000006003C212000444F690043547300BB
:101CA0005950200045207200485465004D4C630097
:101CB0003E0A6F003C686E00746D66006C3E690001
:101CC0000A5267006F7575007465720072206900B2
:101CD0004E616E006D6567002C2020005061610030
:101CE00073736E00776F640072642000206162007D
:101CF0006E646F0020456F006E6374007279690036
:101D000070746E00696F67006E200D00436F0A00EB
:101D10006E660D0069670A0075723C0065642F00ED
:101D20000A3C680062727400202F6D003E4F6C0008
:101D3000736D3E006F6200006F7400003220EF0090
:101D4000630620008301500005003100A3EB200052
:101D5000008041001040BA000160EF000000060062
:101D6000A0EB200083814100808141001380BA00F4
:101D7000000006003C216300444F7400435465009A
:101D8000595064004520290048547B004D4C6300A5
:101D90003E0A2E003C686900746D6E006C3E6E0059
:101DA0000A3C6500736372007269480070745400E5
:101DB0003E664D00756E4C0063742B00696F3D00EC
:101DC0006E2027006368630065636F006B436E00DD
:101DD000786E6E00286365006F6E63006E65740038
:101DE0006374650065646400297B2000633D7400B2
:101DF000646F6F00637520006D6574006E74680019
:101E00002E67650065742000456C6900656D6E0085
:101E1000656E7400744265007949720064286E0032
:101E200027436500584E740027292E003B0A2700DF
:101E300069663B0028637D006F6E0A006E650000D6
:101E40003220EF00C3042000830150000500310060
:101E5000C3F32000008041001040BA000160EF0091
:101E600000000600C0F32000838141008081410012
:101E70001380BA0000000600656C4F0073657300A4
:101E80007B636D002E696F006E6E620065726F007D
:101E9000485474004D4C20002B3D6900276E7300A0
:101EA0006F74200020633C006F6E2F006E6564002D
:101EB000637469006564760020743E006F203C0006
:101EC0007468620065207200696E200074652F00DE
:101ED000726E3E0065744C002E2769003B7D6E00DB
:101EE0007D3C6B002F73730063723A0069703C0095
:101EF000743E62003C6472006976200020692F0005
:101F0000643D3E0022430000584E0000223E000087
:101F10003220EF00C304200083015000050031008F
:101F200043FA2000008041001040BA000160EF0039
:101F30000000060040FA20008381410080814100BA
:101F40001380BA00000006003C6968006D676500F8
:101F50002073630072636B003D2743006874780050
:101F600074706E003A2F28002F6F3100736D2900B6
:101F70006F6222006F7420002E6F6F0072676E0018
:101F80002F736500696E7200676C720065706F0078
:101F900069787200656C3D002E67220069666300F7
:101FA0002720680073746500796C6300653D6B00E1
:101FB0002264430069737800706C6E0061792800B8
:101FC0003A6E30006F6E290065222200206F2000DB
:101FD0006E6C2F006F613E00643D000022630000C4
:101FE0003220EF0043022000830150000500310041
:101FF000C3002100008041001040BA000160EF00E2
:1020000000000600C0002100838141008081410062
:102010001380BA00000006003C61670020683C00A5
:1020200072652F00663D610022773E0069663C00C4
:10203000694362006F6E720066692F00672E3E0072
:1020400068743C006D6C2F00223E68005769740074
:1020500066696D0020436C006F6E3E00666900008B
:102060003220EF00C3032100008041001040BA007D
:102070000160EF00000006005353000049440000D7
:102080003D0000003220EF00E30421000080410009
:102090001040BA000160EF000000060000000000E0
:1020A0003220EF00C3052100008041001040BA003B
:1020B0000160EF0000000600504100005353000093
:1020C0003D0000003220EF00E306210000804100C7
:1020D0001040BA000160EF0000000600415500000A
:1020E000544800003D0000003220EF0003082100AA
:1020F000008041001040BA000160EF0000000600BF
:10210000454E00004352000059500000543D00006D
:10211000000000003220EF00630921000080410030
:102120001040BA000160EF00000006002E2E0000F3
:10213000000000003220EF00630A2100008041000F
:102140001040BA000160EF000000060020500000BF
:10215000433A0000254C0000582000000000000019
:102160003220EF00C30B2100008041001040BA0074
:102170000160EF00000006005053000056500000C0
:10218000414700003A2500004C58000020000000A4
:102190003220EF00430D2100008041001040BA00C2
:1021A0000160EF0000000600544200004C500000A7
:1021B000414700003A2500004C5800002000000074
:1021C0003220EF00C30E2100008041001040BA0011
:1021D0000160EF0000000600434F00005243000082
:1021E0004F4E00003A2500004C580000200000002F
:1021F0003220EF0043102100008041001040BA005F
:102200000160EF000000060041440000445200005D
:10221000455300005320000046410000554C00008B
:10222000540000003220EF00E31121000080410043
:102230001040BA000160EF00000006004D410000B0
:102240005448000020460000415500004C54000056
:10225000000000003220EF006313210000804100E5
:102260001040BA000160EF00000006005354000067
:10227000414300004B20000046410000554C000047
:10228000540000003220EF00E314210000804100E0
:102290001040BA000160EF00000006004F5300003C
:1022A000434900004C4C0000415400004F520000D4
:1022B00020460000415500004C5400000000000082
:1022C0003220EF00C3162100008041001040BA0008
:1022D0000160EF0000000600770000003220EF00F0
:1022E000A3172100008041001040BA000160EF00F8
:1022F00000000600610000003220EF00831821007A
:10230000008041001040BA000160EF0000000600AC
:102310002A2E00002A0000003220EF00831921003D
:10232000008041001040BA000160EF00000006008C
:102330003C440000495200003E2000002000000004
:102340003220EF00C31A2100008041001040BA0083
:102350000160EF0000000600200000003220EF00C6
:10236000A31B2100008041001040BA000160EF0073
:1023700000000600720000003220EF00831C2100E4
:10238000008041001040BA000160EF00000006002C
:102390000D0A000045720000726F0000722C0000F0
:1023A000204D00006564000069610000206E00009F
:1023B0006F740000206600006F7500006E640000FE
:1023C000210000003220EF00E31E210000804100C8
:1023D0001040BA000160EF00000006000D0A000086
:1023E00045720000726F0000722C0000206D00002A
:1023F0006564000069610000206E00006F740000D9
:10240000206600006F7500006E640000210000006F
:102410003220EF00630220008301500005003100EC
:1024200043222100008041001040BA000160EF000B
:10243000000006004022210083814100808141008C
:102440001380BA00000006000D0A69004D656100A6
:102450006469200061206E006E6F6F00742074004C
:10246000696E20006974660069616F006C697200B2
:102470007A656D0064206100286574006320740033
:102480003D20650025586400292C2100206D0000A6
:10249000656400003220EF00230220008301500019
:1024A0000500310063262100008041001040BA0081
:1024B0000160EF00000006006026210083814100DA
:1024C000808141001380BA00000006000D0A6F00F1
:1024D000466F7200726D2000617473007469690048
:1024E0006E677A00206D650065643D0069612500B6
:1024F00020284C00736955007A6529003D253A0073
:102500004C5520002C20000073650000637400000F
:102510003220EF0043292100008041001040BA0022
:102520000160EF00000006003132000033000000BF
:102530003220EF00432A2100008041001040BA0001
:102540000160EF000000060050610000756C0000A3
:10255000000000003220EF00632B210000804100CA
:102560001040BA000160EF00000006004572000054
:10257000726F000072200000666F0000726D000034
:1025800061740000746900006E670000206D000037
:102590006564000069610000000000003220EF0067
:1025A000A32D2100008041001040BA000160EF001F
:1025B000000006004D650000646900006120000015
:1025C000666F0000726D00006174000074650000A9
:1025D000640A00000D0000003220EF00830220009A
:1025E000830150000500310083302100008041004C
:1025F0001040BA000160EF000000060080302100AA
:1026000083814100808141001380BA0000000600F0
:102610000D0A6E004765640074747300696E2000D3
:10262000672074006D656F006469200061206D0093
:10263000696E6900666F6E0020287500746874000A
:1026400069736500206D73006179290020742E0084
:10265000616B2E0065202E0073650000636F000023
:102660003220EF00A302200083015000050031005A
:10267000C3342100008041001040BA000160EF0027
:1026800000000600C03421008381410080814100A8
:102690001380BA00000006000D0A20000A467400EC
:1026A000696C7200652079007379200073746D0085
:1026B000656D6F002074750068696E006E6B740044
:1026C000732069006D656E006469670061202000F9
:1026D000697361006E276700742061006D6F690087
:1026E000756E6E0074652100642C00003220EF00CE
:1026F00023382100008041001040BA000160EF0043
:10270000000006000D0A00000A4500007272000079
:102710006F7200002067000065740000746900009B
:102720006E670000206900006E6600006F00000008
:102730003220EF00433A2100008041001040BA00EF
:102740000160EF00000006000D0A00000A420000D0
:10275000797400006573000020700000657200004D
:102760002073000065630000746F0000723A00007F
:10277000202500004C550000000000003220EF0032
:10278000A33C2100008041001040BA000160EF002E
:10279000000006000D0A000053650000637400008D
:1027A0006F7200007320000070650000722000004E
:1027B000636C00007573000074650000723A0000DD
:1027C00020250000550000003220EF00033F2100CB
:1027D000008041001040BA000160EF0000000600D8
:1027E0000D0A0000546F0000746100006C200000AE
:1027F000736900007A650000206F00006620000009
:102800006D65000064690000613A00002025000049
:102810004C550000000000003220EF0083412100F1
:10282000008041001040BA000160EF000000060087
:102830000D0A00004672000065650000207300006C
:102840007061000063650000206F000066200000DA
:102850006D65000064690000613A000020250000F9
:102860004C5500000D0A0000000000003220EF006F
:1028700023442100008041001040BA000160EF00B5
:10288000000006000D0A00004D65000064690000AC
:10289000612000006E6F0000742000006D6F00006A
:1028A000756E000074650000642C0000206E00004E
:1028B0006F740000206700006574000074690000F8
:1028C0006E670000206900006E6600006F21000046
:1028D000000000003220EF0063472100008041002B
:1028E0001040BA000160EF000000060061700000B7
:1028F000706500006E640000206C00006F670000CF
:102900002E740000787400002062000075740000CE
:10291000746F00006E20000070720000657300008C
:102920007365000064210000210000003220EF00E8
:10293000234A2100008041001040BA000160EF00EE
:102940000000060065720000726F00007220000037
:102950006F700000656E0000696E00006720000067
:10296000636F00006E660000696700002E7400004F
:1029700078740000000000003220EF00834C21003A
:10298000008041001040BA000160EF000000060026
:10299000436F00006E660000696700002E7400003F
:1029A00078740000000000003220EF00E3012000F6
:1029B0008301500005003100034F210000804100D9
:1029C0001040BA000160EF0000000600004F210037
:1029D00083814100808141001380BA00000006001D
:1029E00050617400756C6500735F7200426F500037
:1029F00061726100643A730057547300532C77007E
:102A0000526F6F0075747200657264004E612C0025
:102A10006D657E002C5200006F7500003220EF00C3
:102A2000A3512100008041001040BA000160EF0076
:102A3000000006002C0000003220EF00835221002D
:102A4000008041001040BA000160EF000000060065
:102A500044690000737000006C6100007920000080
:102A6000736100007665000064200000646100006E
:102A700074610000206900006E200000436F0000B8
:102A80006E6600006967000020660000696C000047
:102A9000650000003220EF006355210000804100F6
:102AA0001040BA000160EF000000060061720000F3
:102AB0006368000069760000650000003220EF00C6
:102AC000A3562100008041001040BA000160EF00D1
:102AD000000006002530000032750000253000009F
:102AE0003275000025300000327500002E740000A1
:102AF00078740000000000003220EF002305200061
:102B000083015000050031008359210000804100FD
:102B10001040BA000160EF0000000600805921005B
:102B200083814100808141001380BA0000000600CB
:102B3000437224006162250024256C007324750013
:102B40002573240024252500303530002E31350032
:102B500066242E0025303100352E660031662400B3
:102B600024252500303530002E31350066242E0016
:102B700025303100352E66003166240024252500DD
:102B8000303530002E31350066242E0025303100DE
:102B9000352E6600316624002425250030353000AE
:102BA0002E31350066242E00256C31006424660029
:102BB00025302400352E25003166300024253500CF
:102BC0006C752E00242531006C75660024250000EC
:102BD0006C7500003220EF00E302200083015000FA
:102BE0000500310063602100008041001040BA0000
:102BF0000160EF0000000600606021008381410059
:102C0000808141001380BA000000060047450A0099
:102C1000542048002F776F00656C7300636F740059
:102C20006D653A00796F2000752E6F007068730033
:102C3000703F6D006E616F006D6562003D256F0035
:102C40007326740063682E006B736F006D3D720015
:102C50002575670020480D0054540A00502F0D00C0
:102C6000312E0A00310D00003220EF0003642100F4
:102C7000008041001040BA000160EF000000060033
:102C800062750000666600006572000000000000CA
:102C90003220EF0043652100008041001040BA005F
:102CA0000160EF000000060065720000726F000016
:102CB000722000006F700000656E0000696E0000F9
:102CC00067200000436100006C2E00007478000053
:102CD000740000003220EF00636721000080410093
:102CE0001040BA000160EF000000060043610000E0
:102CF0006C2E000074780000740000003220EF0099
:102D0000030920008301500005003100A369210060
:102D1000008041001040BA000160EF000000060092
:102D2000A069210083814100808141001380BA00A5
:102D30000000060034333500392C2C0035323100C8
:102D4000302C340031393900353037002C3438001C
:102D5000323032002C352E00303030002C312C0037
:102D600039353100302C310034303700372C330006
:102D700034373100352C320031392E0035303700F0
:102D80002C313500312E2C00352C3600342E2E00FF
:102D9000302C3500302E2C00302C3700382E2E00F1
:102DA000342C3400342E2C00302C3900302E2E00E0
:102DB000302C3000372E2C00302C3400342E3000D4
:102DC000302C2C00302E3200302C300032302C00D1
:102DD0003836360038332C002E313500323531008C
:102DE0002C3134003735300030332C00362E310092
:102DF00038373200352C3100313132003933300070
:102E000030362C002E323200352C3200313835006D
:102E100033373900373734002E352C002C3136004B
:102E20003836300032343000352E300037352C0043
:102E30002C3131003138320030353000392E30003D
:102E4000352C30003135300034392C0031377E00DC
:102E50002E3700003220EF00637321000080410014
:102E60001040BA000160EF0000000600434100007E
:102E70004C2E000074780000740000003220EF0037
:102E8000A3742100008041001040BA000160EF00EF
:102E900000000600434100004C2000006461000077
:102EA000746100002073000061760000656400001A
:102EB000000000003220EF00637621000080410016
:102EC0001040BA000160EF0000000600434100001E
:102ED0004C20000064610000746100002073000059
:102EE00061760000656400002E200000205700007D
:102EF0006169000074200000666F0000722000000D
:102F000064610000746100002072000065740000BC
:102F1000757200006E2E00000A0D00000000000017
:102F20003220EF00C3792100008041001040BA0038
:102F30000160EF0000000600436100006C320000F9
:102F40002E74000078740000000000003220EF00B2
:102F5000237B2100008041001040BA000160EF0097
:102F600000000600434100004C3200002E740000B7
:102F700078740000000000003220EF00837C210004
:102F8000008041001040BA000160EF000000060020
:102F9000434100004C3200002064000061740000D6
:102FA000612000007361000076650000640000008D
:102FB0003220EF00C30120008301500005003100E2
:102FC000437F2100008041001040BA000160EF0003
:102FD00000000600407F2100838141008081410084
:102FE0001380BA0000000600434161004C327400B7
:102FF00020646100617420006120720073616500CB
:1030000076657400642E75002020720057616E0092
:1030100069742E0020660A006F720D0020640000A3
:103020003220EF00C3812100008041001040BA002F
:103030000160EF000000060065720000726F000082
:10304000722000006F700000656E0000696E000065
:1030500067200000436100006C3200002E74000005
:1030600078740000000000003220EF00038421008B
:10307000008041001040BA000160EF00000006002F
:1030800034340000372E0000302C000034340000AF
:103090002E3000002C310000392E0000302C0000B2
:1030A000333300002E3000002C3400003831000093
:1030B0002E3000002C31000037310000382E000087
:1030C000302C00007E0000003220EF008302200040
:1030D0008301500005003100038821000080410079
:1030E0001040BA000160EF000000060000882100D7
:1030F00083814100808141001380BA0000000600F6
:103100004F5374004D4F6500424F6400542020001F
:10311000426C4A0075657500746F6C006F747900BD
:1031200068202000636F32006D6D3300616E2C00EB
:1031300064202000737532006D6D300061723100C3
:10314000792035002D200D0055700A0064610000C3
:103150003220EF00430220008301500005003100BF
:10316000438C2100008041001040BA000160EF0054
:1031700000000600408C21008381410080814100D5
:103180001380BA0000000600626C6F007665610073
:1031900072736400696F65006E2072002020200049
:1031A0002020760020206500202D720044697300E5
:1031B000737069006C616F0079736E0020742E006B
:1031C00068650D0020620A006F6F0000746C0000DB
:1031D0003220EF00830220008301500005003100FF
:1031E00043902100008041001040BA000160EF00D0
:1031F0000000060040902100838141008081410051
:103200001380BA000000060073656F0074756F00CC
:1032100070777400696668006920200020206300D0
:1032200020206F0020206E00202D6E005365650069
:1032300074756300702074005769690066696F00D7
:1032400020756E0073692E006E670D0020420A0023
:103250006C750000657400003220EF00230220002E
:10326000830150000500310083942100008041005B
:103270001040BA000160EF000000060080942100B9
:1032800083814100808141001380BA000000060064
:10329000636161006C206D007878200078202D003B
:1032A00020202000202063002020680020206F00C4
:1032B000202D69007374630061726500747373007C
:1032C00020633A00616C0D0020700A00726F0000EC
:1032D000677200003220EF0043022000830150009B
:1032E0000500310063982100008041001040BA00C1
:1032F0000160EF000000060060982100838141001A
:10330000808141001380BA000000060020206C007C
:10331000202020002020630020206F0020206C004F
:1033200020206F0020207200202073002020200029
:103330002020660070706F00682072002D20200031
:1033400044697000737048006C610D0079200A00B8
:10335000616C00003220EF00E30120008301500087
:1033600005003100639C2100008041001040BA003C
:103370000160EF0000000600609C21008381410095
:10338000808141001380BA00000006002020610007
:1033900020206C0020206C002020200020207300C2
:1033A0002020650020206E002020730020206F0068
:1033B0002020720074617300202D0D0020540A003B
:1033C00065730000742000003220EF00230320000A
:1033D000830150000500310003A02100008041005E
:1033E0001040BA000160EF000000060000A02100BC
:1033F00083814100808141001380BA0000000600F3
:103400002020660020206F00202072002020200055
:103410002020630020206F0020206C0020206F00FF
:103420002020720020202000646F6900202D6E0093
:10343000205474006573650074206E00444F73005F
:103440002028690044697400736F79006C76290044
:1034500065640D00204F0A00787900006765000060
:103460006E2000003220EF00630220008301500034
:1034700005003100E3A42100008041001040BA00A3
:103480000160EF0000000600E0A4210083814100FC
:10349000808141001380BA000000060020207200E5
:1034A0002020200020206F00202066002020200007
:1034B0002020480020207900202064002020720075
:1034C00020206F0070686700202D650020546E007A
:1034D0006573290074200D0070480A002028000040
:1034E000506F0000776500003220EF00630320007A
:1034F000830150000500310003A921000080410034
:103500001040BA000160EF000000060000A9210091
:1035100083814100808141001380BA0000000600D1
:10352000202020002020440020204F0020202000C8
:103530002020610020206E00202064002020200038
:103540002020700020204800646F200070686C000C
:10355000202D690020536700657468007320740093
:10356000757020002074740068657500207062001A
:103570006F73650074692E006F6E0D0020660A007F
:103580006F72000020740000686500003220EF00B8
:1035900003032000830150000500310023AE210009
:1035A000008041001040BA000160EF0000000600FA
:1035B00020AE210083814100808141001380BA0048
:1035C00000000600202020002020660020206F0040
:1035D000202072002020200020207400202068007D
:1035E000202065002020200020206C00646F6900EE
:1035F000706F6700732068002D20740053652000F1
:103600007473740020757500702062007468650022
:1036100065202E00706F0D0073690A007469000048
:103620006F6E00003220EF00E303200083015000A2
:1036300005003100E3B22100008041001040BA00D3
:103640000160EF0000000600E0B22100838141002C
:10365000808141001380BA00000006002020720023
:1036600020206500202063002020740020202000FE
:10367000202063002020610020206C0020206900B1
:1036800020206200736872006F776100202D740043
:103690002050690072696F006E746E007320200004
:1036A000746F760020746100686572002073610099
:1036B00063726900656562006E206C00616C650074
:1036C0006C2073006F662E0020740D0068650A0080
:1036D00020630000757200003220EF00C30220005A
:1036E000830150000500310083B8210000804100B3
:1036F0001040BA000160EF000000060080B8210011
:1037000083814100808141001380BA0000000600DF
:1037100020204F0020207800202079002020670002
:103720002020650020206E00202020002020660040
:1037300020206F0020207200646F2000322064007F
:103740002D20650054656300737461002044790086
:103750004F20290028442E0069730D006F6C0A0069
:1037600076650000642000003220EF004303200053
:10377000830150000500310003BD2100008041009D
:103780001040BA000160EF000000060000BD2100FB
:1037900083814100808141001380BA00000006004F
:1037A000202065002020720020206100202074006D
:1037B000202075002020720020206500202020009D
:1037C0002020610020206E0077746400202D2000EE
:1037D00020537200686F61007720770074682000C2
:1037E000652064006375610072727400656E61002B
:1037F00074202E0077610D0074650A0072200000AD
:10380000746500006D7000003220EF00830320001B
:10381000830150000500310003C2210000804100F7
:103820001040BA000160EF000000060000C2210055
:1038300083814100808141001380BA0000000600AE
:1038400020206C00202069002020670020206800D4
:1038500020207400202020002020730020206500FC
:1038600020206E002020730070616F0072207200B3
:103870002D202000536861006F776E002074640073
:1038800068652000206374007572680072656500C9
:103890006E74200020725000617741002064520055
:1038A00061742E0061200D00666F0A007220000016
:1038B0003220EF0023032000830150000500310077
:1038C00043C72100008041001040BA000160EF00B2
:1038D0000000060040C72100838141008081410033
:1038E0001380BA0000000600636861007570730001
:1038F0002020740020206500202073002020740008
:103900002020200020207600202D650043687200D2
:10391000656373006B736900206F6F006E206E002B
:103920007468200065206F00696E66007465200071
:10393000726E46006574570020662E006F720D008F
:1039400020740A0068650000206C00003220EF003F
:1039500023032000830150000500310023CC210007
:10396000008041001040BA000160EF000000060036
:1039700020CC210083814100808141001380BA0066
:103980000000060065637400686F68002020650011
:103990002020200020204C00202043002020440034
:1039A00020202000202D7400546F6F0067672000D6
:1039B0006C65420073206C0065637500686F65007C
:1039C000696E740067206F0074686F006520740072
:1039D000636F68006D6D2E00616E0D0064730A00E8
:1039E000206F00006E2000003220EF000304200052
:1039F000830150000500310003D121000080410007
:103A00001040BA000160EF000000060000D1210064
:103A100083814100808141001380BA0000000600CC
:103A200065786F00697467002020720020206100B3
:103A300020206D00202020002020690020206E0022
:103A4000202D740045786F006361200070656E0062
:103A500073206F006F75720074206D006F666100D7
:103A600020616C006E7920002064640065626F0044
:103A70007567770067696E006E676C00206F6F0076
:103A800072206100636164006C692E0062720D0037
:103A900061740A00696F00006E20000070720000FF
:103AA0003220EF0083022000830150000500310026
:103AB000C3D62100008041001040BA000160EF0031
:103AC00000000600C0D621008381410080814100B2
:103AD0001380BA000000060068656F006C70730008
:103AE00020207300202069002020620020206C002C
:103AF0002020650020202000202D630050726F00E0
:103B0000696E6D0074736D0020616100206C6E0041
:103B100069736400742073006F662E0020610D00CD
:103B20006C6C0A00207000003220EF00A30320001C
:103B3000830150000500310003DB210000804100BB
:103B40001040BA000160EF000000060000DB210019
:103B500083814100808141001380BA00000006008B
:103B60006D6F200064652000202049002020660041
:103B70002020200020206E0020206F0020207400D4
:103B8000202D20004469690073706E006C61200074
:103B900079736D0020746F006865640020636500B0
:103BA00075722C00726520006E74740020446800E9
:103BB0006562650075676E00206120006E643000EC
:103BC00020432E00616C0D00206D0A006F64000020
:103BD000652E00003220EF00C30420008301500056
:103BE0000500310063E02100008041001040BA0070
:103BF0000160EF000000060060E0210083814100C9
:103C0000808141001380BA000000060073617300D8
:103C100076656500636164006C20200020206200EE
:103C2000202079002020200020206100202D750018
:103C30002053740061766F0065736D00207461001D
:103C4000686574002063690075726F0072656E00AC
:103C50006E742E00206920006E7320007472500074
:103C6000756D6100656E730074617300746977002F
:103C70006F6E6F0020637200616C640069722000D7
:103C800061745400696F42006E7344002E202E0050
:103C900020540D0068690A00732000006973000059
:103CA000207500003220EF00C30420008301500083
:103CB00005003100E3E62100008041001040BA0019
:103CC0000160EF0000000600E0E621008381410072
:103CD000808141001380BA00000006007361730008
:103CE00076656500636F64006E6620006967620038
:103CF000202079002020200020206100202D750048
:103D00002053740061766F0065736D00207461004C
:103D1000686574002063690075726F0072656E00DB
:103D20006E742E00206920006E74200065725000B1
:103D30006E656100742F7300726F73007574770085
:103D400065726F00206372006F6E64006E65200004
:103D500063745400696F42006E7344002E202E007D
:103D600020540D0068690A00732000006973000088
:103D7000207500003220EF00430420008301500032
:103D80000500310063ED2100008041001040BA00C1
:103D90000160EF000000060060ED2100838141001A
:103DA000808141001380BA00000006007365610045
:103DB000742075007878740078206F006E756D003F
:103DC0006D6261006572740020206900202D63001F
:103DD00020536C00657479007320200074687300B0
:103DE00065206100612076006E65650077206400C3
:103DF0006E7520006D626F0065726E002066200097
:103E00006F725300206144002076200061724300ED
:103E100061696100626C7200652E640020202E00D2
:103E200049740D0020690A00732000006E6F0000C5
:103E3000742000003220EF00630220008301500054
:103E40000500310063F32100008041001040BA00FA
:103E50000160EF000000060060F321008381410053
:103E6000808141001380BA000000060020204F002E
:103E70002020200020206C0020206F0020207700D0
:103E800020202000202072002020650020206400D7
:103E900020202000202063006C6F6F0077646C008E
:103EA0006F6F6F006E657200202D2E0020530D0085
:103EB00065740A00204400003220EF0083022000D5
:103EC000830150000500310083F72100008041008C
:103ED0001040BA000160EF000000060080F72100EA
:103EE00083814100808141001380BA0000000600F8
:103EF00020206C0020206F00202077002020200050
:103F0000202067002020720020206500202065000E
:103F100020206E0020202000202063006C6F6F00A6
:103F200077646C006F746F00776F7200202D2E0025
:103F300020530D0065740A00204400004F2000004B
:103F40003220EF0083022000830150000500310081
:103F5000C3FB2100008041001040BA000160EF0067
:103F600000000600C0FB21008381410080814100E8
:103F70001380BA000000060020204F0020202000FF
:103F800020206C0020206F002020770020202000BF
:103F90002020620020206C00202075002020650079
:103FA000202020006C6F630077646F006F746C00DA
:103FB00068726F0065657200202D2E0020530D0081
:103FC00065740A00204400003220EF0063022000E4
:103FD00083015000050031000300220000804100F1
:103FE0001040BA000160EF0000000600000022004F
:103FF00083814100808141001380BA0000000600E7
:1040000020204F002020200020206D00202065006F
:104010002020640020202000202072002020650045
:104020002020640020202000202063006D696F00A4
:1040300064646C006F6F6F006E657200202D2E003F
:1040400020530D0065740A00204400003220EF0068
:104050008302200083015000050031002304220068
:10406000008041001040BA000160EF00000006002F
:104070002004220083814100808141001380BA0026
:104080000000060020206D00202065002020640034
:1040900020202000202067002020720020206500C2
:1040A0002020650020206E002020200020206300BA
:1040B0006D696F0064646C006F746F00776F7200DD
:1040C000202D2E0020530D0065740A0020440000AE
:1040D0004F2000003220EF008302200083015000B7
:1040E0000500310063082200008041001040BA0042
:1040F0000160EF000000060060082200838141009B
:10410000808141001380BA000000060020204F008B
:104110002020200020206D00202065002020640049
:10412000202020002020620020206C00202075002C
:1041300020206500202020006D69630064646F000A
:104140006F746C0068726F0065657200202D2E0020
:1041500020530D0065740A00204400003220EF0057
:10416000830220008301500005003100A30C2200CF
:10417000008041001040BA000160EF00000006001E
:10418000A00C220083814100808141001380BA008D
:104190000000060020202000202068002020690068
:1041A00020206700202068002020200020207200AE
:1041B00020206500202064002020200020206300B3
:1041C00068696F0067686C00646F6F006F6E7200E3
:1041D00065202E002D200D0053650A00742000007C
:1041E000444F00003220EF00A30220008301500062
:1041F00005003100E3102200008041001040BA00A9
:104200000160EF0000000600E01022008381410001
:10421000808141001380BA00000006002020690060
:104220002020670020206800202020002020670038
:1042300020207200202065002020650020206E00D4
:10424000202020002020630068696F0067686C00F0
:10425000646F6F00747772006F202E002D200D00A8
:1042600053650A0074200000444F000020680000DD
:104270003220EF00A302200083015000050031002E
:1042800043152200008041001040BA000160EF0099
:10429000000006004015220083814100808141001A
:1042A0001380BA00000006002020200020206800B3
:1042B00020206900202067002020680020202000A6
:1042C0002020620020206C00202075002020650046
:1042D000202020006869630067686F00646F6C00CD
:1042E00074686F007265720065202E002D200D002D
:1042F00053650A0074200000444F00003220EF0094
:10430000C30220008301500005003100A3192200E0
:10431000008041001040BA000160EF00000006007C
:10432000A019220083814100808141001380BA00DE
:104330000000060020204000202020002020310026
:104340002020300020202000202064002020650054
:1043500020206700202072002020650020206500BA
:104360006C6F7300776420006F726F0065616E0080
:10437000646F65006E652000202D0D0020530A003B
:1043800065740000204400004F2000003220EF0040
:10439000C30220008301500005003100231E2200CB
:1043A000008041001040BA000160EF0000000600EC
:1043B000201E220083814100808141001380BA00C9
:1043C00000000600202020002020400020202000A7
:1043D00020203100202030002020200020206400F8
:1043E000202065002020670020207200202065002A
:1043F0006C6F6500776473006F72200065617400F4
:1044000064747700776F6F00202D200020530D001B
:1044100065740A0020200000444F00003220EF00A5
:10442000030320008301500005003100A322220075
:10443000008041001040BA000160EF00000006005B
:10444000A022220083814100808141001380BA00B4
:104450000000060020202000202031002020300015
:1044600020202000202064002020650020206700FC
:10447000202072002020650020206500202073008D
:104480006C6F2000776474006F7268006561720061
:10449000647465006872650065652000202D2E003B
:1044A00020530D0065740A0020200000444F0000D6
:1044B000204000003220EF00630320008301500001
:1044C0000500310063272200008041001040BA003F
:1044D0000160EF0000000600602722008381410098
:1044E000808141001380BA00000006002020650092
:1044F00020207200202020002020660020206F0055
:1045000020207200202020002020320020203000B7
:1045100020202000202064006D696500646467002D
:104520006F72720065616500646F65006E6573008F
:10453000202D2000202043005365200074206F00B0
:10454000444F6E002068650069672E0068200D00EA
:104550006E750A006D6200003220EF0063032000D8
:104560008301500005003100832C220000804100AF
:104570001040BA000160EF0000000600802C22000D
:1045800083814100808141001380BA000000060051
:1045900020207200202020002020660020206F00B4
:1045A0002020720020202000202032002020300017
:1045B0002020200020206400202065006D69670015
:1045C000646472006F7265006561650064747300F5
:1045D000776F2000202D4300205320006574740065
:1045E000204477004F206F0068692E0067680D0037
:1045F000206E0A00756D0000626500003220EF0039
:10460000830320008301500005003100A331220004
:10461000008041001040BA000160EF000000060079
:10462000A031220083814100808141001380BA00C3
:1046300000000600202072002020200020206600BC
:1046400020206F0020207200202020002020320037
:104650002020300020202000202064002020650041
:104660006D696700646472006F7265006561650062
:10467000647473006872200065654300202D20007B
:104680002053740065746800204472004F20650058
:104690006869650067682E00206E0D00756D0A0060
:1046A000626500003220EF00830320008301500088
:1046B00005003100E3362200008041001040BA00BE
:1046C0000160EF0000000600E03622008381410017
:1046D000808141001380BA000000060020202000E5
:1046E0002020660020206F00202072002020200063
:1046F00020203200202035002020200020206400CF
:1047000020206500202067006869720067686500E6
:10471000646F650072657300616420006F6E430012
:10472000652020002D206F0053656E007420650009
:10473000444F2E002068200069670D0068200A00A1
:104740006E7500006D620000657200003220EF009F
:10475000830320008301500005003100233C220028
:10476000008041001040BA000160EF000000060028
:10477000203C220083814100808141001380BA00E7
:1047800000000600202020002020660020206F006E
:104790002020720020202000202032002020350020
:1047A00020202000202064002020650020206700B9
:1047B0006869720067686500646F65007265730000
:1047C00061642000747743006F2020002D20740066
:1047D0005365770074206F00444F2E00206820003E
:1047E00069670D0068200A006E7500006D620000A8
:1047F000657200003220EF00A30320008301500007
:104800000500310063412200008041001040BA00E1
:104810000160EF000000060060412200838141003A
:10482000808141001380BA00000006002020200093
:104830002020660020206F00202072002020200011
:10484000202032002020350020202000202064007D
:104850002020650020206700686972006768650095
:10486000646F650072657300616420007468740091
:1048700072656800652072002D2065005365650033
:1048800074202000444F430020682E0069672000F8
:1048900068200D006E750A006D62000065720000F0
:1048A0003220EF00C30220008301500005003100D8
:1048B000C3462200008041001040BA000160EF00B2
:1048C00000000600C0462200838141008081410033
:1048D0001380BA0000000600202062002020720031
:1048E00020206100202074002020690020206F001B
:1048F00020206E0020202000202072002020650053
:10490000202061007068640072656900646F6E0049
:104910006E656700202D20002053310065742E0045
:1049200020700D0048200A00636100006C690000DF
:104930003220EF00C3022000830150000500310047
:10494000434B2200008041001040BA000160EF009C
:1049500000000600404B220083814100808141001D
:104960001380BA00000006002020620020207200A0
:1049700020206100202074002020690020206F008A
:1049800020206E00202020002020720020206500C2
:1049900020206100706864007265690064746E00B4
:1049A000776F6700202D20002053320065742E00A1
:1049B00020700D0048200A00636100006C6900004F
:1049C0003220EF00E3022000830150000500310097
:1049D000C34F2200008041001040BA000160EF0088
:1049E00000000600C04F2200838141008081410009
:1049F0001380BA0000000600202062002020720010
:104A000020206100202074002020690020206F00F9
:104A100020206E0020202000202072002020650031
:104A200020206100706864007265690064746E0023
:104A30006872670065652000202D330020532E002A
:104A400065740D0020700A004820000063610000BA
:104A50006C6900003220EF00C30220008301500087
:104A60000500310063542200008041001040BA006C
:104A70000160EF00000006006054220083814100C5
:104A8000808141001380BA000000060020206900E8
:104A9000202062002020720020206100202074006D
:104AA0002020690020206F0020206E0020202000A0
:104AB000202072002020650070686100726564002B
:104AC000646669006F756E00722067002D202000FB
:104AD0005365340074202E0070480D0020630A00D6
:104AE000616C00003220EF00C302200083015000FF
:104AF00005003100E3582200008041001040BA0058
:104B00000160EF0000000600E058220083814100B0
:104B1000808141001380BA00000006002020690057
:104B200020206200202072002020610020207400DC
:104B30002020690020206F0020206E00202020000F
:104B4000202072002020650070686100726564009A
:104B50006466690069766E00652067002D2020007C
:104B60005365350074202E0070480D0020630A0044
:104B7000616C00003220EF00C3022000830150006E
:104B800005003100635D2200008041001040BA0042
:104B90000160EF0000000600605D2200838141009B
:104BA000808141001380BA000000060020206200CE
:104BB0002020720020206100202074002020690045
:104BC00020206F0020206E00202020002020720076
:104BD0002020650020206100706864007265690013
:104BE00064736E0069786700202D20002053360022
:104BF00065742E0020700D0048200A0063610000DB
:104C00006C6900003220EF00E302200083015000B5
:104C100005003100E3612200008041001040BA002D
:104C20000160EF0000000600E06122008381410086
:104C3000808141001380BA0000000600202062003D
:104C400020207200202061002020740020206900B4
:104C500020206F0020206E002020200020207200E5
:104C60002020650020206100706864007265690082
:104C700064736E0065766700656E2000202D370036
:104C800020532E0065740D0020700A00482000009B
:104C9000636100006C6900003220EF00E302200035
:104CA000830150000500310083662200008041002E
:104CB0001040BA000160EF0000000600806622008C
:104CC00083814100808141001380BA00000006000A
:104CD000202062002020720020206100202074002B
:104CE0002020690020206F0020206E00202020005E
:104CF0002020720020206500202061007068640080
:104D00007265690064656E006967670068742000F9
:104D1000202D380020532E0065740D0020700A00ED
:104D200048200000636100006C6900003220EF0041
:104D3000E30220008301500005003100236B2200B4
:104D4000008041001040BA000160EF000000060042
:104D5000206B220083814100808141001380BA00D2
:104D60000000060020206200202072002020610048
:104D7000202074002020690020206F0020206E0079
:104D800020202000202072002020650020206100CB
:104D900070686400626C690075656E006869670020
:104DA00067682000202D390020532E0065740D0007
:104DB00020700A0048200000636100006C69000058
:104DC0003220EF00E3022000830150000500310093
:104DD000C36F2200008041001040BA000160EF0064
:104DE00000000600C06F22008381410080814100E5
:104DF0001380BA0000000600202020002020500070
:104E00002020570020204D002020200020206C0072
:104E100020206500202076002020650020206C00E6
:104E200020202000626C660075656F006C6972005E
:104E30006D692000742044002D204F0053652E0022
:104E400074730D0020740A0068650000206D000076
:104E5000617800003220EF008302200083015000BF
:104E60000500310063742200008041001040BA0048
:104E70000160EF00000006006074220083814100A1
:104E8000808141001380BA0000000600202020002D
:104E900020206D00202061002020780020202000AC
:104EA000202050002020570020204D0020202000EE
:104EB0002020660020206F00706872006C6920005E
:104EC0006D697000742048002D202E0053650D0080
:104ED00074730A0020740000686500003220EF003F
:104EE000030320008301500005003100A378220055
:104EF000008041001040BA000160EF000000060091
:104F0000A078220083814100808141001380BA0093
:104F10000000060020206E002020670020202000D6
:104F200020207300202065002020650020206400E0
:104F300020202000202050002020570020204D005D
:104F4000626C20007565660073656F0065647200B1
:104F5000202D20002053440065744F0073202E0044
:104F600074680D0065200A0073740000617200000F
:104F7000746900003220EF00030320008301500019
:104F800005003100637D2200008041001040BA001E
:104F90000160EF0000000600607D22008381410077
:104FA000808141001380BA000000060020206900C3
:104FB00020206E0020206700202020002020730089
:104FC0002020650020206500202064002020200093
:104FD000202050002020570077684D006974200081
:104FE0006573660065656F00642072002D202000E7
:104FF000536570007473480020742E0068650D00BE
:1050000020730A0074610000727400003220EF0007
:10501000A3032000830150000500310023822200F9
:10502000008041001040BA000160EF00000006005F
:105030002082220083814100808141001380BA00D8
:1050400000000600202020002020720020206500A3
:1050500020206600202065002020720020206500AE
:1050600020206E00202063002020650020202000EA
:10507000626C6C0075656900726167006E6768003C
:10508000652074002D2020005365660074736F0046
:105090002074720068652000207444006F6C4F001B
:1050A0006F722E00616E0D0063650A0020720000B1
:1050B000616E0000676500003220EF00A30320004E
:1050C00083015000050031008387220000804100E9
:1050D0001040BA000160EF00000006008087220047
:1050E00083814100808141001380BA0000000600E6
:1050F0002020650020202000202072002020650054
:1051000020206600202065002020720020206500FD
:1051100020206E002020630020206500776820009A
:1051200069746C0065726900616E6700676568008C
:10513000202D7400205320006574660073206F00DA
:105140007468720065202000746F70006C6F4800F6
:1051500072612E006E630D0065200A00726100000E
:105160006E6700003220EF008305200083015000AD
:1051700005003100E38C2200008041001040BA009D
:105180000160EF0000000600E08C220083814100F6
:10519000808141001380BA000000060020206200D8
:1051A0002020650020207200202020002020760092
:1051B0002020610020206C00202075002020650048
:1051C00020202E0020202000706820006F665400F0
:1051D0006673680065746900202D730020532000F9
:1051E0006574770073206F007468720065206B002F
:1051F000736C730069642000696E77006720690032
:1052000073637400616C6800652020006F66700035
:105210006673680065747200206665006F726400D2
:1052200020707600482E610020206C0054687500C4
:105230006973650020692E0073200D0061200A004B
:1052400070480000206E0000756D00003220EF00F5
:1052500083042000830150000500310023942200C4
:10526000008041001040BA000160EF00000006001D
:105270002094220083814100808141001380BA0084
:10528000000006002020610020206C002020650026
:10529000202020002020660020206F0020207200A7
:1052A00020202000202070002020480020202E00F8
:1052B000706820007265570064766F00616C720040
:1052C00075656B00202D73002053200065747700F6
:1052D000732069007468740065206800726520009E
:1052E00064207000766168006C756F006520660050
:1052F000666F660072207300746865006520740034
:10530000736C2E0069640D00696E0A00672000004E
:10531000736300003220EF0023032000830150005C
:1053200005003100639A2200008041001040BA005D
:105330000160EF0000000600609A220083814100B6
:10534000808141001380BA00000006002020750013
:1053500020207200202065002020200020206D00E9
:10536000202065002020610020207300202075008F
:10537000202072002020650077746D006869650048
:1053800067686E00202D740020532000657468004B
:1053900073206900776167007465680072202E00D1
:1053A00074650D006D700A00657200006174000084
:1053B0003220EF000303200083015000050031007C
:1053C000439F2200008041001040BA000160EF00BE
:1053D00000000600409F220083814100808141003F
:1053E0001380BA0000000600202074002020750001
:1053F00020207200202065002020200020206D0049
:1054000020206500202061002020730020207500EE
:1054100020207200777465006D696D00642065005E
:105420002D206E00536574007473200020776D008A
:10543000617469006572640020742E00656D0D0052
:1054400070650A00726100003220EF000303200043
:10545000830150000500310003A4220000804100B8
:105460001040BA000160EF000000060000A4220016
:1054700083814100808141001380BA000000060052
:10548000202074002020750020207200202065005C
:105490002020200020206D002020650020206100B9
:1054A0002020730020207500202072007774650092
:1054B0006C6F6D00772065002D206E0053657400C1
:1054C0007473200020776C0061746F006572770040
:1054D00020742E00656D0D0070650A007261000079
:1054E0003220EF00C303200083015000050031008B
:1054F000C3A82200008041001040BA000160EF0004
:1055000000000600C0A82200838141008081410084
:105510001380BA00000006002020650020206D00E6
:105520002020650020206E00202074002020200014
:1055300020206800202069002020670020206800CB
:105540002020200077747200766165006C6861002D
:10555000202D64002053690065746E00732067007D
:1055600077612F00746576007220610074656C00AD
:105570006D7075006572650061742E0075720D00A6
:1055800065200A006D6500006173000075720000FF
:105590003220EF00A30320008301500005003100FA
:1055A00043AE2200008041001040BA000160EF00CD
:1055B0000000060040AE220083814100808141004E
:1055C0001380BA0000000600202075002020720021
:1055D0002020650020206D002020650020206E0026
:1055E000202074002020200020206D002020690051
:1055F0002020640077742000766172006C6D650075
:10560000202D6100205364006574690073206E00D2
:105610007761670074652F00722076007465610001
:105620006D706C00657275006174650075722E0096
:1056300065200D006D650A00617300003220EF00E7
:10564000A30320008301500005003100A3B3220012
:10565000008041001040BA000160EF000000060029
:10566000A0B3220083814100808141001380BA00F1
:105670000000060020207500202072002020650018
:1056800020206D002020650020206E002020740066
:105690002020200020206C0020206F002020770098
:1056A00077742000766172006C6C6500202D6100BB
:1056B000205364006574690073206E007761670091
:1056C00074652F0072207600746561006D706C0047
:1056D000657275006174650075722E0065200D009D
:1056E0006D650A00617300003220EF006304200042
:1056F000830150000500310003B922000080410001
:105700001040BA000160EF000000060000B922005E
:1057100083814100808141001380BA0000000600AF
:1057200020206500202020002020660020206F001F
:10573000202072002020200020207000202048001F
:1057400020202E00202020002020570065636F00BD
:105750006869720067686B00202D73002053200079
:1057600065747700732069007468740065206800B0
:105770007265200064207000766168006C756F00AF
:1057800065206600666F66007220730074686500AD
:1057900065207400736C2E0069640D00696E0A0048
:1057A0006720000073630000616C00003220EF008E
:1057B00043042000830150000500310023BF220074
:1057C000008041001040BA000160EF0000000600B8
:1057D00020BF220083814100808141001380BA00F4
:1057E0000000060020206C00202065002020200002
:1057F0002020660020206F00202072002020200042
:10580000202070002020480020202E002020200092
:10581000656357006D696F00642072002D206B0076
:105820005365730074732000207477006865690005
:10583000207274006564680020762000616C70003E
:105840007565680020666F006F72660020746600E0
:1058500068657300207365006C69740064692E00CC
:105860006E670D0020730A00636100003220EF00B4
:1058700043042000830150000500310023C52200AD
:10588000008041001040BA000160EF0000000600F7
:1058900020C5220083814100808141001380BA002D
:1058A0000000060020206C00202065002020200041
:1058B0002020660020206F00202072002020200081
:1058C000202070002020480020202E0020202000D2
:1058D000656357006C6F6F00772072002D206B009E
:1058E0005365730074732000207477006865690045
:1058F000207274006564680020762000616C70007E
:105900007565680020666F006F726600207466001F
:1059100068657300207365006C69740064692E000B
:105920006E670D0020730A00636100003220EF00F3
:1059300063042000830150000500310023CB2200C6
:10594000008041001040BA000160EF000000060036
:1059500020CB220083814100808141001380BA0066
:105960000000060020206500202020002020660086
:1059700020206F00202072002020200020207000B6
:105980002020480020202E0020202000202057002A
:1059900065636F00766172006C686B00202D730088
:1059A00020532000657477007320690074687400C8
:1059B00065206800726520006420700076616800D0
:1059C0006C756F0065206600666F6600722073005C
:1059D0007468650065207400736C2E0069640D00A6
:1059E000696E0A006720000073630000616C0000AC
:1059F0003220EF00630420008301500005003100D5
:105A000043D12200008041001040BA000160EF0045
:105A10000000060040D122008381410080814100C6
:105A20001380BA000000060020206500202020001E
:105A30002020660020206F002020720020202000FF
:105A4000202070002020480020202E002020200050
:105A50002020570065636F00766172006C6D6B00EB
:105A6000202D730020532000657477007320690097
:105A700074687400652068007265200064207000FE
:105A8000766168006C756F0065206600666F660061
:105A9000722073007468650065207400736C2E00BA
:105AA00069640D00696E0A006720000073630000DE
:105AB000616C00003220EF0063042000830150007D
:105AC0000500310063D72200008041001040BA0079
:105AD0000160EF000000060060D7220083814100D2
:105AE000808141001380BA0000000600202065007C
:105AF000202020002020660020206F00202072003F
:105B000020202000202070002020480020202E008F
:105B1000202020002020570065636F00766172000E
:105B20006C6C6B00202D730020532000657477008F
:105B30007320690074687400652068007265200035
:105B400064207000766168006C756F0065206600E7
:105B5000666F6600722073007468650065207400CB
:105B6000736C2E0069640D00696E0A0067200000E6
:105B700073630000616C00003220EF000305200019
:105B8000830150000500310083DD220000804100C8
:105B90001040BA000160EF000000060080DD220026
:105BA00083814100808141001380BA00000006001B
:105BB0002020630020206100202074002020690044
:105BC00020206F0020206E00202073002020200065
:105BD0002020740020206F0020202000726A6700BF
:105BE00034356F00202D200020547400686968004F
:105BF0007320720073656F00747375002074670002
:105C000068656800206420006566520061754A007E
:105C10006C743400206635006F72200020616300D0
:105C20006C6C6F0020696E006E746E0065726500AA
:105C30006E6563007461740074696F006F6E72004A
:105C400020632E006F6D0D006D750A006E690000F7
:105C50003220EF0043042000830150000500310092
:105C600043E42200008041001040BA000160EF00D0
:105C70000000060040E42200838141008081410051
:105C80001380BA00000006002020740020202000AD
:105C900020206F0020206E0020202C0020202000DB
:105CA0002020740020206800202065002020200093
:105CB0002020750020206E00202069002020740024
:105CC0002054200068696E007320650063616500E0
:105CD0006E20640062657300207420007572740089
:105CE0006E656F00642020006F6E6200206F65009B
:105CF000722020006F667200662E730020207400F0
:105D000053652E0074690D006E670A00206900005B
:105D10003220EF0003032000830150000500310012
:105D200043EA2200008041001040BA000160EF0009
:105D30000000060040EA220083814100808141008A
:105D40001380BA00000006002020650020207200A9
:105D5000202020002020280020206900202065002D
:105D600020202E00202020002020650020206E0012
:105D700020206300656E200063202000202D20007D
:105D80002053410065744500732053007468290056
:105D900065202E0057690D0066690A002045000045
:105DA0006E6300006F6400003220EF00A302200049
:105DB000830150000500310003EF22000080410004
:105DC0001040BA000160EF000000060000EF220062
:105DD00083814100808141001380BA0000000600E9
:105DE00020206900202020002020520020206F0069
:105DF00020207500202074002020650020207200E3
:105E0000202020002020490020204400737320001F
:105E100069644E00202061002D206D0053656500EF
:105E200074732E0020740D0068650A00205700006E
:105E3000696600003220EF006302200083015000F9
:105E40000500310063F32200008041001040BA00D9
:105E50000160EF000000060060F322008381410032
:105E6000808141001380BA0000000600202020003D
:105E70002020570020206900202066002020690093
:105E800020202000202050002020610020207300CE
:105E9000202073002020770070616F007373720000
:105EA000202064002D202E0053650D0074730A001D
