:0400000085EF02F096
:08000800046ED8CF05F0E0CF33
:1000100006F00001E9CF0CF0EACF07F0E1CF08F0DD
:10002000E2CF09F0D9CF0AF0DACF0BF0F3CF12F01C
:10003000F4CF13F0FACF14F0F5CF15F0F6CF16F099
:10004000F7CF17F000C00EF001C00FF002C010F0A3
:1000500003C011F09DA630EF00F09EB657EF00F000
:100060000EC000F00FC001F010C002F011C003F08C
:100070000CC0E9FF07C0EAFF078E08C0E1FF09C016
:10008000E2FF0AC0D9FF0BC0DAFF12C0F3FF13C0B2
:10009000F4FF14C0FAFF15C0F5FF16C0F6FF17C035
:1000A000F7FF045006C0E0FF05C0D8FF1000C7BA34
:1000B00004D001013B6BC7B43B8F01013B513B2B8B
:1000C0009C6F9C5306E1C69C9EA6FED7C950C6886D
:1000D0009D6F9C51800800E19C517F0801E210D087
:1000E0009C530EE0036A3251330FE96E000E032079
:1000F000EA6EC69C9EA6FED7C950C688EF6E322B0C
:100100009E96000130EF00F08D8296928D80969041
:100110008D949694956A8C6AACEF02F001019ABFB7
:1001200002D08C9001D08C8095909ABD02D08C9298
:1001300001D08C8295929ABB02D08C9401D08C8491
:1001400095949AB902D08C9601D08C8695969AB7E0
:1001500002D08C9801D08C8895989AB502D08C9A50
:1001600001D08C8A959A9AB302D08C9C01D08C8C49
:10017000959C9AB102D08C9E01D08C8E959E0001E8
:10018000C5EF00F099C19AF1C9D78D82969201010D
:10019000985303E08D84969402D08D9496948D822A
:1001A00096928D9296928D829692010E016E00012A
:1001B0001200010EEA6E8F0EE96EEF500DE0060E92
:1001C000016E006A002EFED7012EFBD77B0E006E5B
:1001D000002EFED7EF2EF3D712000101986B3F0ED1
:1001E000996F0001CFDF290E006E002EFED700D0E0
:1001F00000000101986B010E996F0001C3DF050E2D
:1002000001018F6F0001D5DF0101986B060E996F18
:100210000001B8DF0101986B0F0E996F0001B2DF8A
:100220000101986B100E996F0001ACDF0101986B12
:10023000800E996F0001A6DFADEF02F00101986B0F
:10024000010E996F00019EDF050E01018F6F000105
:10025000B0DF1200010E0101986F97C199F1000102
:1002600091DF010E016E120001018F51200DF3503C
:10027000800F926F986B92C199F1000183DF0101A9
:10028000936B9351130807E3200E976F0001E2DF91
:100290000101932BF6D7800E8E25966F8F51200D7E
:1002A000F3509625946F986B94C199F100016ADF21
:1002B0000101956B95519025E96E000E9121EA6E32
:1002C000EF5213E095519025E96E000E9121EA6EF0
:1002D000EFCF96F196C197F10001BCDF0101952B9C
:1002E0009551130801E201D0E5D7010E016E00011E
:1002F0001200A4DF560E01013E6F650E3F6F720EB5
:10030000406F200E416F310E426F2E0E436F300E44
:10031000446F200E456F466F476F370E486F2F0EA4
:10032000496F310E4A6F350E4B6F2F0E4C6F310EE9
:100330004D6F340E4E6F4F6B490E526F320E536F2E
:10034000430E546F200E556F440E566F650E576F57
:10035000620E586F750E596F670E5A6F200E5B6FE5
:10036000440E5C6F690E5D6F730E5E6F700E5F6F93
:100370006C0E606F610E616F790E626F636B420E7F
:10038000666F790E676F200E686F450E696F720E8B
:100390006A6F690E6B6F6B0E6C6F200E6D6F470E80
:1003A0006E6F6F0E6F6F6B0E706F620E716F6F0EF0
:1003B000726F720E736F610E746F200E756F260E62
:1003C000766F776B500E7A6F610E7B6F750E7C6F58
:1003D0006C0E7D6F200E7E6F480E7F6F6F0E806FEC
:1003E0006C0E816F6F0E826F770E836F6B0E846F52
:1003F0006F0E856F866B8E6B8F6B010E916F520E39
:10040000906F000131DF01018E6B010E8F6F916FD4
:10041000660E906F000128DF01018E6B020E8F6F58
:10042000010E916F7A0E906F00011EDF01018E6B3D
:10043000030E8F6F010E916F3E0E906F000114DF5F
:10044000080E01018E6FFA0E8F6F0001B2DE0101FE
:100450008E2FF9D70001F2DEAEEF02F0800E01011F
:100460004325486F4451200DF3504825466F986B43
:1004700046C199F1000186DE0101476B45C197F144
:100480000001E8DE010E016E57EF02F0010142911A
:100490003F510A0804E1356B362B42810AD035C141
:1004A00043F136C144F13FC145F10001D7D7010105
:1004B000352B000E42B1010E016E0001C4EF02F0B7
:1004C00001013F51200DF350800F406F986B40C1E8
:1004D00099F1000157DE0101416B4151130807E317
:1004E000200E976F0001B6DE0101412BF6D7800E7A
:1004F0003E25436F3F51200DF3504325426F986BCB
:1005000042C199F100013EDE1200F86AD09E078ECA
:100510000101326B336B3491356B366B3A6B396B4F
:10052000386B376B93829380A00EC86E360EC66E02
:10053000C580030E3B6FC150C00B0F09C16E070E83
:10054000B46E196A1A6A93829380A00EC86E360E32
:10055000C66EC5800001D8D540D6CBD6C00EF212EB
:100560009D8601013D6B3C6B3251335D16E0036AA1
:100570003351330FE96E000E0320EA6EEFCF3EF1E8
:100580003EC13FF1000182D7015205E035C13EF185
:1005900036C13FF195DF0101332B3551130809E2D4
:1005A000356B362B35C13EF136C13FF1000188DF96
:0E05B00001013651020801E2366BD6D7FFD7A3
:020000040030CA
:0E00000004CC391E008700000FC00FE00F4037
:00000001FF
;PIC18F4550
;CRC=16B9  CREATED="22-Jul-14 20:13"
