:08000000BE85040000000000B1
:100400003220EF00C3202000008041001040BA00DD
:100410000160EF00000006002E2E0000000000002A
:100420003220EF00C3212000008041001040BA00BC
:100430000160EF00000006002121000021450000BE
:10044000525200004F520000212100002100000004
:100450003220EF0043232000008041001040BA000A
:100460000160EF000000060021210000214E000085
:100470004F540000204D00004F5500004E54000026
:100480004544000021210000210000003220EF003F
:1004900003022000830150000500310023262000C4
:1004A000008041001040BA000160EF00000006002B
:1004B0002026200083814100808141001380BA0002
:1004C000000006000D0A6F004D652000646964009D
:1004D000612065006E6F6C00742065006D6F7400A4
:1004E000756E650074652000642C6600206E6900DE
:1004F0006F746C00206765006F6921006E670000F3
:10050000207400003220EF00E3282000008041002A
:100510001040BA000160EF00000006000D0A000064
:10052000446500006C650000746900006E6700009F
:100530002027000025730000273A0000200000005B
:100540003220EF00C32A2000008041001040BA0092
:100550000160EF000000060045720000726F0000AD
:1005600072200000646500006C6500007469000082
:100570006E67000020660000696C000065000000E6
:100580003220EF00E301200083015000050031001C
:10059000C32D2000008041001040BA000160EF0030
:1005A00000000600C02D20008381410080814100B1
:1005B0001380BA00000006000D0A20004D6574008B
:1005C00064696F00612020006E6F6D00742061000F
:1005D0006D6F6B00756E650074652000642C66009D
:1005E000206E69006F746C00206765006F692100E0
:1005F0006E6700003220EF00633020000080410071
:100600001040BA000160EF00000006007700000013
:100610003220EF0043312000008041001040BA003A
:100620000160EF000000060045720000726F0000DC
:1006300072200000286F0000706500006E2000002E
:1006400065720000726F00007220000025580000E3
:10065000290000003220EF006333200000804100B9
:100660001040BA000160EF00000006004572000073
:10067000726F000072200000286300006C6F0000A1
:100680007365000020650000727200006F72000048
:1006900020250000582000002558000029000000F7
:1006A0003220EF00030220008301500005003100DA
:1006B000C3362000008041001040BA000160EF0006
:1006C00000000600C0362000838141008081410087
:1006D0001380BA00000006000D0A6F004D6520006F
:1006E00064696100612070006E6F700074206500A5
:1006F0006D6F6E00756E640074652000642C66007A
:10070000206E69006F746C00206765006F692100BE
:100710006E670000207400003220EF008339200053
:10072000008041001040BA000160EF0000000600A8
:100730000D0A000041700000706500006E6400004A
:10074000696E000067200000272500007327000065
:10075000207400006F200000272500007327000090
:100760003A200000000000003220EF00033C20008F
:10077000008041001040BA000160EF000000060058
:10078000610000003220EF00E33C200000804100C7
:100790001040BA000160EF00000006004572000042
:1007A000726F000072200000282500005829000008
:1007B000000000003220EF00633E20000080410076
:1007C0001040BA000160EF00000006004572000012
:1007D000726F0000722000002825000058200000E1
:1007E00025580000290000003220EF0043022000BD
:1007F00083015000050031000341200000804100CA
:100800001040BA000160EF00000006000041200027
:1008100083814100808141001380BA0000000600FE
:100820000D0A61004D656E00646967006120650016
:100830006E6F2000742064006D6F6900756E720029
:1008400074656500642C6300206E74006F746F0023
:10085000206772006F6979006E67210020740000C4
:100860006F200000636800003220EF000344200086
:10087000008041001040BA000160EF000000060057
:100880000D0A000045720000726F00007220000027
:1008900063680000616E0000676900006E67000019
:1008A000206400006972000065630000746F00003E
:1008B00072790000000000003220EF0043022000A7
:1008C0008301500005003100834720000080410073
:1008D0001040BA000160EF000000060080472000D1
:1008E00083814100808141001380BA00000006002E
:1008F0000D0A73004D65700064696C006120610031
:100900006E6F7900742020006D6F6400756E690051
:1009100074657200642C6500206E63006F7474004F
:1009200020676F006F6972006E6779002074210084
:100930006F200000646900003220EF00834A20002D
:10094000008041001040BA000160EF000000060086
:100950002A2E00002A0000003220EF00834B2000E6
:10096000008041001040BA000160EF000000060066
:100970000D0A00000A44000069720000656300006F
:10098000746F000072790000207300006561000040
:100990007263000068200000636F00006D7000004B
:1009A0006C65000074650000640000003220EF00F8
:1009B000234E2000008041001040BA000160EF008B
:1009C0000000060020280000465300006572000069
:1009D000726E00006F2000003D20000025750000B1
:1009E000290000003220EF00E34F2000008041008A
:1009F0001040BA000160EF00000006003C44000017
:100A0000495200003E200000200000003220EF008C
:100A100023512000008041001040BA000160EF0027
:100A20000000060020200000202000002020000000
:100A3000200000003220EF0023022000830150003C
:100A40000500310063532000008041001040BA00CF
:100A50000160EF0000000600605320008381410028
:100A6000808141001380BA00000006000D0A6D006D
:100A70004D65610064696B00612065006E6F200048
:100A8000742064006D6F6900756E72007465650096
:100A9000642C6300206E74006F746F002067720016
:100AA0006F6979006E672100207400006F200000DC
:100AB0003220EF0043562000008041001040BA0071
:100AC0000160EF00000006000D0A00004D6100000B
:100AD0006B6900006E67000020640000697200000E
:100AE00065630000746F0000727900002027000029
:100AF00025730000273A0000200000003220EF009C
:100B0000A3582000008041001040BA000160EF00AF
:100B10000000060045720000726F000072200000A5
:100B20006372000065610000746900006E67000078
:100B3000206400006972000065630000746F0000AB
:100B40007279000020280000465300006572000002
:100B5000726E00006F2000003D200000257500002F
:100B6000290000003220EF004302200083015000E2
:100B700005003100E35C2000008041001040BA0015
:100B80000160EF0000000600E05C2000838141006E
:100B9000808141001380BA00000006000D0A6D003C
:100BA0004D656F0064697600612065006E6F2000FE
:100BB000742064006D6F6900756E72007465650065
:100BC000642C6300206E74006F746F0020677200E5
:100BD0006F6979006E672100207400006F200000AB
:100BE000726500003220EF00E35F200000804100CA
:100BF0001040BA000160EF00000006000D0A00007E
:100C0000526500006D6F0000766900006E6700009D
:100C1000206400006972000065630000746F0000CA
:100C2000727900002027000025730000273A000099
:100C3000200000003220EF006362200000804100AD
:100C40001040BA000160EF0000000600457200008D
:100C5000726F000072200000726500006D6F00006E
:100C6000766900006E670000206400006972000071
:100C700065630000746F00007279000000000000DE
:100C80003220EF00030220008301500005003100F4
:100C9000C3652000008041001040BA000160EF00F1
:100CA00000000600C0652000838141008081410072
:100CB0001380BA00000006000D0A6F004D65200089
:100CC00064696400612069006E6F730074207000B5
:100CD0006D6F6C00756E610074657900642C200086
:100CE000206E66006F74690020676C006F69650094
:100CF0006E672100207400003220EF00836820001E
:100D0000008041001040BA000160EF0000000600C2
:100D1000720000003220EF00636920000080410073
:100D20001040BA000160EF00000006000D0A00004C
:100D300045720000726F0000722000006F700000AA
:100D4000656E0000696E00006720000066690000A3
:100D50006C6500002028000045720000726F0000E2
:100D60007220000025580000290000003220EF000A
:100D7000236C2000008041001040BA000160EF00A9
:100D8000000006000D0A00002121000021200000C3
:100D900045720000726F0000722000007265000052
:100DA00061640000696E0000672000006669000051
:100DB0006C6500002028000045720000726F000082
:100DC0007220000025580000290000003220EF00AA
:100DD000236F2000008041001040BA000160EF0046
:100DE000000006000D0A000045720000726F00004E
:100DF000722C0000204D0000656400006961000055
:100E0000206E00006F740000206600006F75000007
:100E10006E640000210000003220EF002302200059
:100E200083015000050031008372200000804100E2
:100E30001040BA000160EF00000006008072200040
:100E400083814100808141001380BA0000000600C8
:100E50000D0A73004F4B3D002028250053655500B7
:100E600063742C006F72200020535400697A79005B
:100E7000653D7000254C6500552C3D002053250034
:100E80006563550020502900657200002043000072
:100E90006C7500003220EF00230220008301500017
:100EA0000500310063762000008041001040BA0048
:100EB0000160EF00000006006076200083814100A1
:100EC000808141001380BA00000006000D0A460030
:100ED00045725300726F6500722C720020667200BA
:100EE000696C6E0065206F0073793D007374250096
:100EF000656D5500206E29006F742100206D210062
:100F00006F7521006E7400006564000020280000E9
:100F10003220EF0043792000008041001040BA00E9
:100F20000160EF00000006000D0A0000457200009D
:100F3000726F0000722C0000206600006F720000CB
:100F40006D61000074740000696E0000672000008D
:100F50006469000073610000626C00006564000059
:100F600021210000210000003220EF008302200038
:100F70008301500005003100037D20000080410006
:100F80001040BA000160EF0000000600007D200064
:100F900083814100808141001380BA000000060077
:100FA0000D0A6E004765640074747300696E20005A
:100FB000672074006D656F006469200061206D001A
:100FC000696E6900666F6E00202875007468740091
:100FD00069736500206D73006179290020742E000B
:100FE000616B2E0065202E0073650000636F0000AA
:100FF0003220EF00A30220008301500005003100E1
:1010000043812000008041001040BA000160EF00E1
:101010000000060040812000838141008081410062
:101020001380BA00000006000D0A20000A46740072
:10103000696C7200652079007379200073746D000B
:10104000656D6F002074750068696E006E6B7400CA
:10105000732069006D656E0064696700612020007F
:10106000697361006E276700742061006D6F69000D
:10107000756E6E0074652100642C00003220EF0054
:10108000A3842000008041001040BA000160EF00FE
:10109000000006000D0A00000A4500007272000000
:1010A0006F72000020670000657400007469000022
:1010B0006E670000206900006E6600006F0000008F
:1010C0003220EF00C3862000008041001040BA00AB
:1010D0000160EF00000006000D0A00000A42000057
:1010E00079740000657300002070000065720000D4
:1010F0002073000065630000746F0000723A000006
:10110000202500004C550000000000003220EF00B8
:1011100023892000008041001040BA000160EF00E8
:10112000000006000D0A0000536500006374000013
:101130006F720000732000007065000072200000D4
:10114000636C00007573000074650000723A000063
:1011500020250000550000003220EF00838B200086
:10116000008041001040BA000160EF00000006005E
:101170000D0A0000546F0000746100006C20000034
:10118000736900007A650000206F0000662000008F
:101190006D65000064690000613A000020250000D0
:1011A0004C550000000000003220EF00038E2000AC
:1011B000008041001040BA000160EF00000006000E
:1011C0000D0A0000467200006565000020730000F3
:1011D0007061000063650000206F00006620000061
:1011E0006D65000064690000613A00002025000080
:1011F0004C550000000000003220EF0083902000DA
:10120000008041001040BA000160EF0000000600BD
:101210000D0A00004D6500006469000061200000B7
:101220006E6F0000742000006D6F0000756E00008E
:1012300074650000642C0000206E00006F740000D4
:101240002067000065740000746900006E6700008C
:10125000206900006E6600006F21000000000000A1
:101260003220EF00230220008301500005003100EE
:10127000C3942000008041001040BA000160EF00DC
:1012800000000600C094200083814100808141005D
:101290001380BA00000006000D0A430046415300C7
:1012A0005420200053684300656C20006C204300EC
:1012B00048656F006C706D00202D70002043690040
:1012C0006F6D6C00706965006C65720064202000B1
:1012D0007769000074680000204300003220EF00AE
:1012E000A3972000008041001040BA000160EF0089
:1012F00000000600504300004420000000000000F1
:101300003220EF00C3982000008041001040BA0056
:101310000160EF0000000600352E000030330000B1
:10132000320000003220EF00430320008301500010
:1013300005003100E39A2000008041001040BA000F
:101340000160EF0000000600E09A20008381410068
:10135000808141001380BA00000006000D0A690078
:10136000206D72006F7565006E746400202D200082
:101370002D2D6200206965006E69660074696F003A
:10138000616C7200697A650065202000616E6600FC
:10139000642069006D6F6C00756E6500742020001C
:1013A000666961006C656300207363007973650092
:1013B000746573006D2E73002020000072650000BC
:1013C000717500003220EF00E39E20000080410094
:1013D0001040BA000160EF00000006000D0A000096
:1013E00020640000656C000020660000696C00004D
:1013F000656E0000616D0000652000002D2D00006D
:101400002D200000446500006C650000746500003C
:101410007320000074680000652000006669000009
:101420006C650000000000003220EF00E3012000A6
:10143000830150000500310003A32000008041001B
:101440001040BA000160EF000000060000A3200079
:1014500083814100808141001380BA0000000600B2
:101460000D0A6E00206D2000616B650065206D0027
:10147000666970006C6574006E6179006D652000AE
:10148000202D66002D2D690020436C0072656500DB
:101490006174000065730000206100003220EF00DD
:1014A000E30220008301500005003100A3A62000C4
:1014B000008041001040BA000160EF00000006000B
:1014C000A0A6200083814100808141001380BA00E2
:1014D000000006000D0A6F0020612000707074008B
:1014E000656E680064206500666920006C656500B3
:1014F0006E616E006D6564002073200074726F0071
:10150000696E6600672020002D2D74002D20680074
:1015100041706500706520006E646600732069008C
:1015200073746C00726965006E67000020740000BF
:101530003220EF00E301200083015000050031005C
:1015400043AB2000008041001040BA000160EF0072
:101550000000060040AB20008381410080814100F3
:101560001380BA00000006000D0A6E0020636700B9
:101570006420200064696400722069002D2D7200CF
:101580002D20650043686300616E740067656F001D
:101590002074720068657900207700006F72000087
:1015A0006B6900003220EF0003022000830150002D
:1015B00005003100E3AE2000008041001040BA0079
:1015C0000160EF0000000600E0AE200083814100D2
:1015D000808141001380BA00000006000D0A20003F
:1015E0002064740069726800202D65002D2D200094
:1015F00020536400686F690077737200207465007F
:1016000068656300206374006F6E6F00746572001C
:101610006E747900732000006F6600003220EF00C6
:10162000E30120008301500005003100A3B2200037
:10163000008041001040BA000160EF000000060089
:10164000A0B2200083814100808141001380BA0054
:10165000000006000D0A6F0020636E0061747400C4
:1016600020666500696C6E00656E7400616D200017
:1016700065206F002D2D66002D2020004469660036
:10168000737069006C616C00797365002063000001
:101690003220EF00A302200083015000050031003A
:1016A00043B62000008041001040BA000160EF0006
:1016B0000000060040B62000838141008081410087
:1016C0001380BA00000006000D0A63002074680051
:1016D000616961006C207200666961006C6563007D
:1016E0006E6174006D656500202D72002D2D7300F4
:1016F0002044200069736F00706C660061792000DF
:10170000732066007468690065206C006C61650078
:101710007374000020380000302000003220EF00F9
:10172000A3B92000008041001040BA000160EF0022
:10173000000006000D0A0000206D00006B64000030
:10174000697200002064000069720000202D000012
:101750002D2D000020430000726500006174000020
:1017600065200000612000006469000072650000CF
:10177000637400006F720000790000003220EF00F7
:10178000A3BC2000008041001040BA000160EF00BF
:10179000000006000D0A0000207200006D640000C9
:1017A000697200002064000069720000202D0000B2
:1017B0002D2D000020440000656C000065740000C1
:1017C000657300002074000068650000206400005C
:1017D0006972000065630000746F00007279000098
:1017E000000000003220EF0083032000830150003E
:1017F00005003100E3C02000008041001040BA0025
:101800000160EF0000000600E0C02000838141007D
:10181000808141001380BA00000006000D0A3000EC
:10182000206639006F7231006D613200742027002C
:10183000736920007A652D00202D6F002D2D720018
:1018400020462D006F7220006D6127007420660015
:1018500063616F00726472002E206D0020286100A9
:1018600045787400616D2000706C3500653A310078
:1018700020273200666F4D00726D270061742000D2
:101880002035000033360000383700003220EF00EA
:1018900083032000830150000500310023C620008F
:1018A000008041001040BA000160EF000000060017
:1018B00020C6200083814100808141001380BA004E
:1018C000000006000D0A6E00202064002020200089
:1018D0002020500020206100202072002020740071
:1018E0002020690020207400206669006F726F005C
:1018F0006D616E00747320002061300020352E0071
:10190000313220004D422000206354006172680093
:10191000642969002E20730020432000726569004D
:101920006174730065732000204D00004252000076
:10193000206100003220EF004303200083015000AB
:101940000500310063CB2000008041001040BA0048
:101950000160EF000000060060CB200083814100A1
:10196000808141001380BA00000006000D0A790052
:1019700020206F0020207500202020002020630000
:101980002020610020206E002020200020207500F3
:10199000206E73006F746500207220006563610023
:1019A0006F6D20006D6563006E646F0065646D008F
:1019B000206F70006E2075006465740076696500A4
:1019C00063657200732020007768740069636F009C
:1019D000682000003220EF00C30220008301500085
:1019E0000500310063D02000008041001040BA00A3
:1019F0000160EF000000060060D0200083814100FC
:101A0000808141001380BA00000006000D0A20000A
:101A10002020610020206E00202020002020530084
:101A2000202044002020200020206F002020720071
:101A3000206620006F7243006D6146007420200014
:101A400074686400652065006472760069766900D8
:101A500065206300287365007563290068202E00E7
:101A6000617300003220EF008303200083015000E7
:101A700005003100E3D42000008041001040BA008E
:101A80000160EF0000000600E0D4200083814100E7
:101A9000808141001380BA00000006000D0A20007A
:101AA000206943006E6661006F206E002D2D2000BE
:101AB0002D207400536861006F776B002073650000
:101AC0006F6D200065207300696E6500666F76009B
:101AD00020616500626F72007574610020746C0093
:101AE00068652000206D73006564650069616300AE
:101AF0002F666F00696C6E00652064007379730057
:101B000073742100656D00002E2000003220EF006C
:101B100023D92000008041001040BA000160EF008E
:101B2000000006000D0A000020680000656C00003F
:101B300070090000596F00007520000061720000FC
:101B4000652000006865000072650000000000006C
:101B50003220EF0003022000830150000500310015
:101B600043DC2000008041001040BA000160EF001B
:101B70000000060040DC200083814100808141009C
:101B80001380BA00000006000D0A20000A20690038
:101B9000507574007420200061206800706161003D
:101BA000726173006D6520007465730072207000AF
:101BB000696E610020716300756F65007465730064
:101BC00073200000696600003220EF0003DF200070
:101BD000008041001040BA000160EF0000000600E4
:101BE0006D6F0000756E0000740000003220EF0081
:101BF00023E02000008041001040BA000160EF00A7
:101C00000000060061700000706500006E64000056
:101C1000206C00006F6700002E74000078740000D4
:101C20002062000075740000746F00006E200000D8
:101C3000707200006573000073650000642100008D
:101C4000210000003220EF00E3E22000008041008C
:101C50001040BA000160EF0000000600746500004B
:101C600073740000666900006C6500002E7400004B
:101C700078740000000000003220EF0083E42000B0
:101C8000008041001040BA000160EF000000060033
:101C9000486500006C6C00006F200000576F00006A
:101CA000726C0000640000003220EF00830220000C
:101CB000830150000500310003E72000008041004F
:101CC0001040BA000160EF000000060000E72000AD
:101CD00083814100808141001380BA00000006002A
:101CE0000D0A7400556E20006B6E6C006F776900F2
:101CF0006E207300436F74006D6D2000616E6F0085
:101D00006420660027252000732763002C206F00C5
:101D100075736D0065206D0027686100656C6E004D
:101D200070276400207473006F2000006765000056
:101D300072CFBF000000FB000000E00002003A008C
:101D4000F122A900F322A90072CFBF000000FB001E
:101D50006100E10002003A00F122A900F322A8008C
:101D600000000600F502A800F102A9000008A80082
:101D7000000006004022EF004222EF00AC8FBF00BF
:101D80004222B70042C2A8004302A900E862A900AB
:101D9000E842A900E8C2A80041E2A800000006004D
:101DA000851F7800861F780034002000247D88007D
:101DB000A62FEF0004052000347D8800A60FE20066
:101DC00006003A00F4032000647D8800BA0E020089
:101DD00000000000300F040000000000A60FE20029
:101DE00013003200347D80006820E1000C003600D2
:101DF000A42FED00A68FBF00E30260000500E00005
:101E000003003200347D800064024200347D88008B
:101E1000A62FD500A62FD500140F04000000000047
:101E2000180F040000000000EE0E04000000000087
:101E3000A62FED00257D80000502B300A68FBF0010
:101E40004200DD000080EA00000378007C006300AF
:101E500080827200657D8800BA0E020000000000DA
:101E60004F037800CF02780000000600E370EF0017
:101E7000E2D0BF0048E2B7004962EF004002AE0086
:101E8000FEFF370048C2BF00E3F0B7000060EF007C
:101E900000000600F40F2000441288004002AE004B
:101EA000FEFF370048C2BF0000E0B7000000060098
:101EB000851F7800C830EF00CA30EF00CC30EF004B
:101EC000CE30EF00D030EF00D230EF00D430EF0052
:101ED000D630EF00D830EF00DA30EF00F502A9007D
:101EE000C2D0BF000160EF00C202DD0024D6200096
:101EF00004804200A486800000429000A4868800EE
:101F0000C410F800D010F900C610F800D210F90083
:101F1000C2D0BF000160EF00C202DD00E1824200DA
:101F20000500780024D6200004004000748680005C
:101F30000042900074868800D4D0A800D4D0BF009E
:101F4000E2F0B700360F020000000000D3D0BF005F
:101F5000E2F0B700360F020000000000D2D0BF0050
:101F6000E2F0B700360F020000000000D1D0BF0041
:101F7000E2F0B700360F020000000000D0D0BF0032
:101F8000E2F0B700360F020000000000CED0BF0024
:101F9000E2F0B700360F0200000000001486800057
:101FA0006524E10002003A004A0F02000000000030
:101FB00044012000B48688004A0F0200000000009F
:101FC000C8F0B700D630ED0044868000F4CFB200F0
:101FD00002003A00D610E200F7FF3A00C2D0BF007C
:101FE0000160EF00C202DD00E282420005007800DD
:101FF00024D6200004004000104278006224E10052
:1020000007003A00C8D0BF00C9F0B7004A0F02006D
:1020100000000000C8F0B7007410040000000000C9
:10202000C2D0BF000160EF00C202DD00E2824200C8
:102030000500780024D620000400400010427800FB
:102040006124E10012003A00D830EF00A400200023
:10205000D48688004A0F020000000000C8F0B700D4
:10206000D830ED004200AE00DA30ED00C850E2009A
:1020700004003A00D810E200F6FF3A00DA10E2005D
:10208000F4FF3A00C870EF00741004000000000074
:10209000C2D0BF000160EF00C202DD00E282420058
:1020A0000500780024D6200004004000104278008B
:1020B0006424E1000C003A004A0F02000000000016
:1020C000CDF0B7004A0F020000000000CCF0B700CE
:1020D0004A0F020000000000CBF0B7004A0F0200D8
:1020E00000000000CAF0B700E2F0EF00360F020077
:1020F00000000000C2D0BF000160EF00C202DD009E
:10210000E38242000500780024D62000040040004D
:102110001004E00001003A00F502A800C890BF00DA
:102120005186800062868000CF02780000000600A1
:1021300041E2A90000000600A56FEF00A62FEF0006
:10214000A82FEF00A4CFBF00A5EFB700A5CFBF0019
:10215000A56FED000004E0000E003200B47C20000A
:10216000347D8800A82FEF00417D8000A68FBF003E
:10217000A62FED004200AE00A82FED000000E00009
:10218000F9FF3A000100E000F7FF3A00A610040052
:10219000000000000000000000000600851F78001D
:1021A000C500200003000900B51F78000202B80036
:1021B0000303B8004200A9008502430060844B007D
:1021C000020BB80085024B0008844B00030BB800DB
:1021D000080443000780B0008701780008017800F8
:1021E0008500780004007800250120000300090024
:1021F000CF127800CF02780000000600851F78001B
:10220000861F7800871F7800802FEF00822FEF0055
:10221000842FEF00862FEF00882FEF008A2FEF002A
:102220008C2FEF008E2FEF00902FEF00922FEF00FA
:10223000942FEF00962FEF00982FEF009A2FEF00CA
:102240009C6FEF009D6FEF009E2FEF00A02FEF001F
:10225000A26FEF00A36FEF004E6DEF004F6DEF0028
:10226000462DEF00482DEF004C6DEF00F502A80061
:10227000D00E020000000000E0C1B300A4EFB700E0
:102280009C10020000000000F502A800802FEF0063
:10229000047C80006A20E10006003100E2F0EF00DB
:1022A000360F020000000000802FEC0048110400EF
:1022B0000000000044062000047C8800F502A8000D
:1022C000E2F0EF00360F020000000000F502A90066
:1022D000802FED00C270EF00C430EF00C630EF0079
:1022E000580F02000000000082AFB700217C880078
:1022F000327C8800147C80006124E10002003200FE
:10230000800FE200EDFF3A00800FE20022003A0069
:10231000F502A800E2F0EF00360F02000000000016
:10232000F502A90050C0B300C2F0B700C430EF00FE
:10233000C630EF00580F02000000000082AFB70067
:10234000217C8800327C8800C270EF00C430EF002E
:10235000C630EF00580F02000000000082AFB70047
:10236000217C8800327C8800147C80006124E1009C
:102370000700320020C0B3004EEDB700E4D42000C7
:10238000040088004B013700C81104000000000061
:10239000CC1104000000000020C0B300C2F0B70060
:1023A000A41A200024868800C630EF00580F0200CF
:1023B0000000000082AFB700217C8800327C8800DA
:1023C000F0FF2000840FB600800278000003EB00CD
:1023D000A41A20000520E10047003A000600E000B2
:1023E00045003A00824FAF004300370000C1B30000
:1023F000C2F0B700C430EF00C630EF00580F020043
:102400000000000082AFB700217C8800327C880089
:10241000802FEF00047C8000F3FF2F000418E10000
:1024200017003200F0C0B300C2F0B700C430EF00B4
:10243000C630EF00580F02000000000020C1B300BA
:10244000C2F0B700C430EF000400240034868800D6
:10245000580F02000000000082AFB700217C880006
:10246000327C8800824FE20002003A0040120400F1
:1024700000000000802FEC000A12040000000000A1
:10248000047C8000F3FF2F000418E10002003A00F2
:1024900020C0B3004EEDB70000C1B300C2F0B700DA
:1024A000C430EF00C630EF00580F020000000000FB
:1024B00082AFB700217C8800327C880000002400B5
:1024C000860FB600800078000000EB000000E000FE
:1024D00002003A000100E0000400320010C0B30026
:1024E0004CEDB70078120400000000004C6DEF00C6
:1024F000B812040000000000F502A80010C0B300EC
:10250000A4EFB7009C10020000000000F502A90033
:102510004C6DEF00F4FF2100047C880010C0B30074
:10252000C2F0B700C430EF00C630EF00580F020011
:102530000000000082AFB700217C8800327C880058
:10254000802FED00824FE20002003200800FE20097
:10255000F2FF3A00800FE20005003A0020C0B3000D
:102560004EEDB700F502A800B8120400000000000C
:10257000F502A800E4032000647D8800BA0E020082
:1025800000000000F502A90044012000047C88003E
:1025900030C0B300C2F0B700C430EF00C630EF0067
:1025A000580F02000000000082AFB700217C8800B5
:1025B000327C8800802FED00824FE2000200320062
:1025C000800FE200F2FF3A00800FE20002003200CA
:1025D000F81204000000000020C0B3004EEDB70068
:1025E000F502A800E4D4200004008800B100370000
:1025F0009D6FEF009C6FEF00E47C80007424E1008D
:1026000011003100E47C80004822DE0083F82000C5
:10261000830242004A0F020000000000804A780056
:102620009D6FEC009C4FE20004003A00447C800067
:10263000E4CFB20001003A009D6FEF009C6FEC0008
:10264000FC1204000000000004202000546A8800EE
:1026500004202000846A88004F0DA80088CFBF00A6
:10266000000CB2000000E000290032008FCFBF0054
:10267000804278000B60EF0006002000F503B200F6
:102680000003EB00050378000500200090CFBF0099
:102690000EE0B7000F60EF000740780001E0B700E0
:1026A0000040EB008082720091CFBF000160EF001C
:1026B0009EEFB7009F6FEF00050078009E2FB700D8
:1026C000067D8800F47C800061024200840278006C
:1026D000047D800060024A0004037800A40020000A
:1026E0000402E8000402E900030032008502D00081
:1026F0000683D200FBFF37006180520046ADB70071
:1027000060005B0048ADB7003A1404000000000010
:102710008ECFBF000AE0B7000B60EF00060020007C
:1027200005037800050020008FCFBF0080437800AC
:102730000F60EF000740780001E0B7000040EB00B9
:102740008082720090CFBF009EEFB7009F6FEF00B6
:10275000050078009E2FB700067D880000FC2F0042
:102760009E2FB600A08FBF0063006000A0AFB7002F
:10277000640020000402E8000402E90003003200C3
:10278000A02FD5009EAFD700FBFF370091CFBF0031
:102790000160EF00E3026000C12ADD00967C80004A
:1027A0000608B2004730DE00A2EFB700050078004F
:1027B000A26FB7008DCFBF006F406000A3EFB700DE
:1027C000147D80004822DE0069005200000278007B
:1027D000100020000400DD00A3EFB700A3EFB70056
:1027E000F47C80006102420084027800047D800055
:1027F00060024A0004037800147D80000960EF0045
:1028000062024200040078000002780010002000FC
:102810000400DD008600780000017800030020003D
:1028200005007800CE100200000000008002780051
:1028300001037800801F7800A3CFBF00004178001B
:102840004F0078000560EF000300200005007800CD
:1028500086007800CE1002000000000080027800A0
:10286000010378006180520046ADB70060005B0054
:1028700048ADB70010C1B300C2F0B700C430EF00DC
:10288000C630EF00580F02000000000070C0B30017
:10289000C2F0B7004A0DF800C410F900C630EF00CE
:1028A000580F020000000000F502A800E4D4200048
:1028B00004008800CF0378004F037800CF0278002F
:1028C00000000600851F7800722FEF00742FEF00C4
:1028D000762FEF0041E2AF0030003700786FEF0055
:1028E000D00E02000000000040C0B30078EFB70037
:1028F000F502A800E2F0EF00360F02000000000031
:10290000F502A900786FED00C270EF00C430EF004F
:10291000C630EF00580F02000000000072AFB70091
:10292000A17B8800B27B8800947B80006124E10059
:1029300002003200784FE200EDFF3A00947B800005
:102940006124E1000600320098100200000000003F
:102950000060EF0035003700CA14040000000000DA
:10296000FE100200000000004E4DE20005003A009B
:1029700010C0B30000E0B7002C003700CA140400F8
:102980000000000098100200000000000060EF004E
:1029900026003700121504000000000060C0B300DC
:1029A000C2F0B700C430EF00C630EF00580F02008D
:1029B0000000000072AFB700A17B8800B27B8800E6
:1029C000C0C02E00720FB600800278000500E00043
:1029D000110032009810020000000000FE100200FA
:1029E000000000004E4DE20005003A0010C0B300A8
:1029F00000E0B7000D0037000815040000000000DB
:102A000098100200000000000060EF00070037008F
:102A1000121504000000000010C0B30000E0B70071
:102A20000200370010C0B30000E0B700CF0278000A
:102A300000000600851F7800B470EF00B630EF008C
:102A4000B830EF00BA30EF00C0002000B210B40080
:102A500080027800154078000160EF000080B2002D
:102A60000B0032001080B2000B0032002080B20058
:102A7000500032001080B2007F003200C08FB200E0
:102A8000DA0032001080B200E5003200E4003700C6
:102A90000060EF00E900370004202000946D8800FA
:102AA000B290BF0041D52000000178000D00090060
:102AB000B25878004C4DE20007003A009400200024
:102AC0000402E8000402E900030032005C2DD40097
:102AD0005EADD600FBFF3700C46A80006020E100D5
:102AE00013003E0004003900B46A80000320200077
:102AF0000418E1000E0039000048A80080C0B300AF
:102B0000C2F0B7005C0DF800C410F9005E0DF800CB
:102B1000C610F900580F020000000000B6B0B70060
:102B2000C1858800D2858800B0150400000000002F
:102B30000048A90090C0B300C2F0B7005C0DF800D7
:102B4000C410F9005E0DF800C610F900580F02001D
:102B500000000000B6B0B700C1858800D2858800AB
:102B6000B650E20008003200C0002000B210B400ED
:102B700080027800E0CFB300804A780010C0B30034
:102B800000E0B700AD003700B42DEF004400200096
:102B9000B46D8800C0002000B210B400800278003C
:102BA00030C0B300804A780010C0B30000E0B70026
:102BB000A2003700B40DE20002003A00B60DE200B8
:102BC00025003200B42DED004200AE00B62DED0020
:102BD0004A0F020000000000B4F0B700A485800096
:102BE000F4CFB20017003200A4858000E4CFB20019
:102BF0000A003A00C0002000B210B4008002780041
:102C000020C0B300804A780020C0B30000E0B700C5
:102C10008A0037001E16040000000000C0002000DB
:102C2000B210B40080027800E0CFB300804A780090
:102C300010C0B30000E0B700800037002816040081
:102C40000000000010C0B30000E0B7007B003700B8
:102C50003C16040000000000C0002000B210B400C8
:102C600080027800E0CFB300804A780010C0B30043
:102C700000E0B70071003700560DE20002003A0094
:102C8000580DE2004700320000002000B210B400EE
:102C9000901F7800540DF90060002000B210B400BD
:102CA000901F78005A0DF900B46A8000A36A800072
:102CB0000300520056ADB700C46A800060005A009D
:102CC00058ADB700946D8000A36A800003005200E5
:102CD000B2ADB7005A0DF800BC10F900540DF80061
:102CE000BE10F900BE10E20015003200BC30ED004D
:102CF000F40F200044128800BC30EC00BE30ED0020
:102D0000BE10E20002003A00961604000000000027
:102D10004002AE00FEFF3700E58580004882BF001C
:102D20008042980078160400000000004002AE00C7
:102D3000FEFF3700E58580004882BF008042980092
:102D4000B20DE20012003A004A0F0200000000003B
:102D50004A0F020000000000560DE20002003A0097
:102D6000580DE20005003200C0002000B210B4008F
:102D70008002780030C0B300804A78000420200030
:102D8000946D880010C0B30000E0B7002B0037003E
:102D900020C0B30000E0B70028003700F61604009A
:102DA000000000000048AF000600370050C0B3002C
:102DB000C2F0B700C430EF00C630EF00580F020079
:102DC00000000000F502A800E2F0EF00360F02005C
:102DD00000000000C0002000B210B40080027800A3
:102DE000804AEB000060EF0014003700C0002000B4
:102DF000B210B4008002780080CAEB0050C0B3006B
:102E0000C2F0B700C430EF00C630EF00580F020028
:102E100000000000B6B0B700C1858800D2858800E8
:102E2000F502A800E2F0EF00360F020000000000FB
:102E300000E0EF000100370000E0EF00CF02780073
:102E4000000006009E30EF00A030EF00A230EF003F
:102E5000A430EF00A630EF00A830EF00AA30EF005A
:102E6000AC70EF0004202000F484880004202000CF
:102E700004858800A230EF009C10F800A410F9002F
:102E80009810F800A610F9009A10F800A810F900A0
:102E900010C0B300AAF0B700E409210094858800AF
:102EA0001A15020000000000ACF0B700AC50E200C0
:102EB00005003A0010C0B30000E0B7000A00370078
:102EC0006E1704000000000064858000F4CFB2009B
:102ED00002003A000060EF00030037004C170400C6
:102EE000000000000060EF0000000600851F780071
:102EF0009E8FBF009C0FB4008002780005409000B8
:102F000000E0B700CF02780000000600851F7800BF
:102F1000C500200004000900B51F7800822FEF00D3
:102F2000846FEF00856FEF00862FEF00047C800038
:102F30006002420004007800A10020000001780037
:102F400001000900B25878009830EF009A30EF0085
:102F5000E584880022170200000000006104E100FF
:102F60000600320080C0B30084EFB70080C0B30019
:102F700057E8B700581A040000000000047C8000E5
:102F80006002420004007800A100200000017800E7
:102F900001000900B2587800357C8800E41F200049
:102FA000337C800004804100A100200000017800F3
:102FB000B2587800540520000524E100CD003A0005
:102FC000F41F2000337C800004804100A100200019
:102FD00000017800B2587800A40A20000524E1001E
:102FE000C4003A00047C80006002420004007800C3
:102FF000A10020000001780001000900B25878000B
:10300000E57C880064032000F47C880076170200C9
:1030100000000000640420000024E10054003A0095
:10302000047C80006002420004007800C10020009F
:103030000001780001000900B2587800E67C8800A1
:1030400074032000F47C8800761702000000000062
:10305000140420000024E10045003A00047C8000B4
:103060006002420004007800E100200000017800C6
:1030700001000900B2587800E77C88008403200032
:10308000F47C880076170200000000004405200050
:103090000024E10036003A00047C80006002420017
:1030A00004007800010120000001780001000900FF
:1030B000B2587800E87C880094032000F47C8800F3
:1030C0007617020000000000140320000024E10035
:1030D00027003A00047C800060024200040078006F
:1030E000210120000001780001000900B258780099
:1030F000E97C880064022000F47C880076170200D6
:1031000000000000940220000024E10018003A00B2
:10311000047C800062024200040078008002780093
:10312000060020000700200085007800C200200073
:1031300001000900B25878008058EB008058EB007D
:1031400024022000037C800004804100800278007B
:1031500026C0B30085007800C2002000B258780075
:103160000060EF00D40037007A190400000000006E
:10317000047C80006002420004007800A10020006E
:103180000001780001000900B2587800E57C880051
:1031900024052000F47C880076170200000000005F
:1031A000640420000024E10052003A00047C800006
:1031B0006002420004007800C10020000001780095
:1031C00001000900B2587800E67C88003405200030
:1031D000F47C880076170200000000001404200030
:1031E0000024E10043003A00047C800060024200B9
:1031F00004007800E10020000001780001000900CF
:10320000B2587800E77C880044052000F47C8800F0
:103210007617020000000000440520000024E100B1
:1032200034003A00047C8000600242000400780010
:10323000010120000001780001000900B258780067
:10324000E87C880054052000F47C88007617020092
:1032500000000000340320000024E10025003A00B3
:10326000047C8000600242000400780021012000FC
:103270000001780001000900B2587800E97C88005C
:1032800024042000F47C880076170200000000006F
:10329000940220000024E10016003A00047C800023
:1032A00062024200040078008002780006002000DC
:1032B0000700200085007800C200200001000900FE
:1032C000B25878008058EB008058EB0024022000B0
:1032D000037C8000048041008002780036C0B30087
:1032E00085007800C2002000B25878000060EF002E
:1032F00071003700047C8000600242000400780006
:10330000A10020000001780001000900B2587800F7
:10331000157C8800E41F2000137C8000048041009D
:10332000A100200000017800B25878005405200068
:103330000524E10009003A00F41F2000137C8000FE
:1033400004804100A100200000017800B2587800FC
:10335000A40A20000524E1000600320040C0B300AA
:1033600057E8B70040C0B30084EFB700581A040014
:1033700000000000886FEF00E41B2000137C800039
:10338000048041008AAFB700886FEF00447C800062
:103390006424E10042003100047C800062024200AB
:1033A0000400780080027800547C800068024200AB
:1033B00004007800C100200000017800030009002B
:1033C000B25878000604BE00850078000201200093
:1033D00003000900B2587800547C80006402420067
:1033E00004007800A100200000017800B2587800A5
:1033F0000540780085EFB70085CFBF000160EF0082
:103400004080B200090032002080B2000700320084
:103410008080B200050032005080B2000E00320001
:103420007080B2000C003200160037002402200029
:10343000037C8000048041008002780026C0B30035
:1034400085007800C2002000B258780084CFBF0009
:1034500000E0B7001800370024022000037C800041
:10346000048041008002780036C0B30085007800F7
:10347000C2002000B258780084CFBF0000E0B7003F
:103480000D0037008A0FF800000120008A2FB400D9
:103490004F007800886FEC00C6190400000000009F
:1034A00050C0B30057E8B70050C0B30084EFB70076
:1034B00084CFBF0000E0B7004501200004000900F0
:1034C000CF127800CF02780000000600851F780038
:1034D000B46FEF00B56FEF00B62FEF00B28FBF00F3
:1034E000B00FB400A47D800000429000A47D88004D
:1034F000947D80006102420084027800050078001B
:10350000B00FB400801F780010407800B5EFB7000E
:103510004F007800B5CFBF00B6EFB700B76FEF0030
:10352000B6CFBF00B7EFB700B66FEF00B4CFBF00A4
:103530000160EF00B62FB700B60FF8000000F900E9
:10354000CF02780000000600851F7800A02FEF0052
:10355000A22FEF00A42FEF00A62FEF009C0FF80082
:10356000B00FF9009E0FF800B20FF900661A0200C2
:1035700000000000A0AFB700F47C800062024200AF
:10358000840278009C0FF800B00FF900957D880048
:10359000661A020000000000A2AFB700A20FF800F8
:1035A000A40FF900A62FEF00A40FF800A60FF90052
:1035B000A42FEF00A08FBF00A42FB700A48FBF00DF
:1035C000317D8000CF02780000000600851F780062
:1035D000C500200003000900B51F78000900200085
:1035E0004300AF0019002000891F78000002EB00A3
:1035F0008002EB000003EB008003EB000304690092
:1036000011003200080220004200A9000080D20010
:103610008180D2000482D2008582D2000328E1009A
:1036200001003A0002A0E10003003900020252004A
:1036300083825A004200A8000683D2008783D2000A
:103640000804E900F0FF3A008700780006007800DF
:10365000CF0478000900E000010032000400BE0041
:103660002501200003000900CF127800CF02780066
:1036700000000600851F7800C50020000400090036
:10368000B51F7800822FEF00842FEF00862FEF0008
:10369000882FEF008A2FEF008C2FEF008E6FEF0046
:1036A000902FEF00922FEF00942FEF008F0FA900C3
:1036B0008F2FA900047C8000620242000400780081
:1036C000A10020000001780003000900B258780032
:1036D000047C80006002420004007800E1002000C9
:1036E0000001780001000900B2587800C584880004
:1036F000D6848800E78488002217020000000000BA
:103700006104E1000400320080C0B3008EEFB70016
:103710000421040000000000047C800060024200DC
:1037200004007800A10020000001780001000900D9
:10373000B2587800857C8800E41F2000837C8000DC
:1037400004804100A100200000017800B2587800F8
:10375000540520000524E10009003A00F41F200070
:10376000837C800004804100A100200000017800DB
:10377000B2587800A40A20000524E10004003200B9
:1037800030C0B3008EEFB700221F0400000000001D
:10379000047C80006002420004007800A100200048
:1037A0000001780001000900B2587800857D88008A
:1037B000E4002000947D8800661A020000000000EA
:1037C00094AFB70014022000037C80000480410005
:1037D00080027800047C80006002420004007800CF
:1037E000C10020000001780001000900B2587800F3
:1037F000E67C8800D4002000F47C88007617020064
:10380000000000008043780085007800E20020007E
:10381000B2587800047C8000660242000400780000
:1038200080027800047C800062024200040078007C
:10383000C10020000001780003000900B2587800A0
:1038400006007800940FB400E0834B0087007800F6
:103850000003BE0085007800C200200003000900BC
:10386000B258780004022000037C800004804100EC
:1038700080027800047C800060024200040078002E
:10388000C10020000001780001000900B258780052
:10389000E67C880004012000F47C88007617020092
:1038A000000000008043780085007800E2002000DE
:1038B000B2587800047C80007C024200040078004A
:1038C00080027800047C80006002420004007800DE
:1038D000C10020000001780001000900B258780002
:1038E000867D880064012000947D8800661A0200AD
:1038F00000000000800378000800200085007800A8
:10390000E200200001000900B25878008058EB0066
:103910008058EB00047C80007C02420004007800A8
:10392000A10020000001780003000900B2587800CF
:103930000500E00018003A000600E00016003A001A
:10394000047C80007C024200040078008002780041
:10395000047C80006002420004007800C100200066
:103960000001780001000900B2587800E67C880068
:1039700044022000F47C8800A41A02000000000029
:10398000800378000104780085007800E2002000C0
:1039900003000900B2587800047C80006A024200EB
:1039A0000400780080027800047C800066024200F7
:1039B00004007800C1002000000178000300090025
:1039C000B258780004022000037C8000048041008B
:1039D0000101200000017800B2587800047C8000CA
:1039E0007C024200040078002101200000017800E0
:1039F00003000900B2587800010020000840780058
:103A00000160EF00090178008A017800CE10020001
:103A10000000000006004000878048000003BE0050
:103A200085007800C200200003000900B258780029
:103A3000047C80007202420004007800800278005A
:103A4000047C80006002420004007800C100200075
:103A50000001780001000900B2587800867D8800D6
:103A600014012000947D8800661A02000000000006
:103A70008003780085007800E20020000100090042
:103A8000B2587800047C8000600242000400780094
:103A9000A10020000001780001000900B258780060
:103AA000857D880034012000947D8800661A02001C
:103AB0000000000086AFB700882FEF00860FE200FD
:103AC00010003A00880FE2000E003A00047C8000EB
:103AD0006002420004007800A1002000000178008C
:103AE00001000900B2587800E57C8800040220003B
:103AF000F47C8800A41A02000000000086AFB70022
:103B0000417C8800047C8000600242000400780050
:103B1000A10020000001780001000900B2587800DF
:103B2000857D8800B4002000947D8800661A02001C
:103B30000000000092AFB700920FE20004003200D4
:103B4000928FBF00E10260006128E10004003A00AA
:103B500010C2B3008EEFB700221F04000000000067
:103B6000047C80007202420004007800A100200062
:103B70000001780001000900B2587800C52ADD0074
:103B8000947C8000610052008502400005027800AC
:103B9000937C8000110009000382D80082AFB70037
:103BA000842FEF0004022000037C80000480410089
:103BB000A100200000017800B2587800047C800049
:103BC0007C02420004007800C1002000000178005F
:103BD00003000900B2587800010020000540780079
:103BE0000160EF000601780087017800CE10020026
:103BF00000000000A47C800084024000E0804800B7
:103C00000103780005007800820FB400247C800056
:103C100084004B00347C8000000052008AAFB70063
:103C2000447C800001005A008CAFB700047C800007
:103C30007402420004007800800278001402200020
:103C4000037C800004804100C10020000001780056
:103C5000B25878004300A900064178000560EF00E3
:103C6000030020008A8FBF00617C8000E61A0200FA
:103C700000000000800378000104780085007800CF
:103C8000E200200003000900B2587800047C8000A4
:103C90007402420004007800A100200000017800B6
:103CA00003000900B25878006030E1000E003E00C9
:103CB0000300390054FF2F000520E1000A00360000
:103CC00024022000037C80000480410080027800F0
:103CD00026C0B30085007800C2002000B2587800EA
:103CE000841E04000000000024022000037C8000E9
:103CF000048041008002780036C0B300850078005F
:103D0000C2002000B258780024022000037C80000A
:103D100004804100A100200000017800B258780022
:103D2000632CE10024003A00047C80006002420021
:103D300004007800A10020000001780001000900C3
:103D4000B2587800E57C8800C4022000F47C88002A
:103D5000A41A02000000000058A8B700D142880051
:103D6000047C80006E02420004007800800278002B
:103D7000047C80006A02420004007800C100200038
:103D80000001780003000900B258780006007800AE
:103D9000820FB400247C800084804B000003BE00AE
:103DA00085007800C200200003000900B2587800A6
:103DB000161F0400000000005828EF005A28EF00EA
:103DC000047C80006E0242000400780080027800CB
:103DD000047C80006A02420004007800C1002000D8
:103DE0000001780003000900B2587800047C8000CC
:103DF00072024200040078000101200000017800F6
:103E000001000900B25878004440DE00060040007E
:103E10000400200087004A000003BE0085007800EF
:103E2000C200200003000900B2587800947C800092
:103E3000032020000418E1000200310010C2B3008A
:103E40008EEFB70024022000037C80000480410034
:103E5000A100200000017800B2587800632CE10036
:103E6000140032008E4FE200E300320024042000F0
:103E7000837C800004804100A100200000017800C4
:103E8000B2587800940220000524E10009003200B5
:103E900024042000837C800004804100A1002000D5
:103EA00000017800B2587800840220000524E10067
:103EB000D1003A00847C8000730242000400780044
:103EC000A10020000001780001000900B25878002C
:103ED0000500E00072003A0044032000837C80006B
:103EE00004804100A100200000017800B258780051
:103EF0000504E0006A003A0054032000837C80003F
:103F000004804100A100200000017800B258780030
:103F10000504E00062003A0064032000837C800016
:103F200004804100A100200000017800B258780010
:103F30000504E0005A003A0074032000837C8000EE
:103F400004804100A100200000017800B2587800F0
:103F50000504E00052003A0084032000837C8000C6
:103F600004804100A100200000017800B2587800D0
:103F70000504E0004A003A0094032000837C80009E
:103F800004804100A100200000017800B2587800B0
:103F90000504E00042003A00A4032000837C800076
:103FA00004804100A100200000017800B258780090
:103FB0000504E0003A003A00B4032000837C80004E
:103FC00004804100A100200000017800B258780070
:103FD0000504E00032003A00C4032000837C800026
:103FE00004804100A100200000017800B258780050
:103FF0000504E0002A003A00D4032000837C8000FE
:1040000004804100A100200000017800B25878002F
:104010000504E00022003A00E4032000837C8000D5
:1040200004804100A100200000017800B25878000F
:104030000504E0001A003A00F4032000837C8000AD
:1040400004804100A100200000017800B2587800EF
:104050000504E00012003A0024042000837C800064
:1040600004804100A100200000017800B2587800CF
:10407000940220000524E1000B00320024042000FB
:10408000837C800004804100A100200000017800B2
:10409000B2587800840220000524E10002003200BA
:1040A00030C0B3008EEFB7008E4FE2002C0032001C
:1040B0008F0FAF002A0037008F0FA800047C80000C
:1040C0006202420004007800A10020000001780094
:1040D00003000900B258780024032000837C80008C
:1040E00004804100E1002000000178000100090087
:1040F000B2587800858243000400200006034A007D
:10410000047C80006002420004007800010120006D
:104110000001780001000900B2587800C5848800C9
:10412000D6848800E884880022170200000000007E
:104130006104E1000700320080C0B30057E8B70017
:1041400080C0B30000E0B70035003700B0200400A5
:10415000000000008E6FEF0000210400000000004E
:104160008E4FE200240032008F2FAF002200370074
:104170008F2FA800047C80006202420004007800B7
:10418000A10020000001780003000900B258780067
:10419000E682420060034B00047C80006002420023
:1041A00004007800E100200000017800010009000F
:1041B000B2587800C5848800D6848800E7848800D7
:1041C00022170200000000006104E1000700320035
:1041D00080C0B30057E8B70080C0B30000E0B7006C
:1041E0000F003700FC200400000000008E6FEF007D
:1041F0000021040000000000042104000000000071
:104200009C1B0400000000008E4FE2000200320000
:104210008ECFBF0057E8B7008ECFBF0000E0B700D9
:104220004501200004000900CF127800CF02780079
:1042300000000600851F7800861F7800871F780021
:104240007A6FEF007C2FEF0034022000C37B8000E8
:1042500004804100800278000043EB008500780074
:10426000C2002000B2587800C47B80006002420087
:104270000400780080027800869020008500780095
:10428000C200200001000900B2587800FE100200B0
:10429000000000007CAFB700000020007C0FB400DD
:1042A0001004E0000600320060C0B3007AEFB700EF
:1042B00060C0B30057E8B700D02104000000000040
:1042C000100020007C0FB400104278000400A6000B
:1042D0001D003700C47B8000780242000400780093
:1042E00080027800200020007C0FB40000027800DB
:1042F0001400780000037800070020008500780093
:10430000C200200001000900B25878008058EB007C
:104310008058EB00200020007C0FB4009002780051
:10432000042020000520E1000700310010C2B30086
:104330007AEFB70010C2B30057E8B7007ACFBF00DA
:1043400000E0B70018003700780FF800800FF90080
:1043500086170200000000007AEFB7007A4FE200F3
:104360000F003A00780FF800800FF9003A1B0200A6
:10437000000000007AEFB7007A4FE20008003A0030
:1043800034022000C37B800004804100800278005A
:1043900016C0B30085007800C2002000B258780033
:1043A0007ACFBF0000E0B700CF0378004F0378005A
:1043B000CF02780000000600851F7800722FEF0002
:1043C000722FEF00947B80006120E10008003D0027
:1043D00014802000937B80008482410010C0B300D1
:1043E000804A7800722FEC00E221040000000000F7
:1043F0005668EF003F68EF004AA8EF004CA8EF00B6
:1044000050A8EF0052A8EF00B20E0200000000001A
:1044100085D02000C57B88001A2102000000000022
:104420000004E00058003A00244880006002420086
:10443000040078008002780080C0B300804A7800D1
:10444000D0C0B30090429800A00020000409B4003E
:1044500080027800804AEB0000C0B30090429800D0
:10446000C00020000409B40080027800804AEB00FC
:1044700000C0B30090429800E00020000409B4009E
:1044800080027800804AEB0000C0B30090429800A0
:1044900000C0B300A042980000C0B300B042980032
:1044A000200120000409B40080027800804AEB005B
:1044B00000C0B3009042980000C0B300A042980032
:1044C00000C0B300B0429800C00120000409B4004D
:1044D00080027800C0C5B300804A78001400200034
:1044E000947B8800947B80006B20E10009003D00F4
:1044F000C0012000720FB4002448800084024000F4
:1045000000C2B300804A7800722FEC0072220400CF
:1045100000000000800220000409B400800278003E
:10452000804AEB0000C0B30090429800C002200017
:104530000409B4008002780000C1B300804A78000A
:1045400000C0B30090429800E00220000409B400CB
:104550008002780084852000B41A7800B41A7800AC
:10456000200320000409B400800278008485200024
:10457000B41A7800B41A78005768EF0014002000CD
:1045800004008800010037000020EF00CF0278000F
:1045900000000600861F7800871F7800881F7800BB
:1045A000891F78000002EB008002EB000003EB00A3
:1045B0008003EB00030469001100320008022000B0
:1045C0004200A9000080D2008180D2000482D20083
:1045D0008582D2000328E10001003A0002A0E10038
:1045E000030039000202520083825A004200A800F0
:1045F0000683D2008783D2000804E900F0FF3A0066
:104600008700780006007800CF0478004F04780017
:10461000CF0378004F03780000000600851F780064
:10462000C500200007000900B51F780000037800CE
:10463000810378000406780004F0A1000400E00083
:1046400002003A00050020000D003700EB42520046
:104650000A003900000320000CF0A6000002200030
:104660002322AF00FEFF370024A2B7008502E90035
:10467000FBFF3B00A500200001003700840278000A
:1046800008012000090020001000FA000C377C000F
:104690000884E900FDFF3B00A400200005E0A00025
:1046A0000CF0A70005F0A000040F78001507980093
:1046B000060078008700780002A02C00A3B9230030
:1046C000087122000DF0A1000DF0A200CA22020024
:1046D000000000000DF0A700070037004007980019
:1046E0005107980000017800810178002E009000A9
:1046F000BE009000F4FF370042079800530798006F
:1047000024079800350798001E0278009E0290004A
:10471000060320000000E00011003A0005E0A600BA
:10472000110037000402E900040F78000400E000E3
:104730000D0032000524E1004200AF000E003700FA
:10474000060320000000E00005003A0005E0A60096
:104750000500370005F0A600060220000200370021
:1047600005E0A10015079800004043002322AF0098
:10477000FEFF370024A2B7004E009000DE0090003C
:10478000A20020008001EB006100E1000100320086
:10479000CDFF37000080FA00A501200007000900C6
:1047A000CF127800CF02780000000600851F780045
:1047B000C500200003000900B51F780080037800C1
:1047C0008404780004F0A1000400E00006003A0030
:1047D00009F0A70002003700050020000F00370095
:1047E000050020000D003700E64252000A003900A3
:1047F0000003200009F0A600000220002322AF00E1
:10480000FEFF370024A2B7008502E900FBFF3B0052
:104810005500200001003700840278006400200069
:1048200005E0A00009F0A70005F0A0000871220033
:10483000110009008883D800502402000000000005
:1048400081037800883E2000110009008883D80089
:104850005024020000000000810378004806200078
:10486000110009008883D8005024020000000000D5
:1048700081037800A8002000110009008883D80077
:1048800050240200000000000003200000C040008F
:104890002322AF00FEFF370024A2B7001700370025
:1048A000060320000000E0000E003A0005E0A6002C
:1048B0000D0037000402E9000524E1000200320087
:1048C0004200AF00000006000000E00005003A00D2
:1048D00005E0A6000400370005F0A600060220004F
:1048E0000100370005E0A100004043002322AF0093
:1048F000FEFF370024A2B7000000060025012000BB
:1049000003000900CF127800CF02780000000600F3
:10491000851F7800861F7800871F7800881F780021
:104920000068A900726FEF00980E020000000000FE
:10493000B20E02000000000062140200000000003D
:104940000004E0000D003A000100200001007800A2
:104950000160EF00E6060200000000008100E800B0
:104960002322AF00FEFF370024A2B7008001200001
:104970000008E600F5FF370065003700DC21020083
:10498000000000000000E000440032000068A800C1
:1049900001002000010078000160EF000C07020018
:1049A000000000008100E8002322AF00FEFF370076
:1049B00024A2B700100120000008E600F5FF370030
:1049C000A100200002D2200003000900B2587800A4
:1049D0000500780086007800040020000E23020005
:1049E0000000000051012000010078000160EF008C
:1049F0000C070200000000008100E8002322AF0045
:104A0000FEFF370024A2B700300220000008E600B5
:104A1000F5FF3700E100200092D22000B258780064
:104A2000074078000160EF0004002000D623020058
:104A30000000000061022000010078000160EF002A
:104A40000C070200000000008100E8002322AF00F4
:104A5000FEFF370024A2B700C00220000008E600D5
:104A6000F5FF370001012000A2D22000B2587800E3
:104A7000084078000160EF0004002000D623020007
:104A8000000000002322AF00FEFF37009402200048
:104A90002411880088250400000000000100200087
:104AA000010078000160EF004A07020000000000EA
:104AB0008100E8002322AF00FEFF370024A2B700E8
:104AC000900220000008E600F5FF370057C8BF003D
:104AD0000160EF0004002000D62302000000000067
:104AE000C1022000010078000160EF004A070200C7
:104AF000000000008100E8002322AF00FEFF370025
:104B000024A2B700F00220000008E600F5FF3700FD
:104B10004F047800CF0378004F037800CF0278006D
:104B200000000600811F78007172800080587800B4
:104B30008048EB00CF0078004E2EEC00000006000D
:104B40000000EB000028AF000000E80000000600B5
:104B5000851F78003830EF003610F8003810F90063
:104B60003890BF001004E000030032003830EC0041
:104B7000B025040000000000C4818000B3818000E3
:104B80000300520000A0B700CF027800000006002A
:104B90003770EF003830EF003A70EF003B70EF00F5
:104BA000646980006C20E1000400360060C0B3003E
:104BB00037F0B700E0250400000000003770EF0078
:104BC0003830EF003890BF00646980000020E100B9
:104BD0007F0036003890BF000609B400801F7800BF
:104BE000104078003BF0B7004F007800D48180007F
:104BF0004822DE0003022000041CE100040036000D
:104C0000D48180004822DE006524E1001C003A00C7
:104C1000D48180004822DE0024C2B2001800320095
:104C2000D48180004822DE00F4C2B20014003200B9
:104C3000D48180004822DE00A4C3B20010003200FC
:104C4000D48180004822DE00C4C3B2000C003200D0
:104C5000D48180004822DE00E4C3B20008003200A4
:104C6000D48180004822DE00C4C5B20004003200B6
:104C7000D48180004822DE00C4C7B20003003A009D
:104C800070C0B30000E0B700520037003650E200B9
:104C90000B003A00D48180004822DE00A4C2B2009A
:104CA00004003200D48180004822DE00F4C3B20048
:104CB00003003A0070C0B30000E0B70045003700C1
:104CC000B48180004822DE006624E1003D0032000D
:104CD000D48180004822DE0004C2B2001F003200EE
:104CE000D48180004822DE00B4C2B2001B00320032
:104CF000D48180004822DE00C4C2B2001700320016
:104D0000D48180004822DE00B4C3B2001300320018
:104D1000D48180004822DE00D4C3B2000F003200EC
:104D2000D48180004822DE00B4C5B2000B003200FE
:104D3000D48180004822DE00D4C5B20007003200D2
:104D4000D48180004822DE00E4C2B20007003A00AD
:104D5000D48180006124E10004003A0060C0B30007
:104D600037F0B700E226040000000000D481800084
:104D70004822DE00E4C2B20002003A0010C0B300D4
:104D80003AF0B700B48180004822DE006124E100DF
:104D90000C003200D48180004822DE00130620007F
:104DA000041CE10007003E00D48180004822DE00A0
:104DB000A3072000041CE1000200390010C0B3006A
:104DC00037F0B7003830EC00E225040000000000A6
:104DD00037D0BF0000000600851F7800861F7800CE
:104DE000871F78000630EF000570EF000830EF00F5
:104DF0000A30EF000C30EF000E30EF001030EF0003
:104E00001210A9001430EF001630EF001830EF0038
:104E10001A30EF001C30EF001E30EF002030EF00A2
:104E20002230EF002430EF002630EF002830EF0072
:104E30002A30EF002C30EF002E30EF00C4002000AD
:104E4000548088000010F8003610F900A8250200F0
:104E5000000000002CADB7000A90BF00646980001C
:104E60000020E10009003C000090BF0010427800E3
:104E7000E4C2B200050032000090BF00904278000A
:104E80008502FB000500E00002003A000060EF0030
:104E9000C800370065012100354888000A30EF005E
:104EA0000A90BF00646980000020E100090034001E
:104EB0000A90BF000609B400800278000A90BF0083
:104EC0000010B400904A78000A30EC00502704002B
:104ED0000000000004D0BF0036F0B700C825020073
:104EE0000000000005F0B700248080004822DE00AA
:104EF0006724E10002003A000060EF00AD003700D7
:104F00002C0DF8000810F900248080004822DE00F3
:104F10006124E10000003A00248080004822DE0085
:104F20006624E100990032001210AF0097003700AC
:104F30000E30EF000E90BF00448080000020E100A2
:104F40001E0034000E90BF000609B4001042780025
:104F5000E4C2B20005003A00448080007380800003
:104F6000830252006428E10003003C00748080004A
:104F70006820E100070034000060EF008D0037007A
:104F80001210A800DE27040000000000D82704004B
:104F9000000000000E90BF000609B4001042780027
:104FA000E4C2B20002003A00DE2704000000000064
:104FB0000E30EC009A270400000000001210AF0031
:104FC00072003700C00120000210B40006B0B70024
:104FD0000A30EF00548080006B20E10008003D00A3
:104FE0000690BF000A10B4008002780000C2B3002F
:104FF000804A78000A30EC00EA2704000000000034
:105000000E10F8001010F9000609F8001410F9004D
:105010000A30EF000C30EF00648080006820E1006F
:1050200028003D000A90BF00848080000020E1003D
:10503000240034000A90BF001410B4001004E000F3
:105040001D0032000C90BF000610B40080027800F2
:105050000A90BF001410B400904A78000C90BF0072
:105060000610B400904278008502FB001406200070
:105070000520E1000F003C000C90BF000610B400BA
:10508000904278008502FB00A40720000520E10083
:10509000080035000C90BF000610B40080027800B4
:1050A000154278000960EF0003022000030052005F
:1050B000804A78000C30EC000A30EC000C28040028
:1050C000000000001090BF00448080000020E1003C
:1050D0002E0034001030EC00840020007480880022
:1050E000748080006B20E10028003D001090BF001C
:1050F000448080000020E100240034001090BF00B4
:105100001410B4001004E0001D0032000E90BF0027
:105110000610B400800278001090BF001410B40094
:10512000904A78000E90BF000610B40090427800BC
:105130008502FB00140620000520E1000F003C0062
:105140000E90BF000610B400904278008502FB006C
:10515000A40720000520E100080035000E90BF00E4
:105160000610B40080027800154278000960EF0054
:105170000302200003005200804A78000E30EC0049
:105180001030EC0070280400000000002480800033
:105190004822DE006624E100020032001210AE0058
:1051A000020037000060EF000200370010C0B300BB
:1051B00000E0B700CF0378004F037800CF027800FB
:1051C00000000600851F78000630EF000830EF0071
:1051D0000A30EF000C30EF000210F8000810F90060
:1051E0000410F8000A10F9006403200034808800DD
:1051F0000C30EF000C90BF00348080000020E100F4
:10520000090034000C90BF000810B4008002780040
:105210000C90BF000A10B400904A78000C30EC00EB
:10522000FA28040000000000CF0278000000060009
:10523000851F7800A830EF00AA30EF00AC30EF00F7
:10524000AE30EF00B030EF00C0002000A610B40078
:1052500080027800154078000160EF000080B20005
:105260000B0032001080B2000B0032003080B20020
:10527000690032001080B200C20032007080B200BB
:105280000C013200A08FB200230132003001370040
:105290000060EF003701370004202000C46D880053
:1052A000A690BF0041D52000000178000D00090044
:1052B000B2587800C46A80006020E10009003E0016
:1052C00004003900B46A8000032020000418E100C3
:1052D00004003900A0C0B30053EDB700C02904009A
:1052E00000000000B0C0B30053EDB70094002000F0
:1052F000560DF800A810F900580DF800AA10F90092
:105300000402E8000402E90003003200AA30D500DC
:10531000A8B0D700FBFF3700A810E20005003A0054
:10532000AA10E20003003A00A830EC004220AF00CF
:10533000AA30EC00F0C0B300C2F0B700C430EF00F8
:10534000C630EF00580F020000000000ACB0B700FC
:105350007185880082858800AC50E20008003A0020
:1053600030C1B300C2F0B700A810F800C410F900B3
:10537000AA10F800C610F900580F02000000000043
:105380004C4DE20007003A00940020000402E800BF
:105390000402E900030032005C2DD4005EADD600AB
:1053A000FBFF370053CDBF00C2F0B7005C0DF80023
:1053B000C410F9005E0DF800C610F900580F020085
:1053C00000000000ACB0B7007185880082858800BD
:1053D000AC50E20008003200C0002000A610B4006B
:1053E0008002780080CAEB0000E0EF00E1003700A7
:1053F000062A040000000000C0002000A610B4002F
:105400008002780020C0B300804A780020C0B3003A
:1054100000E0B700D7003700C46D800004A0B200E0
:105420000E003A00946A80004822DE006B24E100FE
:1054300006003A00C0CFB300E2F0B700360F02001A
:10544000000000002E2A040000000000E0CFB3009E
:10545000E2F0B700360F020000000000000020005C
:10546000A610B400901F7800540DF90060002000D1
:10547000A610B400901F78005A0DF900B46A80009D
:10548000A36A80000300520056ADB700C46A8000D2
:1054900060005A0058ADB700C46D8000A36A800058
:1054A00003005200B8ADB7005A0DF800B210F90071
:1054B000540DF800B410F900B290BF00B230EC0007
:1054C0004412800000429000441288004962EF00BC
:1054D000B430ED004002AE00FEFF370048C2BF000E
:1054E0004DEDB700B410E200F3FF3A00B80DE20052
:1054F00021003A0004202000C46D8800E2F0EF0093
:10550000360F020000000000E2F0EF00360F02004C
:10551000000000004A0F0200000000000160EF00E0
:10552000FF0260006528E10008003200C000200092
:10553000A610B40080027800E0CFB300804A780063
:1055400030C0B30000E0B7008A003700C000200080
:10555000A610B4008002780030C0B300804A780002
:10556000BA2DEF00A4002000E46D880030C0B30025
:1055700000E0B7007F00370020C0B30000E0B700B4
:105580007C003700BA0DE20002003A00BC0DE200D8
:1055900040003200BA2DED004200AE00BC2DED00FF
:1055A000E2F0EF00360F0200000000004A0F020098
:1055B000000000004DEDB7004D4DE200300032001C
:1055C000560DE20024003A00580DE20022003A0095
:1055D000BA2DEF00A4002000E46D8800946A8000DA
:1055E0004822DE006B24E10011003A00D0CFB30066
:1055F000E2F0B700360F020000000000E2F0EF001A
:10560000360F020000000000C0002000A610B40009
:105610008002780040C0B300804A780030C0B300F8
:1056200000E0B700530037002C2B040000000000FE
:10563000F502A800E2F0EF00360F020000000000C3
:10564000C0002000A610B40080027800804AEB0061
:105650000060EF0047003700C0002000A610B40033
:105660008002780020C0B300804A780020C0B300D8
:1056700000E0B7003F003700462B040000000000A8
:1056800030C0B30000E0B7003A0037005A2B0400E6
:1056900000000000C0002000A610B40080027800C6
:1056A000E0CFB300804A780030C0B30000E0B7001C
:1056B00030003700BA0DE20002003A00BC0DE200F3
:1056C00015003200BA2DED004200AE00BC2DED00F9
:1056D0004A0F0200000000004DEDB7004D4DE20002
:1056E0000A003200F502A800E2F0EF00360F0200D7
:1056F00000000000C0002000A610B4008002780066
:10570000804AEB000060EF001A00370030C0B300A1
:1057100000E0B7001700370050C0B300C2F0B70078
:10572000C430EF00C630EF00580F02000000000048
:10573000F502A800E2F0EF00360F020000000000C2
:10574000C0002000A610B4008002780080CAEB00E0
:1057500000E0EF0007003700C0002000A610B400F2
:1057600080027800E0CFB300804A780030C0B300F8
:1057700000E0B700CF027800000006009F70EF0045
:105780009E50E20006003A009810E20004003A0041
:105790009A10E20002003A000060EF002300370098
:1057A00004202000F46D880004202000046E88008E
:1057B000C22DEF009C10F800C40DF9009810F800FD
:1057C000C60DF9009A10F800C80DF90010C0B3001A
:1057D000CAEDB700E4DB20003485880018290200F8
:1057E000000000009FF0B7009F50E20005003A0063
:1057F00010C0B30000E0B7000C0037000E2C04000E
:1058000000000000F48480004822DE00F4CFB200E3
:1058100002003A000060EF0004003700EA2B0400A9
:105820000000000010C0B30000E0B7000000060058
:10583000851F7800861F7800871F7800881F7800F2
:105840007970EF007A70EF007B70EF007C30EF0032
:105850007E30EF008030EF008230EF008430EF00C8
:105860008630EF008830EF008A30EF0024022000FD
:105870007383800004804100A100200000017800B3
:10588000B2587800632CE10013003200240220009B
:105890007383800004804100A10020000001780093
:1058A000B2587800622CE1000B0032002402200084
:1058B0007383800004804100A10020000001780073
:1058C000B2587800612CE10003003200F0FF2F0095
:1058D000F1FF20002B013700240220007383800099
:1058E00004804100A100200000017800B258780037
:1058F000054078000160EF003080B2000300320004
:105900001080B200060032000500370088B0EF00BA
:10591000F4FF200054848800982C0400000000004C
:1059200088B0EF008A30EF00982C040000000000DF
:105930005668EF007850E200310032007970EF00D5
:105940004A08F8008010F9004C08F8008210F900AD
:10595000040220007383800004804100A100200025
:1059600000017800B2587800C48380004822DE002D
:105970000524E1001E0031009E70EF008010F80049
:105980009810F9008210F8009A10F90084B02000F5
:10599000E4848800BE2B0200000000000004E00048
:1059A00003003A008890BF0051848000F500370062
:1059B00079D0BF007970EC00748380007C024200D3
:1059C00004007800A1002000000178000300090015
:1059D000B2587800050078008030B40006007800E6
:1059E0008290B40082B0B700A82C04000000000030
:1059F0003F68EF000000200001002000E1003700B8
:105A0000240220007383800004804100A100200054
:105A100000017800B2587800054078000160EF007E
:105A20003080B200030032001080B2000C0032005F
:105A30000B0037007010F8007C10F9007210F800AD
:105A40007E10F9007C30D4007EB0D6007C30D400CB
:105A50007EB0D6007A70EF00422D040000000000F6
:105A60007010F8007C10F9007210F8007E10F90038
:105A70007C30D4007EB0D6007A70EF00422D040056
:105A80000000000074838000660242000400780079
:105A9000A10020000001780003000900B25878003E
:105AA000748380007802420004007800E100200046
:105AB0000001780003000900B25878004300A900F3
:105AC0007C90BF00F1838000070178008801780096
:105AD000E61A0200000000000500400084B0B70094
:105AE0000680480086B0B7007483800078024200C8
:105AF00004007800A10020000001780003000900E4
:105B0000B258780061805200E0005B007C30B60043
:105B1000010078007E30B6004A88BF008410E300A0
:105B200003003A004C88BF008610E30045003200B5
:105B30003F48E2002E0032007970EF004A08F8007A
:105B40008010F9004C08F8008210F90004022000CF
:105B50007383800004804100A100200000017800D0
:105B6000B2587800C48380004822DE000524E1009A
:105B70001E0031009E70EF008010F8009810F900B0
:105B80008210F8009A10F90084B02000E4848800A4
:105B9000BE2B0200000000000004E00003003A00F9
:105BA0008890BF00518480007600370079D0BF0014
:105BB0007970EC00748380007C024200040078005D
:105BC000A10020000001780003000900B25878000D
:105BD000050078008030B400060078008290B400A0
:105BE00082B0B700A62D0400000000003F68EF005F
:105BF0008410F8009810F9008610F8009A10F90047
:105C000084B02000E4848800221702000000000015
:105C10000004E00007003A004AA8EF004C28EF001B
:105C20008890BF005184800056003700222E040067
:105C3000000000008410F8004A08F9008610F800FF
:105C40004C08F90024022000738380000480410086
:105C5000A100200000017800B2587800632CE10018
:105C60002B003A0080B020007C10B4008002780045
:105C70008000EB007490BF00F00FB200804A780003
:105C800080B020007C10B40080027800E1824200E5
:105C9000050078008002780000F02F007410B60034
:105CA000000378008003EB000DC0BF00804A78003D
:105CB00080B020007C10B40080027800E2824200B4
:105CC00005007800800278000003EB00B7838000B5
:105CD000F70FB200874A780080B020007C10B40033
:105CE00080027800E382420005007800800278009C
:105CF0000003EB0000F020007610B600800378006F
:105D00000FC0BF00804A7800BA2E040000000000D7
:105D1000240220007383800004804100A100200041
:105D200000017800B2587800622CE10011003A00BE
:105D300080B020007C10B400800278007490BF0016
:105D40008042980080B020007C10B400800278006F
:105D5000E1824200050078008002780000F02F0008
:105D60007410B600000378008003EB000DC0BF0084
:105D7000804A780010C0B3003FE8B7000000200060
:105D8000010020004F047800CF0378004F03780013
:105D9000CF02780000000600851F7800861F78007B
:105DA000871F7800881F78004E70EF005030EF009A
:105DB0005230EF005430EF005630EF005830EF0013
:105DC0005A30EF005C30EF005E30EF006030EF00E3
:105DD0006230EF006430EF006630EF005668EF008D
:105DE000240220004382800004804100A1002000A2
:105DF00000017800B2587800054078000160EF009B
:105E00003080B200030032001080B2001300320074
:105E1000120037004A10F8005010F9004C10F8003A
:105E20005210F9005030D40052B0D6005030D40097
:105E300052B0D6004E70EF0060B0EF00F4FF2000CB
:105E40001483880084FF2F0024838800F4FF20003F
:105E5000348388004A2F0400000000004A10F80034
:105E60005010F9004C10F8005210F9005030D400D6
:105E700052B0D6004E70EF0060B0EF006230EF001D
:105E800084FF2F00248388006630EF004A2F04002F
:105E90000000000044828000660242000400780096
:105EA000A10020000001780003000900B25878002A
:105EB000448280007802420004007800E100200063
:105EC0000001780003000900B25878004300A900DF
